:020000040800F2
:10000000704A00205D02000837260008152200080B
:1000100035260008A9080008E92C000800000000A7
:100020000000000000000000000000009D0100082A
:10003000A50A000800000000F90100085D2800087A
:1000400077020008770200087702000877020008AC
:10005000770200087702000877020008770200089C
:10006000770200087702000877020008770200088C
:10007000770200087702000877020008770200087C
:10008000770200087702000877020008D10800080C
:10009000AD080008B9080008C5080008AF0A000844
:1000A000770200087702000877020008770200084C
:1000B000770200087702000877020008770200083C
:1000C000770200087702000877020008770200082C
:1000D00077020008C52C0008D12C0008DD2C000890
:1000E000A70A0008770200087702000877020008D4
:1000F00077020008770200087702000877020008FC
:1001000077020008770200087702000877020008EB
:1001100077020008DD29000877020008770200084E
:1001200077020008770200087702000877020008CB
:1001300077020008770200087702000877020008BB
:1001400077020008770200087702000877020008AB
:10015000770200087702000877020008770200089B
:10016000770200087702000877020008770200088B
:1001700077020008770200087702000800000000FC
:100180007702000877020008DFF80CD000F068FB67
:1001900000480047B9370008704A00202C4B196806
:1001A0000868B0E8F04F80F30988BFF36F8F4FF015
:1001B000000080F3118870470000000008480068C4
:1001C000006880F308884FF0000080F3148862B65E
:1001D00061B6BFF34F8FBFF36F8F00DF00BF00BF6B
:1001E00008ED00E0DFF80C00016841F470010160E7
:1001F000704700BF88ED00E0EFF30980BFF36F8F19
:10020000134B1A681EF0100F08BF20ED108A20E96A
:10021000F04F106009B44FF0500080F31188BFF325
:100220004F8FBFF36F8F04F029F84FF0000080F379
:10023000118809BC19680868B0E8F04F1EF0100F6B
:1002400008BFB0EC108A80F30988BFF36F8F704746
:1002500054000020EFF305807047000006488047F7
:1002600006480047FEE7FEE7FEE7FEE7FEE7FEE79B
:10027000FEE7FEE7FEE7FEE7052900088901000822
:100280002DE9F05F0546002092469B4688460646CB
:10029000814640241BE0284641464746224600F05E
:1002A0002BF953465A46C01A914110D311461846AD
:1002B000224600F012F92D1A67EB01084F4622463C
:1002C0000120002100F009F917EB00094E41201E22
:1002D000A4F10104DFDC484631462A464346BDE826
:1002E000F09F40EA01039B0703D009E008C9121FF1
:1002F00008C0042AFAD203E011F8013B00F8013BE0
:10030000521EF9D27047D2B201E000F8012B491E0B
:10031000FBD270470022F6E710B513460A460446A2
:100320001946FFF7F0FF204610BD30B505462A46B6
:100330000B4612F8010B13F8014B08B1A042F8D09C
:100340001CB1002802D06D1CF1E7284630BD421CCC
:1003500010F8011B0029FBD1801A704710B500224C
:1003600000E0521C835C8C5CA34201D1002BF8D1CD
:10037000D8B2E1B2401A10BD034611F8012B00F8C3
:10038000012B002AF9D1184670472DE9FE4F81EA6A
:10039000030404F0004421F0004100944FF0000BEE
:1003A00023F0004350EA01045ED052EA03045BD01C
:1003B000C3F30A54C1F30A552C44A4F2F334019454
:1003C000A0FB0254C1F3130141F48011C3F31303E2
:1003D00043F4801301FB024400FB034E840A970A96
:1003E00044EA815447EA8357A4FB076802958D0AC3
:1003F00005FB07854FEA932C04FB0C542705029D4F
:100400004FEA065847EA1637B5EB08056EEB070CBE
:10041000870E920E47EA811742EA8312A7FB020178
:10042000B6EB0B0164EB00042B0D43EA0C335E18B2
:1004300044EB1C50DA465146E7FB0201C5F31304B6
:100440004FEA0B3343EA14534FEA0432019C43EA68
:100450000603A4F10C040294009CCDE900B400F062
:100460006AF803B0BDE8F08F00200146F9E70EB549
:1004700040F2334102910021CDE900110A460B46BA
:1004800000F059F803B000BD00F0004230F0004029
:100490000AD0C10D01F56071C0F3160042EA0151A6
:1004A000C20840071143704700200146704730B52D
:1004B0000B46014600202022012409E021FA02F522
:1004C0009D4205D303FA02F5491B04FA02F52844BC
:1004D000151EA2F10102F1DC30BD202A04DB203A16
:1004E00000FA02F1002070479140C2F1200320FA87
:1004F00003F3194390407047202A04DB203A21FA85
:1005000002F00021704721FA02F3D040C2F120022C
:10051000914008431946704710B5141E73F100044A
:1005200008DA401C41F1000192185B411A4301D1E5
:1005300020F0010010BD2DE9F04D92469B4611B10F
:10054000B1FA81F202E0B0FA80F220329046FFF771
:10055000C4FF04460F4640EA0A0041EA0B01534635
:100560005A46084313D0114653EA010019D0C8F186
:1005700040025046FFF7C0FF05460E46504659461A
:100580004246FFF7AAFF084305D0012004E02046B9
:100590003946BDE8F08D0020054346EAE0762C435D
:1005A00037430A986305E40AA0EB08000022FD0A1D
:1005B00044EA47540A3002D500200146E9E7010524
:1005C00010196941DDE9084500196941BDE8F04DA0
:1005D000A2E72DE9FE4F804681EA0300C00F0C46DA
:1005E000009021F0004123F00045B8EB0200A94142
:1005F00005D24046214690461C460B46024623F053
:100600000040104347D0270DC7F30A00C3F30A5137
:100610000290401A019040286BDAC3F3130040F4B3
:10062000801B0098924620B10023D2EB030A63EBB3
:100630000B0B01985946C0F140025046FFF74DFFA1
:1006400006460D4650465946019A00F01BF910EB3C
:1006500008006141002487EA115284EAE7731A43D3
:1006600040D0009A62B3019A012A4FEA075215DC82
:10067000001B61EB02014FF0004202EA0752CDE994
:100680000042001C41F5801132462B46FFF753FF14
:1006900003B0BDE8F08F40462146F9E7001B61EB4F
:1006A0000201001C41F5801300185B412018A2F5DF
:1006B000001747EB030140EAD570B6196D4111E010
:1006C0006D084FEA360645EAC0754FEA0752001B2F
:1006D00061EB0201001C41F5801149084FEA30002E
:1006E0000019514132462B4603B0BDE8F04FFFF7E9
:1006F00013BF0098012240000023D0EB020263EBFD
:10070000E073009821464FEAE074B8EB000061EB1B
:100710000401E9E783F000435BE781F0004158E71B
:100720002DE9F04D81EA030404F0004B21F000456F
:1007300014464FF0000A23F0004150EA050220D091
:1007400054EA01021DD0C5F30A570246C5F313034C
:10075000C1F31300C1F30A5640F4801543F480132B
:10076000A7EB0608101BD64608F2FD3873EB050010
:1007700002D308F1010801E092185B41B8F1000FC3
:1007800003DA00200146BDE8F08D00204FF480110F
:10079000064684460EE0171B73EB050705D3121BB4
:1007A00063EB050306434CEA010C49084FEA3000AD
:1007B00092185B4150EA0107EDD152EA030012D0D2
:1007C00082EA040083EA0501084305D0101BAB410F
:1007D00006D20122002306E000224FF0004302E08F
:1007E0006FF0010253101AEB06004CEB085110EBAE
:1007F0000A0041EB0B01BDE8F04DFFF78DBEC1F3E0
:100800000A52C1F3130140F2FF3341F480119A42BE
:1008100002DA00200146704740F233439A42A2F2C6
:10082000334202DC5242FFF767BEFFF756BE0000BC
:1008300030B5041E71F1000404DB4FF00044404267
:1008400064EB0101141E73F1000405DB1C464FF03C
:100850000043524263EB0403994208BF904230BD0B
:10086000064C074D06E0E06840F0010394E80700FD
:1008700098471034AC42F6D3FFF78AFC444700088F
:1008800064470008202A06DBCB17203A41FA02F021
:1008900043EAE07306E041FA02F3D040C2F12002DD
:1008A0009140084319467047FEE70000014800F0F8
:1008B000EAB9000070070020014800F0E4B9000028
:1008C00070070020014800F0DEB90000700700202A
:1008D000014800F0D8B90000700700200D4910B59C
:1008E00008220A614FF445720A6041F214324A60EC
:1008F00004228A600022CA600246012301F134000A
:1009000000F0E8F8002804D0BDE8104002A002F092
:10091000EDB910BD3C07002063616E312073656E38
:1009200064206661696C0D0A0000000000B585B0A6
:1009300002200121CDE9000103906946024800F040
:100940004DFC05B000BD0000000C02402DE9F04157
:100950000025154E2C4601270221304600F036FDB9
:100960000028F9D0282002F09BFE0221304600F03A
:100970002DFD01280BD0C4F1070007FA00F08543D4
:10098000641CE4B2082CE7D32846BDE8F0810221BC
:10099000304600F01BFD0128F9D0C4F1070007FA2A
:1009A00000F0C0B20543EBE7000C024030B585B063
:1009B0000446FFF7BBFF394D00220221284600F014
:1009C0000AFD122000F0BEFB01220221284600F0A1
:1009D00002FD1E2002F064FE022000900020019023
:1009E000012002906946284600F0F8FB02212846C3
:1009F00000F0ECFCF0BB0221284600F0E7FC0028E8
:100A0000F9D00221284600F0E1FC0128F9D0FFF7D7
:100A10009DFF2070FFF79AFF6070FFF797FFA070AF
:100A2000FFF794FFE070FFF791FF2071FFF77EFF63
:100A300001220221284600F0CEFC2178627801EBE9
:100A4000C10000EB011002EB800000EE100ADFEDA8
:100A5000140AB8EE400A80EE201A84ED021AA37838
:100A6000E57803EBC30000EB031005EB800000EE1C
:100A7000100A00E00FE0B8EE400A8818591908443F
:100A800080EE201AC0B284ED031A2179814202D18E
:100A9000002005B030BD0120FBE70000000C024043
:100AA0000000C84270474FF4004000F08BBB10B507
:100AB000402000F087FB802000F084FB4FF4807022
:100AC00000F080FBBDE810404FF4007000F07ABBEE
:100AD00072B6FEE7F0B590F820500468A468012DC6
:100AE00005D0022D03D0416A41F4802153E014F077
:100AF000406F01D1E5004BD5C4F30164022C03D94A
:100B0000416A41F4000146E00125A5401D608D6861
:100B10004FF4C0739DB1CE6835434E6845EAC605B3
:100B2000066803EB0417F5514FF4C275076805EB2F
:100B300004150E697E51097D012905D009E00E8852
:100B4000CD6845EA4655EBE701684E5946F4807694
:100B50004E511179D2F805504FF4C67641EA052579
:100B6000016806EB04168D511178D2F801204FF47C
:100B7000C47541EA0221026805EB04155151006871
:100B800003EB0411425842F0010242500020F0BD34
:100B9000416A41F4001141620120F0BD704730B557
:100BA00090F82040012C05D0022C03D0416A41F47A
:100BB00080215DE00468002955D02469A40754D041
:100BC0004FF4D874056804EB01142D5915F0040591
:100BD000956005682D594ED0ED08556005682C5973
:100BE00004F00204D4604FF4DA74056804EB0114D5
:100BF0002D5905F00F05156105682D59C5F3072519
:100C0000956105682C59240C54614FF4DC7204681A
:100C100002EB0112A4581C700468A458240A5C70EA
:100C20000468A458240C9C700468A258120EDA7050
:100C30004FF4DE72046802EB0112A4581C710468C0
:100C4000A458240A5C710468A458240C9C7104689C
:100C5000A258120EDA71006881B1016941F02001D9
:100C60000161002030BDE468A8E7416A41F4001149
:100C70004162012030BD6D0D1560AFE7C16841F0E4
:100C80002001C160EDE72DE9F05F05460068002412
:100C90004669D0F804908768D0F80CB0D0F810A05E
:100CA000D0F81880F10748D0F90714D001218160ED
:100CB000B80703D5284600F0E3F90CE0780702D521
:100CC0004FF4006407E0380702D54FF4805402E087
:100CD000284600F0D4F9F80516D529684FF480703D
:100CE0008860B80503D5284600F0CCF90CE07805FB
:100CF00002D544F4005407E0380502D544F480449A
:100D000002E0284600F0BDF9F80316D529684FF433
:100D100080308860B80303D5284600F0B5F90CE0B0
:100D2000780302D544F4004407E0380302D544F4C4
:100D3000803402E0284600F0A6F9300707D55FEAC4
:100D4000CB6004D52968102044F40074C860700793
:100D50004FF0080707D55FEA0B7004D52868C76015
:100D6000284600F071F9B00706D52868C0688007EA
:100D700002D0284600F06AF9700607D55FEACA601B
:100D800004D52968102044F480640861B00607D5B2
:100D90005FEA0A7004D528680761284600F06CF9FC
:100DA000F00606D528680069800702D0284600F0C2
:100DB00064F9B00308D55FEAC96005D52968102039
:100DC0004860284600F05AF9F00307D55FEA097039
:100DD00004D528684760284600F057F9300446D506
:100DE0005FEA497040D5F00504D55FEAC87001D0CC
:100DF00044F00104B00504D55FEA887001D544F0E1
:100E00000204700504D55FEA487001D544F004047B
:100E1000300529D518F0700F26D008F07000402852
:100E200015D006DC102809D020280AD0302816D189
:100E30000AE050280ED0602811D10EE044F00804DA
:100E40000DE044F010040AE044F0200407E044F010
:100E5000400404E044F0800401E044F48074286815
:100E6000816921F070018161296804204860002CAB
:100E700005D0686A204368622846FFF78FFEBDE808
:100E8000F09F70B5040003D094F8200010B104E086
:100E9000012070BD204600F081F82068016841F013
:100EA0000101016000F09CFA0546052604E000F00F
:100EB00097FA401B0A2811D820684068C007F6D06E
:100EC0002068016821F00201016000F089FA0546FE
:100ED0000BE000F085FA401B0A2806D9606A40F44E
:100EE0000030606284F82060D2E7206840688007A4
:100EF000EFD4207E0128206801683DD021F08001D8
:100F00000160607E01282068016838D021F040012E
:100F10000160A07E01282068016833D021F0200103
:100F20000160E07E0128206801682ED041F01001A8
:100F30000160207F01282068016829D021F0080184
:100F40000160607F01282068016824D021F004013D
:100F50000160D4E902010843D4E9041211430843B3
:100F60006168491E08432168C86100206062012051
:100F700084F82000002070BD41F08001C0E741F0FE
:100F80004001C5E741F02001CAE721F01001CFE799
:100F900041F00801D4E741F00401D9E710B586B06B
:100FA000044614216846FFF7B5F9244920688842B1
:100FB00041D123480021026842F0007202600068BB
:100FC00000F0007005901E481038026842F00102DF
:100FD0000260006800F0010005904FF4C0500090DE
:100FE0000220CDE901010320039009200490694605
:100FF000144800F0F3F800220521132000F062FAF3
:10100000132000F051FA00220521142000F05AFAB2
:10101000142000F049FA00220521152000F052FAB0
:10102000152000F041FA00220521162000F04AFAAE
:10103000162000F039FA06B010BD00000064004030
:1010400040380240000002407047000010B5074AD7
:101050000168914208D1064B064A0021FFF79FFD27
:1010600003490120491E087010BD000000640040C3
:1010700039000020540700207047704770477047C0
:101080007047704770477047704770472DE9F041CF
:101090000446876D00F0A4F9064694F83500002553
:1010A000022806D08020606584F834500120BDE815
:1010B000F0812068016821F0160101602068416913
:1010C00021F080014161206C08B9A06C20B120683A
:1010D000016821F0080101602068016821F0010128
:1010E00001600CE000F07CF9801B052807D9202066
:1010F0006065032084F8350084F83450D7E7206811
:101100000068C007EED194F85C103F208840B860BA
:10111000012084F8350084F834500020C7E790F8A7
:101120003510022903D08021416501207047052137
:1011300080F835100068016821F00101016000208D
:101140007047000070B5044600F04AF90546601C7F
:1011500002D004480078044400F042F9401BA04249
:10116000FAD370BD4400002010B5144B144CB0F5F8
:10117000007F0DD0B0F5807F11D0802817D0402897
:1011800014D101221021184600F025F903200CE0AB
:1011900000220821184600F01EF9002005E0012277
:1011A0000821184600F017F90120206010BD002228
:1011B0001021184600F00FF90220F6E70010024057
:1011C00000000020044910B50A68024202D00860FD
:1011D000FFF7CAFF10BD0000143C01402DE9F84F95
:1011E000DFF8BCA1002201250AF1040B03264FF011
:1011F0000F090BF1040E00BF0B6805FA02F423403F
:10120000A34270D10F7907F00307012F01D0022FFD
:1012100016D187684FEA420806FA08FC27EA0C074D
:10122000D1F80CC00CFA08FC4CEA070CC0F808C056
:101230004768A7430C79C4F3001494403C434460CE
:101240000C79E443A4070AD0C4684FEA420C06FABA
:101250000CF7BC438F6807FA0CF72743C7600C797B
:1012600004F00304022C12D1D40800EB840CDCF847
:1012700020405707FF0E09FA07F824EA0804D1F8BE
:10128000108008FA07F848EA0408CCF820800468BF
:101290004FEA420C06FA0CF7BC430F7907F003073C
:1012A00007FA0CF7274307604C6814F4403F70D0EE
:1012B0003C4C276847F480472760246822F00307E6
:1012C00004F480440094384C07EB040CDCF8084824
:1012D00097074FEA177809FA08F7BC43334FB8422B
:1012E00002D1002724E054E0314FB84201D1012758
:1012F0001EE0304FB84201D1022719E02E4FB8420C
:1013000001D1032714E02D4FB84201D104270FE08B
:101310002B4FB84201D105270AE02A4FB84201D12C
:10132000062705E0284FB84201D1072700E008272B
:1013300007FA08F72743CCF80878DAF80040574650
:10134000D1F804C09C435FEACC3C00D51C433C6010
:10135000DBF800405F46D1F804C09C435FEA8C3C58
:1013600000D51C433C60DEF800407746D1F804C04D
:101370009C435FEACC2C00D51C433C60084F0C37E3
:101380003C68D1F804C09C435FEA8C2C00D51C4318
:101390003C60521C102AFFF42FAFBDE8F88F00000C
:1013A000003C01404438024000300140000002404F
:1013B0000004024000080240000C024000100240FD
:1013C0000014024000180240001C0240006908405E
:1013D00000D0012070470AB1816170470904FBE722
:1013E000014880687047000044000020024881687E
:1013F0000278114481607047440000200B4810B50A
:10140000016841F400710160016841F4806101608C
:10141000016841F480710160032000F073F80F202F
:1014200000F006F800F024F8002010BD003C024057
:1014300070B50D4D04464FF47A712878B1FBF0F089
:101440000A490968B1FBF0F000F00EFB48B9102C16
:1014500007D200222146501E00F034F800206C60B4
:1014600070BD012070BD000044000020500000202D
:101470000C4882B0016841F480410160006800F4CA
:10148000804000900748001F016841F080510160D2
:101490000068002200F0805000900F21901E02B0E2
:1014A00000F010B844380240002809DB00F01F02A9
:1014B000012191404009800000F1E020C0F80011B6
:1014C00070470000F0B40E4B1B680C46C3F30223B8
:1014D000C3F10705042D00D90425191D072901D2E0
:1014E000002300E0DB1E012606FA05F1491E21401B
:1014F00099409E40761E16403143F0BC01F01ABC64
:101500000CED00E0064900F0070208684FF6FF0303
:10151000184040EA0220034A104308607047000068
:101520000CED00E00000FA052DE9F0470E4605003D
:1015300065D0DFF81481D8F80000F7B200F007009A
:10154000B04207D288F80070D8F8000000F0070019
:10155000B04254D128683D4C810712D5400703D5CD
:10156000206840F4E05020602878000703D5206808
:1015700040F4604020602068A96820F0F000084333
:1015800020602878C0072DD03049686808390128C4
:1015900012D0022813D0032811D009688907002926
:1015A0002DDA216821F0030101432160FFF718FFC4
:1015B000814641F2883A0EE009688903EFE709683D
:1015C0008901ECE7FFF70CFFA0EB0901514502D9B7
:1015D0000320BDE8F0872068696800F00C00B0EBDC
:1015E000810FEFD1D8F80010404601F00701B14259
:1015F00007D90770006800F00700B04201D0012051
:10160000E7E72878400705D52068E96820F4E0502E
:10161000084320602878000706D52068296920F44F
:10162000604040EAC100206000F038F82168084AB4
:10163000C1F30311515CC8400649086006480068C0
:10164000FFF7F6FE0020C4E7003C024008380240E5
:1016500014470008500000204800002004480549B5
:1016600000680968044AC1F38221515CC840704790
:10167000500000200838024024470008044805496B
:1016800000680968044AC1F34231515CC8407047A0
:10169000500000200838024024470008154810B5C3
:1016A000006810F00C02144813D04110042A0FD027
:1016B000082A0ED10F4C241F2268236802F03F0233
:1016C0005B0207D52068C0F38810A0FB010106E08B
:1016D000084610BD2168C1F38811A1FB0001002359
:1016E000FEF7CEFD2168C1F30141491C4900B0FB62
:1016F000F1F010BD083802400024F4002DE9F84F45
:1017000004006ED02078DFF84C93C007A9F10405DF
:101710004AD009F104000168C1F38101012908D010
:101720000068C0F3810002280AD1D9F80000400205
:1017300006D52868800337D560680028E1D033E0FB
:101740006068B0F5803F10D0B0F5A02F286810D0A9
:1017500020F480302860286820F4802028606068A9
:10176000A8B1FFF73DFE06460DE0286840F4803042
:10177000F4E740F480202860F7E700BFFFF730FE71
:10178000801B642873D828688003F7D50CE0FFF726
:1017900027FE064605E000BFFFF722FE801B6428F7
:1017A000F0D828688003F7D42078DFF8AC8280076F
:1017B0004FF0000A3ED5A748001D016811F00C0F3C
:1017C00008D00068C0F3810002280BD1D9F80000CE
:1017D000400207D42868800716D5E068012800D1A8
:1017E00012E033E1E068B8B10120C8F80000FFF76B
:1017F000F7FD064605E000BFFFF7F2FD801B02285B
:10180000C0D828688007F7D52868216920F0F8003B
:1018100040EAC10028600DE0C8F800A0FFF7E0FD35
:10182000064604E0FFF7DCFD801B02281FD828686D
:101830008007F7D42078000722D5864F8748616952
:10184000703771B101210160FFF7CAFD064604E05F
:10185000FFF7C6FD801B022809D838688007F7D536
:101860000EE0C0F800A0FFF7BBFD064605E082E0F1
:10187000FFF7B6FD801B02287DD838688007F7D4B3
:101880002078400768D5DFF8CCB100270BF13C0B7E
:10189000DBF80000C0000BD4DBF8001041F08051F1
:1018A000CBF80010DBF80000012700F0805000901A
:1018B0006B4E3068C00510D4306840F480703060E2
:1018C000FFF78EFD009005E0FFF78AFD0099401AB2
:1018D000022850D83068C005F6D55E4EA0686C3638
:1018E00001280FD00528306810D020F001003060AA
:1018F000306820F004003060A068B8B1FFF770FDD8
:1019000000900FE0306840F00100F4E740F0040080
:101910003060F7E7FFF764FD0099411A41F2883023
:10192000814266D830688007F4D50EE0FFF758FD95
:10193000009007E0FFF754FD0099411A41F288300A
:10194000814256D830688007F4D42FB1DBF80010FC
:1019500021F08051CBF80010A069C8B33D49091DA2
:101960000968C1F3810102294AD00228504607D0F4
:10197000C8F8600000E03CE0FFF732FD04463BE0C1
:101980004746C8F86000FFF72BFD064605E000BF9C
:10199000FFF726FD801B02282BD828688001F7D48A
:1019A000D4E907010843A16A2E4A490802EB014124
:1019B000626A41EA8211084394F82C1040EA0161FE
:1019C000C9F8001001203866FFF70AFD044606E05A
:1019D0003EE000BFFFF704FD001B022809D828687D
:1019E0008001F7D534E000BFFFF7FAFC001B0228A6
:1019F00002D90320BDE8F88F28688001F4D427E0DD
:101A00000128F7D0D9F80000E26900F48001914282
:101A10001CD1226A00F03F01914217D147F6C071F4
:101A2000626A0140B1EB821F10D1A26A4FF0FF330E
:101A300000F4403103EB5202B1EB024F06D194F8AF
:101A40002C1000F07060B0EB016F01D00120D1E7E5
:101A50000020CFE70438024000004742800E474292
:101A6000007000400000FFFF10B5401EB0F1807F05
:101A700001D3012010BD4FF0E02460610F216017F9
:101A800001F058F90020A06107202061002010BD5E
:101A900070B590F83C20012A32D0012480F83C40F7
:101AA000022280F83D2003685A689D6822F0700683
:101AB0000A6832435A60134B02689A4214D0B2F15A
:101AC000804F11D0104B9A420ED0104B9A420BD03F
:101AD0000F4B9A4208D00F4B9A4205D00E4B9A42B8
:101AE00002D00E4B9A4204D1496825F08003194375
:101AF000916080F83D40002180F83C10084670BDA0
:101B0000022070BD000001400004004000080040B9
:101B1000000C00400004014000400140001800405B
:101B200010B5040003D094F83D0010B107E0012087
:101B300010BD002084F83C00204600F01FF8022071
:101B400084F83D00211D206800F0E4FE012084F8A7
:101B5000460084F83E0084F83F0084F8400084F892
:101B6000410084F8420084F8430084F8440084F87B
:101B7000450084F83D00002010BD000008B50C4A67
:101B800001680C48914207D1016841F010010160E1
:101B9000006800F0100009E0074A914207D101688F
:101BA00041F020010160006800F02000009008BDB5
:101BB00000100040403802400014004090F83D10F2
:101BC000012901D001207047022180F83D100068F2
:101BD0001149884214D0B0F1804F11D00F4988428A
:101BE0000ED00F4988420BD00E49884208D00E49CA
:101BF000884205D00D49884202D00D49884204D15F
:101C0000816801F00701062903D0016841F0010154
:101C10000160002070470000000001400004004007
:101C200000080040000C004000040140004001405A
:101C30000018004001680A6A41F211131A4207D1E4
:101C40000A6A9B101A4203D10A6822F001020A6054
:101C5000012180F83D100020704770477047000058
:101C6000F8B5016804460868CA684B6910F00F0FA0
:101C70004FF0000559D003F0010602F49077374386
:101C800065D0C10705D0D10503D5216C41F0010114
:101C90002164410705D5D90703D0216C41F0020129
:101CA0002164810705D5D90703D0216C41F00401D7
:101CB0002164010707D502F02001314303D0216CD4
:101CC00041F008012164216C00293AD0800604D536
:101CD000900602D5204600F0B6FE20684069216CCF
:101CE000C0F38010090700D460B3204600F084FEE2
:101CF00020684069400621D52068143050E8001F54
:101D000021F0400140E80012002AF5D1A06BA8B1F3
:101D10006C490165A06BFFF702FA002811D0A06B97
:101D2000016D01B0BDE8F040084783060FD593066A
:101D30000DD52046BDE8F84000F085BE2046FFF7EF
:101D40008DFFF8BD2046FFF789FF2564F8BD266B9F
:101D50002023012E79D1C60677D5D60675D5086819
:101D6000486800904869400640D5A16B0868406803
:101D70000004000CEAD0A28D8242E7D9E085C86950
:101D8000B0F5807F2DD020680C3050E8001F21F482
:101D9000807140E80012002AF5D12068143050E824
:101DA000001F21F0010140E80012002AF5D120684F
:101DB000143050E8001F21F0400140E80012002AD2
:101DC000F5D184F83E30256320680C3050E8001FC0
:101DD00021F0100140E80012002AF5D1A06BFFF7B6
:101DE00055F9A08DE18D401A81B229E0A08DE18DD9
:101DF000401A81B2E08D0028A8D00029A6D0206822
:101E00000C3050E8002F22F4907240E80026002E9B
:101E1000F5D12068143050E8002F22F0010240E88C
:101E20000026002EF5D184F83E30256320680C3062
:101E300050E8002F22F0100240E80023002BF5D1DB
:101E40002046FFF70AFFF8BDFFE705062BD515066C
:101E500029D594F83D002128F5D1A068B0F5805F20
:101E600001D12069B0B1206A411C2162216800784B
:101E70004860E08C401E0004000CE084E3D1206840
:101E8000C16821F08001C1602068C16841F0400153
:101E9000C160D8E7206A0088C0F308004860206A63
:101EA000801C2062E5E74006CDD55006CBD5CA6838
:101EB000204622F04002CA6084F83D3000F0A9F9C3
:101EC000C1E70000E929000870B5040004D094F8C7
:101ED0003D00002510B106E0012070BD84F83C50A3
:101EE000204600F023F8242084F83D002068C168D3
:101EF00021F40051C160204600F006FE206801690F
:101F000021F4904101612068416921F02A01416179
:101F10002068C16841F40051C1602564202084F824
:101F20003D0084F83E00002070BD00002DE9F04720
:101F300086B0044614216846FEF7ECF96C486B4BFA
:101F4000276800226A491038022403250826DFF892
:101F5000A4A19F4231D10A6842F480120A60096844
:101F600001F480110591016841F0040101600168EC
:101F700001F004010591016841F008010160006869
:101F8000012700F00800059098148DE89100CDE934
:101F9000035669465046FFF721F904208DE8910069
:101FA000CDE9035669465448FFF718F90022052188
:101FB0003520FFF787FA35202AE04D4BDFF83C81CA
:101FC0001B1DDFF83C914FF0070C474525D11968E0
:101FD00041F010011960196801F0100105910168C4
:101FE00041F001010160006802AE00F001000590BF
:101FF0004FF4C060CDE9000486E8241069464846E5
:10200000FFF7ECF8002205212520FFF75BFA2520D9
:10201000FFF74AFA06B0BDE8F087DFF8E8804745E9
:1020200020D10B6843F400330B60096801F40031E0
:102030000591016841F001010160006802AB00F008
:10204000010005900C20CDE9000483E824106946C6
:102050004846FFF7C3F8002205212620FFF732FA91
:102060002620D5E7DFF8A080474521D10B6843F44F
:1020700080230B60096801F480210591016841F01B
:1020800002010160006802AB00F0020005904FF40D
:102090004060CDE9000483E8241069461B48FFF73F
:1020A0009DF8002205212720FFF70CFA2720AFE733
:1020B00017498F42AED1196841F0200119601968A3
:1020C00001F020010591016841F004010160006800
:1020D00002AF00F004000590C020CDE9000487E8BD
:1020E000640069465046FFF779F893E700500040D6
:1020F0004038024000080240000C0240001001403D
:10210000000002400044004000480040000402403B
:102110000014014090F83E30202B0ED159B152B13D
:1021200090F83C30012B08D0012380F83C3000238C
:10213000036300F06FBD012070470220704700006C
:1021400000680549884201D101F082BA03498842FA
:1021500001D101F011BE704700480040004400402A
:102160002DE9F843044690F83D001F4616460D46FB
:1021700020284CD1C5B1BEB194F83C00012846D00E
:10218000012084F83C004FF00008C4F84080212072
:1021900084F83D00FFF724F9A6848146E684A06810
:1021A000B0F5805F03D004E00120BDE8F88320692A
:1021B00028B12E465FF0000584F83C800EE0002632
:1021C000FAE78021204600F040FDA0B9AEB116F834
:1021D000010B21684860E08C401EE084E08C4B4697
:1021E0004FF0000200970028EBD14FF0400120464D
:1021F00000F02BFD30B10320D7E735F8020BC0F318
:102200000800E6E7202084F83D000020CDE702200A
:10221000CBE77047FEE7000070B50122164C96032D
:10222000002531462046FFF7D6F80A2001F038FA9B
:10223000002231462046FFF7CEF876003146204690
:10224000FFF7C4F80028F9D003E00A2001F028FACB
:102250006D1C31462046FFF7B9F80128F5D0680813
:10226000FEF705F99FED051B53EC112BFEF78DF8DA
:1022700041EC100B70BD0000000C0240C3F5285C5F
:102280008FC2D53F104810B50E490160042141604E
:1022900000214FF08072C0E902124FF41022026157
:1022A0004FF480024261017641768176C1760177F2
:1022B0004177FEF7E6FD002803D0BDE81040FEF7A9
:1022C00007BC10BD006400407007002010B58EB040
:1022D0001C220B496846FEF704F80021684601F00D
:1022E000ABFA084C06491C2220601C3107A8FDF7F8
:1022F000F8FF002107A801F09FFA60600EB010BD42
:10230000DC460008200000202DE9F04786B01421AB
:102310006846FDF7FFFF5A480024016841F01001AC
:102320000160016801F010010591016841F0200190
:102330000160016801F020010591016841F0800110
:102340000160016801F080010591016841F001011F
:102350000160016801F001010591016841F002018D
:102360000160016801F002010591016841F0080176
:102370000160016801F008010591016841F0400128
:102380000160016801F040010591016841F004011C
:10239000016000683B4F00F0040005900122182105
:1023A0003846FFF718F8DFF8E0804FF48046002247
:1023B00031464046FFF70FF8DFF8D0900022314653
:1023C0004846FFF708F8DFF8C8A00022C0215046B1
:1023D000FFF701F8012202214846FEF7FCFF012227
:1023E00051025046FEF7F7FF182000900125CDE975
:1023F0000154694638460394FEF7F0FE4FF47070BE
:1024000000903801CDE9010569464046FEF7E6FE39
:102410000096CDE90154694640460394FEF7DEFE7E
:10242000B01C0090CDE90154694648460394FEF77C
:10243000D5FEE80300904FF48810CDE90104694609
:102440004846FEF7CBFE4FF430700090CDE90154C2
:10245000694650460394FEF7C1FE0022052117206D
:10246000FFF730F81720FFF71FF80022052128207A
:10247000FFF728F82820FFF717F806B0BDE8F08727
:10248000303802400010024000140240000C0240AC
:10249000001802401CB500240E4800940C49019419
:1024A00001603F21C0E901144FF6FF718461C160F2
:1024B000FFF736FB08B1FEF70BFB009469460548B1
:1024C0000194FFF7E5FA002801D0FEF701FB1CBDDF
:1024D00000100040980700201CB500240E4800940E
:1024E0000C49019401603F21C0E901144FF6FF71CE
:1024F0008461C160FFF714FB08B1FEF7E9FA0094AC
:10250000694605480194FFF7C3FA002801D0FEF799
:10251000DFFA1CBD00140040E00700200C4810B595
:102520000A4901604FF4E1314160002181600C22D1
:10253000C160C0E904128161C161FFF7C5FC0028D8
:1025400003D0BDE81040FEF7C3BA10BD00500040F4
:10255000280800200C4810B50A4901604FF4E13109
:102560004160002181600C22C160C0E904128161D8
:10257000C161FFF7A9FC002803D0BDE81040FEF7B9
:10258000A7BA10BD001001406C0800200C4810B51F
:102590000A4901604FF416514160002181600C220C
:1025A000C160C0E904128161C161FFF78DFC0028A0
:1025B00003D0BDE81040FEF78BBA10BD00440040C8
:1025C000B00800200C4810B50A4901604FF41651BC
:1025D0004160002181600C22C160C0E90412816168
:1025E000C161FFF771FC002803D0BDE81040FEF781
:1025F0006FBA10BD00480040F40800200C4810B528
:102600000A4901604FF4E1314160002181600C22F0
:10261000C160C0E904128161C161FFF755FC002867
:1026200003D0BDE81040FEF753BA10BD00140140BE
:1026300038090020FEE7FEE71CB501F0ADF8144CA8
:102640004FF4FA67384601F0EBF81148FEF7AEF99F
:102650000028F7D1E068FDF717FF05460E46A06891
:10266000FDF712FF41EC100B0948CDE9005653EC81
:10267000102B08A1C03800F049FB054908A0C0395B
:1026800000F034FB02480521C03801F0AFFBD9E768
:10269000D8040020252E30662C252E31660000003F
:1026A0002573000008B54C4C206801F009F901F0D1
:1026B00073F84A4EDFF828914A4F4FF400784FF4F0
:1026C000FA75284601F0ACF8306820B1012805D031
:1026D00002280FD105E0206801F0D8F8206801F049
:1026E000EFF8FFF799FD84ED020B53EC102B3EA0A1
:1026F00000F0FCFA404941A000F0F8FA3E4947A03A
:10270000FDF72CFE78B13C4946A0FDF727FE60B1ED
:10271000394946A0FDF722FE50B1374945A0FDF7E3
:102720001DFE38B10EE0002200E00122414603E028
:10273000012200E0002280214846FEF74CFE2E4890
:10274000FEF7CCF82448103000F0E0FF012824D137
:10275000214832A11030FDF701FE90B11E4831A191
:102760001030FDF7FBFD70B11B4830A11030FDF7B4
:10277000F5FD58B118482FA11030FDF7EFFD38B125
:102780000BE0002200E00122414603E0012200E0CC
:10279000002280214846FEF71EFE0F4927A0103177
:1027A00000F0A4FA0F4800F0C1FF009794ED020B6F
:1027B0000C4853EC102B25A1203800F0A7FA09484B
:1027C000203800F035FF074912A0203900F08EFABA
:1027D000284601F025F874E72000002000000020C2
:1027E00000180240B8040020BEE0C0EBCAC7A3BA7C
:1027F000256C660D0A00000024020020626C7574CE
:102800006F6F7468BDD3CAD5B5BDB5C4CAFDBEDD92
:10281000CEAAA3BA25730D0A000000004F4C454410
:1028200000000000434C4544000000004F42454575
:102830005000000043424545500000006D65737331
:10284000616765206973202573000000232C312CFB
:10285000252E31662C25732C2400000010B5FEF7C0
:10286000C5FD01F021FE012803D0BDE8104001F0B4
:10287000ADBD10BD30B593B030216846FDF74AFDBF
:1028800014210CA8FDF746FD1C480025016841F005
:1028900080510160006800F0805011901848016874
:1028A00041F4804101600068022400F480401190EE
:1028B00001200090000401908001CDE9064008AAA3
:1028C0000420402182E813000B906846FEF716FFB3
:1028D00008B172B6FEE70CA90F2081E831004FF471
:1028E0008050CDE90F0502210CA8FEF71DFE00283F
:1028F00001D072B6FEE713B030BD00004038024090
:10290000007000400248016841F4700101607047A6
:1029100088ED00E0F0B50268254C264D264E274F85
:10292000274B4FF0804CA04209D0604507D0A84209
:1029300005D0B04203D0B84201D0984204D122F071
:10294000700E4A6842EA0E02A0421BD0604519D0C0
:10295000A84217D0B04215D0B84213D0984211D037
:10296000184DA8420ED0184DA8420BD0174DA842C2
:1029700008D0174DA84205D0164DA84202D0164DDA
:10298000A84203D122F44075CA682A434D6922F057
:1029900080022A4302608A68C2620A688262A04298
:1029A00001D0984201D10969016301214161F0BD63
:1029B000000001400004004000080040000C0040FE
:1029C0000004014000400140004401400048014033
:1029D00000180040001C0040002000400148FFF7A4
:1029E0003FB900002808002010B5806B0021C18588
:1029F000C184FFF733F910BD01680C3151E8002F95
:102A000022F4907241E80023002BF5D101681431C3
:102A100051E8002F22F0010241E80023002BF5D1FC
:102A2000016B012909D101680C3151E8002F22F016
:102A3000100241E80023002BF5D1202180F83E1040
:102A400000210163704708B590F83E10222901D09B
:102A5000022008BD82684FF480539A4201D1016977
:102A600021B1816A9A421BD04AB10AE00268816AA8
:102A70005268C2F308020A80816A891C08E0026970
:102A800072B10268526802F07F020A70816A491CC2
:102A90008162C18D491E0904090CC18503D019E06A
:102AA00002685268F1E70168CA6822F02002CA6031
:102AB0000168CA6822F48072CA6001684A6922F01B
:102AC00001024A61202180F83E10016B012903D0E8
:102AD000FFF736FB002008BD0021016301680C31BF
:102AE00051E8002F22F0100241E80023002BF5D11D
:102AF00001680A68D20602D50A6849680091818D8A
:102B0000FFF7ABF8E6E7000070B50446006801691E
:102B1000E26821F44051114301612169A068E26932
:102B200008436169114308432168CA6849F20C638C
:102B30009A430243CA6020684169A26921F4407146
:102B40001143416131492068884202D030498842AE
:102B500002D1FEF793FD01E0FEF780FDE26900235C
:102B6000192164253226B2F5004F626828D0A0FBF7
:102B70000101930F9200FDF783FB0146B0FBF5F0D6
:102B80006FF01802504301EB800006EB0010B0FB21
:102B9000F5F000F0F002B1FBF5F002EB0012B1FB32
:102BA000F5F06FF01803584301EB800006EB0010BE
:102BB000B0FBF5F000F00F0021681044886070BD94
:102BC000A0FB010192185B41FDF75AFB0146B0FBE7
:102BD000F5F00201B1FBF5F06FF01803584301EB7B
:102BE000800006EBC000B0FBF5F000F0F80002EB4F
:102BF0004002B1FBF5F0584301EB800006EBC0004A
:102C0000B0FBF5F000F00700D6E70000001001402F
:102C10000014014081628285C28500210164222264
:102C200080F83E2080F83C100168CA6842F4807247
:102C3000CA6001684A6942F001024A610068C168DD
:102C400041F02001C160002070472DE9F041984615
:102C500017460E460446069D27E0681C25D02DB178
:102C6000FEF7BEFBA0EB0800A8421ED920680C307E
:102C700050E8001F21F4D07140E80012002AF5D17D
:102C80002068143050E8001F21F0010140E80012D4
:102C9000002AF5D1202084F83D0084F83E00002071
:102CA00084F83C000320BDE8F0812068006836EA23
:102CB000000004D00020B842CFD00020F3E701206C
:102CC000F9E700000148FEF7CBBF00006C080020C8
:102CD0000148FEF7C5BF0000B00800200148FEF71C
:102CE000BFBF0000F4080020FEE700000FB4054B52
:102CF00010B503A9044A029800F0FEF810BC5DF874
:102D000014FB0000D1360008BC0000200FB4084BB3
:102D100010B504A902AA039800F0EEF8044602A92F
:102D2000002000F080FC204610BC5DF814FB000081
:102D3000273600080907090E002804DB00F1E0200F
:102D400080F80014704700F00F0000F1E02080F8D8
:102D5000141D704702E008C8121F08C1002AFAD1EA
:102D600070477047002001E001C1121F002AFBD10B
:102D7000704700002DE9FF5F82B00021DDE90430DB
:102D8000020DDDF840B0034318D044F61050A2F213
:102D9000FF3242431514119801281FD0A5EB0B00F8
:102DA000401C5FEA000A4FF000064E4FDFF83891F2
:102DB000B046504615D5CAF1000413E0119801241D
:102DC0004AA3012801D16FEA0B010298119AC0E9C8
:102DD0000031C0E9024206B0BDE8F09FCBF100002F
:102DE000DFE704460021404A491842EB0450CDE990
:102DF000001012E0E00707D032463B464046494605
:102E0000FDF7C3FA8046894632463B4610461946CE
:102E1000FDF7BBFA06460F466410002CEAD1DDE947
:102E20000401DDE90023BAF1000F06DAFDF7ADFA7F
:102E300042464B46FDF7A9FA05E0FDF771FC424614
:102E40004B46FDF76DFC04460E460022284BFDF76D
:102E5000EFFC03D84FF0FF30014607E00022254B7E
:102E600020463146FDF7B5FBFDF7C9FC102409E00B
:102E7000002C0ADB0A220023FDF702FA039B303202
:102E80001A55641E50EA0102F2D1641C039AC4F17F
:102E900011031444119A012A03D0012208430DD1D1
:102EA0000AE0084304D000204FF0110B119072E7A4
:102EB000A3EB0B056D1E0DE05B4504DD4FF000023A
:102EC00005F1010504E003DA4FF00002A5F1010568
:102ED000002AECD002981199C0E90231C0E90045FE
:102EE00079E70000000014400000F03F30000000CF
:102EF0000000F0430000E03F2DE9FF4F95B09B46F6
:102F00008946064600250FE2252877D1002427466A
:102F1000F84A0121059400E0044316F8013F203BE4
:102F200001FA03F01042F7D130782A2811D06FF05F
:102F30002F033078A0F13002092A16D8059A44F000
:102F4000020402EB820203EB42021044761C05905D
:102F5000EFE759F8042B0592002A03DA504244F4B3
:102F60000054059044F00204761C30782E2816D1C7
:102F700016F8010F44F004042A280DD06FF02F0238
:102F80003078A0F13003092B09D807EB870302EB57
:102F90004303C718761CF3E759F8047B761C307896
:102FA0006C280FD006DC4C2817D068280DD06A2872
:102FB00014D104E0742810D07A280FD10DE044F425
:102FC00000140AE044F4801401E044F440147278E0
:102FD000824202D104F58014761C761C3078662873
:102FE0000BD013DC582877D009DC002875D0452891
:102FF000F6D04628F4D047281AD19DE118E063287E
:1030000035D0642879D0652812D195E1702873D025
:1030100008DC6728F1D069286FD06E280DD06F28A2
:1030200006D1B5E073282CD0752875D0782874D0D7
:103030005A46179990476D1C75E1C4F30250022857
:1030400009D003280DD0D9F8001004280DD00D6048
:1030500009F1040967E1D9F80010EA17C1E9005243
:10306000F6E7D9F800100D80F2E70D70F0E719F8D7
:10307000041B8DF8001000208DF80100EA460120A5
:1030800003E059F804AB4FF0FF3061074FF0000147
:1030900002D40DE008F101018846B9420FDA8045FB
:1030A000F8DB1AF808100029F4D108E008F1010152
:1030B00088468142FADB1AF808100029F6D10598F3
:1030C0005B46A0EB080721463846179A00F094FAB1
:1030D000284400EB080507E04DE029E10DE01AF86F
:1030E000010B5A4617999047B8F10108F7D25B4691
:1030F00021463846179A13E142E00A220092C4F3AF
:1031000002524FF0000A022A08D059F804CB032AD1
:103110004FEAEC710AD00DE029E02AE009F107013D
:1031200021F00702F2E802C1914609E00FFA8CFC97
:103130004FEAEC71042A03D14FFA8CFC4FEAEC7190
:10314000002907DA0A460021DCF1000C61EB0201DC
:103150002D2202E0220504D52B228DF80420012225
:1031600003E0E20701D02022F7E7904659E00A2168
:1031700002E010220DE010214FF0000A00910BE058
:1031800010224FF0000A44F004040827009203E0E4
:1031900008224FF0000A0092C4F30252022A05D01E
:1031A00059F804CB0021032A08D009E009F10701EE
:1031B00021F00702F2E802C1914605E01FFA8CFCFB
:1031C000042A01D10CF0FF0C4FF00008220728D58B
:1031D000702806D0009B83F0100353EA0A0305D041
:1031E0000EE040228DF80420012208E05CEA010292
:1031F00006D030228DF804208DF80500022290467A
:10320000009B83F0080353EA0A030AD15CEA010237
:1032100001D1620705D530228DF804204FF0010856
:103220007F1E582804D034A003900EA802900DE011
:1032300036A0F9E753466046009AFDF721F8844628
:103240000398825C0298401E029002705CEA0100C2
:10325000F0D1029806A9081A00F1200A600702D5E9
:1032600024F4803400E00127574502DDA7EB0A0073
:1032700000E0002000EB0A01009005984144401A4C
:103280000590E00306D45B462146179A059800F0A6
:10329000B3F90544002706E001A85A46C05D179916
:1032A00090476D1C7F1C4745F6DBE0030CD55B4661
:1032B0002146179A059800F09FF9054404E0302054
:1032C0005A46179990476D1C0099481E0090002996
:1032D000F5DC08E0029802995A460078491C0291F0
:1032E000179990476D1CBAF10001AAF1010AF1DCAF
:1032F00065E10000092801003031323334353637BA
:103300003839616263646566000000003031323331
:1033100034353637383941424344454600000000D1
:1033200000F058F90544761C307800287FF4ECADA5
:1033300019B02846BDE8F08F620700D4062709F1CE
:10334000070222F0070CFCE80223E14603F00048E4
:103350005FEA080C02D00FF2702C0DE05FEA045C0B
:1033600002D50FF2682C07E05FEAC47C02D00FF2AE
:10337000602C01E0AFF2700C4FF0FF3823F00043F7
:10338000CDF850C065280CD006DC452809D0462869
:103390001DD047283DD13DE0662818D067287ED152
:1033A00038E00021112F01DB112000E0781CCDE96D
:1033B000000106A90EA8FFF7DDFCDDE90F010E9A5A
:1033C00003910021009207F1010A04914DE04FF0B2
:1033D00000400097CDE9011006A90EA8FFF7CAFC2E
:1033E000DDE90F0203920E9B11990022DDF80CA07B
:1033F0000093049211B9791C00EB010AB7EB0A00A3
:1034000004D4C0F1FF3007F1010A0490AAEB0700D1
:10341000019044E0012F00DA01270021112F01DD86
:10342000112000E03846CDE9000106A90EA8FFF7FB
:10343000A1FCDDE90F010E9A039100210491009295
:10344000BA4621070CD40399514500DA8A46BAF1ED
:10345000010F05DD009AAAF10101515C302908D065
:10346000B84202DA10F1040F06DA0121CDE90110A9
:1034700015E0AAF10101E9E7002805DC04990144FF
:103480000491AAEB000102E0411C514500DD8A468F
:103490000499401A401C01904FF000400290200710
:1034A00004D40198504501DBCDF8048000208DF84C
:1034B0004F0002980DF14F07B0F1004F25D02B209F
:1034C0000E9002984FF0020800280CDA4042029059
:1034D0002D200E9007E00A210298FCF7E8FF30311A
:1034E000029007F8011DB8F10001A8F10108F2DC13
:1034F00002980028EFD1791E0E980870307800F0FD
:10350000200040F0450007F8020D12A8C01B00F192
:1035100007081498007800B1012000EB0A01019817
:1035200001EBE07105984144401A401E0590E0030C
:1035300006D45B462146179A059800F05DF80544CD
:103540001498007818B15A46179990476D1CE003FB
:1035500024D55B462146179A059800F04DF805449E
:103560001CE00498002807DBDDE90301884203DD45
:103570000098405C179901E0179930205A4690470F
:10358000049805F10105401C04900198401E01902B
:1035900004D12E205A46179990476D1CBAF10001AC
:1035A000AAF1010ADDDC05E017F8010B5A4617996C
:1035B00090476D1CB8F10001A8F10108F4DC5B46EE
:1035C0002146179A0598ABE62D0000002B0000005D
:1035D000200000002DE9F041044600251E46174654
:1035E000880404D405E039462020B0476D1C641ED1
:1035F000F9D52846BDE8F0812DE9F04104460025C3
:103600001E469046C80301D5302700E020278804D5
:1036100004D505E041463846B0476D1C641EF9D517
:103620002846BDE8F0810A68531C0B601070704793
:1036300010B50446FCF78BFE214682B2BDE810406F
:103640004FF47A730148FEF78BBD0000F4080020A8
:10365000104810B50278232A12D0242A18D04178B5
:103660004B1E7F2B05D20C4B0B44491C03F8012C3D
:103670004170BDE81040012206490848FEF74ABDE6
:10368000012141704FF4FA710348FCF743FEF0E763
:103690000021EDE71000002024020020F4080020A3
:1036A00070B54FF6FA75281A84B20848FEF786FA04
:1036B000064801684C62006801E0416A8CB2AC4285
:1036C000FBD3BDE870400148FEF7B4BA980700206C
:1036D00038B504468DF800000223012269460948E6
:1036E000FEF73EFD0223012269460748FEF738FD3A
:1036F00005480223012269464430FEF731FD204689
:1037000038BD0000380900202808002010B5064CFC
:10371000217831B1611CFCF72FFE002020700120C0
:1037200010BD002010BD00003800002070B5064616
:10373000002400F025F8A8B90B4DA868012811D184
:103740000AA10E48FCF7F1FD20B90C493046FCF700
:1037500013FE012400F0FEFA00200146A86003A039
:1037600000F044FB204670BD04000020636C6963D8
:10377000656E745F7265636569766500C0000020E0
:1037800040210148FDF722BE00180240EFF30580FA
:10379000002800D00120704710B5002000F070FB19
:1037A000BDE81040012202490248FEF7B3BC000008
:1037B00005000020B0080020FDF720FEFFF75AF8B2
:1037C000FEF7A2FDFEF75EFDFEF764FEFEF716FFB4
:1037D000FEF7DCFEFEF7F6FEFEF7A0FEFEF77CFE2F
:1037E000FEF7B8FE012207490748FEF793FC0122C5
:1037F00006490748FEF78EFCFEF768FD00F017F853
:10380000FEE7000005000020B008002010000020A6
:10381000F408002001460020842900D0C81C70470D
:1038200010B500B9012000F029FC002010BD10B532
:1038300000F088FC002010BD7FB50D4604464169AC
:10384000B0F9080081B1A16971B1FFF7E3FFD4E9D4
:1038500005128DE80700D4E900102B46226900F01C
:10386000F8FD039004B070BDFFF7D4FF03A9CDE9C4
:103870000001208A2B4682B2D4E9001000F0BCFD82
:10388000012801D00020EDE70398EBE710B50446CE
:10389000FFF77CFF002820460BD000F0DBFE01285C
:1038A00009D1064900070860BFF34F8FBFF36F8F40
:1038B00001E000F009FC002010BD000004ED00E074
:1038C00010B500F075FC002010BD00002DE9F0419E
:1038D000184C0F460546E6682068001D00F0DCFA2B
:1038E00038B9206890F82C10012088402169814364
:1038F0002161681C07D137B12168BDE8F0410E484D
:10390000091D00F00DBB20683544B54245602168B3
:1039100005D2A06BBDE8F041091D00F0E9BA606B6B
:10392000091D00F0E5FAA06A854200D2A562BDE853
:10393000F081000054000020580A00202DE9F041D9
:10394000054600F0F9FA2E4CA068401CA0602068E3
:103950002C4F10B1606940B32DE02560A0680128AC
:1039600029D1002606EB860007EB800000F0B2FAB2
:10397000761C072EF6D323488C3000F0ABFA214892
:10398000A03000F0A7FA1F48B43000F0A3FA1D4899
:10399000C83000F09FFA1B48DC3000F09BFA194851
:1039A0008C3060631430A06305E02068E96AC06A67
:1039B000884200D82560606A401C6062E96A012084
:1039C000226988401043206101EB810007EB8000F1
:1039D000291D00F0A5FA00F0CFFA606900280CD08C
:1039E0002068E96AC06A884207D207494FF08050D0
:1039F0000860BFF34F8FBFF36F8FBDE8F081000009
:103A0000540000207C09002004ED00E010B50446BD
:103A100090F8510058B101280CD002280FD0502046
:103A200080F31188BFF34F8FBFF36F8FFEE7206BDA
:103A300000F0B6FA2046BDE8104000F0B1BA10BD63
:103A400010484FF47051420706D0C01D0D4920F0B8
:103A50000700411AC1F570510B4A00230144C2E925
:103A600000030839183A21F0070111604B600B6020
:103A70000B1AC0E9001393604FF00040536050618F
:103A8000704700006C0A0020A8000020144E154C5E
:103A9000A6F1C8074FF08058DFF84C9012E000BF45
:103AA00000F04AFAF068C568281D00F0F5F9A06832
:103AB000401EA0606068401E606000F05DFA28460D
:103AC000FFF7A4FF60680028EAD138680128F9D917
:103AD000C9F80080BFF34F8FBFF36F8FF2E700008C
:103AE000440A00205400002004ED00E02DE9F047D6
:103AF0009A46DDE9098481466FF00303206B03EBEE
:103B000082021044089E20F00707780707D0502053
:103B100080F31188BFF34F8FBFF36F8FFEE700254F
:103B200061B1002023180A5C83F834200A5C12B1CA
:103B3000401C1028F6D384F8435001E084F8345038
:103B4000072E00D30626E662C4E91165201D00F0A9
:103B5000CCF904F1180000F0C8F92461C6F107009F
:103B60006462A061E56484F8505052464946384684
:103B700000F0DAF82060B8F1000F01D0C8F800407A
:103B8000BDE8F08730B5114900E011460A6882426D
:103B9000FBD34B685C18844203D1406818444860EA
:103BA000084643681C18944209D1084C183C246804
:103BB000A24209D052681A4442600A681268026040
:103BC000814200D0086030BD0460F9E7A800002001
:103BD0000648416B096829B1416BC968C9684968E1
:103BE000816270474FF0FF31FAE700005400002077
:103BF00008484068401C4FF0500080F3118804D002
:103C0000BFF34F8FBFF36F8FFEE7BFF34F8FBFF34D
:103C10006F8FFEE7B0000020002150B10A4B4269CF
:103C20009A420FD1806AA3F1280290420AD040B193
:103C300008E0502080F31188BFF34F8FBFF36F8FE0
:103C4000FEE7012108467047580A00202DE9F0419F
:103C50000546002700F00AFB324E306808B9FFF72E
:103C6000EFFE706905424ED1C5B3083568070ED026
:103C700005F00700C0F108000544680707D0502090
:103C800080F31188BFF34F8FBFF36F8FFEE72DB323
:103C90007068854237D82348183001460C6801E027
:103CA00020460C466168A94202D221680029F7D15A
:103CB00031688C4227D00768216801606068083746
:103CC000411B10290FD96019420708D0502080F3FA
:103CD0001188BFF34F8FBFF36F8FFEE713E0416092
:103CE0006560FFF74FFF61687068401A7060B268E6
:103CF000904200D2B060706901430020C4E9000125
:103D0000F068401CF06000F043FC780707D05020BA
:103D100080F31188BFF34F8FBFF36F8FFEE73846F4
:103D2000BDE8F0819000002010B5031F4FF08074B3
:103D30001C601B1F21F001011960191F044B0B604F
:103D400014390A60091F6FF0020244380A6010BD7E
:103D5000F13B000806480021064B01700278995497
:103D6000521CD2B20270202AF8D3017070470000B2
:103D700004000020C000002070B5154C01256178BA
:103D8000232913D0242913D02078421E7F2A05D856
:103D9000104A0244401C02F8011C2070BDE870402B
:103DA0000B490122491C0C48FEF7B4B92570F5E710
:103DB00008490AA0FCF7D2FA18B1FFF7E1FC20B1DC
:103DC00000E06560FFF7C6FFE8E7A560E6E70000F2
:103DD00004000020C0000020B0080020636C69636C
:103DE000656E745F726563656976650070B50546DA
:103DF000A0B00E460024012000F042F88021684661
:103E0000FCF788FA2A4613A16846FEF77FFF68464A
:103E1000FCF79DFA82B24FF4FA7369460F48FEF739
:103E20009FF90F4D0DE06420FFF7FAFC686820B1A0
:103E300001240CA0FEF75AFF05E031460FA0FEF763
:103E400055FF761EEFD20020686000F019F820B010
:103E5000204670BD2325732400000000B008002018
:103E6000040000200D0AB6D4B7BDB3C9B9A6CAD59F
:103E7000B5BDCFFBCFA20D0A0000000025642000D5
:103E8000044B20B1012240211846FDF7A4BA0022BC
:103E9000F9E7000000180240D0E9013201699A6098
:103EA000D0E901235A604A68824201D182684A609F
:103EB000002202610868401E086008687047000020
:103EC000034B036003F154000860802010607047CA
:103ED000E804002000F108014FF0FF32C0E90112B0
:103EE000C1600161002101607047002101617047DC
:103EF00030B50B685A1C02D000F1080202E00269DA
:103F000004E02246546825689D42FAD953684B6004
:103F100099608A60516008610168491C016030BD88
:103F200042684A6093688B60936859609160086149
:103F30000168491C01607047502080F31188BFF36D
:103F40004F8FBFF36F8F0A494868401C48600128B3
:103F50000CD10848006810F0FF0F07D0502080F304
:103F60001188BFF34F8FBFF36F8FFEE770470000DC
:103F7000B000002004ED00E00849486828B1401E68
:103F8000486001D180F311887047502080F3118878
:103F9000BFF34F8FBFF36F8FFEE70000B00000202C
:103FA00070B500282AD0164DA0F108046068696930
:103FB000084207D1502080F31188BFF34F8FBFF321
:103FC0006F8FFEE722683AB1502080F31188BFF36B
:103FD0004F8FBFF36F8FFEE78843606000F046F9B4
:103FE00060686968084468602046FFF7CBFD28696F
:103FF000401C2861BDE8704000F0CABA70BD0000E6
:10400000900000204FF0E02000210161816105490E
:104010004FF47A720968B1FBF2F1491E4161072140
:10402000016170475000002010B5FCF713F91149E9
:1040300010280ED300F1E02090F8F0030A789042A7
:1040400007D2502080F31188BFF34F8FBFF36F8FDB
:10405000FEE709480068896800F4E060884207D9F3
:10406000502080F31188BFF34F8FBFF36F8FFEE7AF
:1040700010BD0000B00000200CED00E010B5020003
:1040800014D00F48006B38B1502080F31188BFF373
:104090004F8FBFF36F8FFEE700F0E8F80021104666
:1040A000FFF714FC00F074FA002807D105494FF01F
:1040B00080500860BFF34F8FBFF36F8F10BD0000BB
:1040C0005400002004ED00E070B504002BD01A4D20
:1040D000286884422FD0FFF72FFF2046FFF79CFD72
:1040E000E8B1201DFFF7D8FEE06A01212A6981406E
:1040F00011432961114900EB800001EB8000211D73
:10410000FFF70EFFE06A2968C96A884207D30C49A5
:104110004FF080500860BFF34F8FBFF36F8FBDE843
:104120007040FFF729BF502080F31188BFF34F8FF5
:10413000BFF36F8FFEE770BD540000207C090020A4
:1041400004ED00E010B586B00024039405AA04A98C
:1041500003A80494FFF7B4FEDDE903010094CDE960
:10416000011000230EA11048059A00F072F90F49C2
:104170000028C86211D0502080F31188BFF34F8F00
:10418000BFF36F8F4FF0FF30886201204861CC6031
:1041900006B0BDE8104000F09FB806B010BD0000AA
:1041A00049444C45000000008D3A000854000020AE
:1041B00070B50446FFF7C0FE294D04B92C68201DD8
:1041C000FFF76AFE58B9E06A264A00EB800152F810
:1041D000211021B901218140286988432861A06A02
:1041E00018B104F11800FFF757FE1E48211DDC30FE
:1041F000FFF796FE94F850000026012801D184F8BC
:104200005060FFF7B9FE686928B1FFF795FEFFF728
:10421000DFFCFFF7B1FE2868844213D1686990B1D2
:10422000286B38B1502080F31188BFF34F8FBFF354
:104230006F8FFEE70C494FF080500860BFF34F8F3F
:10424000BFF36F8F70BD0748DC300068A9688842F3
:1042500001D12E6070BDBDE8704000F00FB80000C5
:10426000540000207C09002004ED00E00248016BAE
:10427000491C016370470000540000201448016B82
:1042800011B10121C16170470021C1610169B1FA19
:1042900081F1C1F11F0101EB81020E4951F8223079
:1042A0006BB101EB820101F108034A6852684A6070
:1042B0009A4201D152684A60D1680160704750202B
:1042C00080F31188BFF34F8FBFF36F8FFEE70000BD
:1042D000540000207C0900201CB537480168374A8B
:1042E000914207D1502080F31188BFF34F8FBFF365
:1042F0006F8FFEE700683149491E884207D1502080
:1043000080F31188BFF34F8FBFF36F8FFEE72C4907
:1043100008780190FF20087008788DF800009DF85B
:1043200000009DF8002000F0F000904207D05020DF
:1043300080F31188BFF34F8FBFF36F8FFEE79DF8B7
:104340000000204C00F0500020700720A06005E025
:104350009DF8002052008DF80020401E9DF800209E
:104360001206F5D4A060032807D0502080F31188EE
:10437000BFF34F8FBFF36F8FFEE74FF44070A06025
:10438000019808700C482030016841F47001016008
:10439000016841F070410160FFF734FE0020606069
:1043A000FBF720FF0848016841F040410160FBF73E
:1043B00005FF00201CBD000000ED00E071C20F41B0
:1043C00000E400E0B000002034EF00E010B5502021
:1043D00080F31188BFF34F8FBFF36F8F00F072F837
:1043E00018B104494FF080500860002080F3118814
:1043F00010BD000004ED00E02DE9FF5F8346DDE91C
:104400000E87994616468A469000FFF71FFC050066
:104410001CD05420FFF71AFC040014D000202563A0
:1044200084F85100CDE90240CDE900874B46324681
:1044300051465846FFF75AFB2046FFF77FFA012006
:1044400004B0BDE8F09F2846FFF7AAFD4FF0FF300B
:10445000F6E7F0B585B0DDE90B640A9DA6B1DCB1E5
:10446000542700972663022684F85160002604AF83
:10447000CDE90246CDE90057FFF738FB2046FFF7AC
:104480005DFA049805B0F0BD502080F31188BFF3A9
:104490004F8FBFF36F8FFEE7502080F31188BFF37B
:1044A0004F8FBFF36F8FFEE70548416919B1006B6D
:1044B00018B10020704701207047022070470000AB
:1044C000540000202DE9F0412F4C0026206B28B12C
:1044D000A069401CA0613046BDE8F081E5686D1C14
:1044E000E56013D1606B006838B1502080F311880B
:1044F000BFF34F8FBFF36F8FFEE7606BA16B6163FC
:10450000A063206A401C2062FFF762FBA06ADFF80C
:104510007C80854209D3606B0068A0B1606BC06885
:10452000C7687868854211D2A0622068C06A00EB33
:10453000800158F82100012800D90126E0690028EF
:10454000C9D00126C7E74FF0FF30EDE7381DFFF770
:10455000A3FCB86A18B107F11800FFF79DFCF96ACF
:104560000120226988401043206101EB810108EBA2
:104570008100391DFFF7D4FCF86A2168C96A8842B6
:10458000C9D30126C7E70000540000207C090020A1
:104590002DE9F0472C4D00242746286B38B1FFF752
:1045A000CBFC286B401E2863286B40B146E05020AE
:1045B00080F31188BFF34F8FBFF36F8FFEE7A968B9
:1045C000224E0120D1B3A6F1B40980463068E8B18B
:1045D000F068C46804F11800FFF75EFC201DFFF7C7
:1045E0005BFCE06A2A6908FA00F11143296100EBDB
:1045F000800109EB8100211DFFF792FCE06A296828
:10460000C96A8842E2D3C5F81C80DFE70CB1FFF726
:10461000DFFAAC6944B14646FFF754FF00B1EE61E2
:10462000641EF9D10020A861E86938B10849012762
:1046300038070860BFF34F8FBFF36F8FFFF79CFC05
:104640003846BDE8F087000054000020300A002002
:1046500004ED00E02DE9F0410027040015D0FFF73C
:10466000E3FC5020EFF3118580F31188BFF34F8FE7
:10467000BFF36F8F2046FFF7CFFA30B3154E306B84
:1046800058B104F1180114481DE0502080F311883E
:10469000BFF34F8FBFF36F8FFEE7E06A3168C96ADF
:1046A000884200D30127201DFFF7F6FBE16A0120B5
:1046B000326988401043306101EB81000649B4390A
:1046C00001EB8000211DFFF72BFC85F31188384694
:1046D000BDE8F08154000020300A00202C4700087B
:1046E0003926000800000000000000000001000062
:1046F000000000000000000038470008A526000860
:10470000FFFF0000000000000001000000000000AA
:10471000000000000000000000000000010203048F
:104720000607080900000000010203044448543150
:10473000315461736B0000004D61696E5461736B9D
:10474000000000006447000800000020C0000000D6
:10475000542D000824480008C0000020B049000083
:10476000642D0008FFFFFFFF0000000000000000B4
:10477000000000000000504A4C0031323334000089
:104780000000000000000000000000000000000029
:104790000000000000000000000000000000000019
:1047A00000000000000000000100000010000000F8
:1047B000000000000024F4000000000000000000E1
:1047C00000000000000000000000000000000000E9
:1047D00000000000000000000000000000000000D9
:1047E00000000000000000000000000000000000C9
:1047F00000000000000000000000000000000000B9
:1048000000000000000000000000000000000000A8
:104810000000000000000000AAAAAAAA00000000F0
:044820000000000094
:040000050800018965
:00000001FF
