:020000040800F2
:10000000D84400205D020008E3190008DD1700084D
:10001000E1190008ED040008011E000800000000BE
:100020000000000000000000000000009D0100082A
:10003000EF04000800000000F9010008711A000830
:1000400077020008770200087702000877020008AC
:10005000770200087702000877020008770200089C
:10006000770200087702000877020008770200088C
:10007000770200087702000877020008770200087C
:100080007702000877020008B90300087702000829
:10009000770200087702000877020008770200085C
:1000A000770200087702000877020008770200084C
:1000B000770200087702000877020008770200083C
:1000C000770200087702000877020008770200082C
:1000D00077020008F51D0008770200087702000883
:1000E000770200087702000877020008770200080C
:1000F00077020008770200087702000877020008FC
:1001000077020008770200087702000877020008EB
:1001100077020008251B0008770200087702000814
:1001200077020008770200087702000877020008CB
:1001300077020008770200087702000877020008BB
:1001400077020008770200087702000877020008AB
:10015000770200087702000877020008770200089B
:10016000770200087702000877020008770200088B
:1001700077020008770200087702000800000000FC
:100180007702000877020008DFF80CD000F002F9CF
:10019000004800476D200008D84400202C4B196807
:1001A0000868B0E8F04F80F30988BFF36F8F4FF015
:1001B000000080F3118870470000000008480068C4
:1001C000006880F308884FF0000080F3148862B65E
:1001D00061B6BFF34F8FBFF36F8F00DF00BF00BF6B
:1001E00008ED00E0DFF80C00016841F470010160E7
:1001F000704700BF88ED00E0EFF30980BFF36F8F19
:10020000134B1A681EF0100F08BF20ED108A20E96A
:10021000F04F106009B44FF0500080F31188BFF325
:100220004F8FBFF36F8F02F0C5FA4FF0000080F3DD
:10023000118809BC19680868B0E8F04F1EF0100F6B
:1002400008BFB0EC108A80F30988BFF36F8F704746
:1002500018000020EFF30580704700000648804733
:1002600006480047FEE7FEE7FEE7FEE7FEE7FEE79B
:10027000FEE7FEE7FEE7FEE7151B00088901000820
:100280002DE9F05F0546002092469B4688460646CB
:10029000814640241BE0284641464746224600F05E
:1002A00069F853465A46C01A914110D31146184670
:1002B000224600F050F82D1A67EB01084F462246FF
:1002C0000120002100F047F817EB00094E41201EE5
:1002D000A4F10104DFDC484631462A464346BDE826
:1002E000F09F40EA01039B0703D009E008C9121FF1
:1002F00008C0042AFAD203E011F8013B00F8013BE0
:10030000521EF9D27047D2B201E000F8012B491E0B
:10031000FBD270470022F6E710B513460A460446A2
:100320001946FFF7F0FF204610BD30B50B460146D9
:1003300000202022012409E021FA02F59D4205D384
:1003400003FA02F5491B04FA02F52844151EA2F12E
:100350000102F1DC30BD202A04DB203A00FA02F170
:10036000002070479140C2F1200320FA03F31943A3
:1003700090407047202A04DB203A21FA02F0002145
:10038000704721FA02F3D040C2F1200291400843A5
:1003900019467047064C074D06E0E06840F001033F
:1003A00094E8070098471034AC42F6D3FFF7F0FE0C
:1003B000CC2B0008EC2B0008014800F048B90000E5
:1003C00018030020464910B54A6822F440324A60BA
:1003D0004A6843681A434A6001684A6822F4807296
:1003E0004A6001684A68036942EA03224A60016878
:1003F0004A6822F040724A6001684A6883681A437A
:100400004A6001688A6822F400628A6001688A682A
:10041000C3681A438A60816A6FF07062D1420168D2
:100420008A6822F070628A6001688A680CD0836AE8
:100430001A438A6001688A6822F040528A60016823
:100440008A68C36A1A4301E022F040528A60016858
:100450008A6822F002028A6001688A68037E42EAA2
:1004600043028A6090F82010002901684A680FD082
:1004700042F400624A6001684A6822F460424A60BD
:1004800001684A68174C436A04EB43331A4301E09E
:1004900022F400624A600168CA6A22F47002CA62E9
:1004A0000168CA6A838B104C04EB03531A43CA6277
:1004B00001688A6822F400728A6001688A6890F88C
:1004C000303042EA43228A6001688A6822F48062FE
:1004D0008A6001688A68406942EA8020886010BDAD
:1004E0000023014000E0FFFF0000F0FFFEE770473F
:1004F00072B6FEE77047000078B50024009490F8CB
:100500003C20012A19D0012280F83C200A680723E8
:100510000568092A13D9EE680A3A02EB42029340B1
:100520009E43EE600B788A680A3B03EB43039A40D4
:100530000368DD682A43DA6010E0022078BD2E6986
:1005400002EB420293409E432E610B788A6803EBD4
:1005500043039A4003681D692A431A614A681F23AE
:10056000072A13D205686E6B521E02EB820293407B
:100570009E436E630B790A885B1E92B203EB830382
:100580009A4003685D6B2A435A6327E005680D2A89
:1005900012D22E6BD21F02EB820293409E432E6337
:1005A0000B790A88DB1F92B203EB83039A4003683E
:1005B0001D6B2A431A6311E0EE6A0D3A02EB8202C8
:1005C00093409E43EE620B790A880D3B92B203EB97
:1005D00083039A400368DD6A2A43DA62164B056892
:1005E000144A9D4206D10D68122D03D1556845F479
:1005F0008005556005689D4218D10B68102B01D00D
:10060000112B13D1536843F4000353600968102978
:100610000CD10A490A4A0968B1FBF2F101EB8101E8
:10062000490000E0491E00910029FBD180F83C40C0
:10063000002078BD0023014000200140140000206C
:1006400040420F00704770470068C06C704770B53B
:100650000446006801684268C1F34001C2F34012D9
:1006600051B34AB3216CC90603D4216C41F4007123
:100670002164816811F0405F17D1217EA9B9C16A58
:1006800011F4700F02D0816849050ED4416821F041
:1006900020014160206C20F480702064206CC00434
:1006A00003D4206C40F0010020642046FFF7CAFF0D
:1006B00021686FF012000860206801684268C1F389
:1006C0008001C2F3C01289B382B3216CC90603D47E
:1006D000216C41F400512164816811F4401F1ED146
:1006E000816B11F4401F02D08168490517D441681D
:1006F000490514D4816811F0405F10D1217E71B991
:10070000416821F080014160206C20F48050206419
:10071000206CC00503D4206C40F00100206420460A
:10072000FFF7E8FE21686FF00C00086020680168A0
:10073000426811F0010FC2F380120ED06AB1006856
:10074000C0070AD0206C40F480302064204600F0BE
:1007500046F821686FF0010008602068016842686F
:10076000C1F34011C2F3806200290DD0002A0BD0E2
:10077000616C41F0020161646FF020050560204664
:10078000FFF761FF2068056070BD70B504004FF091
:10079000000503D0206C002610B107E0012070BDD9
:1007A000204600F01DF8666484F83C60206CC006AA
:1007B00010D4206C20F4885040F0020020642046C1
:1007C000FFF700FE6664206C20F0020040F001009C
:1007D000206400E0012584F83C60284670BD704725
:1007E00010B586B0044614216846FFF793FD1549FD
:1007F0002068884224D114480021026842F48072A3
:100800000260006800F4807005900F481438026898
:1008100042F001020260006800F001000590202013
:1008200000900320CDE901016946084800F06EF907
:1008300000220521122000F0D7FA122000F0C6FA9B
:1008400006B010BD002001404438024000000240C4
:100850002DE9F041044600680D4681684FF000071D
:1008600049050BD58068C00508D5206C40F02000F4
:10087000206484F83C700120BDE8F08100F042FA69
:10088000064613E0681C11D025B100F03BFA801B2E
:10089000A8420BD920680068800707D4206C40F07C
:1008A0000400206484F83C700320E5E720680068B9
:1008B0008007E7D521686FF012000860206C40F4D3
:1008C000007020642068816811F0405F13D1217EA0
:1008D00089B9C16A11F4700F02D0806840050AD44A
:1008E000206C20F480702064206CC00403D4206C41
:1008F00040F0010020640020BEE7000018B5002190
:10090000009190F83C20012A07D0012280F83C2079
:1009100002689368DB0702D011E0022018BD9368DB
:1009200043F0010393602E4A2E4B1268B2FBF3F2A0
:1009300002EB420200E0521E0092002AFBD1026844
:100940009368DB0742D0036C40F20164A34343F495
:100950008073036453685B0505D5036C23F400536F
:1009600043F480530364036CDB0404D5436C23F02D
:100970000603436400E0416480F83C101A496FF0BC
:100980002203136049680068CA06184906D08842E5
:1009900024D1816811F0405F13D01FE08842F8D065
:1009A000134A904203D1D1F80423D206F1D0114A60
:1009B000904213D1D1F8041301F01F011029E8D39C
:1009C0000CE0816841F08041816007E0016C41F0FA
:1009D00010010164416C41F001014164002018BD27
:1009E0001400002040420F0000230140002001407D
:1009F000002101400022014090F83C1001290CD058
:100A0000012180F83C1001688A6822F001028A60A6
:100A100001688968C90702D007E002207047016CAD
:100A200021F4885141F001010164002180F83C105B
:100A3000084670472DE9F0410446876D00F062F9E1
:100A4000064694F835000025022806D0802060650F
:100A500084F834500120BDE8F0812068016821F05D
:100A6000160101602068416921F080014161206C1C
:100A700008B9A06C20B12068016821F0080101606C
:100A80002068016821F0010101600BE000F03AF9F3
:100A9000801B052806D92020606504F8345F0320F8
:100AA0006070D8E720680068C007EFD194F85C1048
:100AB0003F208840B86004F8345F01206070002057
:100AC000C9E790F83510022903D080214165012043
:100AD0007047052180F835100068016821F0010198
:100AE000016000207047000070B5044600F00AF96C
:100AF0000546601C02D004480078044400F002F966
:100B0000401BA042FAD370BD080000202DE9F84F29
:100B1000DFF8B8A1002201250AF1040B03264FF0EB
:100B20000F090BF1040E00BF0B6805FA02F4234015
:100B3000A3426FD10F7907F00307012F01D0022FD5
:100B400016D187684FEA420806FA08FC27EA0C0724
:100B5000D1F80CC00CFA08FC4CEA070CC0F808C02D
:100B60004768A7430C79C4F3001494403C434460A5
:100B70000C79E443A4070AD0C4684FEA420C06FA91
:100B80000CF7BC438F6807FA0CF72743C7600C7952
:100B900004F00304022C12D1D40800EB840CDCF81E
:100BA00020405707FF0E09FA07F824EA0804D1F895
:100BB000108008FA07F848EA0408CCF82080046896
:100BC0004FEA420C06FA0CF7BC430F7907F0030713
:100BD00007FA0CF7274307604C68E40070D53C4CDB
:100BE000276847F480472760246822F0030704F44D
:100BF00080440094374C07EB040CDCF80848970756
:100C00004FEA177809FA08F7BC43334FB84202D1CC
:100C1000002724E054E0314FB84201D101271EE003
:100C20002F4FB84201D1022719E02E4FB84201D10F
:100C3000032714E02C4FB84201D104270FE02B4FBB
:100C4000B84201D105270AE0294FB84201D1062751
:100C500005E0284FB84201D1072700E0082707FA2E
:100C600008F72743CCF80878DAF800405746D1F85F
:100C700004C09C435FEACC3C00D51C433C60DBF8DD
:100C800000405F46D1F804C09C435FEA8C3C00D52D
:100C90001C433C60DEF800407746D1F804C09C431A
:100CA0005FEACC2C00D51C433C60084F0C373C68F5
:100CB000D1F804C09C435FEA8C2C00D51C433C60F7
:100CC000521C102AFFF430AFBDE8F88F003C014001
:100CD000443802400030014000000240000402405D
:100CE00000080240000C02400010024000140240C4
:100CF00000180240001C02400AB1816170470904DB
:100D0000FBE70000014880687047000008000020F1
:100D10000248816802781144816070470800002011
:100D20000B4810B5016841F400710160016841F49D
:100D300080610160016841F480710160032000F06E
:100D400073F80F2000F006F800F024F8002010BD22
:100D5000003C024070B50D4D04464FF47A7128787E
:100D6000B1FBF0F00A490968B1FBF0F000F00EFBAE
:100D700048B9102C07D200222146501E00F034F84A
:100D800000206C6070BD012070BD000008000020D4
:100D9000140000200C4882B0016841F480410160D9
:100DA000006800F4804000900748001F016841F08F
:100DB000805101600068002200F0805000900F21F7
:100DC000901E02B000F010B844380240002809DB41
:100DD00000F01F02012191404009800000F1E02055
:100DE000C0F8001170470000F0B40E4B1B680C46B1
:100DF000C3F30223C3F10705042D00D90425191DEF
:100E0000072901D2002300E0DB1E012606FA05F1C6
:100E1000491E214099409E40761E16403143F0BC49
:100E200001F014B80CED00E0064900F00702086874
:100E30004FF6FF03184040EA0220034A10430860BF
:100E4000704700000CED00E00000FA052DE9F047C6
:100E50000E46050065D0DFF81481D8F80000F7B21F
:100E600000F00700B04207D288F80070D8F8000000
:100E700000F00700B04254D128683D4C810712D5DC
:100E8000400703D5206840F4E05020602878000730
:100E900003D5206840F4604020602068A96820F0F5
:100EA000F000084320602878C0072DD030496868DA
:100EB0000839012812D0022813D0032811D009685C
:100EC000890700292DDA216821F0030101432160FF
:100ED000FFF718FF814641F2883A0EE0096889035E
:100EE000EFE709688901ECE7FFF70CFFA0EB0901C8
:100EF000514502D90320BDE8F0872068696800F0F9
:100F00000C00B0EB810FEFD1D8F80010404601F093
:100F10000701B14207D90770006800F00700B0422E
:100F200001D00120E7E72878400705D52068E96867
:100F300020F4E050084320602878000706D5206898
:100F4000296920F4604040EAC100206000F038F8D0
:100F50002168084AC1F30311515CC8400649086082
:100F600006480068FFF7F6FE0020C4E7003C024098
:100F700008380240A82B0008140000200C000020B4
:100F80000448054900680968044AC1F38221515C9C
:100F9000C84070471400002008380240B82B0008F1
:100FA0000448054900680968044AC1F34231515CAC
:100FB000C84070471400002008380240B82B0008D1
:100FC000154810B5006810F00C02144813D04110F9
:100FD000042A0FD0082A0ED10F4C241F2268236840
:100FE00002F03F025B0207D52068C0F38810A0FB27
:100FF000010106E0084610BD2168C1F38811A1FB7C
:1010000000010023FFF73CF92168C1F30141491CAD
:101010004900B0FBF1F010BD083802400024F40094
:101020002DE9F84F04006ED02078DFF84C93C0070C
:10103000A9F104054AD009F104000168C1F3810156
:10104000012908D00068C0F3810002280AD1D9F82C
:101050000000400206D52868800337D56068002864
:10106000E1D033E06068B0F5803F10D0B0F5A02F3C
:10107000286810D020F480302860286820F4802070
:1010800028606068A8B1FFF73DFE06460DE02868BD
:1010900040F48030F4E740F480202860F7E700BF98
:1010A000FFF730FE801B642873D828688003F7D5CB
:1010B0000CE0FFF727FE064605E000BFFFF722FE23
:1010C000801B6428F0D828688003F7D42078DFF8E4
:1010D000AC8280074FF0000A3ED5A748001D01688A
:1010E00011F00C0F08D00068C0F3810002280BD16A
:1010F000D9F80000400207D42868800716D5E068B8
:10110000012800D112E033E1E068B8B10120C8F84D
:101110000000FFF7F7FD064605E000BFFFF7F2FD10
:10112000801B0228C0D828688007F7D52868216965
:1011300020F0F80040EAC10028600DE0C8F800A0E7
:10114000FFF7E0FD064604E0FFF7DCFD801B022808
:101150001FD828688007F7D42078000722D5864F4B
:1011600087486169703771B101210160FFF7CAFDDD
:10117000064604E0FFF7C6FD801B022809D8386840
:101180008007F7D50EE0C0F800A0FFF7BBFD0646CC
:1011900005E082E0FFF7B6FD801B02287DD83868A5
:1011A0008007F7D42078400768D5DFF8CCB1002756
:1011B0000BF13C0BDBF80000C0000BD4DBF8001097
:1011C00041F08051CBF80010DBF80000012700F05F
:1011D000805000906B4E3068C00510D4306840F4E9
:1011E00080703060FFF78EFD009005E0FFF78AFD0C
:1011F0000099401A022850D83068C005F6D55E4ED6
:10120000A0686C3601280FD00528306810D020F077
:1012100001003060306820F004003060A068B8B190
:10122000FFF770FD00900FE0306840F00100F4E738
:1012300040F004003060F7E7FFF764FD0099411AC1
:1012400041F28830814266D830688007F4D50EE0DC
:10125000FFF758FD009007E0FFF754FD0099411A91
:1012600041F28830814256D830688007F4D42FB1DB
:10127000DBF8001021F08051CBF80010A069C8B352
:101280003D49091D0968C1F3810102294AD002289C
:10129000504607D0C8F8600000E03CE0FFF732FDA0
:1012A00004463BE04746C8F86000FFF72BFD0646C2
:1012B00005E000BFFFF726FD801B02282BD8286819
:1012C0008001F7D4D4E907010843A16A2E4A4908EE
:1012D00002EB0141626A41EA8211084394F82C1042
:1012E00040EA0161C9F8001001203866FFF70AFDE5
:1012F000044606E03EE000BFFFF704FD001B0228A5
:1013000009D828688001F7D534E000BFFFF7FAFC60
:10131000001B022802D90320BDE8F88F286880014D
:10132000F4D427E00128F7D0D9F80000E26900F4EE
:10133000800191421CD1226A00F03F01914217D1F5
:1013400047F6C071626A0140B1EB821F10D1A26AF8
:101350004FF0FF3300F4403103EB5202B1EB024F88
:1013600006D194F82C1000F07060B0EB016F01D042
:101370000120D1E70020CFE70438024000004742B7
:10138000800E4742007000400000FFFF10B5401E75
:10139000B0F1807F01D3012010BD4FF0E0246061E7
:1013A0000F21601700F052FD0020A061072020618E
:1013B000002010BD70477047F8B5026804461068F9
:1013C000D168536910F00F0F4FF0000553D003F0B0
:1013D000010601F4907737435FD0C20705D0CA05F4
:1013E00003D5226C42F001022264420705D5DA07D8
:1013F00003D0226C42F002022264820705D5DA078C
:1014000003D0226C42F004022264020707D501F0E7
:101410002002324303D0226C42F008022264226C84
:10142000002A34D0800604D5880602D5204600F074
:101430009FFB20684069216CC0F38010090700D42D
:1014400030B3204600F07CFB2068416949061BD57B
:10145000416921F040014161A06BA8B15949016582
:10146000A06BFFF72EFB002811D0A06B016D01B01F
:10147000BDE8F040084783060FD58B060DD5204602
:10148000BDE8F84000F074BB2046FFF794FFF8BDBC
:101490002046FFF790FF2564F8BD266B2023012E20
:1014A00053D1C60651D5CE064FD51068506800906E
:1014B000506940062BD5A16B086840680004000CF9
:1014C000EAD0A68D8642E7D9E085C869B0F5807F6D
:1014D00018D0D06820F48070D0602068416921F075
:1014E000010141612068416921F04001416184F8B6
:1014F0003E3025632068C16821F01001C160A06BF7
:10150000FFF798FAA08DE18D401A81B219E0A08D05
:10151000E18D401A81B2E08D0028BDD00029BBD0FA
:10152000D06820F49070D0602068426922F00102F7
:10153000426184F83E3025632068C26822F01002C0
:10154000C2602046FFF736FFF8BD05062BD50D0615
:1015500029D594F83D002128F6D1A068B0F5805F28
:1015600001D12069B0B1206A411C21622168007854
:101570004860E08C401E0004000CE084E4D1206848
:10158000C16821F08001C1602068C16841F040015C
:10159000C160F8BD206A0088C0F308005060206A6E
:1015A000801C2062E5E74006F3D54806F1D5D168F6
:1015B000204621F04001D16084F83D3000F00DF963
:1015C000F8BD0000311B000870B5040004D094F889
:1015D0003D00002510B106E0012070BD84F83C50AC
:1015E000204600F023F8242084F83D002068C168DC
:1015F00021F40051C160204600F012FB206801690F
:1016000021F4904101612068416921F02A01416182
:101610002068C16841F40051C1602564202084F82D
:101620003D0084F83E00002070BD0000F0B587B09A
:10163000044614216846FEF76DFE344B21680022F3
:10164000334802240325994234D1314910310A68C4
:1016500042F480120A60096801F480110591016862
:1016600041F004010160016801F004010591016885
:1016700041F0080101600068012600F008000590B3
:1016800098148DE851000827CDE903576946214891
:10169000FFF73CFA04208DE85100CDE90357694675
:1016A0001D48FFF733FA002205213520FFF79CFB88
:1016B000352026E0194B994225D1154914310B6884
:1016C00043F010030B60096801F0100105910168F7
:1016D00041F0010101600068029200F001000590F4
:1016E0004FF4C060CDE900040720CDE903506946FE
:1016F0000B48FFF70BFA002205212520FFF774FBAA
:101700002520FFF763FB07B0F0BD0000005000404C
:101710003038024000080240000C02400010014036
:1017200000000240704700002DE9F843044690F89D
:101730003D001F4616460D4620284CD1C5B1BEB10E
:1017400094F83C00012846D0012084F83C004FF07A
:101750000008C4F84080212084F83D00FFF7D2FA49
:10176000A6848146E684A068B0F5805F03D004E0DB
:101770000120BDE8F883206928B12E465FF00005FE
:1017800084F83C800EE00026FAE78021204600F035
:10179000CDFAA0B9AEB116F8010B21684860E08C13
:1017A000401EE084E08C4B464FF00002009700287A
:1017B000EBD14FF04001204600F0B8FA30B10320E1
:1017C000D7E735F8020BC0F30800E6E7202084F8DD
:1017D0003D000020CDE70220CBE77047FEE7000088
:1017E0007FB5002414480094019402941149039495
:1017F000C0E9001484600461047680F820400F4939
:10180000C0E90A140125C561C46080F83040456113
:10181000FEF7BBFF08B1FEF76BFE0520CDE9000522
:10182000694602940448FEF767FE002801D0FEF7DF
:101830005FFE7FBD00200140180300200100000F63
:1018400000B587B01C2206496846FEF74AFD002114
:10185000684600F02EFC0349486007B000BD000058
:101860008C2B0008000000202DE9F04387B01421E4
:101870006846FEF74FFD3A480024016841F0100128
:101880000160016801F010010591016841F08001DB
:101890000160016801F080010591016841F00101DA
:1018A0000160016801F001010591016841F020012A
:1018B0000160016801F020010591016841F04001DB
:1018C0000160016801F040010591016841F00401E7
:1018D0000160016801F004010591016841F008010F
:1018E000016000681F4F00F00800059001221821D8
:1018F0003846FFF701FADFF870804FF48046002287
:1019000031464046FFF7F8F9DFF860900022802169
:101910004846FFF7F1F9012251024846FFF7ECF97A
:10192000182000900125CDE90154694638460394FA
:10193000FFF7ECF80096CDE9015469464046039460
:10194000FFF7E4F84FF420700090CDE901546946A8
:1019500048460394FFF7DAF807B0BDE8F0830000CB
:1019600030380240001002400014024000180240CB
:101970000C4810B50A4901604FF4E1314160002183
:1019800081600C22C160C0E904128161C161FFF76E
:101990001BFE002803D0BDE81040FEF7A9BD10BD16
:1019A00000500040600300200C4810B50A49016057
:1019B0004FF4E1314160002181600C22C160C0E937
:1019C00004128161C161FFF7FFFD002803D0BDE86B
:1019D0001040FEF78DBD10BD00100140A403002093
:1019E000FEE7FEE71E4C1F4E1F4D4FF4FA774FF4F3
:1019F0007A781E48FEF782FF002208212846FFF76A
:101A00007BF90A211948FEF723FFC0B91748FEF7F2
:101A10001BFE80B220804FF4A5714843000B60800C
:101A2000B4280CD2012280213046FFF765F93846F0
:101A3000FFF75AF8002280213046FFF75DF900F0E9
:101A4000A7F9642000F029FB012208212846FFF7AE
:101A500053F9404600F021FB0448FEF7CDFFC8E7EC
:101A6000000000200018024000100240180300206F
:101A700010B5FFF74DF900F0B3FF012803D0BDE822
:101A8000104000F03FBF10BD30B593B03021684624
:101A9000FEF740FC14210CA8FEF73CFC1B48002577
:101AA000016841F080510160006800F080501190A1
:101AB0001748016841F4804101600068022400F485
:101AC0008040119001200090000401908001CDE938
:101AD000064008AA0420402182E813000B906846C3
:101AE000FFF79EFA08B172B6FEE70F20CDE90C04AD
:101AF0009020CDE90E0500210CA81095FFF7A6F95E
:101B0000002801D072B6FEE713B030BD4038024065
:101B1000007000400248016841F4700101607047A4
:101B200088ED00E00148FFF747BC0000600300209B
:101B300010B5806B0021C185C184FFF73CFC10BD4E
:101B40000168CA6822F49072CA6001684A6922F08A
:101B500001024A61016B012904D10168CA6822F0BF
:101B60001002CA60202180F83E10002101637047F6
:101B700010B5044690F83E00222801D0022010BD86
:101B8000A1684FF48052914201D1206920B1A06A2E
:101B900091421BD049B10AE02168A06A4968C1F3AB
:101BA00008010180A06A801C08E0216971B12168E8
:101BB000496801F07F010170A06A401CA062E08DBD
:101BC000401E0004000CE08503D01CE02168496839
:101BD000F1E72068C16821F02001C1602068C16878
:101BE00021F48071C1602068416921F001014161E7
:101BF000202084F83E00206B012806D02046FFF705
:101C000091FD00202063002010BD2068C16821F0F4
:101C10001001C160A18D2046FFF7CCFBF1E7000069
:101C200070B5044600680169E26821F4405111432F
:101C300001612169A068E2690843616911430843B1
:101C40002168CA6849F20C639A430243CA6020685B
:101C50004169A26921F44071114341613149206811
:101C6000884202D03049884202D1FFF799F901E059
:101C7000FFF786F9E2690023192164253226B2F5BF
:101C8000004F626828D0A0FB0101930F9200FEF77D
:101C9000F7FA0146B0FBF5F06FF01802504301EB84
:101CA000800006EB0010B0FBF5F000F0F002B1FB95
:101CB000F5F002EB0012B1FBF5F06FF0180358439A
:101CC00001EB800006EB0010B0FBF5F000F00F0018
:101CD00021681044886070BDA0FB010192185B412F
:101CE000FEF7CEFA0146B0FBF5F00201B1FBF5F0CC
:101CF0006FF01803584301EB800006EBC000B0FB07
:101D0000F5F000F0F80002EB4002B1FBF5F05843AB
:101D100001EB800006EBC000B0FBF5F000F007001F
:101D2000D6E7000000100140001401402DE9F04109
:101D3000984617460E460446069D1DE0681C1BD0BB
:101D40002DB1FEF7DFFFA0EB0800A84214D92068F0
:101D5000C16821F4D071C1602068416921F001019E
:101D60004161202084F83D0084F83E00002084F882
:101D70003C000320BDE8F0812068006836EA0000DE
:101D800004D00020B842D9D00020F3E70120F9E7C1
:101D90007CB50E4964230A244888B0FBF3F5B0FBF8
:101DA000F4F203FB150504FB1202B5FBF4F4B0FBDF
:101DB000F3F3CDE900420A8805A10C4800F032F89F
:101DC000BDE87C4009490AA000F01CB800000020D2
:101DD000B2C9D1F9D6B53A25642CB9E2C3F4D6B567
:101DE0003A25642E25642564560D0A0084000020DF
:101DF000257300000148FFF7DFBA0000A4030020AC
:101E0000FEE700000FB4054B10B503A9044A029881
:101E100000F03CF810BC5DF814FB000051200008F5
:101E2000800000200FB4084B10B504A902AA039843
:101E300000F02CF8044602A9002000F003F9204627
:101E400010BC5DF814FB0000452000080907090ECE
:101E5000002804DB00F1E02080F80014704700F057
:101E60000F0000F1E02080F8141D704702E008C860
:101E7000121F08C1002AFAD170477047002001E004
:101E800001C1121F002AFBD1704700002DE9FF4F4E
:101E90008BB09A460F460546002606E025280BD053
:101EA00052460D9990476D1C761C28780028F5D174
:101EB0000FB03046BDE8F08F0024A04601226049F3
:101EC00000E0044315F8013F203B02FA03F008420A
:101ED000F7D128782E2817D115F8010F44F0040403
:101EE0002A280ED06FF02F022878A0F1300109299E
:101EF0000AD808EB880102EB410100EB01086D1CD8
:101F0000F2E757F8048B6D1C287869283ED006DC70
:101F10000028CDD063280BD0642804D136E0732884
:101F200010D075284BD052460D999047761C85E00D
:101F300017F8040B8DF8000000208DF80100E94629
:101F4000012003E057F8049B4FF0FF3061074FF08A
:101F5000000401D40AE0641C44450DDA8442FADB33
:101F600019F804100029F6D106E0641C8442FCDB59
:101F700019F804100029F8D1264404E019F8010BDF
:101F800052460D999047641EF8D257E001CF4FF0AA
:101F90000A0B002802DA40422D2102E0210504D577
:101FA0002B218DF82410012103E0E10705D0202129
:101FB000F7E70DF1200908910CE00021F9E701CFC6
:101FC0004FF00A0BF9E75946FEF7AFF901F130027D
:101FD00009F8012D0028F6D1ADEB090000F1200B26
:101FE000600701D44FF00108D84502DDA8EB0B00D3
:101FF00000E000208046002406E009A85246005D6B
:102000000D999047641C761C08988442F5DB04E027
:10201000302052460D999047761CB8F10001A8F186
:102020000108F5DC05E019F8010B52460D999047BF
:10203000761CBBF10001ABF1010BF4DC6D1C34E745
:10204000092801000A68531C0B60107070470000DB
:1020500038B504468DF80000022301226946024883
:10206000FFF762FB204638BDA4030020FEF758FEB0
:10207000FFF70AFDFFF7F8FBFFF77AFCFFF794FC88
:10208000FFF7AEFBFFF7DCFB00F00EF8FEE70146C2
:102090000020842900D0C81C704710B500B9012069
:1020A00000F024FB002010BD10B500F045FB00201F
:1020B00010BD7FB50D4604464169B0F9080081B1F5
:1020C000A16971B1FFF7E3FFD4E905128DE80700BC
:1020D000D4E900102B46226900F057FC039004B0AD
:1020E00070BDFFF7D4FF03A9CDE90001208A2B467C
:1020F00082B2D4E9001000F01BFC012801D00020BE
:10210000EDE70398EBE700002DE9F041184C0F468E
:102110000546E6682068001D00F020FA38B92068FE
:1021200090F82C1001208840216981432161681CAE
:1021300007D137B12168BDE8F0410E48091D00F014
:1021400051BA20683544B5424560216805D2A06B7C
:10215000BDE8F041091D00F02DBA606B091D00F0CB
:1021600029FAA06A854200D2A562BDE8F08100008C
:1021700018000020C40400202DE9F041054600F0BD
:102180003DFA2E4CA068401CA06020682C4F10B176
:10219000606940B32DE02560A068012829D10026A0
:1021A00006EB860007EB800000F0F6F9761C072EA0
:1021B000F6D323488C3000F0EFF92148A03000F02E
:1021C000EBF91F48B43000F0E7F91D48C83000F0C3
:1021D000E3F91B48DC3000F0DFF919488C3060630C
:1021E0001430A06305E02068E96AC06A884200D81C
:1021F0002560606A401C6062E96A012022698840AB
:102200001043206101EB810007EB8000291D00F0E5
:10221000E9F900F013FA606900280CD02068E96A37
:10222000C06A884207D207494FF080500860BFF368
:102230004F8FBFF36F8FBDE8F081000018000020C2
:10224000E803002004ED00E010B5044690F85100CA
:1022500058B101280CD002280FD0502080F31188EB
:10226000BFF34F8FBFF36F8FFEE7206B00F0FAF9DB
:102270002046BDE8104000F0F5B910BD10484FF4FD
:102280007051420706D0C01D0D4920F00700411AC9
:10229000C1F570510B4A00230144C2E9000308391B
:1022A000183A21F0070111604B600B600B1AC0E96E
:1022B000001393604FF0004053605061704700007E
:1022C000D80400206C000020144E154CA6F1C8075D
:1022D0004FF08058DFF84C9012E000BF00F08EF90C
:1022E000F068C568281D00F039F9A068401EA0609C
:1022F0006068401E606000F0A1F92846FFF7A4FF67
:1023000060680028EAD138680128F9D9C9F8008046
:10231000BFF34F8FBFF36F8FF2E70000B0040020D0
:102320001800002004ED00E02DE9F0479A46DDE9B1
:10233000098481466FF00303206B03EB8202104493
:10234000089E20F00707780707D0502080F31188F7
:10235000BFF34F8FBFF36F8FFEE7002561B1002001
:1023600023180A5C83F834200A5C12B1401C102840
:10237000F6D384F8435001E084F83450072E00D39C
:102380000626E662C4E91165201D00F010F904F18B
:10239000180000F00CF92461C6F107006462A06126
:1023A000E56484F8505052464946384600F0C0F87B
:1023B0002060B8F1000F01D0C8F80040BDE8F087F8
:1023C00030B5114900E011460A688242FBD34B68E0
:1023D0005C18844203D1406818444860084643684A
:1023E0001C18944209D1084C183C2468A24209D018
:1023F00052681A4442600A6812680260814200D042
:10240000086030BD0460F9E76C0000200648416BAD
:10241000096829B1416BC968C96849688162704718
:102420004FF0FF31FAE7000018000020084840682C
:10243000401C4FF0500080F3118804D0BFF34F8F41
:10244000BFF36F8FFEE7BFF34F8FBFF36F8FFEE7D2
:10245000740000202DE9F0410546002700F0A2F9A4
:10246000324E306808B9FFF709FF706905424ED156
:10247000C5B3083568070ED005F00700C0F10800A5
:102480000544680707D0502080F31188BFF34F8FB1
:10249000BFF36F8FFEE72DB37068854237D82348AE
:1024A000183001460C6801E020460C466168A942DC
:1024B00002D221680029F7D131688C4227D0076801
:1024C0002168016060680837411B10290FD9601925
:1024D000420708D0502080F31188BFF34F8FBFF31D
:1024E0006F8FFEE713E041606560FFF769FF616889
:1024F0007068401A7060B268904200D2B060706933
:1025000001430020C4E90001F068401CF06000F0C5
:10251000DBFA780707D0502080F31188BFF34F8F84
:10252000BFF36F8FFEE73846BDE8F081540000200E
:1025300010B5031F4FF080741C601B1F21F00101B8
:102540001960191F044B0B6014390A60091F6FF0E2
:10255000020244380A6010BD2D240008D0E901327F
:1025600001699A60D0E901235A604A68824201D128
:1025700082684A60002202610868401E086008689C
:1025800070470000034B036003F154000860802093
:1025900010607047C400002000F108014FF0FF32C6
:1025A000C0E90112C1600161002101607047002192
:1025B0000161704730B50B685A1C02D000F1080267
:1025C00002E0026904E02246546825689D42FAD977
:1025D00053684B6099608A60516008610168491CCA
:1025E000016030BD42684A6093688B6093685960AF
:1025F000916008610168491C01607047502080F3B8
:102600001188BFF34F8FBFF36F8F0A494868401C92
:10261000486001280CD10848006810F0FF0F07D06F
:10262000502080F31188BFF34F8FBFF36F8FFEE709
:10263000704700007400002004ED00E0084948687D
:1026400028B1401E486001D180F3118870475020A6
:1026500080F31188BFF34F8FBFF36F8FFEE7000049
:102660007400002070B500282AD0164DA0F108048F
:1026700060686969084207D1502080F31188BFF370
:102680004F8FBFF36F8FFEE722683AB1502080F37F
:102690001188BFF34F8FBFF36F8FFEE788436060F1
:1026A00000F080F860686968084468602046FFF7B9
:1026B00087FE2869401C2861BDE8704000F004BA1C
:1026C00070BD0000540000204FF0E02000210161A7
:1026D000816105494FF47A720968B1FBF2F1491E34
:1026E00041610721016170471400002010B502000C
:1026F00014D00F48006B38B1502080F31188BFF31D
:102700004F8FBFF36F8FFEE700F04CF800211046AB
:10271000FFF7FAFC00F0D8F9002807D105494FF07F
:1027200080500860BFF34F8FBFF36F8F10BD000064
:102730001800002004ED00E010B586B000240394DA
:1027400005AA04A903A80494FFF71CFFDDE903010F
:102750000094CDE9011000230EA11048059A00F065
:1027600014F90F490028C86211D0502080F3118855
:10277000BFF34F8FBFF36F8F4FF0FF3088620120A0
:102780004861CC6006B0BDE8104000F041B806B02A
:1027900010BD000049444C4500000000C92200085B
:1027A000180000200248016B491C016370470000BB
:1027B000180000201448016B11B10121C16170475C
:1027C0000021C1610169B1FA81F1C1F11F0101EB81
:1027D00081020E4951F822306BB101EB820101F107
:1027E00008034A6852684A609A4201D152684A60B6
:1027F000D16801607047502080F31188BFF34F8F7C
:10280000BFF36F8FFEE7000018000020E8030020F0
:102810001CB537480168374A914207D1502080F3F0
:102820001188BFF34F8FBFF36F8FFEE70068314908
:10283000491E884207D1502080F31188BFF34F8F83
:10284000BFF36F8FFEE72C4908780190FF200870D6
:1028500008788DF800009DF800009DF8002000F039
:10286000F000904207D0502080F31188BFF34F8FC3
:10287000BFF36F8FFEE79DF80000204C00F0500082
:1028800020700720A06005E09DF8002052008DF820
:102890000020401E9DF800201206F5D4A0600328F9
:1028A00007D0502080F31188BFF34F8FBFF36F8F95
:1028B000FEE74FF44070A060019808700C4820308B
:1028C000016841F470010160016841F070410160EC
:1028D000FFF7FAFE00206060FDF784FC08480168FD
:1028E00041F040410160FDF769FC00201CBD000083
:1028F00000ED00E071C20F4100E400E07400002030
:1029000034EF00E010B5502080F31188BFF34F8FF3
:10291000BFF36F8F00F072F818B104494FF0805088
:102920000860002080F3118810BD000004ED00E075
:102930002DE9FF5F8346DDE90E87994616468A46F4
:102940009000FFF787FD05001CD05420FFF782FDA3
:10295000040014D00020256384F85100CDE9024022
:10296000CDE900874B46324651465846FFF7DCFC1E
:102970002046FFF701FC012004B0BDE8F09F284687
:10298000FFF770FE4FF0FF30F6E7F0B585B0DDE9F8
:102990000B640A9DA6B1DCB154270097266302267A
:1029A00084F85160002604AFCDE90246CDE9005716
:1029B000FFF7BAFC2046FFF7DFFB049805B0F0BD37
:1029C000502080F31188BFF34F8FBFF36F8FFEE766
:1029D000502080F31188BFF34F8FBFF36F8FFEE756
:1029E0000548416919B1006B18B1002070470120FA
:1029F0007047022070470000180000202DE9F041C8
:102A00002F4C0026206B28B1A069401CA0613046E5
:102A1000BDE8F081E5686D1CE56013D1606B00686E
:102A200038B1502080F31188BFF34F8FBFF36F8F01
:102A3000FEE7606BA16B6163A063206A401C2062AB
:102A4000FFF7E4FCA06ADFF87C80854209D3606B65
:102A50000068A0B1606BC068C7687868854211D211
:102A6000A0622068C06A00EB800158F821000128AC
:102A700000D90126E0690028C9D00126C7E74FF038
:102A8000FF30EDE7381DFFF769FDB86A18B107F1AF
:102A90001800FFF763FDF96A01202269884010439E
:102AA000206101EB810108EB8100391DFFF79AFDE0
:102AB000F86A2168C96A8842C9D30126C7E70000BD
:102AC00018000020E80300202DE9F0472C4D0024D9
:102AD0002746286B38B1FFF791FD286B401E28630D
:102AE000286B40B146E0502080F31188BFF34F8F30
:102AF000BFF36F8FFEE7A968224E0120D1B3A6F184
:102B0000B40980463068E8B1F068C46804F1180080
:102B1000FFF724FD201DFFF721FDE06A2A6908FA6E
:102B200000F11143296100EB800109EB8100211DB7
:102B3000FFF758FDE06A2968C96A8842E2D3C5F800
:102B40001C80DFE70CB1FFF761FCAC6944B146467D
:102B5000FFF754FF00B1EE61641EF9D10020A861B7
:102B6000E86938B10849012738070860BFF34F8F7B
:102B7000BFF36F8FFFF762FD3846BDE8F0870000B6
:102B8000180000209C04002004ED00E0C02B000889
:102B9000E5190008000000000000000080000000AF
:102BA0000000000000000000000000000000000025
:102BB00001020304060708090000000001020304E3
:102BC0004C696768745461736B000000EC2B00085B
:102BD00000000020840000006C1E0008702C00081B
:102BE00084000020544400007C1E00080000000007
:102BF00000000000010000001000000000000000C4
:102C00000024F400000000000000000000000000AC
:102C100000000000000000000000000000000000B4
:102C200000000000000000000000000000000000A4
:102C30000000000000000000000000000000000094
:102C40000000000000000000000000000000000084
:102C50000000000000000000000000000000000074
:102C600000000000AAAAAAAA0000000000000000BC
:040000050800018965
:00000001FF
