:020000040800F2
:10000000B80600209D0100084B1F0008011E0008D3
:10001000491F000825090008A1220008000000006F
:100020000000000000000000000000004F1F00085A
:1000300027090008000000004D1F0008511F00089C
:10004000B7010008B7010008B7010008B7010008B0
:10005000B7010008B7010008B7010008B7010008A0
:10006000B7010008B7010008B7010008B701000890
:10007000B7010008B7010008B7010008B701000880
:10008000B7010008B7010008F1070008B701000830
:10009000B7010008B7010008B7010008B701000860
:1000A000B7010008B7010008B7010008B701000850
:1000B000B7010008B7010008B7010008B701000840
:1000C000B7010008B7010008B7010008B701000830
:1000D000B701000895220008B7010008B701000821
:1000E000B7010008B7010008B7010008B701000810
:1000F000B7010008B7010008B7010008B701000800
:10010000B7010008B7010008B7010008B7010008EF
:10011000B7010008B7010008B7010008B7010008DF
:10012000B7010008B7010008B7010008B7010008CF
:10013000B7010008B7010008B7010008B7010008BF
:10014000B7010008B7010008B7010008B7010008AF
:10015000B7010008B7010008B7010008B70100089F
:10016000B7010008B7010008B7010008B70100088F
:10017000B7010008B7010008B7010008000000003F
:10018000B7010008B7010008DFF80CD000F000FB51
:10019000004800470D310008B80600200648804797
:1001A00006480047FEE7FEE7FEE7FEE7FEE7FEE75C
:1001B000FEE7FEE7FEE7FEE7E11F00088901000811
:1001C0002DE9F05F0546002092469B46884606468C
:1001D000814640241BE0284641464746224600F01F
:1001E00010FA53465A46C01A914110D31146184688
:1001F000224600F0F7F92D1A67EB01084F46224618
:100200000120002100F0EEF917EB00094E41201EFD
:10021000A4F10104DFDC484631462A464346BDE8E6
:10022000F09F00000649074A0868504343F239022C
:10023000104408604008704701490860704700009A
:100240001C0200206D4EC641D2B201E000F8012B25
:10025000491EFBD270470022F6E710B513460A4646
:1002600004461946FFF7F0FF204610BD2DE9FE4F6A
:10027000804681EA0300C00F0C46009021F0004147
:1002800023F00045B8EB0200A94105D240462146C3
:1002900090461C460B46024623F00040104347D0D0
:1002A000270DC7F30A00C3F30A510290401A0190C8
:1002B00040286BDAC3F3130040F4801B0098924689
:1002C00020B10023D2EB030A63EB0B0B01985946D4
:1002D000C0F14002504600F085F906460D465046F2
:1002E0005946019A00F09DF910EB08006141002485
:1002F00087EA115284EAE7731A4340D0009A62B346
:10030000019A012A4FEA075215DC001B61EB02013A
:100310004FF0004202EA0752CDE90042001C41F5CD
:10032000801132462B4600F09DF903B0BDE8F08FF6
:1003300040462146F9E7001B61EB0201001C41F534
:10034000801300185B412018A2F5001747EB03014A
:1003500040EAD570B6196D4111E06D084FEA3606D6
:1003600045EAC0754FEA0752001B61EB0201001C11
:1003700041F5801149084FEA3000001951413246D9
:100380002B4603B0BDE8F04F00F05DB900980122A4
:1003900040000023D0EB020263EBE073009821469B
:1003A0004FEAE074B8EB000061EB0401E9E783F089
:1003B00000435BE781F0004158E72DE9FE4F81EAF9
:1003C000030404F0004421F0004100944FF0000BBE
:1003D00023F0004350EA01045ED052EA03045BD0EC
:1003E000C3F30A54C1F30A552C44A4F2F334019424
:1003F000A0FB0254C1F3130141F48011C3F31303B2
:1004000043F4801301FB024400FB034E840A970A65
:1004100044EA815447EA8357A4FB076802958D0A92
:1004200005FB07854FEA932C04FB0C542705029D1E
:100430004FEA065847EA1637B5EB08056EEB070C8E
:10044000870E920E47EA811742EA8312A7FB020148
:10045000B6EB0B0164EB00042B0D43EA0C335E1882
:1004600044EB1C50DA465146E7FB0201C5F3130486
:100470004FEA0B3343EA14534FEA0432019C43EA38
:100480000603A4F10C040294009CCDE900B400F032
:10049000E9F803B0BDE8F08F00200146F9E72DE947
:1004A000F04D81EA030404F0004B21F000451446AE
:1004B0004FF0000A23F0004150EA050220D054EA30
:1004C00001021DD0C5F30A570246C5F31303C1F359
:1004D0001300C1F30A5640F4801543F48013A7EBD0
:1004E0000608101BD64608F2FD3873EB050002D350
:1004F00008F1010801E092185B41B8F1000F03DA3E
:1005000000200146BDE8F08D00204FF48011064622
:1005100084460EE0171B73EB050705D3121B63EB34
:10052000050306434CEA010C49084FEA30009218D3
:100530005B4150EA0107EDD152EA030012D082EA92
:10054000040083EA0501084305D0101BAB4106D225
:100550000122002306E000224FF0004302E06FF08A
:10056000010253101AEB06004CEB085110EB0A0085
:1005700041EB0B01BDE8F04D00F065B80EB5C10FC1
:1005800080EAE0700844CA07002140F233438DE856
:100590000E000A460B4600F065F803B000BD0EB52C
:1005A00040F2334102910021CDE900110A460B4689
:1005B00000F058F803B000BD30B50B4601460020EE
:1005C0002022012409E021FA02F59D4205D303FA15
:1005D00002F5491B04FA02F52844151EA2F1010296
:1005E000F1DC30BD202A04DB203A00FA02F10020C1
:1005F00070479140C2F1200320FA03F31943904061
:100600007047202A04DB203A21FA02F000217047CB
:1006100021FA02F3D040C2F120029140084319466A
:100620007047202A06DBCB17203A41FA02F043EA52
:10063000E07306E041FA02F3D040C2F1200291409B
:1006400008431946704710B5141E73F1000408DA08
:10065000401C41F1000192185B411A4301D120F086
:10066000010010BD2DE9F04D92469B4611B1B1FA43
:1006700081F202E0B0FA80F220329046FFF7B2FF3A
:1006800004460F4640EA0A0041EA0B0153465A4627
:10069000084313D0114653EA010019D0C8F14002B3
:1006A0005046FFF7AEFF05460E46504659464246B5
:1006B000FFF798FF084305D0012004E020463946A3
:1006C000BDE8F08D0020054346EAE0762C43374331
:1006D0000A986305E40AA0EB08000022FD0A44EA38
:1006E00047540A3002D500200146E9E701051019F8
:1006F0006941DDE9084500196941BDE8F04DA2E70F
:10070000C1F30A52C1F3130140F2FF3341F48011E7
:100710009A4202DA00200146704740F233439A427F
:10072000A2F2334202DC5242FFF76BBFFFF75ABF1F
:1007300030B5041E71F1000404DB4FF00044404268
:1007400064EB0101141E73F1000405DB1C464FF03D
:100750000043524263EB04038B4208BF824230BD28
:1007600030B5041E71F1000404DB4FF00044404238
:1007700064EB0101141E73F1000405DB1C464FF00D
:100780000043524263EB0403994208BF904230BDDC
:10079000064C074D06E0E06840F0010394E80700CE
:1007A00098471034AC42F6D3FFF7F2FC1832000839
:1007B0003832000830B58C1810F8012B12F00F03F6
:1007C00001D110F8013B120906D110F8012B03E00A
:1007D00010F8015B01F8015B5B1EF9D101E001F843
:1007E000013B521EFBD1A142E6D3002030BD0000E8
:1007F000014800F06EBA000028020020464910B5FA
:100800004A6822F440324A604A6843681A434A60A0
:1008100001684A6822F480724A6001684A68036984
:1008200042EA03224A6001684A6822F040724A6044
:1008300001684A6883681A434A6001688A6822F43A
:1008400000628A6001688A68C3681A438A60816AA4
:100850006FF07062D14201688A6822F070628A602B
:1008600001688A680CD0836A1A438A6001688A68C2
:1008700022F040528A6001688A68C36A1A4301E024
:1008800022F040528A6001688A6822F002028A607F
:1008900001688A68037E42EA43028A6090F8201069
:1008A000002901684A680FD042F400624A6001687A
:1008B0004A6822F460424A6001684A68174C436AF9
:1008C00004EB43331A4301E022F400624A600168FA
:1008D000CA6A22F47002CA620168CA6A838B104C29
:1008E00004EB03531A43CA6201688A6822F4007257
:1008F0008A6001688A6890F8303042EA43228A6050
:1009000001688A6822F480628A6001688A684069A6
:1009100042EA8020886010BD0023014000E0FFFF14
:100920000000F0FFFEE7704772B6FEE770B50546BF
:10093000002400F025FB3221064800F0CBFA2846BF
:1009400000F0C2F9800503D5284600F0BFF904463F
:10095000A0B270BD2802002070B5FFF7E7FF0023AA
:100960000C4C83229918490854F8215085420AD02A
:1009700003D900BF01F10103DBB202D2A1F10102F0
:10098000D2B29342EED9854201D9491CC9B2143979
:10099000C8B270BD0000002070B52DED068BFFF7CA
:1009A000C5FFFFF7FCFD0D4645EC100B9FED2E1B20
:1009B000044653EC112B51EC100BFFF7FBFC45ECFC
:1009C000104B9FED2B9B41EC180B53EC192B51EC6A
:1009D000100BFFF7F2FC53EC182BFFF760FD41EC16
:1009E000180B25A053EC182B01F05CFC9FED250B98
:1009F00001F07AFCB0EE40AAF0EE60AA53EC192B9D
:100A000051EC180BFFF74BFD41EC100B01F06CFCA7
:100A1000B0EE401AF0EE601A53EC1A2B51EC110BA9
:100A2000FFF73DFD9FED191B53EC112BFFF737FD31
:100A30009FED181B53EC112BFFF718FC41EC100B2A
:100A400053EC102B9FED150B51EC100BFFF727FD0E
:100A50009FED141B53EC112BFFF7A9FCBDEC068B8B
:100A600041EC100B70BD0000000000000000B04021
:100A7000000000000088C340B5E7D7E8A3BA256CA2
:100A8000660D0A0090F7AA9509BF05400000000016
:100A900000DCAE4083DBB5DCE1796B3F0000000099
:100AA0000000F03F666666666612714070B52DED17
:100AB000048BFFF73BFF00252B4A832429194908A3
:100AC00052F8213083420AD003D900BF01F1010559
:100AD000EDB202D2A1F10104E4B2A542EED9834203
:100AE00002EB810206D952689B1A801AB0FBF3F020
:100AF000084407E052F8042CC01AD21AB0FBF2F0F6
:100B00000844401E00EE100AF3EE040AB8EE400A54
:100B100030EE600AF2EE040A20EE200ABCEEC00AB3
:100B200010EE104AFFF77EFB0A2190FBF1F201FB69
:100B30001200FFF723FD9FED0D9B53EC192BFFF7E0
:100B4000AEFC41EC180B2046FFF729FD53EC192BA6
:100B5000FFF7A5FC53EC182BFFF788FBBDEC048BCB
:100B600041EC100B70BD00000000002000000000F0
:100B7000000024407047000078B50024009490F8ED
:100B80003C20012A19D0012280F83C200A68072362
:100B90000568092A13D9EE680A3A02EB420293402B
:100BA0009E43EE600B788A680A3B03EB43039A404E
:100BB0000368DD682A43DA6010E0022078BD2E6900
:100BC00002EB420293409E432E610B788A6803EB4E
:100BD00043039A4003681D692A431A614A681F2328
:100BE000072A13D205686E6B521E02EB82029340F5
:100BF0009E436E630B790A885B1E92B203EB8303FC
:100C00009A4003685D6B2A435A6327E005680D2A02
:100C100012D22E6BD21F02EB820293409E432E63B0
:100C20000B790A88DB1F92B203EB83039A400368B7
:100C30001D6B2A431A6311E0EE6A0D3A02EB820241
:100C400093409E43EE620B790A880D3B92B203EB10
:100C500083039A400368DD6A2A43DA62164B05680B
:100C6000144A9D4206D10D68122D03D1556845F4F2
:100C70008005556005689D4218D10B68102B01D086
:100C8000112B13D1536843F40003536009681029F2
:100C90000CD10A490A4A0968B1FBF2F101EB810162
:100CA000490000E0491E00910029FBD180F83C403A
:100CB000002078BD002301400020014018020020E0
:100CC00040420F0070477047006C70470068C06C6E
:100CD000704770B50446006801684268C1F340017E
:100CE000C2F3401251B34AB3216CC90603D4216C3C
:100CF00041F400712164816811F0405F17D1217EB9
:100D0000A9B9C16A11F4700F02D0816849050ED4E7
:100D1000416821F020014160206C20F48070206443
:100D2000206CC00403D4206C40F0010020642046F5
:100D3000FFF7C8FF21686FF01200086020680168A3
:100D40004268C1F38001C2F3C01289B382B3216C3F
:100D5000C90603D4216C41F400512164816811F467
:100D6000401F1ED1816B11F4401F02D081684905DC
:100D700017D44168490514D4816811F0405F10D13F
:100D8000217E71B9416821F080014160206C20F41E
:100D900080502064206CC00503D4206C40F001001A
:100DA00020642046FFF7E6FE21686FF00C00086023
:100DB00020680168426811F0010FC2F380120ED062
:100DC0006AB10068C0070AD0206C40F4803020640B
:100DD000204600F046F821686FF0010008602068A6
:100DE00001684268C1F34011C2F3806200290DD04E
:100DF000002A0BD0616C41F0020161646FF02005A4
:100E000005602046FFF75FFF2068056070BD70B584
:100E100004004FF0000503D0206C002610B107E05D
:100E2000012070BD204600F01DF8666484F83C6027
:100E3000206CC00610D4206C20F4885040F00200D2
:100E400020642046FFF7DAFC6664206C20F0020084
:100E500040F00100206400E0012584F83C60284651
:100E600070BD704710B586B0044614216846FFF780
:100E7000F2F915492068884224D1144800210268FB
:100E800042F480720260006800F4807005900F48A0
:100E90001438026842F001020260006800F00100AC
:100EA0000590202000900320CDE901016946084803
:100EB00000F052F900221146122000F0B9FA122077
:100EC00000F0A8FA06B010BD0020014044380240EE
:100ED000000002402DE9F041044600680D4681689B
:100EE0004FF0000749050BD58068C00508D5206C78
:100EF00040F02000206484F83C700120BDE8F081BF
:100F000000F028FA064613E0681C11D025B100F065
:100F100021FA801BA8420BD920680068800707D4FB
:100F2000206C40F00400206484F83C700320E5E766
:100F3000206800688007E7D521686FF0120008601C
:100F4000206C40F4007020642068816811F0405FDC
:100F500013D1217E89B9C16A11F4700F02D0806863
:100F600040050AD4206C20F480702064206CC004FA
:100F700003D4206C40F0010020640020BEE7000094
:100F800018B50021009190F83C20012A07D00122D9
:100F900080F83C2002689368DB0702D011E0022051
:100FA00018BD936843F0010393602E4A2E4B1268DC
:100FB000B2FBF3F202EB420200E0521E0092002A62
:100FC000FBD102689368DB0742D0036C40F20164F6
:100FD000A34343F48073036453685B0505D5036C36
:100FE00023F4005343F480530364036CDB0404D5FF
:100FF000436C23F00603436400E0416480F83C1036
:101000001A496FF02203136049680068CA0618493C
:1010100006D0884224D1816811F0405F13D01FE0D0
:101020008842F8D0134A904203D1D1F80423D20663
:10103000F1D0114A904213D1D1F8041301F01F01ED
:101040001029E8D30CE0816841F08041816007E01D
:10105000016C41F010010164416C41F001014164F7
:10106000002018BD1802002040420F00002301405C
:101070000020014000210140002201402DE9F04103
:101080000446876D00F066F9064694F835000025A1
:10109000022806D08020606584F834500120BDE825
:1010A000F0812068016821F0160101602068416923
:1010B00021F080014161206C08B9A06C20B120684A
:1010C000016821F0080101602068016821F0010138
:1010D00001600CE000F03EF9801B052807D92020B4
:1010E0006065032084F8350084F83450D7E7206821
:1010F0000068C007EED194F85C103F208840B860CB
:10110000012084F8350084F834500020C7E790F8B7
:101110003510022903D08021416501207047052147
:1011200080F835100068016821F00101016000209D
:101130007047000070B5044600F00CF90546601CCD
:1011400002D004480078044400F004F9401BA04297
:10115000FAD370BD0C0200202DE9F84FDFF8BCA1D6
:10116000002201250AF1040B03264FF00F090BF1B1
:10117000040E00BF0B6805FA02F42340A34270D1AD
:101180000F7907F00307012F01D0022F16D18768CE
:101190004FEA420806FA08FC27EA0C07D1F80CC00F
:1011A0000CFA08FC4CEA070CC0F808C04768A743D3
:1011B0000C79C4F3001494403C4344600C79E4433C
:1011C000A4070AD0C4684FEA420C06FA0CF7BC43E5
:1011D0008F6807FA0CF72743C7600C7904F0030403
:1011E000022C12D1D40800EB840CDCF82040570705
:1011F000FF0E09FA07F824EA0804D1F8108008FA6B
:1012000007F848EA0408CCF8208004684FEA420C4A
:1012100006FA0CF7BC430F7907F0030707FA0CF73F
:10122000274307604C6814F4403F70D03C4C27685B
:1012300047F480472760246822F0030704F48044C1
:101240000094384C07EB040CDCF8084897074FEA89
:10125000177809FA08F7BC43334FB84202D1002788
:1012600024E054E0314FB84201D101271EE0304F55
:10127000B84201D1022719E02E4FB84201D103270D
:1012800014E02D4FB84201D104270FE02B4FB84294
:1012900001D105270AE02A4FB84201D1062705E00F
:1012A000284FB84201D1072700E0082707FA08F7BE
:1012B0002743CCF80878DAF800405746D1F804C044
:1012C0009C435FEACC3C00D51C433C60DBF800400B
:1012D0005F46D1F804C09C435FEA8C3C00D51C43B8
:1012E0003C60DEF800407746D1F804C09C435FEADA
:1012F000CC2C00D51C433C60084F0C373C68D1F81F
:1013000004C09C435FEA8C2C00D51C433C60521CFB
:10131000102AFFF42FAFBDE8F88F0000003C014019
:101320004438024000300140000002400004024006
:1013300000080240000C024000100240001402406D
:1013400000180240001C02400AB181617047090484
:10135000FBE7000001488068704700000C02002095
:101360000248816802781144816070470C020020B5
:101370000B4810B5016841F400710160016841F447
:1013800080610160016841F480710160032000F018
:101390006FF8002000F006F800F024F8002010BDDF
:1013A000003C024070B50D4D04464FF47A71287828
:1013B000B1FBF0F00A490968B1FBF0F000F00AFB5C
:1013C00048B9102C07D200222146501E00F030F8F8
:1013D00000206C6070BD012070BD00000C02002078
:1013E000180200200A4808B5016841F480410160F4
:1013F000006800F4804000900548001F016841F03B
:1014000080510160006800F08050009008BD00002D
:1014100044380240002809DB00F01F0201219140FE
:101420004009800000F1E020C0F800117047000082
:10143000F0B40E4B1B680C46C3F30223C3F107053F
:10144000042D00D90425191D072901D2002300E02D
:10145000DB1E012606FA05F1491E214099409E40F7
:10146000761E16403143F0BC00F02CBF0CED00E0BE
:10147000064900F0070208684FF6FF03184040EAEB
:101480000220034A10430860704700000CED00E0A2
:101490000000FA052DE9F0470E46050065D0DFF89B
:1014A0001481D8F80000F7B200F00700B04207D26C
:1014B00088F80070D8F8000000F00700B04254D15E
:1014C00028683D4C810712D5400703D5206840F4B9
:1014D000E05020602878000703D5206840F4604081
:1014E00020602068A96820F0F00008432060287878
:1014F000C0072DD0304968680839012812D0022869
:1015000013D0032811D00968890700292DDA216832
:1015100021F0030101432160FFF71CFF814641F2E6
:10152000883A0EE009688903EFE709688901ECE76A
:10153000FFF710FFA0EB0901514502D90320BDE8D8
:10154000F0872068696800F00C00B0EB810FEFD1E4
:10155000D8F80010404601F00701B14207D90770E2
:10156000006800F00700B04201D00120E7E72878CA
:10157000400705D52068E96820F4E0500843206062
:101580002878000706D52068296920F4604040EAE1
:10159000C100206000F038F82168084AC1F3031147
:1015A000515CC8400649086006480068FFF7FAFE2B
:1015B0000020C4E7003C024008380240C031000867
:1015C000180200201002002004480549006809683C
:1015D000044AC1F38221515CC840704718020020C0
:1015E00008380240D03100080448054900680968FD
:1015F000044AC1F34231515CC840704718020020D0
:1016000008380240D0310008154810B5006810F0C5
:101610000C02144813D04110042A0FD0082A0ED10E
:101620000F4C241F2268236802F03F025B0207D59B
:101630002068C0F38810A0FB010106E0084610BD39
:101640002168C1F38811A1FB00010023FEF7B8FD5A
:101650002168C1F30141491C4900B0FBF1F010BD04
:10166000083802400024F4002DE9F84F04006ED041
:101670002078DFF84C93C007A9F104054AD009F19E
:1016800004000168C1F38101012908D00068C0F39A
:10169000810002280AD1D9F80000400206D5286846
:1016A000800337D560680028E1D033E06068B0F58A
:1016B000803F10D0B0F5A02F286810D020F48030E3
:1016C0002860286820F4802028606068A8B1FFF7AF
:1016D00041FE06460DE0286840F48030F4E740F40F
:1016E00080202860F7E700BFFFF734FE801B6428E6
:1016F00073D828688003F7D50CE0FFF72BFE064669
:1017000005E000BFFFF726FE801B6428F0D828689C
:101710008003F7D42078DFF8AC8280074FF0000A0E
:101720003ED5A748001D016811F00C0F08D00068D5
:10173000C0F3810002280BD1D9F80000400207D481
:101740002868800716D5E068012800D112E033E14F
:10175000E068B8B10120C8F80000FFF7FBFD0646BD
:1017600005E000BFFFF7F6FD801B0228C0D82868FF
:101770008007F7D52868216920F0F80040EAC10009
:1017800028600DE0C8F800A0FFF7E4FD064604E07D
:10179000FFF7E0FD801B02281FD828688007F7D4D8
:1017A0002078000722D5864F87486169703771B16C
:1017B00001210160FFF7CEFD064604E0FFF7CAFDF8
:1017C000801B022809D838688007F7D50EE0C0F8DA
:1017D00000A0FFF7BFFD064605E082E0FFF7BAFD77
:1017E000801B02287DD838688007F7D4207840070E
:1017F00068D5DFF8CCB100270BF13C0BDBF800001B
:10180000C0000BD4DBF8001041F08051CBF8001081
:10181000DBF80000012700F0805000906B4E30682C
:10182000C00510D4306840F480703060FFF792FD3E
:10183000009005E0FFF78EFD0099401A022850D86D
:101840003068C005F6D55E4EA0686C3601280FD012
:101850000528306810D020F001003060306820F09A
:1018600004003060A068B8B1FFF774FD00900FE08D
:10187000306840F00100F4E740F004003060F7E722
:10188000FFF768FD0099411A41F28830814266D81D
:1018900030688007F4D50EE0FFF75CFD009007E0AC
:1018A000FFF758FD0099411A41F28830814256D81D
:1018B00030688007F4D42FB1DBF8001021F080519C
:1018C000CBF80010A069C8B33D49091D0968C1F3F0
:1018D000810102294AD00228504607D0C8F860008A
:1018E00000E03CE0FFF736FD04463BE04746C8F821
:1018F0006000FFF72FFD064605E000BFFFF72AFD59
:10190000801B02282BD828688001F7D4D4E907016E
:101910000843A16A2E4A490802EB0141626A41EA82
:101920008211084394F82C1040EA0161C9F80010B4
:1019300001203866FFF70EFD044606E03EE000BFDA
:10194000FFF708FD001B022809D828688001F7D599
:1019500034E000BFFFF7FEFC001B022802D9032081
:10196000BDE8F88F28688001F4D427E00128F7D07B
:10197000D9F80000E26900F4800191421CD1226A8A
:1019800000F03F01914217D147F6C071626A0140F1
:10199000B1EB821F10D1A26A4FF0FF3300F4403147
:1019A00003EB5202B1EB024F06D194F82C1000F079
:1019B0007060B0EB016F01D00120D1E70020CFE7CC
:1019C0000438024000004742800E47420070004049
:1019D0000000FFFF10B5401EB0F1807F01D3012051
:1019E00010BD4FF0E02460610F21601700F06AFC29
:1019F0000020A06107202061002010BD70477047C3
:101A0000F8B5016804460868CA684B6910F00F0F02
:101A10004FF0000559D003F0010602F490773743E8
:101A200065D0C10705D0D10503D5216C41F0010176
:101A30002164410705D5D90703D0216C41F002018B
:101A40002164810705D5D90703D0216C41F0040139
:101A50002164010707D502F02001314303D0216C36
:101A600041F008012164216C00293AD0800604D598
:101A7000900602D5204600F0EAFA20684069216C01
:101A8000C0F38010090700D460B3204600F0B8FA14
:101A900020684069400621D52068143050E8001FB6
:101AA00021F0400140E80012002AF5D1A06BA8B156
:101AB0006C490165A06BFFF72AFB002811D0A06BD1
:101AC000016D01B0BDE8F040084783060FD59306CD
:101AD0000DD52046BDE8F84000F0B9BA2046FFF722
:101AE0008EFFF8BD2046FFF78AFF2564F8BD266B00
:101AF0002023012E79D1C60677D5D60675D508687C
:101B0000486800904869400640D5A16B0868406865
:101B10000004000CEAD0A28D8242E7D9E085C869B2
:101B2000B0F5807F2DD020680C3050E8001F21F4E4
:101B3000807140E80012002AF5D12068143050E886
:101B4000001F21F0010140E80012002AF5D12068B1
:101B5000143050E8001F21F0400140E80012002A34
:101B6000F5D184F83E30256320680C3050E8001F22
:101B700021F0100140E80012002AF5D1A06BFFF718
:101B80007DFAA08DE18D401A81B229E0A08DE18D12
:101B9000401A81B2E08D0028A8D00029A6D0206884
:101BA0000C3050E8002F22F4907240E80026002EFE
:101BB000F5D12068143050E8002F22F0010240E8EF
:101BC0000026002EF5D184F83E30256320680C30C5
:101BD00050E8002F22F0100240E80023002BF5D13E
:101BE0002046FFF70BFFF8BDFFE705062BD51506CE
:101BF00029D594F83D002128F5D1A068B0F5805F83
:101C000001D12069B0B1206A411C216221680078AD
:101C10004860E08C401E0004000CE084E3D12068A2
:101C2000C16821F08001C1602068C16841F04001B5
:101C3000C160D8E7206A0088C0F308004860206AC5
:101C4000801C2062E5E74006CDD55006CBD5CA689A
:101C5000204622F04002CA6084F83D3000F0CFF800
:101C6000C1E70000F11F000870B5040004D094F82B
:101C70003D00002510B106E0012070BD84F83C5005
:101C8000204600F023F8242084F83D002068C16835
:101C900021F40051C160204600F03AFA2068016941
:101CA00021F4904101612068416921F02A014161DC
:101CB0002068C16841F40051C1602564202084F887
:101CC0003D0084F83E00002070BD000010B586B0D5
:101CD000044614216846FEF7BEFA18492068884277
:101CE00029D117480021026842F010020260006802
:101CF00000F01000059012481438026842F001020A
:101D00000260006800F0010005904FF4C060009090
:101D10000220CDE9010103200390072004906946C9
:101D20000848FFF719FA002211462520FFF780FB2B
:101D30002520FFF76FFB06B010BD0000001001402A
:101D40004438024000000240704700002DE9F8438B
:101D5000044690F83D001F4616460D4620284CD1FB
:101D6000C5B1BEB194F83C00012846D0012084F8EA
:101D70003C004FF00008C4F84080212084F83D006A
:101D8000FFF7E8FAA6848146E684A068B0F5805F94
:101D900003D004E00120BDE8F883206928B12E4675
:101DA0005FF0000584F83C800EE00026FAE7802111
:101DB000204600F033FAA0B9AEB116F8010B216845
:101DC0004860E08C401EE084E08C4B464FF00002FF
:101DD00000970028EBD14FF04001204600F01EFA9A
:101DE00030B10320D7E735F8020BC0F30800E6E76F
:101DF000202084F83D000020CDE70220CBE770478B
:101E0000FEE700007FB5002414480094019402947A
:101E100011490394C0E9001484600461047680F8D9
:101E200020400F49C0E90A140125C561C46080F84B
:101E300030404561FEF7EBFF08B1FEF775FD052068
:101E4000CDE90005694602940448FEF795FE002896
:101E500001D0FEF769FD7FBD00200140280200206F
:101E60000100000FF0B587B014216846FEF7F3F9C2
:101E700024480024016841F010010160016801F06C
:101E800010010591016841F080010160016801F0D5
:101E900080010591016841F001010160016801F0D4
:101EA00001010591016841F0400101600068164E92
:101EB00000F040000590012218213046FFF744FA57
:101EC000124F002280213846FFF73EFA01225102CC
:101ED0003846FFF739FA182000900125CDE9015462
:101EE000694630460394FFF737F94FF420700090AD
:101EF000CDE90154694638460394FFF72DF907B040
:101F0000F0BD0000303802400010024000180240CE
:101F10000C4810B50A4901604FF4E13141600021DD
:101F200081600C22C160C0E904128161C161FFF7C8
:101F30009BFE002803D0BDE81040FEF7F5BC10BDA5
:101F40000010014070020020FEE7FEE77047704776
:101F5000FFF706BA30B593B030216846FEF77BF93B
:101F600014210CA8FEF777F91B480025016841F001
:101F700080510160006800F080501190174801689E
:101F800041F4804101600068022400F48040119017
:101F900001200090000401908001CDE9064008AACC
:101FA0000420402182E813000B906846FFF75CFB99
:101FB00008B172B6FEE70F20CDE90C049020CDE900
:101FC0000E0500210CA81095FFF764FA002801D037
:101FD00072B6FEE713B030BD4038024000700040DA
:101FE0000248016841F470010160704788ED00E02B
:101FF00010B5806B0021C185C184FFF700FD10BDC5
:1020000001680C3151E8002F22F4907241E800235E
:10201000002BF5D10168143151E8002F22F00102A4
:1020200041E80023002BF5D1016B012909D101689A
:102030000C3151E8002F22F0100241E80023002B60
:10204000F5D1202180F83E1000210163704708B5CA
:1020500090F83E10222901D0022008BD82684FF47A
:1020600080539A4201D1016921B1816A9A421BD001
:102070004AB10AE00268816A5268C2F308020A8023
:10208000816A891C08E0026972B10268526802F034
:102090007F020A70816A491C8162C18D491E090450
:1020A000090CC18503D019E002685268F1E70168A4
:1020B000CA6822F02002CA600168CA6822F48072ED
:1020C000CA6001684A6922F001024A61202180F851
:1020D0003E10016B012903D0FFF736FE002008BD3A
:1020E0000021016301680C3151E8002F22F0100239
:1020F00041E80023002BF5D101680A68D20602D519
:102100000A6849680091818DFFF778FCE6E70000D6
:1021100070B5044600680169E26821F4405111433A
:1021200001612169A068E2690843616911430843BC
:102130002168CA6849F20C639A430243CA60206866
:102140004169A26921F4407111434161314920681C
:10215000884202D03049884202D1FFF745FA01E0B7
:10216000FFF732FAE2690023192164253226B2F51D
:10217000004F626828D0A0FB0101930F9200FEF788
:102180001FF80146B0FBF5F06FF01802504301EB69
:10219000800006EB0010B0FBF5F000F0F002B1FBA0
:1021A000F5F002EB0012B1FBF5F06FF018035843A5
:1021B00001EB800006EB0010B0FBF5F000F00F0023
:1021C00021681044886070BDA0FB010192185B413A
:1021D000FDF7F6FF0146B0FBF5F00201B1FBF5F0AB
:1021E0006FF01803584301EB800006EBC000B0FB12
:1021F000F5F000F0F80002EB4002B1FBF5F05843B7
:1022000001EB800006EBC000B0FBF5F000F007002A
:10221000D6E7000000100140001401402DE9F04114
:10222000984617460E460446069D27E0681C25D0B2
:102230002DB1FFF78FF8A0EB0800A8421ED9206847
:102240000C3050E8001F21F4D07140E80012002A41
:10225000F5D12068143050E8001F21F0010140E85A
:102260000012002AF5D1202084F83D0084F83E00B9
:10227000002084F83C000320BDE8F081206800685D
:1022800036EA000004D00020B842CFD00020F3E7A7
:102290000120F9E70148FFF7B3BB000070020020FE
:1022A000FEE700000FB4054B10B503A9044A0298DD
:1022B00000F086FB10BC5DF814FB0000F130000854
:1022C000200200200907090E002804DB00F1E020AD
:1022D00080F80014704700F00F0000F1E02080F853
:1022E000141D70470000000070B5D94B00242DED7F
:1022F000020B2DED108BDDE91010984205DA20F06D
:1023000000429A4201D809D141B19DED100BBDECBC
:10231000108B02B0BDE8704000F05EBAB0F5801FCF
:1023200026DA11430BD0002813DA012000F080FADE
:10233000BDEC108B02B0BDE8704000F059BA02202D
:1023400000F076FA00F030FA51EC100B81F0004109
:102350009EE06FF035049FEDC00B53EC102B9DED0C
:10236000100B51EC100BFEF728F8CDE910010846D0
:1023700004EB2051C0F31304B948A1F2FF3120440B
:1023800000F4801080F07F6282F04052224301EB23
:1023900020559FEDB50B119253EC102B9DED100BBA
:1023A00051EC100BFEF703F841EC180BA01CC0F326
:1023B00013009FEDAFDB9FEDB0EBB14E7E440328E1
:1023C0006CD296ED000B51EC180B53EC102BFEF772
:1023D000AFF91DD1002D01BF96ED000BBDEC108BA8
:1023E00002B070BD2846FEF7C9F841EC180B53EC5B
:1023F0001D2BFDF7E2FF41EC190B53EC1E2B51ECAA
:10240000180BFDF7DAFF53EC192BFDF72FFF3FE018
:102410009FED9D0B51EC180B53EC102BFDF7CDFFEE
:102420009FED9B1B53EC112BFDF7C4FF41EC190BE7
:1024300053EC182B51EC180BFDF7BFFF53EC192B85
:10244000FDF7BBFF41EC190B002D04BF53EC192B1A
:1024500051EC180B1AD02846FEF790F841EC1A0BF5
:1024600053EC1D2BFDF7A9FF53EC192BFDF7A2FF31
:1024700053EC182BFDF79BFF41EC180B53EC1E2B74
:1024800051EC1A0BFDF799FF53EC182BFDF78FFF5A
:10249000BDEC108B02B041EC100B70BD9FED7E0BBC
:1024A00051EC180B53EC102BFDF7E0FE41EC100B38
:1024B00051EC180B53EC102BFDF7F1FF41EC190B0D
:1024C0002846FEF75BF841EC1B0B53EC192B51EC43
:1024D000190BFDF772FF41EC1A0B714853EC1A2BE4
:1024E000261851EC1A0BFDF768FF41EC1F0B6D48E5
:1024F000C4F1510404F5D724B0EE4F0AF0EE6F0A90
:102500000321784400F0D2F853EC1F2B51EC100B50
:10251000FDF753FF41EC1C0B6348B0EE4F0AF0EEA1
:102520006F0A0421784400F0C1F853EC1A2B51ECE7
:10253000100BFDF742FF344353EC1C2BFDF796FEC6
:1025400041EC1C0B002C4CDD9FED510B51EC180B9A
:1025500053EC102BFDF731FF53EC182BFDF72DFF3B
:1025600041EC1A0B55B353EC1D2B51EC1B0BFDF733
:1025700024FF41EC1D0B53EC1C2B51EC1A0BFDF707
:1025800075FE53EC192BFDF718FF53EC1D2BFDF7CF
:102590006DFE53EC1A2BFDF70DFF53EC182BFDF7D6
:1025A00006FF41EC180B53EC1E2B51EC1B0BFDF7F7
:1025B00004FF53EC182BFDF7FAFE69E753EC1C2BD4
:1025C00051EC1A0BFDF752FE53EC192BFDF7F5FEFB
:1025D00053EC1A2BFDF7EEFE53EC182BFDF7EAFE39
:1025E00056E735B353EC1D2B51EC1B0BFDF7E5FE05
:1025F00041EC1A0B53EC1C2B51EC180BFDF7D7FEDA
:1026000053EC192BFDF7D9FE53EC1A2BFDF7CFFE37
:1026100053EC182BFDF7CBFE41EC180B53EC1E2BA3
:1026200051EC1B0BFDF7C9FE53EC182BFDF7BFFE59
:102630002EE753EC1C2B51EC180BFDF7B8FE53ECB6
:10264000192BFDF7BAFE53EC182BFDF7B3FE1FE76D
:102650000000F07F00000000000000000000504378
:10266000645F090000000000000000000000F03F6F
:10267000763C7935EF39EA3D0000E0FE422EE63F38
:10268000500E000000000000555555555555D53FDA
:10269000000000000000E03F0000000000000040DB
:1026A00086EBF9FFD20C0000C80C000070B50446A0
:1026B0002DED028B4D1E00EBC500B0EE408AF0EE12
:1026C000608A90ED000B35F0060017D053EC182B04
:1026D00051EC100BFDF771FE41EC100B6D1E04EB7D
:1026E000C50090ED001B51EC100B53EC112BFDF7C6
:1026F000BDFD41EC100B35F00600E7D1022D36D0C0
:10270000042D1CD0062D1CBFBDEC028B70BD53ECFC
:10271000182B51EC100BFDF750FE94ED0A1B53ECF7
:10272000112BFDF7A3FD53EC182BFDF746FE94ED9E
:10273000081B53EC112BFDF799FD41EC100B53ECEA
:10274000182B51EC100BFDF738FE94ED061B53ECE3
:10275000112BFDF78BFD53EC182BFDF72EFE94ED9E
:10276000040B53EC102BFDF781FD41EC100B53ECE7
:10277000182B51EC100BFDF720FE94ED021B53ECCF
:10278000112BFDF773FD53EC182BFDF716FE94ED9E
:10279000001B53EC112BFDF769FDBDEC028B41ECE6
:1027A000100B70BD000000009FED070B10B553EC3F
:1027B000102B9FED070B51EC100BFDF770FE41EC59
:1027C000100B10BD00000000000000000000000021
:1027D000000000000000F03F10B553EC102B51EC4E
:1027E000100BFDF743FD41EC100B10BD0000000085
:1027F0009FED050B10B553EC102B51EC100BFDF7B2
:102800004EFE41EC100B10BD000000000000000067
:1028100002E008C8121F08C1002AFAD170477047A9
:10282000002001E001C1121F002AFBD17047000007
:102830000149086070470000240200202DE9FF5F75
:1028400082B00021DDE90430020DDDF840B0034321
:1028500018D044F61050A2F2FF32424315141198DA
:1028600001281FD0A5EB0B00401C5FEA000A4FF0C7
:1028700000064E4FDFF83891B046504615D5CAF1E4
:10288000000413E0119801244AA3012801D16FEA42
:102890000B010298119AC0E90031C0E9024206B06A
:1028A000BDE8F09FCBF10000DFE704460021404A7D
:1028B000491842EB0450CDE9001012E0E00707D0C0
:1028C00032463B4640464946FDF777FD80468946FD
:1028D00032463B4610461946FDF76FFD06460F4649
:1028E0006410002CEAD1DDE90401DDE90023BAF12E
:1028F000000F06DAFDF761FD42464B46FDF75DFD30
:1029000005E0FDF7CCFD42464B46FDF7C8FD044609
:102910000E460022284BFDF723FF03D84FF0FF306F
:10292000014607E00022254B20463146FDF79EFC7C
:10293000FDF7E6FE102409E0002C0ADB0A22002342
:10294000FDF73EFC039B30321A55641E50EA01022B
:10295000F2D1641C039AC4F111031444119A012AA0
:1029600003D0012208430DD10AE0084304D000201F
:102970004FF0110B119072E7A3EB0B056D1E0DE0EC
:102980005B4504DD4FF0000205F1010504E003DAC8
:102990004FF00002A5F10105002AECD00298119930
:1029A000C0E90231C0E9004579E7000000001440A9
:1029B0000000F03F300000000000F0430000E03F66
:1029C0002DE9FF4F95B09B468946064600250FE24C
:1029D000252877D100242746F84A0121059400E0F4
:1029E000044316F8013F203B01FA03F01042F7D1EF
:1029F00030782A2811D06FF02F033078A0F1300200
:102A0000092A16D8059A44F0020402EB820203EB6D
:102A100042021044761C0590EFE759F8042B05920A
:102A2000002A03DA504244F40054059044F00204B2
:102A3000761C30782E2816D116F8010F44F00404C5
:102A40002A280DD06FF02F023078A0F13003092B27
:102A500009D807EB870302EB4303C718761CF3E79B
:102A600059F8047B761C30786C280FD006DC4C2893
:102A700017D068280DD06A2814D104E0742810D02B
:102A80007A280FD10DE044F400140AE044F48014D5
:102A900001E044F440147278824202D104F58014BB
:102AA000761C761C307866280BD013DC582877D03B
:102AB00009DC002875D04528F6D04628F4D04728F0
:102AC0001AD19DE118E0632835D0642879D06528B3
:102AD00012D195E1702873D008DC6728F1D06928FD
:102AE0006FD06E280DD06F2806D1B5E073282CD09A
:102AF000752875D0782874D05A46179990476D1C60
:102B000075E1C4F30250022809D003280DD0D9F88A
:102B1000001004280DD00D6009F1040967E1D9F80F
:102B20000010EA17C1E90052F6E7D9F800100D804D
:102B3000F2E70D70F0E719F8041B8DF80010002083
:102B40008DF80100EA46012003E059F804AB4FF08C
:102B5000FF3061074FF0000102D40DE008F10101E0
:102B60008846B9420FDA8045F8DB1AF808100029C8
:102B7000F4D108E008F1010188468142FADB1AF835
:102B800008100029F6D105985B46A0EB08072146FE
:102B90003846179A00F094FA284400EB080507E03D
:102BA0004DE029E10DE01AF8010B5A4617999047BC
:102BB000B8F10108F7D25B4621463846179A13E16F
:102BC00042E00A220092C4F302524FF0000A022AA5
:102BD00008D059F804CB032A4FEAEC710AD00DE073
:102BE00029E02AE009F1070121F00702F2E802C119
:102BF000914609E00FFA8CFC4FEAEC71042A03D1EC
:102C00004FFA8CFC4FEAEC71002907DA0A460021E2
:102C1000DCF1000C61EB02012D2202E0220504D55B
:102C20002B228DF80420012203E0E20701D02022AC
:102C3000F7E7904659E00A2102E010220DE010214A
:102C40004FF0000A00910BE010224FF0000A44F010
:102C500004040827009203E008224FF0000A0092C3
:102C6000C4F30252022A05D059F804CB0021032AEA
:102C700008D009E009F1070121F00702F2E802C1DA
:102C8000914605E01FFA8CFC042A01D10CF0FF0CE0
:102C90004FF00008220728D5702806D0009B83F04B
:102CA000100353EA0A0305D00EE040228DF80420F9
:102CB000012208E05CEA010206D030228DF80420EF
:102CC0008DF8050002229046009B83F0080353EA2A
:102CD0000A030AD15CEA010201D1620705D530225C
:102CE0008DF804204FF001087F1E582804D034A02E
:102CF00003900EA802900DE036A0F9E75346604617
:102D0000009AFDF75DFA84460398825C0298401EA3
:102D1000029002705CEA0100F0D1029806A9081A3C
:102D200000F1200A600702D524F4803400E0012776
:102D3000574502DDA7EB0A0000E0002000EB0A0186
:102D4000009005984144401A0590E00306D45B4684
:102D50002146179A059800F0B3F90544002706E0CC
:102D600001A85A46C05D179990476D1C7F1C4745C6
:102D7000F6DBE0030CD55B462146179A059800F078
:102D80009FF9054404E030205A46179990476D1C7E
:102D90000099481E00900029F5DC08E0029802998D
:102DA0005A460078491C0291179990476D1CBAF158
:102DB0000001AAF1010AF1DC65E100000928010027
:102DC00030313233343536373839616263646566A1
:102DD0000000000030313233343536373839414263
:102DE000434445460000000000F058F90544761CB5
:102DF000307800287FF4ECAD19B02846BDE8F08F9C
:102E0000620700D4062709F1070222F0070CFCE84C
:102E10000223E14603F000485FEA080C02D00FF2FB
:102E2000702C0DE05FEA045C02D50FF2682C07E01D
:102E30005FEAC47C02D00FF2602C01E0AFF2700CAC
:102E40004FF0FF3823F00043CDF850C065280CD078
:102E500006DC452809D046281DD047283DD13DE055
:102E6000662818D067287ED138E00021112F01DBB9
:102E7000112000E0781CCDE9000106A90EA8FFF79B
:102E8000DDFCDDE90F010E9A03910021009207F1AC
:102E9000010A04914DE04FF000400097CDE9011088
:102EA00006A90EA8FFF7CAFCDDE90F0203920E9BEC
:102EB00011990022DDF80CA00093049211B9791C3D
:102EC00000EB010AB7EB0A0004D4C0F1FF3007F1B0
:102ED000010A0490AAEB0700019044E0012F00DAF8
:102EE00001270021112F01DD112000E03846CDE936
:102EF000000106A90EA8FFF7A1FCDDE90F010E9A5B
:102F00000391002104910092BA4621070CD4039941
:102F1000514500DA8A46BAF1010F05DD009AAAF19F
:102F20000101515C302908D0B84202DA10F1040FD7
:102F300006DA0121CDE9011015E0AAF10101E9E766
:102F4000002805DC049901440491AAEB000102E089
:102F5000411C514500DD8A460499401A401C0190ED
:102F60004FF000400290200704D40198504501DB47
:102F7000CDF8048000208DF84F0002980DF14F0726
:102F8000B0F1004F25D02B200E9002984FF0020890
:102F900000280CDA404202902D200E9007E00A2112
:102FA0000298FDF709FB3031029007F8011DB8F1D6
:102FB0000001A8F10108F2DC02980028EFD1791E87
:102FC0000E980870307800F0200040F0450007F8B7
:102FD000020D12A8C01B00F107081498007800B178
:102FE000012000EB0A01019801EBE07105984144D2
:102FF000401A401E0590E00306D45B462146179A0E
:10300000059800F05DF805441498007818B15A4608
:10301000179990476D1CE00324D55B462146179A0B
:10302000059800F04DF805441CE00498002807DBE3
:10303000DDE90301884203DD0098405C179901E057
:10304000179930205A469047049805F10105401C15
:1030500004900198401E019004D12E205A461799E1
:1030600090476D1CBAF10001AAF1010ADDDC05E010
:1030700017F8010B5A46179990476D1CB8F10001DB
:10308000A8F10108F4DC5B462146179A0598ABE6E7
:103090002D0000002B000000200000002DE9F04171
:1030A000044600251E461746880404D405E0394628
:1030B0002020B0476D1C641EF9D52846BDE8F0817C
:1030C0002DE9F041044600251E469046C80301D56F
:1030D000302700E02027880404D505E04146384623
:1030E000B0476D1C641EF9D52846BDE8F08100008C
:1030F00038B504468DF800000223012269460248D3
:10310000FEF724FE204638BD70020020FEF730F99D
:10311000FEF720FFFEF7A6FEFEF774FEFEF7F8FEB0
:103120004FF47A742046FEF705F80C48FDF714FCBE
:1031300001460BA0FFF7B6F80848FDF7B7FC53ECC3
:10314000102B0CA0FFF7AEF80448FDF725FC53EC5C
:10315000102B11A0FFF7A6F8E4E7000028020020DA
:10316000B5B1C7B0CEC2B6C8CEAAA3BA256420A155
:10317000E60D0A0028B8DFBEABB6C8B0E6B1BE297E
:10318000B5B1C7B0CEC2B6C8CEAAA3BA252E326C8E
:103190006620A1E60D0A000028B8DFBEABB6C85015
:1031A0004A4CB0E6B1BE29B5B1C7B0CEC2B6C8CEA2
:1031B000AAA3BA252E326C6620A1E60D0A000000F3
:1031C00000000000000000000102030406070809D7
:1031D000000000000102030404FA97999999D93F6D
:1031E000AF788E1DC571CC3F9FC678D0099AC33F7A
:1031F000935555555555E53F599322942449D23F4F
:10320000DE03CB966446C73F44523EDF12F1C23F15
:10321000000000000000000038320008000000201C
:1032200028020000B4070008C0330008280200206C
:103230009004000020280008339D0E33890E33735C
:103240000E335D0E33460E332E0E33150E33FB0D4B
:1032500033E00D33C50D33A80D338A0D336B0D33B9
:103260004C0D332B0D330A0D33E70C33C40C33A054
:103270000C337B0C33550C332E0C33070C33DE0B25
:1032800033B60B338C0B33620B33370B330B0B33EF
:10329000DF0A33B30A33860A33580A332B0A33FD65
:1032A0000933CF0933A009337209334309331509B0
:1032B00033E60833B808338A08335C08432E0832F3
:1032C0000833D30733A607337907334D0733210774
:1032D00033F60633CB0633A106337706334E063377
:1032E000260633FE0533D70533B105338B05336628
:1032F00005334205331E0533FB0433D90433B804C8
:10330000339704337704335804333A04331C0433BB
:10331000FF0333E30333C70333AC03339203337840
:1033200003335F033347033330033319033302039B
:1033300033ED0233D80233C30233AF02339C02337E
:103340008902337702336502335402334302333345
:103350000233230233140233050233F60133E8014A
:1033600033DB0133CE0133C10133B40133A8013360
:103370009D01339101338601337C01337101336741
:1033800001335E01335401334B01334201333A01BF
:10339000333101332901332101331A01331201334F
:1033A0000B0133040142FD42F742F042EA42E4429B
:1033B000DE42D942D342CE42019210E324F400000F
:040000050800018965
:00000001FF
