:020000040800F2
:10000000F0070020F9010008C3270008B526000802
:10001000C1270008E7130008652A00080000000057
:10002000000000000000000000000000C7270008DA
:10003000E913000800000000C5270008C9270008D0
:10004000130200081302000813020008130200083C
:10005000130200081302000813020008130200082C
:10006000130200081302000813020008130200081C
:10007000130200081302000813020008130200080C
:100080001302000813020008851300081302000879
:1000900013020008130200081302000813020008EC
:1000A00013020008130200081302000813020008DC
:1000B00013020008130200081302000813020008CC
:1000C00013020008130200081302000813020008BC
:1000D00013020008592A000813020008130200083E
:1000E000130200081302000813020008130200089C
:1000F000130200081302000813020008130200088C
:10010000130200081302000813020008130200087B
:10011000130200081302000813020008130200086B
:10012000130200081302000813020008130200085B
:1001300000F002F800F050F80AA090E8000C8244A9
:100140008344AAF10107DA4501D100F045F8AFF286
:10015000090EBAE80F0013F0010F18BFFB1A43F0A5
:1001600001031847B02B0000D02B0000103A24BF29
:1001700078C878C1FAD8520724BF30C830C144BF0C
:1001800004680C607047000000230024002500264E
:10019000103A28BF78C1FBD8520728BF30C148BFEA
:1001A0000B607047642900F08780002070471FB5FE
:1001B0009DE8030000F074FE01F00AF8040000203E
:1001C000002102F07FFD401C606000F06DFA1FBD51
:1001D00010B500F0D2FA10BD00F035FB1146FFF764
:1001E000E6FF02F071FC00F021FE03B4FFF7F0FF20
:1001F00003BC00F0E7FF00000948804709480047BA
:10020000FEE7FEE7FEE7FEE7FEE7FEE7FEE7FEE7C6
:10021000FEE7FEE704480549054A064B7047000023
:100220004528000831010008F0010020F0070020F7
:10023000F0030020F00300200FB4044910B503AA16
:10024000029800F0AFF910BC5DF814FBE400002048
:100250002DE9F0410E460446002020622046E16868
:10026000884730B3252805D0D4E901219047206A7A
:10027000401CF2E7E168204600278847050018D0B7
:10028000A5F14100192802D820354FF40067324605
:10029000294620462760FFF785FF40B1012804D09A
:1002A000F61D26F007060836D8E7361DD6E728469D
:1002B000DAE7206ABDE8F0812DE9F0410646002426
:1002C00010687529314616A510D0AFF300800028BC
:1002D00002DA404213A507E031688A0701D512A56A
:1002E00002E0490704D511A5012401E0AFF3008025
:1002F00000210A2206F1240709E0B0FBF2FCB0FB62
:10030000F2F302FB1C00303078541846491C0028D8
:10031000F3D123462A463046BDE8F04100F0E8B864
:10032000000000002D0000002B0000002000000055
:100330000FB400B589B00BA86A46009003480A992B
:1003400000F050F909B05DF814FB000090000020A7
:100350002DE9FF5F1D464FF0FF3B91464FF000082F
:100360005F46D5E90146A96901987F1C8847296A3B
:10037000824688470028F6D1BAF1FF3F0CD0002E04
:1003800024F4C06419DD600614D5BAF12B0F09D02E
:10039000BAF12D0F0ED103E0584604B0BDE8F09F2E
:1003A00044F48064A96901987F1C8847761E8246C0
:1003B000002E02DDBAF1300F03D0B9F1000F26D0C4
:1003C00032E0A969761E01987F1C44F400748847C6
:1003D000002E824605DDBAF1780F06D0BAF1580F2B
:1003E00003D0B9F1000F10D01EE0B9F1000F02D018
:1003F000B9F1100F18D1A969761E01987F1C24F459
:10040000007488478246102002E0082000E00A209D
:10041000814609E0A96908FB0908761E01987F1C3E
:1004200044F4007488478246002E05DD4946504654
:1004300000F0CAF80028EDDAE96901988847A005BC
:1004400002D46FF00100A8E7E00725D1600613D5BC
:10045000600502D5C8F1000000E0404629680A1D89
:100460002A600968220501D5087015E0220701D528
:10047000088011E008600FE02868011D296000680D
:10048000210502D580F8008006E0210702D5A0F8FA
:10049000008001E0C0F8008038467EE74FF000029F
:1004A00000B5134694469646203922BFA0E80C506A
:1004B000A0E80C50B1F12001BFF4F7AF090728BF45
:1004C000A0E80C5048BF0CC05DF804EB890028BFC1
:1004D00040F8042B08BF704748BF20F8022B11F0EA
:1004E000804F18BF00F8012B704770477047704766
:1004F0002DE9F0470D4699469246044600F124083E
:100500000168880604D5E06921F01001216000E04F
:100510000120A84201DD471B00E00027A1697A19EC
:1005200002EB0900081AA0612078C00602D4204618
:10053000AFF30080002608E0D4E901211AF8060094
:100540009047206A401C761C20624E45F4DB2078E0
:10055000C0060AD52046AFF3008006E0D4E90121A9
:1005600030209047206A401C2062381EA7F1010706
:10057000F4DC07E0D4E9012118F805009047206A6F
:10058000401C2062281EA5F10105F3DC2046AFF3D4
:1005900000802078000602D50220BDE8F087012007
:1005A000FBE70000074B70B50D467B4400F02BF8CD
:1005B0000446284600F074F810B14FF0FF3070BDCB
:1005C000204670BDFB2400003A2800D2303820F0CD
:1005D0002002412A01D3A2F13700884201D34FF013
:1005E000FF307047034B7B449361034B7B44D361E3
:1005F00000F022B89F2400006B00000001694A1C33
:1006000002610878704700B58FB0CDE90131002153
:10061000059105497944CDE9031011466846FFF775
:1006200017FE0FB000BD0000E5FFFFFF0268114498
:100630001378016018467047D160054979445161CB
:1006400004497944116200211161114600F050B94A
:10065000EDFFFFFF99020000704710B54FF0FF3427
:10066000C1688A020FD5036B42689A420BD10146DA
:1006700090F82520104600F019FB401C01D12046BF
:1006800010BD002010BD11F0C00FF8D10269416803
:100690009142F4D90268491E521CC0E90021F0E7DA
:1006A000007B00F08000704710B542485421FFF7EE
:1006B000F5FE41485421FFF7F1FE40485421FFF771
:1006C000EDFE3F493B483C4A3F4B08603D490A60CC
:1006D0003A491960531C0365481C106501200865E0
:1006E0003B48344A39A1784400F004FB20B938482B
:1006F00078440A3800F0A3FB37482F4A35A17844E4
:1007000000F0F8FA20B9344878440A3800F097FB32
:1007100032482A4A2FA1784400F0ECFA20B92F4839
:1007200078440A3800F08BFB40232248DC0000218B
:10073000224600F097FA20B125487844543800F05A
:100740007EFB1D4822464023002100F08BFA20B199
:1007500021487844543800F072FB18482246102390
:10076000002100F07FFA002806D01C487844BDE83C
:100770001040563800F063BB10BD104870B5006DD6
:1007800020F001040B4800F02BFB0B4800F028FB85
:100790000A4800F025FB09E0206D20F00105204605
:1007A00000F01EFB204600F073F82C46002CF3D11D
:1007B00070BD000090000020E400002038010020FF
:1007C000100000201400002018000020720000001B
:1007D0001E260000770000000A260000F625000013
:1007E0000EB5CDE9000100F0CDFC02906946012074
:1007F000ABBE0EBD08B5694600900220ABBE08BD79
:100800001FB58DE8070069460520ABBE04B010BDDA
:100810001FB58DE80F0069460620ABBEF6E708B5A8
:10082000694600900920ABBE08BD1CB5CDE90001AA
:1008300069460A20ABBE1CBD704708B569460090EA
:100840000C20ABBE08BD754600F000FBAE460500AF
:100850006946534620F00700854618B020B5FFF7DB
:10086000D9FCBDE820404FF000064FF000074FF0E4
:1008700000084FF0000B21F00701AC46ACE8C009BE
:10088000ACE8C009ACE8C009ACE8C0098D467047C7
:1008900070B50446051F00F0E7FA0068002C14BF8D
:1008A000446870BD002C18BFAC423CBF2046646851
:1008B000F8D301680A18AA4218BF456003D12A6814
:1008C00005461144016028684119A1421CBF6C60B3
:1008D00070BD6168696021680844286070BD10B50A
:1008E000044600F0B9FA0068005D00F0010010BD98
:1008F0002DE9F34F4FF0000A0C4656468DB001200B
:100900000C9001F10C000B9062690B98012190474B
:10091000051E2DD0252D2CD0216A8847C0B16269D3
:100920000B9801219047216A88470028F7D1626916
:10093000411E0B98904700E0761CA1690D988847EE
:10094000216A88470028F7D1E1690D988847DBE7DD
:10095000A1690D988847A842074601D1761CD3E7C4
:10096000E1690D9888477F1C02D1BAF1000F6FD062
:100970006BE162690B9800273D46394690472A286B
:1009800004D162690B98012190470125DFF8D082DC
:1009900062690B9801219047A0F130010A290AD21F
:1009A0004745E5DC07EB870100EB4107303FDFD42B
:1009B00045F01005ECE7E90601D46FF000476C281C
:1009C0000AD04C2814D0682815D06A280DD0742875
:1009D0001CD07A281AD01DE062690B98012190473B
:1009E0006C2802D045F0040514E045F002050DE046
:1009F00045F020050AE062690B98012190476828BC
:100A000002D045F0080505E045F4006562690B98E1
:100A100001219047C4E9015765283DD019DC5828C9
:100A20007AD00CDC452837D004DC252826D0412894
:100A30009ED131E046282FD0472899D12CE05B2861
:100A400077D0612828D063287CD0642823D15AE04D
:100A5000F6E06F2848D008DC66281DD067281BD038
:100A6000692821D06E2816D127E0702845D0732838
:100A700068D0752847D078280DD14DE0A1690D9830
:100A80008847252805463FF469AFE1690D988847F6
:100A90006D1C3FF46AAFD8E00D9923466A466FF0AB
:100AA0000100AFF30080C5E045F0400023464FF061
:100AB00000026060A80736D43EE0E8077FF447AF45
:100AC0002068011D21600068290501D506701BE71B
:100AD000290701D5068017E7A90703D5F117C0E953
:100AE000006111E706600FE745F0400023464FF034
:100AF00008026060A80716D41EE040F60E0125EA41
:100B00000100606016E045F0400023464FF00A0205
:100B10006060A80707D40FE045F040006060A807B8
:100B200008D5234610220D996FF00100AFF3008025
:100B300080E007E0102223460D996FF00100FFF7D7
:100B400007FC77E04FF0000963284F46C8464B4644
:100B5000CB4602D05B2806D038E0E80601D401205D
:100B6000A060012732E06269D4F80CB00B98012133
:100B700090475E2807D14FF0010949466269D4F8D1
:100B80000CB00B989047216939B900210A4603AB94
:100B900043F82120491C0829FADBD8B3216949B35D
:100BA00008F1010862690B98012190475D28F4D192
:100BB000B9F1000F09D0002003A951F82020D24339
:100BC00041F82020401C0828F7DB03AB20690028EF
:100BD00020794FEA40701ED05B462246CDF8008057
:100BE000CDE901970D9900286FF0010020DAAFF3ED
:100BF00000801FE0C11703AA00EBD1614B1121F067
:100C00001F0102EB8302411A13680120884003434D
:100C10001360C7E719E00D99224600286FF0010024
:100C2000009702DAAFF3008004E0AFF3008001E048
:100C3000AFF3008000280ADA401C06D10C9820B1DE
:100C40004FF0FF300FB0BDE8F08F5046FAE7E907EC
:100C500001D10AF1010A064400200C9054E600007C
:100C6000CCCCCC0C70B5C468A50713D0650211D4E8
:100C7000B2F5807F09D0B2F5007F06D0B2F5806F63
:100C800008D1012300F1240106E05D1E6FF07F46CC
:100C9000B54201D3012070BD0161C361416024F4FC
:100CA00070611143C160002070BD0000CA68431C20
:100CB0000FD00D4B1A420CD1D3070AD081F8250072
:100CC0004B680B6300238B6012F0C06F0B6003D086
:100CD00004E04FF0FF30704742F00072034B1A40BF
:100CE000034B1A43CA60704780200800BFFFDFFF34
:100CF000001048002DE9F0410C4607461646104604
:100D000000F06EF82078611C61280AD0722802D0A9
:100D100077283CD102E00125002405E002250424C7
:100D200002E0082448F2020511F8010B2B2806D036
:100D3000622809D011F8010C74280AD00BE045F0A4
:100D4000030544F00204EFE745F0040544F0010414
:100D5000EAE744F0100438462146FFF741FD411C04
:100D600015D00021316171604FF40071F560F161BF
:100D70007061200704D530460222002100F0EEF811
:100D8000306D40F0010030653046BDE8F081002054
:100D9000FBE72DE9F0410D460646104C206DC107DA
:100DA00004D0410804D020F00104F7E722460EE009
:100DB000542000F0A4F807000ED0206D47F0010188
:100DC0000843542120653846FFF768FB3A46294618
:100DD0003046BDE8F0418DE70020D6E790000020C6
:100DE0002DE9F04704464FF000094FF0FF37C56882
:100DF000D4E90486A80707D0204600F05FF9304602
:100E0000FFF7F8FC002802DA3846BDE8F08728052D
:100E100002D54046FFF73CFD4C212046FFF73EFB44
:100E2000206D20F0010020654846EEE710B504462D
:100E3000AFF300802046BDE81040FFF7D6B910B5EB
:100E400000F086F9BDE8104000F07CB9004870471A
:100E50008C0100207047000010B500F0B9F9001DAA
:100E600010BD00BF611E00000048704794010020C3
:100E7000704770477047704738B504460A460020EF
:100E80006946AFF30080002808BF38BD02460099CC
:100E9000204600F0A8F9012038BD012000F0F7B984
:100EA000F8B5AFF30080054600200C46102000BFC7
:100EB0000646A819A0420DD9324669460020AFF374
:100EC0000080070008BF00F0E2F90098A04218BFB8
:100ED0000546C419FFF7C8FF05600746F01D20F05E
:100EE00007004619284600F077F9B44208BFF8BD5C
:100EF000A21B31463868BDE8F84000F074B970B5FF
:100F00000646FFF7B1FF056806F10B0020F0070465
:100F1000B4429CBF002070BD2B466A68BAB110680D
:100F2000A04210D304F1080188423CBF50685860C9
:100F300007D35168101941601168091B016058609E
:100F40001460101D70BD13465268002AE7D1214677
:100F50002846FFF791FF0028DED170BD2DE9F04152
:100F6000044616460D464769007B80072ED038465A
:100F7000FFF755FC50BB3EB3012E02D0022E25D107
:100F800004E0204600F049F905441DE03846FFF72B
:100F900054FCE168002841F01001E16005DA2046C8
:100FA00000F058F80120BDE8F081C9030BD5626854
:100FB000E16A914200D81146A26911442269891A56
:100FC000814200DD08460544002D01DA0220EAE7EF
:100FD000E16A6068E268814206D29103E06203D56B
:100FE00022F4003141F01002A6690027AE4213DC62
:100FF000E16A814201D90B4600E0034603EB060C8F
:101000002369ACEB030CAC4506DD814201D98C466B
:1010100000E084469C4505D1A760276042F020008F
:10102000A5620DE0AD1BE669AE1B8142A66000D94A
:101030000846C01A281A20605819606022F0200063
:1010400003490840E060002084F84870ABE70000E6
:10105000BFCFD7FFC16821F4001141F08001C1600A
:1010600000218160016070472DE9F04781461446F8
:101070000E464FF0FF383248D5685769054209D00F
:101080003846A169FFF7D1FB002811DB2C48C0438B
:101090000540E5602B46324649463846FFF7B0FB2F
:1010A000A16920F00042B21A11440028A16103D0C6
:1010B0002046FFF7CFFF4046BDE8F08770B50446F5
:1010C0000569C06A6168884200D80846E16821F471
:1010D0002011E160C90312D5A84208D02246411B65
:1010E0002846FFF7C1FF10B14FF0FF3070BD002060
:1010F000E562C4E90150E06820F48030E06000203F
:1011000070BD10B50446C06820F02000E060A16A00
:10111000A06988420DD02046FFF7D0FFE06820F498
:10112000405040F01000E060A06AA0612069E062D9
:10113000606044F24001E0688843E06010BD000058
:1011400010000200002801D000F03CB870470000F9
:1011500010B5014602A000F081F8012010BD00008A
:1011600053494752545245443A2052656469726566
:1011700063743A2063616E2774206F70656E3A2045
:101180000000000010B5431C02E010F8011B71B113
:101190008107FAD14FF0013202C88C1A8C4314EA4D
:1011A000C211F9D0C01A0A0603D0C01E10BDC01A61
:1011B00010BD0A0401D0801E10BD0902FCD0401EE3
:1011C00010BD000001491820ABBEFEE7260002005A
:1011D00000487047AC01002000210160C0E9011007
:1011E000704710207047034640688C46002818BF9F
:1011F00088423CBF03464068F8D3186818448842C8
:1012000007D00CF1030020F00700001D411A521A0C
:101210000146081D0A60FFF73BBB10B50146C268D6
:10122000900703D0900607D5886A0AE000F03EF8E0
:1012300001210160881E10BD8B69486818440B6944
:10124000C01A91F848301BB191F84910401A10BDEE
:101250001103FCD50028FADD401E10BD70B505460F
:101260000C460A2000E06D1C00F018F835B1287813
:101270000028F8D102E0641C00F010F814B12078C6
:101280000028F8D1BDE870400A2000F007B810B57A
:1012900000F010F8BDE81040FFF754BF08B56946EC
:1012A0008DF800000320ABBE08BD00000048704769
:1012B0008C01002010B5012805D0002103A0FFF704
:1012C000CDFF012010BD09A1F8E7000053494752A6
:1012D000544D454D3A204F7574206F662068656106
:1012E00070206D656D6F7279000000003A204865CE
:1012F0006170206D656D6F727920636F72727570A9
:10130000746564004FF0013C50F8042B51F8043B25
:101310009A4221D1A2EB0C03934313EACC1317D1C9
:1013200050F8042B51F8043B9A4215D1A2EB0C0360
:10133000934313EACC130BD150F8042B51F8043B20
:101340009A4209D1A2EB0C03934313EACC13DBD0EE
:101350004FF00000704700BFD01A01BAB1FA81F116
:1013600001F0180122FA01F0CB40C1F12001DBB2FB
:10137000C0B2C01A2CFA01F3D11A914311EAC31179
:10138000E6D17047014800F0B2B800001C00002010
:1013900070B5044600688168C943C90717D18168E0
:1013A00021F00101816000F0ABFB05460AE000BFBF
:1013B00000F0A6FB401B022804D920688068C043C7
:1013C000C00706D020688068C043C007F0D0002066
:1013D00070BDA06A40F01000A062E06A40F0010019
:1013E000E062012070BDFEE7704772B6FEE770470D
:1013F000F8B50024009490F824202546012A12D044
:10140000012280F824204A681F23072A0DD206688B
:10141000776B521E02EB820293409F430B6893400E
:101420001F43776319E00220F8BD06680D2A0AD22F
:10143000376BD21F02EB820293409F430B689340AD
:101440001F43376309E0F76A0D3A02EB82029340CB
:101450009F430B6893401F43F7620A68072306689F
:101460000A2A0AD3F7680A3A02EB420293409F43E2
:101470008B6893401F43F76008E0376902EB420234
:1014800093409F438B6893401F4337610A68102A3B
:1014900001D0112A20D1124B02689A4217D19368C9
:1014A0001B0219D4936843F4000393600968102960
:1014B00012D10C490C4A0968B1FBF2F101EB810130
:1014C000490000E0491E00910029FBD104E0816A37
:1014D00041F020018162012480F824502046F8BDAB
:1014E000002401400C00002040420F00704710B55E
:1014F000044600684168890626D50168890723D516
:10150000A16AC90603D4A16A41F40071A16281688D
:10151000C1F34241072910D1217B71B9416821F003
:1015200020014160A06A20F48070A062A06AC0041B
:1015300003D4A06A40F00100A0622046FFF7D6FF66
:1015400021686FF0120008602068416809062ED5F6
:10155000016849072BD5A16AC90603D4A16A41F4E1
:101560000051A1628168C1F30231072909D04168A5
:10157000490515D48168C1F34241072910D1217B67
:1015800071B9416821F080014160A06A20F4805067
:10159000A062A06AC00503D4A06A40F00100A06266
:1015A0002046FFF724FF21686FF00C0008602068D8
:1015B000416849060DD50068C0070AD0A06A40F40A
:1015C0008030A062204600F095F821686FF001009D
:1015D000086010BD2DE9F04104004FF000057FD0F8
:1015E000A06A002628B9E66284F82460204600F04C
:1015F00083F82046FFF7CCFEA16AC90600D420B1CB
:10160000A06A40F01000A0626AE0A16A21F488514B
:1016100041F00201A162334923688B42E16904D1A0
:10162000B1F5402F01D14FF40021277B4FF4807C8E
:1016300041EA470261680A43A168614508D001296F
:1016400006D0002194F814E0BEF1010F02D00AE0A8
:101650006146F7E7C7B1A76A47F02007A762E76AC4
:1016600047F00107E7625F6827F469470F435F604F
:10167000236899681C4F394011439960A1686145FE
:101680000BD0012909D00CE0DFF860E0A7690EEB70
:1016900047370F4347F40061E5E7218A0D05A5F5BB
:1016A00080152168CB6A23F470032B43CB62216839
:1016B00089680F4B1940914208D1E662A16A21F076
:1016C000020141F00101A162BDE8F081A06A20F0B1
:1016D000020040F01000A062E06A40F00100E06209
:1016E0000120F1E7003C0140FDF7E1FF00E0FFFFD2
:1016F000FE0E1FFF7047000000B585B0002100916D
:1017000001910291039100681249884220D1124848
:10171000816941F400718161816901F40071049172
:10172000816941F0100181618069694600F0100013
:1017300004900420009003200190084800F0DEF897
:1017400000221146122000F047FA122000F036FA6B
:1017500005B000BD0024014000100240001001400F
:1017600010B590F821100022022905D004218163D0
:1017700080F82020012010BD01680B6823F00E03C3
:101780000B6001680B6823F001030B6090F8403098
:10179000C46B012101FA03F3636080F8211080F823
:1017A0002020104610BD00002DE9F05F90F82110B8
:1017B0000024022903D004218163012485E001680B
:1017C0000A6822F00E020A6001680A6822F001022B
:1017D0000A603F4E3E4FB215DFF8F4C0DFF8F090DC
:1017E000DFF8ECA0DFF8E8B0DFF8E4E00168783F6C
:1017F00013011502ACF1640CA9F15009AAF13C0ADD
:10180000ABF1280BAEF1140E4FF48018B14227D97A
:10181000B9420ED0614512D049451DD0514518D06E
:10182000594518D0714501D1424615E0294EB142C3
:1018300001D1012210E0274E1436B14201D110220D
:101840000AE0244E2836B14206D0224A3C32914268
:1018500001D11A4600E02A461E49091F0A602BE002
:10186000B94213D0614517D0494522D051451DD00A
:1018700059451DD0714501D142461AE0B14202D10D
:101880004FF0807215E0134EB14201D1012210E0F9
:10189000104E1436B14201D110220AE00D4E283606
:1018A000B14206D00B4A3C32914201D11A4600E0C7
:1018B0002A46074980394A60012180F82110002119
:1018C00080F82010416B01B188472046BDE8F09FA9
:1018D000800002400804024070B5044600F010F990
:1018E0000546601C02D004480078044400F008F962
:1018F000401BA042FAD370BD000000202DE9F84F34
:10190000DFF8C891002409F1040A0AF1040B234608
:101910000F270BF1040ED1E00125A54006EA0502D0
:10192000AA4276D1DFF8A8C14E68A6EB0C0866453E
:101930002BD00DDC032E34D005DC36B3012E19D0AC
:10194000022E2FD11BE0112E16D0122E2AD119E013
:10195000B8F5881F19D006DCB8F5803F15D0B8F56A
:10196000801F1FD111E0B8F5001F0ED0B8F5041F7D
:1019700018D10AE0CB6815E0CB681B1D12E0CB68DC
:1019800008330FE0CB680C330CE08B682BB1012BD4
:101990004FF0080303D0456104E0042302E0056131
:1019A00000E00023FF2A01D8064601E000F104060A
:1019B0004FEA840501D9A5F12005D6F8008007FA81
:1019C00005FC28EA0C0803FA05F548EA0508C6F8FC
:1019D00000804D68ED0070D53E4DAE6946F00106C1
:1019E000AE61AD6924F0030605F0010500953A4D9E
:1019F00006EB050CDCF80850A607360F07FA06F8C8
:101A000025EA0805DFF8D480404503D14FF00008EF
:101A100025E052E0DFF8C880404502D14FF00108D0
:101A20001DE0DFF8C080404502D14FF0020816E00B
:101A3000DFF8B480404502D14FF003080FE0DFF833
:101A4000AC80404502D14FF0040808E0DFF8A080E8
:101A5000404502D14FF0050801E04FF0060808FAB2
:101A600006F848EA0508CCF808804D68D9F8006007
:101A7000ED034D4601D5164300E096432E604D68B8
:101A8000DAF80060AD03554601D5164300E09643F1
:101A90002E604D68DBF80060ED025D4601D516430F
:101AA00000E096432E604D68DEF80060AD0275469A
:101AB00001D5164300E096432E60641C0A68164662
:101AC000E2407FF429AFBDE8F88F00000004014038
:101AD0000000111000100240000001400008014009
:101AE000000C0140001001400014014000180140AA
:101AF000001C01400AB1016170470904FBE70000C6
:101B0000014880687047000000000020024881689A
:101B1000027811448160704700000020074810B52A
:101B2000016841F010010160032000F075F8002009
:101B300000F006F800F024F8002010BD002002405C
:101B400070B50D4D04464FF47A712878B1FBF0F072
:101B50000A490968B1FBF0F000F062FB48B9102CAB
:101B600007D200222146501E00F036F800206C609B
:101B700070BD012070BD0000000000200C0000209E
:101B80000C4808B5816941F001018161816901F06A
:101B900001010091C16941F08051C161C06900F04B
:101BA000805000900448416821F0E06141F080716C
:101BB000416008BD0010024000000140002809DB20
:101BC00000F01F02012191404009800000F1E02057
:101BD000C0F8001170470000F0B40E4B1B680C46B3
:101BE000C3F30223C3F10705042D00D90425191DF1
:101BF000072901D2002300E0DB1E012606FA05F1C9
:101C0000491E214099409E40761E16403143F0BC4B
:101C100000F029BF0CED00E0064900F0070208685B
:101C20004FF6FF03184040EA0220034A10430860C1
:101C3000704700000CED00E00000FA052DE9F843C4
:101C400005460078354CC00754D0E0690026C00036
:101C500008D4E06940F08050E061E069012600F0BE
:101C6000805000902E480168C90512D40168804652
:101C700041F480710160FFF743FF074605E000BFB4
:101C8000FFF73EFFC01B642823D8D8F80000C0052A
:101C9000F6D5206A10F4407021D0A98801F4407173
:101CA00081421CD0206A1F49012220F440700A6042
:101CB00000220A602062C00711D0FFF721FF07460B
:101CC00041F2883808E000BFFFF71AFFC11B414509
:101CD00002D90320BDE8F883206A8007F4D5206A82
:101CE000696820F44070084320621EB1E06920F06A
:101CF0008050E0612878800705D56068A96820F4E5
:101D00004040084360602878C00605D5606869696E
:101D100020F48000084360600020DBE700100240F0
:101D200000700040400442422DE9F0470F46050094
:101D300061D0434E306800F00700B84209D23068E5
:101D400020F0070038433060306800F00700B842E8
:101D500051D128683B4C810712D5400703D56068F4
:101D600040F4E06060602878000703D5606840F4C4
:101D7000605060606068A96820F0F000084360600F
:101D80002878C00728D06868012810D02168022868
:101D900010D0890700292EDA616821F00301014380
:101DA0006160FFF7ADFE804641F288390DE02168A1
:101DB0008903EFE78901EDE7FFF7A2FEA0EB080139
:101DC000494502D90320BDE8F0876068696800F0E2
:101DD0000C00B0EB810FEFD1306800F00700B84283
:101DE0000BD9306820F0070038433060306800F0CD
:101DF0000700B84201D00120E5E72878400705D563
:101E00006068E96820F4E0600843606028780007B3
:101E100006D56068296920F4605040EAC10060601E
:101E200000F038F86168084AC1F30311515CC840FA
:101E30000649086006480068FFF782FE0020C2E7F6
:101E40000020024000100240F02C00080C0000208E
:101E5000040000200448054900684968044AC1F3A9
:101E60000221515CC84070470C0000200010024065
:101E7000002D00080448054900684968044AC1F378
:101E8000C221515CC84070470C0000200010024085
:101E9000002D000812A185B00FC98DE80F0014A015
:101EA000144A006804905168134801F00C03042B95
:101EB00010D0082B0ED1C1F38343C9031DF80300D2
:101EC0000AD5516804AAC1F34041515C0A4A504303
:101ED000B0FBF1F005B0704708494843FAE700004D
:101EE00002030405060708090A0B0C0D0E0F10105B
:101EF000010200000010024000127A0000093D00BB
:101F00002DE9F84F040070D02078C04DC00749D0AB
:101F10006868C0F38100012807D06868C0F38100B9
:101F2000022809D16868C00306D52868800339D51E
:101F300060680028E7D035E06068B0F5803F0BD0DE
:101F400010B1B0F5A02F11D0286820F4803028609F
:101F5000286820F4802002E0286840F4803028605F
:101F6000606890B1FFF7CCFD06460AE0286840F4AF
:101F700080202860F0E700BFFFF7C2FD801B6428C7
:101F800073D828688003F7D50CE0FFF7B9FD064643
:101F900005E000BFFFF7B4FD801B6428F0D8286877
:101FA0008003F7D420789A4E80074FF001094FF054
:101FB000000839D5686810F00C0F07D06868C0F3C6
:101FC0008100022809D16868C00306D42868800708
:101FD00014D52069012808D110E02069B0B1C6F8F5
:101FE0000090FFF78DFD074605E00AE1FFF788FD49
:101FF000C01B0228C4D828688007F7D52868616903
:1020000020F0F80040EAC10028600DE0C6F800802A
:10201000FFF776FD074604E0FFF772FDC01B0228BC
:1020200023D828688007F7D4207800072CD5794872
:10203000A169D9B1C0F80090FFF762FD074604E03E
:10204000FFF75EFDC01B02280FD8686A8007F7D52E
:1020500071484FF4FA510068B0FBF1F0009000BFF6
:102060000098411E0091FAD20EE080E0C0F8008096
:10207000FFF746FD074604E0FFF742FDC01B0228BC
:1020800075D8686A8007F7D42078400760D5E8697A
:102090000027C00008D4E86940F08050E861E86992
:1020A000012700F0805000905C480168C90513D4F6
:1020B0000168834641F480710160FFF721FD82468B
:1020C00006E000BFFFF71CFDA0EB0A0064284ED815
:1020D000DBF80000C005F5D5E06801280AD008B19A
:1020E000052813D0286A20F001002862286A20F011
:1020F000040002E0286A40F001002862E06841F232
:10210000883B98B1FFF7FCFC82460BE0286A40F060
:1021100004002862EEE700BFFFF7F2FCA0EB0A0123
:1021200059455AD8286A8007F6D50CE0FFF7E8FC35
:10213000824605E0FFF7E4FCA0EB0A0159454CD8C4
:10214000286A8007F6D41FB1E86920F08050E86162
:10215000E06988B36968C1F38101022944D002288B
:10216000C6F8608004D0FFF7CBFC044638E034E0CA
:10217000FFF7C6FC074604E0FFF7C2FCC01B0228BD
:102180002BD828688001F7D4206AB0F5803F05D1AC
:102190006868A16820F4003008436860D4E9080149
:1021A0000843696821F4741108436860C6F86090B8
:1021B000FFF7A6FC044606E025E000BFFFF7A0FC01
:1021C000001B022809D828688001F7D51BE000BF52
:1021D000FFF796FC001B022802D90320BDE8F88F08
:1021E00028688001F4D40EE00128F7D06868226ADC
:1021F00000F48031914204D1616A00F47010884289
:1022000001D00120EAE70020E8E7000000100240CA
:1022100000004242800442420C0000200070004056
:1022200010B5401EB0F1807F01D3012010BD4FF0EA
:10223000E02460610F21601700F015FC0020A06110
:1022400007202061002010BD70477047F8B5026874
:1022500004461068D168536910F00F0F4FF0000565
:1022600053D003F0010601F4907737435FD0C207E3
:1022700005D0CA0503D5226C42F001022264420750
:1022800005D5DA0703D0226C42F0020222648207ED
:1022900005D5DA0703D0226C42F00402226402075B
:1022A00007D501F02002324303D0226C42F008022D
:1022B0002264226C002A34D0800604D5880602D518
:1022C000204600F0E0FA20684069216CC0F38010DD
:1022D000090700D430B3204600F0BDFA20684169F8
:1022E00049061BD5416921F040014161A06BA8B1AD
:1022F00058494163A06BFFF757FA002811D0A06B33
:10230000416B01B0BDE8F040084783060FD58B064E
:102310000DD52046BDE8F84000F0B5BA2046FFF7DD
:1023200094FFF8BD2046FFF790FF2564F8BD266BAB
:102330002023012E52D1C60650D5CE064ED51068A8
:1023400050680090506940062AD5A16B0868406823
:102350000004000CEAD0A68D8642E7D9E0858869A2
:10236000202818D0D06820F48070D060206841699F
:1023700021F0010141612068416921F04001416182
:1023800084F83E3025632068C16821F01001C160E7
:10239000A06BFFF7E5F9A08DE18D401A81B219E03D
:1023A000A08DE18D401A81B2E08D0028BED00029B9
:1023B000BCD0D06820F49070D0602068426922F0D0
:1023C0000102426184F83E3025632068C26822F031
:1023D0001002C2602046FFF737FFF8BD05062BD577
:1023E0000D0629D594F83D002128F6D1A068B0F556
:1023F000805F01D12069B0B1206A411C216221684F
:1024000000784860E08C401E0004000CE084E4D1B9
:102410002068C16821F08001C1602068C16841F076
:102420004001C160F8BD206A0088C0F30800506018
:10243000206A801C2062E5E74006F3D54806F1D506
:10244000D168204621F04001D16084F83D3000F091
:1024500030F9F8BD4728000870B5040004D094F89E
:102460003D00002510B106E0012070BD84F83C500D
:10247000204600F023F8242084F83D002068C1683D
:1024800021F40051C160204600F058FA206801692B
:1024900021F4904101612068416921F02A014161E4
:1024A0002068C16841F40051C1602564202084F88F
:1024B0003D0084F83E00002070BD000030B585B0BE
:1024C00000240094019402940394006818498842FF
:1024D0002CD11848816941F480418161816901F4FE
:1024E00080410491816941F0040181618069124D4C
:1024F00000F0040004904FF400700090022001905E
:102500000320039069462846FFF7F8F92815CDE91E
:102510000004694628460294FFF7F0F900221146AC
:102520002520FFF759FB2520FFF748FB05B030BDFC
:102530000038014000100240000801402DE9F84F2A
:10254000044690F83E009A4616460D46202853D180
:10255000FDB1F6B194F83C0001284DD0012084F87B
:102560003C0000272764222084F83E002763FFF701
:10257000C7FAA6858146E685A0684FF48058404595
:1025800001D1206940B12E465FF0000584F83C700F
:1025900027E00120BDE8F88F0026F7E74B46002230
:1025A00020212046CDF800A000F024FA08B1032035
:1025B000F0E726B1A06840451BD038B108E020689C
:1025C0004068C0F3080025F8020B07E0206980B1DD
:1025D0002068406800F07F0006F8010BE08D401E87
:1025E000E085E08D0028D9D1202084F83E0000202D
:1025F000D0E720684068EFE70220CBE77047000093
:102600002DE9F843044690F83D001F4616460D4656
:1026100020284CD1C5B1BEB194F83C00012846D069
:10262000012084F83C004FF00008C4F840802120CD
:1026300084F83D00FFF764FAA6848146E684A0682A
:10264000B0F5805F03D004E00120BDE8F883206985
:1026500028B12E465FF0000584F83C800EE000268D
:10266000FAE78021204600F0C5F9A0B9AEB116F80E
:10267000010B21684860E08C401EE084E08C4B46F2
:102680004FF0000200970028EBD14FF040012046A8
:1026900000F0B0F930B10320D7E735F8020BC0F3F2
:1026A0000800E6E7202084F83D000020CDE7022066
:1026B000CBE77047FEE700003EB5002411480094C8
:1026C000019402940E49846001600473047501252D
:1026D00005614FF460214460C161FEF77BFF08B1E2
:1026E000FEF783FE0C20CDE90005694602940548FB
:1026F000FEF77EFE002801D0FEF777FE3EBD00000B
:10270000002401401C00002030B585B000241C4886
:102710000094019402940394816941F02001816145
:10272000816901F020010491816941F0100181610A
:10273000816901F010010491816941F00401816116
:10274000816901F004010491816941F0080181610E
:1027500080690C4D00F008000490002230212846CA
:10276000FFF7C8F9302000900120CDE901040220D4
:10277000039069462846FFF7C1F805B030BD000058
:1027800000100240001001400C4810B50A490160D9
:102790004FF4E1314160002181600C22C160C0E949
:1027A00004128161C161FFF757FE002803D0BDE824
:1027B0001040FEF71ABE10BD003801404C0000204A
:1027C000FEE7FEE770477047FFF7A0B930B595B058
:1027D00028216846FDF762FE14210AA8FDF75EFE77
:1027E00018210FA8FDF75AFE01210804CDE90010B9
:1027F0000025029502240491CDE90740C00009900C
:102800006846FFF77DFB08B172B6FEE70AA90F2004
:1028100081E831004FF48060CDE90D0501210AA85F
:10282000FFF782FA08B172B6FEE74FF480401190CC
:102830000F940FA8FFF702FA002801D072B6FEE746
:1028400015B030BD704710B5406A0021C185C18404
:10285000FFF7FBFC10BD0168CA6822F49072CA60E1
:1028600001684A6922F001024A61016B012904D121
:102870000168CA6822F01002CA60202180F83E1068
:1028800000210163704708B590F83E10222901D05D
:10289000022008BD82684FF480539A4201D1016939
:1028A00021B1816A9A421BD04AB10AE00268816A6A
:1028B0005268C2F308020A80816A891C08E0026932
:1028C00072B10268526802F07F020A70816A491C84
:1028D0008162C18D491E0904090CC18503D019E02C
:1028E00002685268F1E70168CA6822F02002CA60F3
:1028F0000168CA6822F48072CA6001684A6922F0DD
:1029000001024A61202180F83E10016B012903D0A9
:10291000FFF774FE002008BD002101630168CA684A
:1029200022F01002CA6001680A68D20602D50A685D
:1029300049680091818DFFF787FCEBE770B504468D
:1029400000680169E26821F4405111430161216985
:10295000A0680843616908432168CA6841F20C63B2
:102960009A430243CA6020684169A26921F4407118
:10297000114341611E492068884202D1FFF77AFA6B
:1029800001E0FFF767FA00EBC00101EB001260689D
:1029900064218000B2FBF0F3B3FBF1F36FF0180693
:1029A0007343B2FBF0F5B2FBF0F605EB830532237F
:1029B00003EB0515B5FBF1F5B6FBF1F605F0F005F7
:1029C00005EB0615B2FBF0F6B2FBF0F0B0FBF1F050
:1029D0006FF01802504306EB800003EB0010B0FBD1
:1029E000F1F0216800F00F002844886070BD0000FD
:1029F000003801402DE9F041984617460E4604463E
:102A0000069D1DE0681C1BD02DB1FFF779F8A0EBE7
:102A10000800A84214D92068C16821F4D071C160AF
:102A20002068416921F001014161202084F83D00C6
:102A300084F83E00002084F83C000320BDE8F081CB
:102A40002068006836EA000004D00020B842D9D0DF
:102A50000020F3E70120F9E70148FFF7F7BB00008A
:102A60004C000020FEE70907090E002804DB00F1F6
:102A7000E02080F80014704700F00F0000F1E02023
:102A800080F8141D7047000008B500208DF8000084
:102A900040F6FF73012269460248FFF74FFD9DF89B
:102AA000000008BD4C00002038B504468DF8000039
:102AB0004FF6FF73012269460248FFF7A1FD204649
:102AC00038BD00004C00002008B5FFF727F8FFF7DD
:102AD0007DFEFFF719FEFFF757FEFFF7EDFD40A063
:102AE000FDF7AAFB4A4D42F210770022102128463A
:102AF000FFF700F8002220212846FEF7FBFF45A043
:102B0000FDF79AFB4AA0FDF797FB4DA0FDF794FB5C
:102B10004FA0FDF791FB694654A0FDF709FC54A0B6
:102B20000099FDF789FB0098012831D0022840D098
:102B30000328DAD153A0FDF77FFB00244FF47A7607
:102B4000002210212846FEF7D5FF0022202128462A
:102B5000FEF7D0FF012210212846FEF7CBFF00220E
:102B600020212846FEF7C6FF3046FEF7B5FE0122BB
:102B700020212846FEF7BEFF002210212846FEF73E
:102B8000B9FF3046FEF7A8FE641C052CD8DBACE785
:102B9000002210212846FEF7ADFF00222021284602
:102BA000FEF7A8FF012210212846FEF7A3FF3BA055
:102BB0000FE0002210212846FEF79CFF0022202172
:102BC0002846FEF797FF012220212846FEF792FFB4
:102BD00037A0FDF731FB3846FEF77EFE85E70000A3
:102BE000D5E2CAC7D2BBB8F653544D333246313062
:102BF0003352435436BFAAB7A2B0E5B5E3C1C14CC6
:102C00004544B5C6B5C4B4FAC2EB2121210D0A0072
:102C100000100140C7EBCAE4C8EBC4E3CFEBD2AA73
:102C2000D6B4D0D0B5C4B2D9D7F73A0D0A00000057
:102C300031A1A2B5E3C1C14C4544310D0A000000E9
:102C400032A1A2B5E3C1C14C4544320D0A000000D7
:102C500033A1A2C8C34C4544BDBBCCE6C9C1CBB867
:102C6000D2BBB6CECAB1BCE40D0A00002564000098
:102C7000BDD3CAD5B5BDB5C4CAFDBEDDCEAA2564D7
:102C80000D0A0000BDF8C8EB4C4544BDBBCCE6C9FD
:102C9000C1CBB8C4A3CABD0D0A0000004C454431E5
:102CA000D2D1BEADB1BBB5E3C1C10D0A0000000079
:102CB0004C454432D2D1BEADB1BBB5E3C1C10D0A62
:102CC0000000000010B500290AD00878002807D0BD
:102CD00005487844FEF716FB002801D0002010BDFF
:102CE0000248784410BD0000620000005A00000055
:102CF00000000000000000000102030406070809AC
:102D000000000000010203043A7474003A74740075
:102D10003A747400442E0008000000201C000000DB
:102D20006C010008602E00081C000020D407000081
:102D3000880100081001000043000000F8FFFFFFB9
:102D400000404040404040404040414141414140BE
:102D50004040404040404040404040404040404073
:102D60004005020202020202020202020202020202
:102D70000220202020202020202020020202020207
:102D8000020290909090909010101010101010105F
:102D9000101010101010101010101010020202026B
:102DA00002028888888888880808080808080808AF
:102DB00008080808080808080808080802020202AB
:102DC00040000000000000000000000000000000C3
:102DD00000000000000000000000000000000000F3
:102DE00000000000000000000000000000000000E3
:102DF00000000000000000000000000000000000D3
:102E000000000000000000000000000000000000C2
:102E100000000000000000000000000000000000B2
:102E200000000000000000000000000000000000A2
:102E30000000000000000000000000000000000092
:102E40000000000001000000100000000000000071
:102E50000024F4000000000000000000000000005A
:0400000508000131BD
:00000001FF
