:020000040800F2
:10000000684600205D020008A71D0008911B00083B
:10001000A51D00087B080008A123000800000000BF
:100020000000000000000000000000009D0100082A
:100030003D0A000800000000F9010008F51F000853
:1000400077020008770200087702000877020008AC
:10005000770200087702000877020008770200089C
:10006000770200087702000877020008770200088C
:10007000770200087702000877020008770200087C
:10008000770200087702000877020008770200086C
:10009000770200087702000877020008770200085C
:1000A000770200087702000877020008770200084C
:1000B000770200087702000877020008770200083C
:1000C000770200087702000877020008770200082C
:1000D00077020008952300087702000877020008DD
:1000E000770200087702000877020008770200080C
:1000F00077020008770200087702000877020008FC
:1001000077020008770200087702000877020008EB
:10011000AD20000877020008770200087702000887
:1001200077020008770200087702000877020008CB
:1001300077020008770200087702000877020008BB
:1001400077020008770200087702000877020008AB
:10015000770200087702000877020008770200089B
:10016000770200087702000877020008770200088B
:1001700077020008770200087702000800000000FC
:100180007702000877020008DFF80CD000F0F4FADC
:1001900000480047E92E0008684600202C4B1968EB
:1001A0000868B0E8F04F80F30988BFF36F8F4FF015
:1001B000000080F3118870470000000008480068C4
:1001C000006880F308884FF0000080F3148862B65E
:1001D00061B6BFF34F8FBFF36F8F00DF00BF00BF6B
:1001E00008ED00E0DFF80C00016841F470010160E7
:1001F000704700BF88ED00E0EFF30980BFF36F8F19
:10020000134B1A681EF0100F08BF20ED108A20E96A
:10021000F04F106009B44FF0500080F31188BFF325
:100220004F8FBFF36F8F03F029FB4FF0000080F377
:10023000118809BC19680868B0E8F04F1EF0100F6B
:1002400008BFB0EC108A80F30988BFF36F8F704746
:1002500034000020EFF30580704700000648804717
:1002600006480047FEE7FEE7FEE7FEE7FEE7FEE79B
:10027000FEE7FEE7FEE7FEE79D2000088901000893
:100280002DE9F05F0546002092469B4688460646CB
:10029000814640241BE0284641464746224600F05E
:1002A000A3F853465A46C01A914110D31146184636
:1002B000224600F08AF82D1A67EB01084F462246C5
:1002C0000120002100F081F817EB00094E41201EAB
:1002D000A4F10104DFDC484631462A464346BDE826
:1002E000F09F40EA01039B0703D009E008C9121FF1
:1002F00008C0042AFAD203E011F8013B00F8013BE0
:10030000521EF9D27047D2B201E000F8012B491E0B
:10031000FBD270470022F6E710B513460A460446A2
:100320001946FFF7F0FF204610BD30B505462A46B6
:100330000B4612F8010B13F8014B08B1A042F8D09C
:100340001CB1002802D06D1CF1E7284630BD421CCC
:1003500010F8011B0029FBD1801A704710B500224C
:1003600000E0521C835C8C5CA34201D1002BF8D1CD
:10037000D8B2E1B2401A10BD00F0004230F00040A7
:100380000AD0C10D01F56071C0F3160042EA0151B7
:10039000C20840071143704700200146704730B53E
:1003A0000B46014600202022012409E021FA02F533
:1003B0009D4205D303FA02F5491B04FA02F52844CD
:1003C000151EA2F10102F1DC30BD202A04DB203A27
:1003D00000FA02F1002070479140C2F1200320FA98
:1003E00003F3194390407047202A04DB203A21FA96
:1003F00002F00021704721FA02F3D040C2F120023E
:1004000091400843194670472DE9FE4F804681EA26
:100410000300C00F0C46009021F0004123F000457E
:10042000B8EB0200A94105D24046214690461C4641
:100430000B46024623F00040104347D0270DC7F378
:100440000A00C3F30A510290401A019040286BDA67
:10045000C3F3130040F4801B0098924620B10023A0
:10046000D2EB030A63EB0B0B01985946C0F1400233
:100470005046FFF7AAFF06460D4650465946019AD8
:1004800000F08CF910EB08006141002487EA11525A
:1004900084EAE7731A4340D0009A62B3019A012AB2
:1004A0004FEA075215DC001B61EB02014FF00042DE
:1004B00002EA0752CDE90042001C41F580113246A4
:1004C0002B4600F08CF903B0BDE8F08F4046214682
:1004D000F9E7001B61EB0201001C41F580130018D5
:1004E0005B412018A2F5001747EB030140EAD570E5
:1004F000B6196D4111E06D084FEA360645EAC07540
:100500004FEA0752001B61EB0201001C41F580110C
:1005100049084FEA30000019514132462B4603B0DA
:10052000BDE8F04F00F04CB90098012240000023D4
:10053000D0EB020263EBE073009821464FEAE074CF
:10054000B8EB000061EB0401E9E783F000435BE7EF
:1005500081F0004158E72DE9FE4F81EA030404F0E1
:10056000004421F0004100944FF0000B23F00043C1
:1005700050EA01045ED052EA03045BD0C3F30A548C
:10058000C1F30A552C44A4F2F3340194A0FB0254A5
:10059000C1F3130141F48011C3F3130343F4801337
:1005A00001FB024400FB034E840A970A44EA81548B
:1005B00047EA8357A4FB076802958D0A05FB078568
:1005C0004FEA932C04FB0C542705029D4FEA065872
:1005D00047EA1637B5EB08056EEB070C870E920E4F
:1005E00047EA811742EA8312A7FB0201B6EB0B012F
:1005F00064EB00042B0D43EA0C335E1844EB1C50F3
:10060000DA465146E7FB0201C5F313044FEA0B3308
:1006100043EA14534FEA0432019C43EA0603A4F16F
:100620000C040294009CCDE900B400F0D8F803B0AB
:10063000BDE8F08F00200146F9E72DE9F04D81EA91
:10064000030404F0004B21F0004514464FF0000A6B
:1006500023F0004150EA050220D054EA01021DD0E7
:10066000C5F30A570246C5F31303C1F31300C1F3E0
:100670000A5640F4801543F48013A7EB0608101BBC
:10068000D64608F2FD3873EB050002D308F10108E5
:1006900001E092185B41B8F1000F03DA0020014637
:1006A000BDE8F08D00204FF48011064684460EE030
:1006B000171B73EB050705D3121B63EB05030643FA
:1006C0004CEA010C49084FEA300092185B4150EAAD
:1006D0000107EDD152EA030012D082EA040083EA56
:1006E0000501084305D0101BAB4106D201220023AF
:1006F00006E000224FF0004302E06FF001025310C9
:100700001AEB06004CEB085110EB0A0041EB0B0111
:10071000BDE8F04D00F054B8C1F30A52C1F3130123
:1007200040F2FF3341F480119A4202DA0020014680
:10073000704740F233439A42A2F2334202DC524203
:10074000FFF752BEFFF741BE30B5041E71F1000441
:1007500004DB4FF00044404264EB0101141E73F1CE
:10076000000405DB1C464FF00043524263EB0403D8
:10077000994208BF904230BD064C074D06E0E06844
:1007800040F0010394E8070098471034AC42F6D3D8
:10079000FFF7FEFC443D0008643D0008202A06DB0C
:1007A000CB17203A41FA02F043EAE07306E041FA3F
:1007B00002F3D040C2F1200291400843194670472D
:1007C00010B5141E73F1000408DA401C41F1000159
:1007D00092185B411A4301D120F0010010BD2DE9B0
:1007E000F04D92469B4611B1B1FA81F202E0B0FAA7
:1007F00080F220329046FFF7E8FD04460F4640EABB
:100800000A0041EA0B0153465A46084313D01146E9
:1008100053EA010019D0C8F140025046FFF7E4FD49
:1008200005460E46504659464246FFF7CEFD084360
:1008300005D0012004E020463946BDE8F08D0020B7
:10084000054346EAE0762C4337430A986305E40AF9
:10085000A0EB08000022FD0A44EA47540A3002D502
:1008600000200146E9E7010510196941DDE9084565
:1008700000196941BDE8F04DA2E7FEE706E000215E
:10088000491CC9B21229FBD3401E80B20028F6D100
:1008900070470000094808B5016841F0080101608F
:1008A000006800F00800009000F00CF80122BDE89C
:1008B00008400221024800F0A4BB0000303802408A
:1008C000000C024000B585B002200121CDE90001F5
:1008D00003906946024800F097FA05B000BD000099
:1008E000000C02402DE9F0410025154E2C46012751
:1008F0000221304600F080FB0028F9D02820FFF7C5
:10090000BDFF0221304600F077FB01280BD0C4F177
:10091000070007FA00F08543641CE4B2082CE7D313
:100920002846BDE8F0810221304600F065FB012831
:10093000F9D0C4F1070007FA00F0C0B20543EBE7B5
:10094000000C024030B585B00446FFF7BBFF394DBF
:1009500000220221284600F054FB122000F042FA47
:1009600001220221284600F04CFB1E20FFF786FFE3
:100970000220009000200190012002906946284644
:1009800000F042FA0221284600F036FBF0BB0221BB
:10099000284600F031FB0028F9D00221284600F05B
:1009A0002BFB0128F9D0FFF79DFF2070FFF79AFF7E
:1009B0006070FFF797FFA070FFF794FFE070FFF7FC
:1009C00091FF2071FFF77EFF01220221284600F0EF
:1009D00018FB2378657803EBC30000EB031005EBED
:1009E000800000EE100ADFED140AB8EE400A80EE37
:1009F000201A84ED021AA178E27801EBC10000EB25
:100A0000011002EB800000EE100A00E00FE0B8EEEB
:100A1000400A58191144084480EE201AC0B284EDEF
:100A2000031A2179814202D1002005B030BD012096
:100A3000FBE70000000C02400000C84270470000C5
:100A400070B501224349444801F028F8414C4FF465
:100A50007A66641E41F288352278E2B1012A29D0F3
:100A6000022A35D0032A47D0042A50D0052A5ED066
:100A7000062AF1D139A001F081FD29463EA001F0FE
:100A80001BFD0028E8D02078401C2070BDE8704095
:100A90003FA001F073BD43A001F070FD284601F0B6
:100AA000B9FC0028D8D043A001F068FD2078401C94
:100AB0002070D1E746A001F061FD31464BA001F066
:100AC000FBFC0028C8D02078401C20704BA02BE0F5
:100AD00051A001F053FD294654A001F0EDFC00287F
:100AE000BAD02078401C207044A001F047FD4FF49C
:100AF0007A7000F077F9AFE74FA001F03FFD314683
:100B000056A021E02078401C207058A00CE05EA088
:100B100001F034FD314662A001F0CEFC00289BD0EC
:100B20002078401C20706DA001F028FD94E770A093
:100B300001F024FD074B74A11033A3F10D02794895
:100B400001F02CFD3146774801F0B6FC002883D037
:100B5000D8E7000001000020A8040020737465702D
:100B6000362D3E207365742061732073657276653F
:100B700072210D0A0000000041542B434950534597
:100B8000525645523D312C353030300D0A000000B0
:100B9000736574207375636365737366756C0D0A92
:100BA00000000000776966692072657365742E2EF7
:100BB0002E0D0A007769666920726573657420736B
:100BC00075636365737366756C210D0A0000000020
:100BD00073746570312D3E20636F6E6669672061A6
:100BE0007320736F66744150210D0A0041542B43EA
:100BF000574D4F44453D320D0A000000636F6E664D
:100C0000696775726174696F6E207375636365736C
:100C10007366756C210D0A0073746570322D3E2069
:100C200072657374617274210D0A000041542B5275
:100C300053540D0A0000000073746570332D3E207C
:100C4000636F6E6E656374206D757469706C65207A
:100C5000636F6E6E656374210D0A000041542B436F
:100C600049504D55583D310D0A000000636F6E6EBE
:100C7000656374696F6E20737563636573736675FE
:100C80006C210D0A0000000073746570342D3E2045
:100C900073657420736F667441500D0A0000000084
:100CA00041542B43495041505F4445463D22313920
:100CB000322E3136382E382E31222C223139322E36
:100CC0003136382E382E31222C223235352E32351F
:100CD000352E3235352E30220D0A000073746172C4
:100CE00074207375636365737366756C210D0A00F8
:100CF00073746570362D3E2073657420736F66744F
:100D00004150210D0A00000041542B4357534150DC
:100D10003D222573222C222573222C352C330D0ADB
:100D200000000000A000002072B6FEE72DE9F041AF
:100D30000446876D00F06AF9064694F835000025F0
:100D4000022806D08020606584F834500120BDE878
:100D5000F0812068016821F0160101602068416976
:100D600021F080014161206C08B9A06C20B120689D
:100D7000016821F0080101602068016821F001018B
:100D800001600CE000F042F9801B052807D9202003
:100D90006065032084F8350084F83450D7E7206874
:100DA0000068C007EED194F85C103F208840B8601E
:100DB000012084F8350084F834500020C7E790F80B
:100DC0003510022903D0802141650120704705219B
:100DD00080F835100068016821F0010101600020F1
:100DE0007047000070B5044600F010F90546601C1D
:100DF00002D004480078044400F008F9401BA042E7
:100E0000FAD370BD240000202DE9F84FDFF8BCA113
:100E1000002201250AF1040B03264FF00F090BF104
:100E2000040E00BF0B6805FA02F42340A34270D100
:100E30000F7907F00307012F01D0022F16D1876821
:100E40004FEA420806FA08FC27EA0C07D1F80CC062
:100E50000CFA08FC4CEA070CC0F808C04768A74326
:100E60000C79C4F3001494403C4344600C79E4438F
:100E7000A4070AD0C4684FEA420C06FA0CF7BC4338
:100E80008F6807FA0CF72743C7600C7904F0030456
:100E9000022C12D1D40800EB840CDCF82040570758
:100EA000FF0E09FA07F824EA0804D1F8108008FABE
:100EB00007F848EA0408CCF8208004684FEA420C9E
:100EC00006FA0CF7BC430F7907F0030707FA0CF793
:100ED000274307604C6814F4403F70D03C4C2768AF
:100EE00047F480472760246822F0030704F4804415
:100EF0000094384C07EB040CDCF8084897074FEADD
:100F0000177809FA08F7BC43334FB84202D10027DB
:100F100024E054E0314FB84201D101271EE0304FA8
:100F2000B84201D1022719E02E4FB84201D1032760
:100F300014E02D4FB84201D104270FE02B4FB842E7
:100F400001D105270AE02A4FB84201D1062705E062
:100F5000284FB84201D1072700E0082707FA08F711
:100F60002743CCF80878DAF800405746D1F804C097
:100F70009C435FEACC3C00D51C433C60DBF800405E
:100F80005F46D1F804C09C435FEA8C3C00D51C430B
:100F90003C60DEF800407746D1F804C09C435FEA2D
:100FA000CC2C00D51C433C60084F0C373C68D1F872
:100FB00004C09C435FEA8C2C00D51C433C60521C4F
:100FC000102AFFF42FAFBDE8F88F0000003C01406D
:100FD000443802400030014000000240000402405A
:100FE00000080240000C02400010024000140240C1
:100FF00000180240001C02400069084000D0012097
:1010000070470AB1816170470904FBE701488068B5
:1010100070470000240000200248816802781144D3
:1010200081607047240000200B4810B5016841F42E
:1010300000710160016841F480610160016841F460
:1010400080710160032000F073F80F2000F006F8B3
:1010500000F024F8002010BD003C024070B50D4D9A
:1010600004464FF47A712878B1FBF0F00A49096818
:10107000B1FBF0F000F00EFB48B9102C07D20022B3
:101080002146501E00F034F800206C6070BD012035
:1010900070BD000024000020300000200C4882B009
:1010A000016841F480410160006800F480400090D4
:1010B0000748001F016841F080510160006800226C
:1010C00000F0805000900F21901E02B000F010B888
:1010D00044380240002809DB00F01F020121914042
:1010E0004009800000F1E020C0F8001170470000C6
:1010F000F0B40E4B1B680C46C3F30223C3F1070583
:10110000042D00D90425191D072901D2002300E070
:10111000DB1E012606FA05F1491E214099409E403A
:10112000761E16403143F0BC01F04CBA0CED00E0E5
:10113000064900F0070208684FF6FF03184040EA2E
:101140000220034A10430860704700000CED00E0E5
:101150000000FA052DE9F0470E46050065D0DFF8DE
:101160001481D8F80000F7B200F00700B04207D2AF
:1011700088F80070D8F8000000F00700B04254D1A1
:1011800028683D4C810712D5400703D5206840F4FC
:10119000E05020602878000703D5206840F46040C4
:1011A00020602068A96820F0F000084320602878BB
:1011B000C0072DD0304968680839012812D00228AC
:1011C00013D0032811D00968890700292DDA216876
:1011D00021F0030101432160FFF718FF814641F22E
:1011E000883A0EE009688903EFE709688901ECE7AE
:1011F000FFF70CFFA0EB0901514502D90320BDE820
:10120000F0872068696800F00C00B0EB810FEFD127
:10121000D8F80010404601F00701B14207D9077025
:10122000006800F00700B04201D00120E7E728780D
:10123000400705D52068E96820F4E05008432060A5
:101240002878000706D52068296920F4604040EA24
:10125000C100206000F038F82168084AC1F303118A
:10126000515CC8400649086006480068FFF7F6FE72
:101270000020C4E7003C024008380240143D00084A
:101280003000002028000020044805490068096853
:10129000044AC1F38221515CC840704730000020ED
:1012A00008380240243D00080448054900680968E0
:1012B000044AC1F34231515CC840704730000020FD
:1012C00008380240243D0008154810B5006810F0A9
:1012D0000C02144813D04110042A0FD0082A0ED152
:1012E0000F4C241F2268236802F03F025B0207D5DF
:1012F0002068C0F38810A0FB010106E0084610BD7D
:101300002168C1F38811A1FB00010023FEF7B8FF9B
:101310002168C1F30141491C4900B0FBF1F010BD47
:10132000083802400024F4002DE9F84F04006ED084
:101330002078DFF84C93C007A9F104054AD009F1E1
:1013400004000168C1F38101012908D00068C0F3DD
:10135000810002280AD1D9F80000400206D5286889
:10136000800337D560680028E1D033E06068B0F5CD
:10137000803F10D0B0F5A02F286810D020F4803026
:101380002860286820F4802028606068A8B1FFF7F2
:101390003DFE06460DE0286840F48030F4E740F456
:1013A00080202860F7E700BFFFF730FE801B64282D
:1013B00073D828688003F7D50CE0FFF727FE0646B0
:1013C00005E000BFFFF722FE801B6428F0D82868E4
:1013D0008003F7D42078DFF8AC8280074FF0000A52
:1013E0003ED5A748001D016811F00C0F08D0006819
:1013F000C0F3810002280BD1D9F80000400207D4C5
:101400002868800716D5E068012800D112E033E192
:10141000E068B8B10120C8F80000FFF7F7FD064604
:1014200005E000BFFFF7F2FD801B0228C0D8286846
:101430008007F7D52868216920F0F80040EAC1004C
:1014400028600DE0C8F800A0FFF7E0FD064604E0C4
:10145000FFF7DCFD801B02281FD828688007F7D41F
:101460002078000722D5864F87486169703771B1AF
:1014700001210160FFF7CAFD064604E0FFF7C6FD43
:10148000801B022809D838688007F7D50EE0C0F81D
:1014900000A0FFF7BBFD064605E082E0FFF7B6FDC2
:1014A000801B02287DD838688007F7D42078400751
:1014B00068D5DFF8CCB100270BF13C0BDBF800005E
:1014C000C0000BD4DBF8001041F08051CBF80010C5
:1014D000DBF80000012700F0805000906B4E306870
:1014E000C00510D4306840F480703060FFF78EFD86
:1014F000009005E0FFF78AFD0099401A022850D8B5
:101500003068C005F6D55E4EA0686C3601280FD055
:101510000528306810D020F001003060306820F0DD
:1015200004003060A068B8B1FFF770FD00900FE0D4
:10153000306840F00100F4E740F004003060F7E765
:10154000FFF764FD0099411A41F28830814266D864
:1015500030688007F4D50EE0FFF758FD009007E0F3
:10156000FFF754FD0099411A41F28830814256D864
:1015700030688007F4D42FB1DBF8001021F08051DF
:10158000CBF80010A069C8B33D49091D0968C1F333
:10159000810102294AD00228504607D0C8F86000CD
:1015A00000E03CE0FFF732FD04463BE04746C8F868
:1015B0006000FFF72BFD064605E000BFFFF726FDA4
:1015C000801B02282BD828688001F7D4D4E90701B2
:1015D0000843A16A2E4A490802EB0141626A41EAC6
:1015E0008211084394F82C1040EA0161C9F80010F8
:1015F00001203866FFF70AFD044606E03EE000BF22
:10160000FFF704FD001B022809D828688001F7D5E0
:1016100034E000BFFFF7FAFC001B022802D90320C8
:10162000BDE8F88F28688001F4D427E00128F7D0BE
:10163000D9F80000E26900F4800191421CD1226ACD
:1016400000F03F01914217D147F6C071626A014034
:10165000B1EB821F10D1A26A4FF0FF3300F440318A
:1016600003EB5202B1EB024F06D194F82C1000F0BC
:101670007060B0EB016F01D00120D1E70020CFE70F
:101680000438024000004742800E4742007000408C
:101690000000FFFF10B5401EB0F1807F01D3012094
:1016A00010BD4FF0E02460610F21601700F08AFF49
:1016B0000020A06107202061002010BD7047704706
:1016C000F8B5016804460868CA684B6910F00F0F46
:1016D0004FF0000559D003F0010602F4907737432C
:1016E00065D0C10705D0D10503D5216C41F00101BA
:1016F0002164410705D5D90703D0216C41F00201CF
:101700002164810705D5D90703D0216C41F004017C
:101710002164010707D502F02001314303D0216C79
:1017200041F008012164216C00293AD0800604D5DB
:10173000900602D5204600F0EEFC20684069216C3E
:10174000C0F38010090700D460B3204600F0BCFC51
:1017500020684069400621D52068143050E8001FF9
:1017600021F0400140E80012002AF5D1A06BA8B199
:101770006C490165A06BFFF722FB002811D0A06B1C
:10178000016D01B0BDE8F040084783060FD5930610
:101790000DD52046BDE8F84000F0BDBC2046FFF75F
:1017A0008EFFF8BD2046FFF78AFF2564F8BD266B43
:1017B0002023012E79D1C60677D5D60675D50868BF
:1017C000486800904869400640D5A16B08684068A9
:1017D0000004000CEAD0A28D8242E7D9E085C869F6
:1017E000B0F5807F2DD020680C3050E8001F21F428
:1017F000807140E80012002AF5D12068143050E8CA
:10180000001F21F0010140E80012002AF5D12068F4
:10181000143050E8001F21F0400140E80012002A77
:10182000F5D184F83E30256320680C3050E8001F65
:1018300021F0100140E80012002AF5D1A06BFFF75B
:1018400075FAA08DE18D401A81B229E0A08DE18D5D
:10185000401A81B2E08D0028A8D00029A6D02068C7
:101860000C3050E8002F22F4907240E80026002E41
:10187000F5D12068143050E8002F22F0010240E832
:101880000026002EF5D184F83E30256320680C3008
:1018900050E8002F22F0100240E80023002BF5D181
:1018A0002046FFF70BFFF8BDFFE705062BD5150611
:1018B00029D594F83D002128F5D1A068B0F5805FC6
:1018C00001D12069B0B1206A411C216221680078F1
:1018D0004860E08C401E0004000CE084E3D12068E6
:1018E000C16821F08001C1602068C16841F04001F9
:1018F000C160D8E7206A0088C0F308004860206A09
:10190000801C2062E5E74006CDD55006CBD5CA68DD
:10191000204622F04002CA6084F83D3000F037F9DA
:10192000C1E70000B920000870B5040004D094F8A5
:101930003D00002510B106E0012070BD84F83C5048
:10194000204600F023F8242084F83D002068C16878
:1019500021F40051C160204600F03EFC206801697E
:1019600021F4904101612068416921F02A0141611F
:101970002068C16841F40051C1602564202084F8CA
:101980003D0084F83E00002070BD0000F0B587B037
:10199000044614216846FEF7BDFC3A4B2768002236
:1019A000394903240225082638489F4221D1364A66
:1019B0001032136843F400231360126802F400220B
:1019C00005920A6842F001020A60096802AA01F061
:1019D000010105910121CDE9004582E852006946E7
:1019E000FFF712FA002205213420FFF781FB342093
:1019F00026E0254BDFF898C01433674524D11E68D4
:101A000046F010061E601B6803F0100305930B6878
:101A100043F001030B600968029201F00101059196
:101A20004FF4C061CDE900150721CDE903416946B6
:101A3000FFF7EAF9002205212520FFF759FB2520B1
:101A4000FFF748FB07B0F0BD12488742FAD118688B
:101A500040F020001860186800F020000590086829
:101A600040F004000860086802AF00F00400059030
:101A7000C020CDE9000587E8540069460648FFF715
:101A8000C3F9DFE7004C004030380240000002405C
:101A900000100140001401400008024090F83E3060
:101AA000202B0ED159B152B190F83C30012B08D007
:101AB000012380F83C300023036300F013BC0120B5
:101AC000704702207047000000680349884201D136
:101AD00000F068BC70470000004C00402DE9F8435E
:101AE000044690F83D001F4616460D4620284CD16E
:101AF000C5B1BEB194F83C00012846D0012084F85D
:101B00003C004FF00008C4F84080212084F83D00DC
:101B1000FFF77CFAA6848146E684A068B0F5805F72
:101B200003D004E00120BDE8F883206928B12E46E7
:101B30005FF0000584F83C800EE00026FAE7802183
:101B4000204600F0EAFBA0B9AEB116F8010B2168FF
:101B50004860E08C401EE084E08C4B464FF0000271
:101B600000970028EBD14FF04001204600F0D5FB54
:101B700030B10320D7E735F8020BC0F30800E6E7E1
:101B8000202084F83D000020CDE70220CBE77047FD
:101B9000FEE7000010B58EB01C220B496846FEF728
:101BA000A0FB0021684601F0E9F9084C06491C2217
:101BB00020601C3107A8FEF794FB002107A801F064
:101BC000DDF960600EB010BDDC3C00081C00002098
:101BD0002DE9F04786B014216846FEF79BFB42488A
:101BE0000024016841F010010160016801F010015A
:101BF0000591016841F080010160016801F08001F8
:101C00000591016841F001010160016801F00101E5
:101C10000591016841F020010160016801F0200197
:101C20000591016841F040010160016801F0400147
:101C30000591016841F004010160016801F00401AF
:101C40000591016841F0080101600068274F00F02C
:101C500008000590012218213846FFF7D2F9DFF875
:101C600090804FF48046002231464046FFF7C9F984
:101C7000DFF88090002280214846FFF7C2F9DFF8A4
:101C800078A0002202215046FFF7BBF90122510241
:101C90004846FFF7B6F9182000900125CDE9015418
:101CA000694638460394FFF7AFF80096CDE9015432
:101CB000694640460394FFF7A7F84FF42070009060
:101CC000CDE90154694648460394FFF79DF8022088
:101CD000CDE90005CDE9025469465046FFF794F876
:101CE00006B0BDE8F0870000303802400010024026
:101CF0000014024000180240000C02400C4810B5CD
:101D00000A4901604FF4E1314160002181600C22F9
:101D1000C160C0E904128161C161FFF705FE0028BE
:101D200003D0BDE81040FEF7FFBF10BD004C0040DF
:101D3000A80400200C4810B50A4901604FF4E131B5
:101D40004160002181600C22C160C0E90412816100
:101D5000C161FFF7E9FD002803D0BDE81040FEF7A0
:101D6000E3BF10BD00100140EC0400200C4810B58A
:101D70000A4901604FF4E1314160002181600C2289
:101D8000C160C0E904128161C161FFF7CDFD002887
:101D900003D0BDE81040FEF7C7BF10BD00140140DE
:101DA00030050020FEE7FEE71CB54FF4FA66184840
:101DB000FEF7C8FD30B117A000F0E0FB304601F09F
:101DC000D1F8F4E7124FB868FEF7D6FA04460D468C
:101DD000F868FEF7D1FA41EC100B11A153EC102B6F
:101DE00007F11000CDE9004500F0D8FB0FA000F08E
:101DF000B5FB07F1100112A000F0C0FB07F11000C5
:101E000000F0ACFB402107F11000FEF783FAD5E7A4
:101E100004020020B6C1C8A1CAA7B0DC0D0A0000A8
:101E2000252E326620252E32660A000041542B43AF
:101E3000495053454E443D302C31320D0A000000CC
:101E400025730D0A00000000424D434E434F444CA1
:101E50004FF40078B5F90000401CFBD128804149BF
:101E600041A000F08BFB42A13E48FEF777FA002824
:101E700036D042A13B48FEF771FA002832D042A189
:101E80003848FEF76BFA002830D042A13548FEF7FB
:101E900065FA00282CD042A13248FEF75FFA0028EC
:101EA00029D042A12F48FEF759FA30B342A12D485C
:101EB000FEF754FA20B343A12A48FEF74FFA08B3BD
:101EC00043A12848FEF74AFA10B344A12548FEF77B
:101ED00045FA08B344A12348FEF740FA28B31EE0B0
:101EE000002200E00122082130460EE0002200E03E
:101EF00001221021F8E7002200E00122414603E020
:101F0000012200E0002280213846FFF77AF806E03F
:101F1000206801F05DF802E0206801F073F84FF4EA
:101F200080711048FEF7F6F994E701220821304647
:101F3000FFF767F8012210213046FFF762F801220F
:101F400041463846FFF75DF8002280213846FFF70A
:101F500058F8E1E70200002000100240001802409B
:101F60001C0000200401002025730D0A0000000061
:101F70006F70656E5F6C656431000000636C6F7339
:101F8000655F6C65643100006F70656E5F6C6564E1
:101F900032000000636C6F73655F6C656432000033
:101FA0006F70656E5F6C656433000000636C6F7307
:101FB000655F6C65643300006F70656E5F626565B8
:101FC00070000000636C6F73655F62656570000090
:101FD0006F70656E5F64687431310000636C6F739D
:101FE000655F64687431310072657365745F616C3C
:101FF0006C00000010B5FFF70FF801F055FD012847
:1020000003D0BDE8104001F0E1BC10BD30B593B085
:1020100030216846FEF77EF914210CA8FEF77AF904
:102020001C480025016841F080510160006800F003
:10203000805011901848016841F4804101600068A7
:10204000022400F4804011900120009000040190CF
:102050008001CDE9064008AA0420542182E813003B
:102060000B906846FFF760F908B172B6FEE70CA95D
:102070000F2081E831004FF48050CDE90F05022197
:102080000CA8FFF767F8002801D072B6FEE713B07E
:1020900030BD000040380240007000400248016836
:1020A00041F470010160704788ED00E00148FFF7DE
:1020B00007BB0000A804002010B5806B0021C1857B
:1020C000C184FFF7FCFA10BD01680C3151E8002F04
:1020D00022F4907241E80023002BF5D101681431FD
:1020E00051E8002F22F0010241E80023002BF5D136
:1020F000016B012909D101680C3151E8002F22F050
:10210000100241E80023002BF5D1202180F83E1079
:1021100000210163704708B590F83E10222901D0D4
:10212000022008BD82684FF480539A4201D10169B0
:1021300021B1816A9A421BD04AB10AE00268816AE1
:102140005268C2F308020A80816A891C08E00269A9
:1021500072B10268526802F07F020A70816A491CFB
:102160008162C18D491E0904090CC18503D019E0A3
:1021700002685268F1E70168CA6822F02002CA606A
:102180000168CA6822F48072CA6001684A6922F054
:1021900001024A61202180F83E10016B012903D021
:1021A000FFF792FC002008BD0021016301680C319B
:1021B00051E8002F22F0100241E80023002BF5D156
:1021C00001680A68D20602D50A6849680091818DC3
:1021D000FFF774FAE6E7000070B50446006801698D
:1021E000E26821F44051114301612169A068E2696C
:1021F00008436169114308432168CA6849F20C63C6
:102200009A430243CA6020684169A26921F440717F
:102210001143416131492068884202D030498842E7
:1022200002D1FFF741F801E0FFF72EF8E269002341
:10223000192164253226B2F5004F626828D0A0FB30
:102240000101930F9200FEF71BF80146B0FBF5F079
:102250006FF01802504301EB800006EB0010B0FB5A
:10226000F5F000F0F002B1FBF5F002EB0012B1FB6B
:10227000F5F06FF01803584301EB800006EB0010F7
:10228000B0FBF5F000F00F0021681044886070BDCD
:10229000A0FB010192185B41FDF7F2FF0146B0FB84
:1022A000F5F00201B1FBF5F06FF01803584301EBB4
:1022B000800006EBC000B0FBF5F000F0F80002EB88
:1022C0004002B1FBF5F0584301EB800006EBC00083
:1022D000B0FBF5F000F00700D6E700000010014069
:1022E0000014014081628285C2850021016422229E
:1022F00080F83E2080F83C100168CA6842F4807281
:10230000CA6001684A6942F001024A610068C16816
:1023100041F02001C160002070472DE9F04198464E
:1023200017460E460446069D27E0681C25D02DB1B1
:10233000FEF76CFEA0EB0800A8421ED920680C3006
:1023400050E8001F21F4D07140E80012002AF5D1B6
:102350002068143050E8001F21F0010140E800120D
:10236000002AF5D1202084F83D0084F83E000020AA
:1023700084F83C000320BDE8F0812068006836EA5C
:10238000000004D00020B842CFD00020F3E70120A5
:10239000F9E700000148FFF793B90000EC040020C2
:1023A000FEE700002DE9F041174B184D1E461F783F
:1023B000B6F902004FF48071421C14B27278062FF5
:1023C00004D80AB12A540BE0002013E0232A10D0CD
:1023D000242A14D0411EFF2903D2284400F8012CDE
:1023E0005C80BDE8F04108490122491C0848FFF71C
:1023F00055BB012058800548FDF78CFFF1E74FF0F1
:10240000FF305880EDE700000000002004010020AC
:10241000A804002070B5194E04464FF480450022F0
:1024200029463046FEF7EDFD4FF4FA70FEF7DAFC70
:10243000012229463046FEF7E4FD4FF47A7515E097
:102440003220FEF7CFFC0EA10F48FDF76EFF08B15A
:10245000012070BD323CA4B2B4FBF5F005FB104086
:1024600020B9B4FBF5F109A000F088F8002CE7D101
:102470000AA000F083F8002070BD000000140240A4
:1024800072656164790000000401002074696D6563
:102490006F75742D3E25640D0A0000007761697424
:1024A0002074696D656F75742C2074727920616772
:1024B00061696E210D0A000070B50C461949064687
:1024C000002048804FF480711748FDF723FF304605
:1024D000FDF73DFF82B24FF47A752B463146134823
:1024E000FFF7FCFAB0B11AE03220FEF77BFC10A136
:1024F0000D48FDF71AFF08B1012070BDB4FBF5F0DF
:1025000005FB104020B9B4FBF5F10AA000F036F845
:10251000323CA4B2002CE7D10AA000F02FF8002032
:1025200070BD00000000002004010020A80400206D
:102530004F4B000074696D656F75742D3E25640DF9
:102540000A00000074696D656F75742C20747279CF
:1025500020616761696E210D0A00000010B5044614
:10256000FDF7F5FE214682B2BDE810404FF47A73C4
:102570000148FFF7B3BA0000A80400200FB4054BD0
:1025800010B503A9044A029800F0FEF810BC5DF8EB
:1025900014FB0000C12E00089C0000200FB4084B63
:1025A00010B504A902AA039800F0EEF8044602A9A7
:1025B000002000F080FC204610BC5DF814FB0000F9
:1025C000B72E00080907090E002804DB00F1E020FF
:1025D00080F80014704700F00F0000F1E02080F850
:1025E000141D704702E008C8121F08C1002AFAD162
:1025F00070477047002001E001C1121F002AFBD183
:10260000704700002DE9FF5F82B00021DDE9043052
:10261000020DDDF840B0034318D044F61050A2F28A
:10262000FF3242431514119801281FD0A5EB0B006F
:10263000401C5FEA000A4FF000064E4FDFF8389169
:10264000B046504615D5CAF1000413E01198012494
:102650004AA3012801D16FEA0B010298119AC0E93F
:102660000031C0E9024206B0BDE8F09FCBF10000A6
:10267000DFE704460021404A491842EB0450CDE907
:10268000001012E0E00707D032463B46404649467C
:10269000FDF761FF8046894632463B4610461946A3
:1026A000FDF759FF06460F466410002CEAD1DDE91C
:1026B0000401DDE90023BAF1000F06DAFDF74BFF54
:1026C00042464B46FDF747FF05E0FDF7B6FF4246A1
:1026D0004B46FDF7B2FF04460E460022284BFEF79C
:1026E00033F803D84FF0FF30014607E00022254BB6
:1026F00020463146FDF788FEFEF70EF8102409E06B
:10270000002C0ADB0A220023FDF7BAFD039B3032BE
:102710001A55641E50EA0102F2D1641C039AC4F1F6
:1027200011031444119A012A03D0012208430DD148
:102730000AE0084304D000204FF0110B119072E71B
:10274000A3EB0B056D1E0DE05B4504DD4FF00002B1
:1027500005F1010504E003DA4FF00002A5F10105DF
:10276000002AECD002981199C0E90231C0E9004575
:1027700079E70000000014400000F03F3000000046
:102780000000F0430000E03F2DE9FF4F95B09B466D
:102790008946064600250FE2252877D100242746E2
:1027A000F84A0121059400E0044316F8013F203B5C
:1027B00001FA03F01042F7D130782A2811D06FF0D7
:1027C0002F033078A0F13002092A16D8059A44F078
:1027D000020402EB820203EB42021044761C0590D5
:1027E000EFE759F8042B0592002A03DA504244F42B
:1027F0000054059044F00204761C30782E2816D13F
:1028000016F8010F44F004042A280DD06FF02F02AF
:102810003078A0F13003092B09D807EB870302EBCE
:102820004303C718761CF3E759F8047B761C30780D
:102830006C280FD006DC4C2817D068280DD06A28E9
:1028400014D104E0742810D07A280FD10DE044F49C
:1028500000140AE044F4801401E044F44014727857
:10286000824202D104F58014761C761C30786628EA
:102870000BD013DC582877D009DC002875D0452808
:10288000F6D04628F4D047281AD19DE118E06328F5
:1028900035D0642879D0652812D195E1702873D09D
:1028A00008DC6728F1D069286FD06E280DD06F281A
:1028B00006D1B5E073282CD0752875D0782874D04F
:1028C0005A46179990476D1C75E1C4F302500228CF
:1028D00009D003280DD0D9F8001004280DD00D60C0
:1028E00009F1040967E1D9F80010EA17C1E90052BB
:1028F000F6E7D9F800100D80F2E70D70F0E719F84F
:10290000041B8DF8001000208DF80100EA4601201C
:1029100003E059F804AB4FF0FF3061074FF00001BE
:1029200002D40DE008F101018846B9420FDA804572
:10293000F8DB1AF808100029F4D108E008F10101C9
:1029400088468142FADB1AF808100029F6D105986A
:102950005B46A0EB080721463846179A00F094FA28
:10296000284400EB080507E04DE029E10DE01AF8E6
:10297000010B5A4617999047B8F10108F7D25B4608
:1029800021463846179A13E142E00A220092C4F326
:1029900002524FF0000A022A08D059F804CB032A49
:1029A0004FEAEC710AD00DE029E02AE009F10701B5
:1029B00021F00702F2E802C1914609E00FFA8CFC0F
:1029C0004FEAEC71042A03D14FFA8CFC4FEAEC7108
:1029D000002907DA0A460021DCF1000C61EB020154
:1029E0002D2202E0220504D52B228DF8042001229D
:1029F00003E0E20701D02022F7E7904659E00A21E0
:102A000002E010220DE010214FF0000A00910BE0CF
:102A100010224FF0000A44F004040827009203E05B
:102A200008224FF0000A0092C4F30252022A05D095
:102A300059F804CB0021032A08D009E009F1070165
:102A400021F00702F2E802C1914605E01FFA8CFC72
:102A5000042A01D10CF0FF0C4FF00008220728D502
:102A6000702806D0009B83F0100353EA0A0305D0B8
:102A70000EE040228DF80420012208E05CEA010209
:102A800006D030228DF804208DF8050002229046F1
:102A9000009B83F0080353EA0A030AD15CEA0102AF
:102AA00001D1620705D530228DF804204FF00108CE
:102AB0007F1E582804D034A003900EA802900DE089
:102AC00036A0F9E753466046009AFDF7D9FB8446E5
:102AD0000398825C0298401E029002705CEA01003A
:102AE000F0D1029806A9081A00F1200A600702D561
:102AF00024F4803400E00127574502DDA7EB0A00EB
:102B000000E0002000EB0A01009005984144401AC3
:102B10000590E00306D45B462146179A059800F01D
:102B2000B3F90544002706E001A85A46C05D17998D
:102B300090476D1C7F1C4745F6DBE0030CD55B46D8
:102B40002146179A059800F09FF9054404E03020CB
:102B50005A46179990476D1C0099481E009000290D
:102B6000F5DC08E0029802995A460078491C029167
:102B7000179990476D1CBAF10001AAF1010AF1DC26
:102B800065E1000009280100303132333435363731
:102B900038396162636465660000000030313233A9
:102BA0003435363738394142434445460000000049
:102BB00000F058F90544761C307800287FF4ECAD1D
:102BC00019B02846BDE8F08F620700D4062709F146
:102BD000070222F0070CFCE80223E14603F000485C
:102BE0005FEA080C02D00FF2702C0DE05FEA045C83
:102BF00002D50FF2682C07E05FEAC47C02D00FF226
:102C0000602C01E0AFF2700C4FF0FF3823F000436E
:102C1000CDF850C065280CD006DC452809D04628E0
:102C20001DD047283DD13DE0662818D067287ED1C9
:102C300038E00021112F01DB112000E0781CCDE9E4
:102C4000000106A90EA8FFF7DDFCDDE90F010E9AD1
:102C500003910021009207F1010A04914DE04FF029
:102C600000400097CDE9011006A90EA8FFF7CAFCA5
:102C7000DDE90F0203920E9B11990022DDF80CA0F2
:102C80000093049211B9791C00EB010AB7EB0A001A
:102C900004D4C0F1FF3007F1010A0490AAEB070049
:102CA000019044E0012F00DA01270021112F01DDFE
:102CB000112000E03846CDE9000106A90EA8FFF773
:102CC000A1FCDDE90F010E9A03910021049100920D
:102CD000BA4621070CD40399514500DA8A46BAF165
:102CE000010F05DD009AAAF10101515C302908D0DD
:102CF000B84202DA10F1040F06DA0121CDE9011021
:102D000015E0AAF10101E9E7002805DC0499014476
:102D10000491AAEB000102E0411C514500DD8A4606
:102D20000499401A401C01904FF000400290200787
:102D300004D40198504501DBCDF8048000208DF8C3
:102D40004F0002980DF14F07B0F1004F25D02B2016
:102D50000E9002984FF0020800280CDA40420290D0
:102D60002D200E9007E00A210298FDF718FB303164
:102D7000029007F8011DB8F10001A8F10108F2DC8A
:102D800002980028EFD1791E0E980870307800F074
:102D9000200040F0450007F8020D12A8C01B00F10A
:102DA00007081498007800B1012000EB0A0101988F
:102DB00001EBE07105984144401A401E0590E00384
:102DC00006D45B462146179A059800F05DF8054445
:102DD0001498007818B15A46179990476D1CE00373
:102DE00024D55B462146179A059800F04DF8054416
:102DF0001CE00498002807DBDDE90301884203DDBD
:102E00000098405C179901E0179930205A46904786
:102E1000049805F10105401C04900198401E0190A2
:102E200004D12E205A46179990476D1CBAF1000123
:102E3000AAF1010ADDDC05E017F8010B5A461799E3
:102E400090476D1CB8F10001A8F10108F4DC5B4665
:102E50002146179A0598ABE62D0000002B000000D4
:102E6000200000002DE9F041044600251E461746CB
:102E7000880404D405E039462020B0476D1C641E48
:102E8000F9D52846BDE8F0812DE9F041044600253A
:102E90001E469046C80301D5302700E0202788044D
:102EA00004D505E041463846B0476D1C641EF9D58F
:102EB0002846BDE8F0810A68531C0B60107070470B
:102EC00038B504468DF80000022301226946024805
:102ED000FEF704FE204638BDEC040020EFF3058029
:102EE000002800D001207047FEF79EF8FFF78EF80B
:102EF000FEF76EFEFEF702FFFEF71CFFFEF736FF41
:102F00000F4C002208212046FEF77BF80DA0FFF7AA
:102F100035FBFDF795FD002210212046FEF771F8E4
:102F2000FDF7B8FC002261150A48FEF76AF805A013
:102F3000FFF724FBFEF72EFE00F01BF8FEE7000073
:102F400000100240B3F5CABCBBAFCDEAB3C90D0A4D
:102F5000000000000018024001460020842900D033
:102F6000C81C704710B500B9012000F087FB002095
:102F700010BD10B500F0E6FB002010BD7FB50D467A
:102F800004464169B0F9080081B1A16971B1FFF748
:102F9000E3FFD4E905128DE80700D4E900102B46C1
:102FA000226900F056FD039004B070BDFFF7D4FF16
:102FB00003A9CDE90001208A2B4682B2D4E9001092
:102FC00000F01AFD012801D00020EDE70398EBE79F
:102FD00010B50446FFF782FF002820460BD000F012
:102FE00039FE012809D1064900070860BFF34F8F59
:102FF000BFF36F8F01E000F067FB002010BD000001
:1030000004ED00E010B500F0D3FB002010BD00007F
:103010002DE9F041184C0F460546E6682068001D72
:1030200000F03AFA38B9206890F82C100120884056
:10303000216981432161681C07D137B12168BDE84E
:10304000F0410E48091D00F06BBA20683544B542C6
:103050004560216805D2A06BBDE8F041091D00F074
:1030600047BA606B091D00F043FAA06A854200D29E
:10307000A562BDE8F0810000340000205006002069
:103080002DE9F041054600F057FA2E4CA068401C8F
:10309000A06020682C4F10B1606940B32DE025601E
:1030A000A068012829D1002606EB860007EB8000E6
:1030B00000F010FA761C072EF6D323488C3000F06F
:1030C00009FA2148A03000F005FA1F48B43000F09A
:1030D00001FA1D48C83000F0FDF91B48DC3000F053
:1030E000F9F919488C3060631430A06305E020685A
:1030F000E96AC06A884200D82560606A401C606244
:10310000E96A0120226988401043206101EB8100B7
:1031100007EB8000291D00F003FA00F02DFA60692A
:1031200000280CD02068E96AC06A884207D20749A3
:103130004FF080500860BFF34F8FBFF36F8FBDE833
:10314000F0810000340000207405002004ED00E050
:1031500010B5044690F8510058B101280CD002284F
:103160000FD0502080F31188BFF34F8FBFF36F8FC4
:10317000FEE7206B00F014FA2046BDE8104000F096
:103180000FBA10BD10484FF47051420706D0C01D51
:103190000D4920F00700411AC1F570510B4A002378
:1031A0000144C2E900030839183A21F0070111600F
:1031B0004B600B600B1AC0E9001393604FF00040A6
:1031C00053605061704700006406002088000020B2
:1031D000144E154CA6F1C8074FF08058DFF84C90FC
:1031E00012E000BF00F0A8F9F068C568281D00F0E3
:1031F00053F9A068401EA0606068401E606000F047
:10320000BBF92846FFF7A4FF60680028EAD13868B8
:103210000128F9D9C9F80080BFF34F8FBFF36F8F32
:10322000F2E700003C0600203400002004ED00E03E
:103230002DE9F0479A46DDE9098481466FF00303E2
:10324000206B03EB82021044089E20F007077807EA
:1032500007D0502080F31188BFF34F8FBFF36F8FDB
:10326000FEE7002561B1002023180A5C83F83420B2
:103270000A5C12B1401C1028F6D384F8435001E0D8
:1032800084F83450072E00D30626E662C4E911659F
:10329000201D00F02AF904F1180000F026F924613D
:1032A000C6F107006462A061E56484F8505052469C
:1032B0004946384600F0DAF82060B8F1000F01D036
:1032C000C8F80040BDE8F08730B5114900E011466C
:1032D0000A688242FBD34B685C18844203D1406881
:1032E00018444860084643681C18944209D1084CA9
:1032F000183C2468A24209D052681A4442600A6805
:1033000012680260814200D0086030BD0460F9E7B5
:10331000880000200648416B096829B1416BC968E3
:10332000C9684968816270474FF0FF31FAE70000D1
:103330003400002008484068401C4FF0500080F3E3
:10334000118804D0BFF34F8FBFF36F8FFEE7BFF339
:103350004F8FBFF36F8FFEE790000020002150B128
:103360000A4B42699A420FD1806AA3F12802904227
:103370000AD040B108E0502080F31188BFF34F8F8E
:10338000BFF36F8FFEE7012108467047500600200B
:103390002DE9F0410546002700F068FA324E30680A
:1033A00008B9FFF7EFFE706905424ED1C5B3083585
:1033B00068070ED005F00700C0F108000544680753
:1033C00007D0502080F31188BFF34F8FBFF36F8F6A
:1033D000FEE72DB37068854237D823481830014680
:1033E0000C6801E020460C466168A94202D22168BF
:1033F0000029F7D131688C4227D007682168016025
:1034000060680837411B10290FD96019420708D09E
:10341000502080F31188BFF34F8FBFF36F8FFEE70B
:1034200013E041606560FFF74FFF61687068401A04
:103430007060B268904200D2B060706901430020B1
:10344000C4E90001F068401CF06000F0A1FB7807BF
:1034500007D0502080F31188BFF34F8FBFF36F8FD9
:10346000FEE73846BDE8F0817000002010B5031F6C
:103470004FF080741C601B1F21F001011960191F9F
:10348000044B0B6014390A60091F6FF002024438C4
:103490000A6010BD35330008D0E9013201699A6035
:1034A000D0E901235A604A68824201D182684A60A9
:1034B000002202610868401E08600868704700002A
:1034C000034B036003F154000860802010607047D4
:1034D0005402002000F108014FF0FF32C0E9011250
:1034E000C1600161002101607047002101617047E6
:1034F00030B50B685A1C02D000F1080202E00269E4
:1035000004E02246546825689D42FAD953684B600E
:1035100099608A60516008610168491C016030BD92
:1035200042684A6093688B60936859609160086153
:103530000168491C01607047502080F31188BFF377
:103540004F8FBFF36F8F0A494868401C48600128BD
:103550000CD10848006810F0FF0F07D0502080F30E
:103560001188BFF34F8FBFF36F8FFEE770470000E6
:103570009000002004ED00E00849486828B1401E92
:10358000486001D180F311887047502080F3118882
:10359000BFF34F8FBFF36F8FFEE700009000002056
:1035A00070B500282AD0164DA0F10804606869693A
:1035B000084207D1502080F31188BFF34F8FBFF32B
:1035C0006F8FFEE722683AB1502080F31188BFF375
:1035D0004F8FBFF36F8FFEE78843606000F046F9BE
:1035E00060686968084468602046FFF76DFE2869D6
:1035F000401C2861BDE8704000F0CABA70BD0000F0
:10360000700000204FF0E020002101618161054938
:103610004FF47A720968B1FBF2F1491E416107214A
:10362000016170473000002010B5FCF713FE11490E
:1036300010280ED300F1E02090F8F0030A789042B1
:1036400007D2502080F31188BFF34F8FBFF36F8FE5
:10365000FEE709480068896800F4E060884207D9FD
:10366000502080F31188BFF34F8FBFF36F8FFEE7B9
:1036700010BD0000900000200CED00E010B502002D
:1036800014D00F48006B38B1502080F31188BFF37D
:103690004F8FBFF36F8FFEE700F0E8F80021104670
:1036A000FFF7B6FC00F074FA002807D105494FF087
:1036B00080500860BFF34F8FBFF36F8F10BD0000C5
:1036C0003400002004ED00E070B504002BD01A4D4A
:1036D000286884422FD0FFF72FFF2046FFF73EFED9
:1036E000E8B1201DFFF7D8FEE06A01212A69814078
:1036F00011432961114900EB800001EB8000211D7D
:10370000FFF70EFFE06A2968C96A884207D30C49AF
:103710004FF080500860BFF34F8FBFF36F8FBDE84D
:103720007040FFF729BF502080F31188BFF34F8FFF
:10373000BFF36F8FFEE770BD3400002074050020DA
:1037400004ED00E010B586B00024039405AA04A996
:1037500003A80494FFF7B4FEDDE903010094CDE96A
:10376000011000230EA11048059A00F072F90F49CC
:103770000028C86211D0502080F31188BFF34F8F0A
:10378000BFF36F8F4FF0FF30886201204861CC603B
:1037900006B0BDE8104000F09FB806B010BD0000B4
:1037A00049444C4500000000D1310008340000209D
:1037B00070B50446FFF7C0FE294D04B92C68201DE2
:1037C000FFF76AFE58B9E06A264A00EB800152F81A
:1037D000211021B901218140286988432861A06A0C
:1037E00018B104F11800FFF757FE1E48211DDC3008
:1037F000FFF796FE94F850000026012801D184F8C6
:103800005060FFF7B9FE686928B1FFF795FEFFF732
:1038100081FDFFF7B1FE2868844213D1686990B139
:10382000286B38B1502080F31188BFF34F8FBFF35E
:103830006F8FFEE70C494FF080500860BFF34F8F49
:10384000BFF36F8F70BD0748DC300068A9688842FD
:1038500001D12E6070BDBDE8704000F00FB80000CF
:10386000340000207405002004ED00E00248016BE4
:10387000491C016370470000340000201448016BAC
:1038800011B10121C16170470021C1610169B1FA23
:1038900081F1C1F11F0101EB81020E4951F8223083
:1038A0006BB101EB820101F108034A6852684A607A
:1038B0009A4201D152684A60D16801607047502035
:1038C00080F31188BFF34F8FBFF36F8FFEE70000C7
:1038D00034000020740500201CB537480168374AC1
:1038E000914207D1502080F31188BFF34F8FBFF36F
:1038F0006F8FFEE700683149491E884207D150208A
:1039000080F31188BFF34F8FBFF36F8FFEE72C4911
:1039100008780190FF20087008788DF800009DF865
:1039200000009DF8002000F0F000904207D05020E9
:1039300080F31188BFF34F8FBFF36F8FFEE79DF8C1
:103940000000204C00F0500020700720A06005E02F
:103950009DF8002052008DF80020401E9DF80020A8
:103960001206F5D4A060032807D0502080F31188F8
:10397000BFF34F8FBFF36F8FFEE74FF44070A0602F
:10398000019808700C482030016841F47001016012
:10399000016841F070410160FFF734FE0020606073
:1039A000FCF720FC0848016841F040410160FCF749
:1039B00005FC00201CBD000000ED00E071C20F41BD
:1039C00000E400E09000002034EF00E010B550204B
:1039D00080F31188BFF34F8FBFF36F8F00F072F841
:1039E00018B104494FF080500860002080F311881E
:1039F00010BD000004ED00E02DE9FF5F8346DDE926
:103A00000E87994616468A469000FFF7C1FC0500CE
:103A10001CD05420FFF7BCFC040014D00020256308
:103A200084F85100CDE90240CDE900874B4632468B
:103A300051465846FFF7FCFB2046FFF721FB0120CB
:103A400004B0BDE8F09F2846FFF7AAFD4FF0FF3015
:103A5000F6E7F0B585B0DDE90B640A9DA6B1DCB1EF
:103A6000542700972663022684F85160002604AF8D
:103A7000CDE90246CDE90057FFF7DAFB2046FFF714
:103A8000FFFA049805B0F0BD502080F31188BFF311
:103A90004F8FBFF36F8FFEE7502080F31188BFF385
:103AA0004F8FBFF36F8FFEE70548416919B1006B77
:103AB00018B10020704701207047022070470000B5
:103AC000340000202DE9F0412F4C0026206B28B156
:103AD000A069401CA0613046BDE8F081E5686D1C1E
:103AE000E56013D1606B006838B1502080F3118815
:103AF000BFF34F8FBFF36F8FFEE7606BA16B616306
:103B0000A063206A401C2062FFF704FCA06ADFF873
:103B10007C80854209D3606B0068A0B1606BC0688F
:103B2000C7687868854211D2A0622068C06A00EB3D
:103B3000800158F82100012800D90126E0690028F9
:103B4000C9D00126C7E74FF0FF30EDE7381DFFF77A
:103B5000A3FCB86A18B107F11800FFF79DFCF96AD9
:103B60000120226988401043206101EB810108EBAC
:103B70008100391DFFF7D4FCF86A2168C96A8842C0
:103B8000C9D30126C7E700003400002074050020D7
:103B90002DE9F0472C4D00242746286B38B1FFF75C
:103BA000CBFC286B401E2863286B40B146E05020B8
:103BB00080F31188BFF34F8FBFF36F8FFEE7A968C3
:103BC000224E0120D1B3A6F1B40980463068E8B195
:103BD000F068C46804F11800FFF75EFC201DFFF7D1
:103BE0005BFCE06A2A6908FA00F11143296100EBE5
:103BF000800109EB8100211DFFF792FCE06A296832
:103C0000C96A8842E2D3C5F81C80DFE70CB1FFF730
:103C100081FBAC6944B14646FFF754FF00B1EE6149
:103C2000641EF9D10020A861E86938B1084901276C
:103C300038070860BFF34F8FBFF36F8FFFF79CFC0F
:103C40003846BDE8F0870000340000202806002038
:103C500004ED00E02DE9F0410027040015D0FFF746
:103C6000E3FC5020EFF3118580F31188BFF34F8FF1
:103C7000BFF36F8F2046FFF771FB30B3154E306BEB
:103C800058B104F1180114481DE0502080F3118848
:103C9000BFF34F8FBFF36F8FFEE7E06A3168C96AE9
:103CA000884200D30127201DFFF7F6FBE16A0120BF
:103CB000326988401043306101EB81000649B43914
:103CC00001EB8000211DFFF72BFC85F3118838469E
:103CD000BDE8F08134000020280600202C3D0008BB
:103CE000A91D000800000000000000000001000005
:103CF0000000000000000000383D0008491E0008D8
:103D0000FDFF000000000000800000000000000037
:103D10000000000000000000000000000102030499
:103D2000060708090000000001020304444854315A
:103D3000315461736B000000574946495461736BFD
:103D400000000000643D000800000020A00000000A
:103D5000E4250008043E0008A0000020C84500003B
:103D6000F425000800000000484F4E4F52203958FB
:103D70002050726F003139383533343330313500EB
:103D80000000000000000000010000001000000022
:103D9000000000000024F40000000000000000000B
:103DA0000000000000000000000000000000000013
:103DB0000000000000000000000000000000000003
:103DC00000000000000000000000000000000000F3
:103DD00000000000000000000000000000000000E3
:103DE00000000000000000000000000000000000D3
:103DF0000000000000000000AAAAAAAA000000001B
:043E000000000000BE
:040000050800018965
:00000001FF
