:020000040800F2
:10000000C04400205D020008C71C0008C11A000897
:10001000C51C0008F5030008C1220008000000000C
:100020000000000000000000000000009D0100082A
:100030007904000800000000F9010008951E00087E
:1000400077020008770200087702000877020008AC
:10005000770200087702000877020008770200089C
:10006000770200087702000877020008770200088C
:10007000770200087702000877020008770200087C
:100080007702000877020008770200081D040008C4
:10009000F903000805040008110400087B040008A7
:1000A000770200087702000877020008770200084C
:1000B000770200087702000877020008770200083C
:1000C000770200087702000877020008770200082C
:1000D000770200087702000877020008770200081C
:1000E000770200087702000877020008770200080C
:1000F00077020008770200087702000877020008FC
:1001000077020008770200087702000877020008EB
:1001100077020008770200087702000877020008DB
:1001200077020008770200087702000877020008CB
:1001300077020008770200087702000877020008BB
:1001400077020008770200087702000877020008AB
:10015000770200087702000877020008B52200083D
:10016000770200087702000877020008770200088B
:1001700077020008770200087702000800000000FC
:100180007702000877020008DFF80CD000F020F9B1
:1001900000480047A5250008C04400202C4B1968E2
:1001A0000868B0E8F04F80F30988BFF36F8F4FF015
:1001B000000080F3118870470000000008480068C4
:1001C000006880F308884FF0000080F3148862B65E
:1001D00061B6BFF34F8FBFF36F8F00DF00BF00BF6B
:1001E00008ED00E0DFF80C00016841F470010160E7
:1001F000704700BF88ED00E0EFF30980BFF36F8F19
:10020000134B1A681EF0100F08BF20ED108A20E96A
:10021000F04F106009B44FF0500080F31188BFF325
:100220004F8FBFF36F8F02F075FD4FF0000080F32A
:10023000118809BC19680868B0E8F04F1EF0100F6B
:1002400008BFB0EC108A80F30988BFF36F8F704746
:1002500028000020EFF30580704700000648804723
:1002600006480047FEE7FEE7FEE7FEE7FEE7FEE79B
:10027000FEE7FEE7FEE7FEE7391F000889010008F8
:100280002DE9F05F0546002092469B4688460646CB
:10029000814640241BE0284641464746224600F05E
:1002A00087F853465A46C01A914110D31146184652
:1002B000224600F06EF82D1A67EB01084F462246E1
:1002C0000120002100F065F817EB00094E41201EC7
:1002D000A4F10104DFDC484631462A464346BDE826
:1002E000F09F40EA01039B0703D009E008C9121FF1
:1002F00008C0042AFAD203E011F8013B00F8013BE0
:10030000521EF9D27047D2B201E000F8012B491E0B
:10031000FBD270470022F6E710B513460A460446A2
:100320001946FFF7F0FF204610BD421C10F8011BD4
:100330000029FBD1801A704710B5002200E0521C42
:10034000835C8C5CA34201D1002BF8D1D8B2E1B21E
:10035000401A10BD034611F8012B00F8012B002AAA
:10036000F9D11846704730B50B46014600202022CF
:10037000012409E021FA02F59D4205D303FA02F5B2
:10038000491B04FA02F52844151EA2F10102F1DC12
:1003900030BD202A04DB203A00FA02F10020704729
:1003A0009140C2F1200320FA03F3194390407047B3
:1003B000202A04DB203A21FA02F00021704721FABA
:1003C00002F3D040C2F12002914008431946704721
:1003D000064C074D06E0E06840F0010394E8070092
:1003E00098471034AC42F6D3FFF7D2FE58310008DC
:1003F00078310008FEE70000014800F0C2B90000B3
:100400001C030020014800F0BCB900001C030020C0
:10041000014800F0B6B900001C030020014800F0BC
:10042000B0B900001C0300200D4910B508220A6174
:100430004FF445720A6041F214324A6004228A6025
:100440000022CA600246012301F1340000F03AF8AC
:10045000002804D0BDE8104002A001F033BF10BD59
:10046000E802002063616E312073656E642066616E
:10047000696C0D0A00000000704710B5402000F0C4
:100480002BFC802000F028FC4FF4807000F024FC4E
:10049000BDE810404FF4007000F01EBC72B6FEE7DD
:1004A00090F82020012A07D0022A05D0416A41F4A1
:1004B0008021416201207047006842690A4342611D
:1004C00000207047F0B590F820500468A468012D12
:1004D00005D0022D03D0416A41F4802153E014F08D
:1004E000406F01D1E5004BD5C4F30164022C03D960
:1004F000416A41F4000146E00125A5401D608D6878
:100500004FF4C0739DB1CE6835434E6845EAC605C9
:10051000066803EB0417F5514FF4C275076805EB45
:1005200004150E697E51097D012905D009E00E8868
:10053000CD6845EA4655EBE701684E5946F48076AA
:100540004E511179D2F805504FF4C67641EA05258F
:10055000016806EB04168D511178D2F801204FF492
:10056000C47541EA0221026805EB04155151006887
:1005700003EB0411425842F0010242500020F0BD4A
:10058000416A41F4001141620120F0BD10B590F8BC
:100590002020012A07D0022A05D0416A41F4802197
:1005A0004162012010BD3B48D0F8002242F0010218
:1005B000C0F80022D0F8002222F47C52C0F80022B9
:1005C000D0F800224B6A42EA0322C0F800220A7DDA
:1005D00002F01F0301229A40D0F81C329343C0F866
:1005E0001C32CB69B3B9D0F80C329343C0F80C324B
:1005F0008C894B6864F31F434C6900EBC404C4F856
:1006000040320C890B6864F31F434C6900EBC4044F
:10061000C4F84432CB69012B16D1D0F80C32134305
:10062000C0F80C320C884B6864F31F434C6900EB34
:10063000C404C4F840320C89CB6864F31F434C698E
:1006400000EBC404C4F844328B69002BD0F80432A8
:100650000ED01343C0F804320B69002BD0F81432CB
:1006600008D01343C0F81432096A012904D008E005
:100670009343EFE79343F5E7D0F81C121143C0F81A
:100680001C12D0F8001221F00101C0F80012002065
:1006900010BD000000640040704730B590F8204065
:1006A000012C05D0022C03D0416A41F480215DE089
:1006B0000468002955D02469A40754D04FF4D87495
:1006C000056804EB01142D5915F0040595600568C3
:1006D0002D594ED0ED08556005682C5904F00204E0
:1006E000D4604FF4DA74056804EB01142D5905F059
:1006F0000F05156105682D59C5F307259561056836
:100700002C59240C54614FF4DC72046802EB011282
:10071000A4581C700468A458240A5C700468A45887
:10072000240C9C700468A258120EDA704FF4DE722A
:10073000046802EB0112A4581C710468A458240A2E
:100740005C710468A458240C9C710468A258120EB1
:10075000DA71006881B1016941F020010161002076
:1007600030BDE468A8E7416A41F40011416201200C
:1007700030BD6D0D1560AFE7C16841F02001C1606B
:10078000EDE72DE9F05F0546006800244669D0F8E2
:1007900004908768D0F80CB0D0F810A0D0F818807A
:1007A000F10748D0F90714D001218160B80703D5BB
:1007B000284600F010FA0CE0780702D54FF40064E8
:1007C00007E0380702D54FF4805402E0284600F0D5
:1007D00001FAF80516D529684FF480708860B805CD
:1007E00003D5284600F0F9F90CE0780502D544F469
:1007F000005407E0380502D544F4804402E028465E
:1008000000F0EAF9F80316D529684FF480308860C3
:10081000B80303D5284600F0E2F90CE0780302D5CE
:1008200044F4004407E0380302D544F4803402E085
:10083000284600F0D3F9300707D55FEACB6004D52E
:100840002968102044F40074C86070074FF008074E
:1008500007D55FEA0B7004D52868C760284600F00A
:1008600071F9B00706D52868C068800702D028460D
:1008700000F06AF9700607D55FEACA6004D52968F6
:10088000102044F480640861B00607D55FEA0A705E
:1008900004D528680761284600F06CF9F00606D5F3
:1008A00028680069800702D0284600F064F9B00388
:1008B00008D55FEAC96005D5296810204860284638
:1008C00000F05AF9F00307D55FEA097004D52868EB
:1008D0004760284600F084F9300446D55FEA497045
:1008E00040D5F00504D55FEAC87001D044F001049A
:1008F000B00504D55FEA887001D544F002047005A4
:1009000004D55FEA487001D544F00404300529D5C8
:1009100018F0700F26D008F07000402815D006DCC3
:10092000102809D020280AD0302816D10AE05028F3
:100930000ED0602811D10EE044F008040DE044F020
:1009400010040AE044F0200407E044F0400404E00E
:1009500044F0800401E044F480742868816921F047
:1009600070018161296804204860002C05D0686A04
:10097000204368622846FFF78FFEBDE8F09F70B500
:10098000040003D094F8200010B104E0012070BDF1
:10099000204600F081F82068016841F00101016003
:1009A00000F0ACFA0546052604E000F0A7FA401B6B
:1009B0000A2811D820684068C007F6D0206801686E
:1009C00021F00201016000F099FA05460BE000F009
:1009D00095FA401B0A2806D9606A40F4003060622C
:1009E00084F82060D2E7206840688007EFD4207E3A
:1009F0000128206801683DD021F080010160607EFF
:100A000001282068016838D021F040010160A07EF3
:100A100001282068016833D021F020010160E07EC8
:100A20000128206801682ED041F010010160207F6C
:100A300001282068016829D021F008010160607F49
:100A400001282068016824D021F004010160D4E964
:100A500002010843D4E90412114308436168491EA6
:100A600008432168C86100206062012084F82000EA
:100A7000002070BD41F08001C0E741F04001C5E7B2
:100A800041F02001CAE721F01001CFE741F0080151
:100A9000D4E741F00401D9E710B586B0044614212B
:100AA0006846FFF737FC24492068884241D1234833
:100AB0000021026842F000720260006800F00070DD
:100AC00005901E481038026842F00102026000687A
:100AD00000F0010005904FF4C05000900220CDE9D5
:100AE000010103200390092004906946144800F096
:100AF000FFF800220521132000F072FA132000F005
:100B000061FA00220521142000F06AFA142000F096
:100B100059FA00220521152000F062FA152000F094
:100B200051FA00220521162000F05AFA162000F092
:100B300049FA06B010BD0000006400404038024091
:100B4000000002407047000010B5074A016891425A
:100B500008D1064B064A0021FFF79FFD03490120FB
:100B6000491E087010BD0000006400400D00002008
:100B700000030020704770477047000070B50446BE
:100B800090F82000012804D0606A40F400206062E0
:100B900018E0022084F820002068016821F001019B
:100BA000016000F0ABF905460EE000BF00F0A6F9C9
:100BB000401B0A2808D9606A40F4003060620520B2
:100BC00084F82000012070BD20684068C007EDD186
:100BD000606270BD704770477047704770477047DC
:100BE00070472DE9F0410446876D00F087F906460D
:100BF00094F835000025022806D08020606584F82E
:100C000034500120BDE8F0812068016821F0160110
:100C100001602068416921F080014161206C08B9C0
:100C2000A06C20B12068016821F0080101602068F3
:100C3000016821F0010101600CE000F05FF9801B08
:100C4000052807D920206065032084F8350084F842
:100C50003450D7E720680068C007EED194F85C10E4
:100C60003F208840B860012084F8350084F8345073
:100C70000020C7E790F83510022903D08021416594
:100C800001207047052180F835100068016821F0C7
:100C900001010160002070470D4AB0F5007F0CD0C3
:100CA000B0F5807F0BD00B4980280CD040280CD0A9
:100CB000B0F5004F0BD1042008E0082100E010211E
:100CC000104600F00DB9022000E0032008607047D4
:100CD0000010024000000020044910B50A680242DA
:100CE00002D00860FFF7D8FF10BD0000143C01409F
:100CF0002DE9F84FDFF8BCA1002201250AF1040B11
:100D000003264FF00F090BF1040E00BF0B6805FA24
:100D100002F42340A34270D10F7907F00307012F9B
:100D200001D0022F16D187684FEA420806FA08FC64
:100D300027EA0C07D1F80CC00CFA08FC4CEA070CA7
:100D4000C0F808C04768A7430C79C4F30014944066
:100D50003C4344600C79E443A4070AD0C4684FEADA
:100D6000420C06FA0CF7BC438F6807FA0CF72743CE
:100D7000C7600C7904F00304022C12D1D40800EBF4
:100D8000840CDCF820405707FF0E09FA07F824EA24
:100D90000804D1F8108008FA07F848EA0408CCF8EB
:100DA000208004684FEA420C06FA0CF7BC430F7926
:100DB00007F0030707FA0CF7274307604C6814F4A1
:100DC000403F70D03C4C276847F480472760246838
:100DD00022F0030704F480440094384C07EB040C21
:100DE000DCF8084897074FEA177809FA08F7BC4378
:100DF000334FB84202D1002724E054E0314FB842CB
:100E000001D101271EE0304FB84201D1022719E07D
:100E10002E4FB84201D1032714E02D4FB84201D123
:100E200004270FE02B4FB84201D105270AE02A4FD3
:100E3000B84201D1062705E0284FB84201D1072763
:100E400000E0082707FA08F72743CCF80878DAF813
:100E500000405746D1F804C09C435FEACC3C00D523
:100E60001C433C60DBF800405F46D1F804C09C4363
:100E70005FEA8C3C00D51C433C60DEF800407746BE
:100E8000D1F804C09C435FEACC2C00D51C433C60E5
:100E9000084F0C373C68D1F804C09C435FEA8C2CA7
:100EA00000D51C433C60521C102AFFF42FAFBDE854
:100EB000F88F0000003C01404438024000300140FF
:100EC000000002400004024000080240000C024002
:100ED000001002400014024000180240001C0240B2
:100EE000426921EA02030A4043EA024181617047F4
:100EF0000AB1816170470904FBE70000014880687E
:100F000070470000180000200248816802781144F0
:100F100081607047180000200B4810B5016841F44B
:100F200000710160016841F480610160016841F471
:100F300080710160032000F073F80F2000F006F8C4
:100F400000F024F8002010BD003C024070B50D4DAB
:100F500004464FF47A712878B1FBF0F00A49096829
:100F6000B1FBF0F000F00EFB48B9102C07D20022C4
:100F70002146501E00F034F800206C6070BD012046
:100F800070BD000018000020240000200C4882B032
:100F9000016841F480410160006800F480400090E5
:100FA0000748001F016841F080510160006800227D
:100FB00000F0805000900F21901E02B000F010B899
:100FC00044380240002809DB00F01F020121914053
:100FD0004009800000F1E020C0F8001170470000D7
:100FE000F0B40E4B1B680C46C3F30223C3F1070594
:100FF000042D00D90425191D072901D2002300E082
:10100000DB1E012606FA05F1491E214099409E404B
:10101000761E16403143F0BC01F078B90CED00E0CB
:10102000064900F0070208684FF6FF03184040EA3F
:101030000220034A10430860704700000CED00E0F6
:101040000000FA052DE9F0470E46050065D0DFF8EF
:101050001481D8F80000F7B200F00700B04207D2C0
:1010600088F80070D8F8000000F00700B04254D1B2
:1010700028683D4C810712D5400703D5206840F40D
:10108000E05020602878000703D5206840F46040D5
:1010900020602068A96820F0F000084320602878CC
:1010A000C0072DD0304968680839012812D00228BD
:1010B00013D0032811D00968890700292DDA216887
:1010C00021F0030101432160FFF718FF814641F23F
:1010D000883A0EE009688903EFE709688901ECE7BF
:1010E000FFF70CFFA0EB0901514502D90320BDE831
:1010F000F0872068696800F00C00B0EB810FEFD139
:10110000D8F80010404601F00701B14207D9077036
:10111000006800F00700B04201D00120E7E728781E
:10112000400705D52068E96820F4E05008432060B6
:101130002878000706D52068296920F4604040EA35
:10114000C100206000F038F82168084AC1F303119B
:10115000515CC8400649086006480068FFF7F6FE83
:101160000020C4E7003C0240083802402431000857
:10117000240000201C00002004480549006809687C
:10118000044AC1F38221515CC8407047240000200A
:1011900008380240343100080448054900680968ED
:1011A000044AC1F34231515CC8407047240000201A
:1011B0000838024034310008154810B5006810F0B6
:1011C0000C02144813D04110042A0FD0082A0ED163
:1011D0000F4C241F2268236802F03F025B0207D5F0
:1011E0002068C0F38810A0FB010106E0084610BD8E
:1011F0002168C1F38811A1FB00010023FFF740F82B
:101200002168C1F30141491C4900B0FBF1F010BD58
:10121000083802400024F4002DE9F84F04006ED095
:101220002078DFF84C93C007A9F104054AD009F1F2
:1012300004000168C1F38101012908D00068C0F3EE
:10124000810002280AD1D9F80000400206D528689A
:10125000800337D560680028E1D033E06068B0F5DE
:10126000803F10D0B0F5A02F286810D020F4803037
:101270002860286820F4802028606068A8B1FFF703
:101280003DFE06460DE0286840F48030F4E740F467
:1012900080202860F7E700BFFFF730FE801B64283E
:1012A00073D828688003F7D50CE0FFF727FE0646C1
:1012B00005E000BFFFF722FE801B6428F0D82868F5
:1012C0008003F7D42078DFF8AC8280074FF0000A63
:1012D0003ED5A748001D016811F00C0F08D000682A
:1012E000C0F3810002280BD1D9F80000400207D4D6
:1012F0002868800716D5E068012800D112E033E1A4
:10130000E068B8B10120C8F80000FFF7F7FD064615
:1013100005E000BFFFF7F2FD801B0228C0D8286857
:101320008007F7D52868216920F0F80040EAC1005D
:1013300028600DE0C8F800A0FFF7E0FD064604E0D5
:10134000FFF7DCFD801B02281FD828688007F7D430
:101350002078000722D5864F87486169703771B1C0
:1013600001210160FFF7CAFD064604E0FFF7C6FD54
:10137000801B022809D838688007F7D50EE0C0F82E
:1013800000A0FFF7BBFD064605E082E0FFF7B6FDD3
:10139000801B02287DD838688007F7D42078400762
:1013A00068D5DFF8CCB100270BF13C0BDBF800006F
:1013B000C0000BD4DBF8001041F08051CBF80010D6
:1013C000DBF80000012700F0805000906B4E306881
:1013D000C00510D4306840F480703060FFF78EFD97
:1013E000009005E0FFF78AFD0099401A022850D8C6
:1013F0003068C005F6D55E4EA0686C3601280FD067
:101400000528306810D020F001003060306820F0EE
:1014100004003060A068B8B1FFF770FD00900FE0E5
:10142000306840F00100F4E740F004003060F7E776
:10143000FFF764FD0099411A41F28830814266D875
:1014400030688007F4D50EE0FFF758FD009007E004
:10145000FFF754FD0099411A41F28830814256D875
:1014600030688007F4D42FB1DBF8001021F08051F0
:10147000CBF80010A069C8B33D49091D0968C1F344
:10148000810102294AD00228504607D0C8F86000DE
:1014900000E03CE0FFF732FD04463BE04746C8F879
:1014A0006000FFF72BFD064605E000BFFFF726FDB5
:1014B000801B02282BD828688001F7D4D4E90701C3
:1014C0000843A16A2E4A490802EB0141626A41EAD7
:1014D0008211084394F82C1040EA0161C9F8001009
:1014E00001203866FFF70AFD044606E03EE000BF33
:1014F000FFF704FD001B022809D828688001F7D5F2
:1015000034E000BFFFF7FAFC001B022802D90320D9
:10151000BDE8F88F28688001F4D427E00128F7D0CF
:10152000D9F80000E26900F4800191421CD1226ADE
:1015300000F03F01914217D147F6C071626A014045
:10154000B1EB821F10D1A26A4FF0FF3300F440319B
:1015500003EB5202B1EB024F06D194F82C1000F0CD
:101560007060B0EB016F01D00120D1E70020CFE720
:101570000438024000004742800E4742007000409D
:101580000000FFFF10B5401EB0F1807F01D30120A5
:1015900010BD4FF0E02460610F21601700F0B6FE2F
:1015A0000020A06107202061002010BD70B590F8D8
:1015B0003C20012A32D0012480F83C40022280F8ED
:1015C0003D2003685A689D6822F070060A6832431D
:1015D0005A60134B02689A4214D0B2F1804F11D076
:1015E000104B9A420ED0104B9A420BD00F4B9A429E
:1015F00008D00F4B9A4205D00E4B9A4202D00E4BA8
:101600009A4204D1496825F080031943916080F81B
:101610003D40002180F83C10084670BD022070BD9E
:10162000000001400004004000080040000C0040A1
:1016300000040140004001400018004010B50400C3
:1016400003D094F83D0010B107E0012010BD002048
:1016500084F83C00204600F01FF8022084F83D008A
:10166000211D206800F070FC012084F8460084F8F9
:101670003E0084F83F0084F8400084F8410084F87C
:10168000420084F8430084F8440084F8450084F85C
:101690003D00002010BD000008B5006806498842E2
:1016A00008D10648016841F010010160006800F0AF
:1016B0001000009008BD00000010004040380240BB
:1016C00070477047F8B5016804460868CA684B69F6
:1016D00010F00F0F4FF0000559D003F0010602F48F
:1016E0009077374365D0C10705D0D10503D5216C6C
:1016F00041F001012164410705D5D90703D0216CD0
:1017000041F002012164810705D5D90703D0216C7E
:1017100041F004012164010707D502F020013143A3
:1017200003D0216C41F008012164216C00293AD0DA
:10173000800604D5900602D5204600F098FC20686B
:101740004069216CC0F38010090700D460B32046C3
:1017500000F066FC20684069400621D520681430FE
:1017600050E8001F21F0400140E80012002AF5D1A6
:10177000A06BA8B16C490165A06BFFF77BFA00284C
:1017800011D0A06B016D01B0BDE8F04008478306A1
:101790000FD593060DD52046BDE8F84000F067BC94
:1017A0002046FFF78EFFF8BD2046FFF78AFF25642D
:1017B000F8BD266B2023012E79D1C60677D5D60633
:1017C00075D50868486800904869400640D5A16B07
:1017D000086840680004000CEAD0A28D8242E7D974
:1017E000E085C869B0F5807F2DD020680C3050E8C6
:1017F000001F21F4807140E80012002AF5D1206812
:10180000143050E8001F21F0010140E80012002AC6
:10181000F5D12068143050E8001F21F0400140E865
:101820000012002AF5D184F83E30256320680C3080
:1018300050E8001F21F0100140E80012002AF5D105
:10184000A06BFFF7CEF9A08DE18D401A81B229E09F
:10185000A08DE18D401A81B2E08D0028A8D000292A
:10186000A6D020680C3050E8002F22F4907240E897
:101870000026002EF5D12068143050E8002F22F009
:10188000010240E80026002EF5D184F83E302563A1
:1018900020680C3050E8002F22F0100240E80023AE
:1018A000002BF5D12046FFF70BFFF8BDFFE705063B
:1018B0002BD5150629D594F83D002128F5D1A0682F
:1018C000B0F5805F01D12069B0B1206A411C21626E
:1018D000216800784860E08C401E0004000CE08421
:1018E000E3D12068C16821F08001C1602068C1682F
:1018F00041F04001C160D8E7206A0088C0F30800C9
:101900004860206A801C2062E5E74006CDD550067D
:10191000CBD5CA68204622F04002CA6084F83D3028
:1019200000F0CDF8C1E700001120000870B50400F8
:1019300004D094F83D00002510B106E0012070BDF0
:1019400084F83C50204600F023F8242084F83D0021
:101950002068C16821F40051C160204600F0E8FB16
:101960002068016921F4904101612068416921F0FA
:101970002A0141612068C16841F40051C1602564B9
:10198000202084F83D0084F83E00002070BD000057
:1019900010B586B0044614216846FEF7BBFC174913
:1019A0002068884228D116480021026842F02002AF
:1019B0000260006800F020000590114814380268A9
:1019C00042F004020260006800F004000590C020AC
:1019D00000900220CDE9010103200390082004902B
:1019E00069460848FFF784F9002205214720FFF7E0
:1019F000F7FA4720FFF7E6FA06B010BD00140140E1
:101A00004438024000080240704700002DE9F843C6
:101A1000044690F83D001F4616460D4620284CD13E
:101A2000C5B1BEB194F83C00012846D0012084F82D
:101A30003C004FF00008C4F84080212084F83D00AD
:101A4000FFF75CFAA6848146E684A068B0F5805F63
:101A500003D004E00120BDE8F883206928B12E46B8
:101A60005FF0000584F83C800EE00026FAE7802154
:101A7000204600F0E3FBA0B9AEB116F8010B2168D7
:101A80004860E08C401EE084E08C4B464FF0000242
:101A900000970028EBD14FF04001204600F0CEFB2C
:101AA00030B10320D7E735F8020BC0F30800E6E7B2
:101AB000202084F83D000020CDE70220CBE77047CE
:101AC000FEE700000F4810B50D4901600721416095
:101AD00000214FF480228160C0E903124FF4A0027C
:101AE0004261017641768176C17601774177FEF7D2
:101AF00046FF002803D0BDE81040FEF7CFBC10BD64
:101B0000006400401C03002010B58EB01C220B495D
:101B10006846FEF7E6FB0021684600F07BFD084CB6
:101B200006491C2220601C3107A8FEF7DAFB0021C1
:101B300007A800F06FFD60600EB010BDEC3000082B
:101B400004000020F0B587B014216846FEF7E2FBE0
:101B500039480024016841F010010160016801F07A
:101B600010010591016841F020010160016801F058
:101B700020010591016841F080010160016801F0D8
:101B800080010591016841F040010160016801F0A8
:101B900040010591016841F004010160016801F014
:101BA00004010591016841F001010160016801F043
:101BB00001010591016841F00201016000681F4EBA
:101BC00000F002000590012218213046FFF790F93D
:101BD0001B4F002280213846FFF78AF9012251026B
:101BE0003846FFF785F9182000900125CDE901540A
:101BF000694630460394FFF77BF84FF4707000900D
:101C00003001CDE9010569460E48FFF771F84FF440
:101C100020700090CDE90154694638460394FFF7DF
:101C200067F8002205211720FFF7DAF91720FFF7E0
:101C3000C9F907B0F0BD0000303802400010024082
:101C400000180240001402401CB500240E48009405
:101C50000C490194C0E900144FF6FF71C0E902413C
:101C60008461FFF7EBFC08B1FEF718FC00946946AD
:101C700005480194FFF79AFC002801D0FEF70EFCFE
:101C80001CBD000000100040440300200C4810B5AB
:101C90000A4901604FF4E1314160002181600C226A
:101CA000C160C0E904128161C161FFF73FFE0028F5
:101CB00003D0BDE81040FEF7F1BB10BD0014014099
:101CC0008C030020FEE7FEE71CB50020244C0090AA
:101CD0004FF400750190684600F046FC01283AD1A7
:101CE0006846FEF722FB024669461EA000F0EAFAAB
:101CF00024A16846FEF720FB50B124A16846FEF7F8
:101D00001BFB58B123A16846FEF716FB70B122E019
:101D100029462046FFF7E4F820A004E08021204671
:101D2000FFF7DEF822A000F0CDFA14E0254E0122E4
:101D300008213046FFF7DCF8012210213046FFF77A
:101D4000D7F8012229462046FFF7D2F80022802149
:101D50002046FFF7CDF80A2000F050FCBBE700005A
:101D600000180240CAD5B5BDB5C4BFD8D6C6D6B8CE
:101D7000C1EECEAA25732CB3A4B6C8CEAA25640D95
:101D80000A000000636C65643200000063626565F0
:101D900070000000B8B4CEBB00000000B8C4B1E4CD
:101DA0004C454432B5C4D7B4CCAC0D0A0000000099
:101DB000B8C4B1E4B7E4C3F9C6F7B5C4D7B4CCAC82
:101DC0000D0A0000001002401CB500F0A1FB00202D
:101DD000009001901CA1684600F084FA6846FEF766
:101DE00023FB69461AA000F06DFA00BF00F0CCFB9F
:101DF00080B100F0C9FB01280ED000F0C5FB02281D
:101E00000CD000F0C1FB03280AD000F0BDFB042871
:101E100008D014E010A106E011A104E012A102E034
:101E200013A100E014A1684600F05CFA694614A012
:101E300000F048FA6846FEF7F7FA00F0ABFB0A201C
:101E400000F0DCFBD2E7000063616C6C0000000076
:101E5000646174613D257300636C6564300000004B
:101E6000636C656431000000636C656432000000DF
:101E70006362656570000000B8B4CEBB000000006E
:101E8000B7A2CBCDB5C4CFFBCFA2CEAAA3BA257340
:101E90000D0A000010B5FFF737F801F051F80128DE
:101EA00003D0BDE8104000F0DDBF10BD30B593B0E9
:101EB00030216846FEF72EFA14210CA8FEF72AFA04
:101EC0001B480025016841F080510160006800F066
:101ED000805011901748016841F48041016000680A
:101EE000022400F480401190012000900004019031
:101EF0008001CDE9064008AA0420402182E81300B1
:101F00000B906846FFF788F908B172B6FEE70F201C
:101F1000CDE90C048020CDE90E0501210CA8109517
:101F2000FFF790F8002801D072B6FEE713B030BD7D
:101F300040380240007000400248016841F47001DE
:101F40000160704788ED00E0F0B50268254C264D31
:101F5000264E274F274B4FF0804CA04209D06045BA
:101F600007D0A84205D0B04203D0B84201D0984271
:101F700004D122F0700E4A6842EA0E02A0421BD041
:101F8000604519D0A84217D0B04215D0B84213D03E
:101F9000984211D0184DA8420ED0184DA8420BD02F
:101FA000174DA84208D0174DA84205D0164DA8429B
:101FB00002D0164DA84203D122F44075CA682A43C4
:101FC0004D6922F080022A4302608A68C2620A6870
:101FD0008262A04201D0984201D1096901630121C6
:101FE0004161F0BD000001400004004000080040D5
:101FF000000C00400004014000400140004401404A
:102000000048014000180040001C00400020004033
:1020100010B5806B0021C185C184FFF752FB10BD54
:1020200001680C3151E8002F22F4907241E800233E
:10203000002BF5D10168143151E8002F22F0010284
:1020400041E80023002BF5D1016B012909D101687A
:102050000C3151E8002F22F0100241E80023002B40
:10206000F5D1202180F83E1000210163704708B5AA
:1020700090F83E10222901D0022008BD82684FF45A
:1020800080539A4201D1016921B1816A9A421BD0E1
:102090004AB10AE00268816A5268C2F308020A8003
:1020A000816A891C08E0026972B10268526802F014
:1020B0007F020A70816A491C8162C18D491E090430
:1020C000090CC18503D019E002685268F1E7016884
:1020D000CA6822F02002CA600168CA6822F48072CD
:1020E000CA6001684A6922F001024A61202180F831
:1020F0003E10016B012903D0FFF786FC002008BDCC
:102100000021016301680C3151E8002F22F0100218
:1021100041E80023002BF5D101680A68D20602D5F8
:102120000A6849680091818DFFF7CAFAE6E7000066
:1021300070B5044600680169E26821F4405111431A
:1021400001612169A068E26908436169114308439C
:102150002168CA6849F20C639A430243CA60206846
:102160004169A26921F440711143416131492068FC
:10217000884202D03049884202D1FFF70DF801E0D1
:10218000FEF7FAFFE2690023192164253226B2F531
:10219000004F626828D0A0FB0101930F9200FEF768
:1021A0006FF80146B0FBF5F06FF01802504301EBF9
:1021B000800006EB0010B0FBF5F000F0F002B1FB80
:1021C000F5F002EB0012B1FBF5F06FF01803584385
:1021D00001EB800006EB0010B0FBF5F000F00F0003
:1021E00021681044886070BDA0FB010192185B411A
:1021F000FEF746F80146B0FBF5F00201B1FBF5F041
:102200006FF01803584301EB800006EBC000B0FBF1
:10221000F5F000F0F80002EB4002B1FBF5F0584396
:1022200001EB800006EBC000B0FBF5F000F007000A
:10223000D6E7000000100140001401402DE9F041F4
:10224000984617460E460446069D27E0681C25D092
:102250002DB1FEF753FEA0EB0800A8421ED920685E
:102260000C3050E8001F21F4D07140E80012002A21
:10227000F5D12068143050E8001F21F0010140E83A
:102280000012002AF5D1202084F83D0084F83E0099
:10229000002084F83C000320BDE8F081206800683D
:1022A00036EA000004D00020B842CFD00020F3E787
:1022B0000120F9E70148FFF705BA00008C03002070
:1022C000FEE700000FB4054B10B503A9044A0298BD
:1022D00000F03CF810BC5DF814FB00004D25000830
:1022E000900000200FB4084B10B504A902AA03986F
:1022F00000F02CF8044602A9002000F003F9204663
:1023000010BC5DF814FB0000052500080907090E44
:10231000002804DB00F1E02080F80014704700F092
:102320000F0000F1E02080F8141D704702E008C89B
:10233000121F08C1002AFAD170477047002001E03F
:1023400001C1121F002AFBD1704700002DE9FF4F89
:102350008BB09A460F460546002606E025280BD08E
:1023600052460D9990476D1C761C28780028F5D1AF
:102370000FB03046BDE8F08F0024A046012260492E
:1023800000E0044315F8013F203B02FA03F0084245
:10239000F7D128782E2817D115F8010F44F004043E
:1023A0002A280ED06FF02F022878A0F130010929D9
:1023B0000AD808EB880102EB410100EB01086D1C13
:1023C000F2E757F8048B6D1C287869283ED006DCAC
:1023D0000028CDD063280BD0642804D136E07328C0
:1023E00010D075284BD052460D999047761C85E049
:1023F00017F8040B8DF8000000208DF80100E94665
:10240000012003E057F8049B4FF0FF3061074FF0C5
:10241000000401D40AE0641C44450DDA8442FADB6E
:1024200019F804100029F6D106E0641C8442FCDB94
:1024300019F804100029F8D1264404E019F8010B1A
:1024400052460D999047641EF8D257E001CF4FF0E5
:102450000A0B002802DA40422D2102E0210504D5B2
:102460002B218DF82410012103E0E10705D0202164
:10247000F7E70DF1200908910CE00021F9E701CF01
:102480004FF00A0BF9E75946FDF76DFF01F13002F5
:1024900009F8012D0028F6D1ADEB090000F1200B61
:1024A000600701D44FF00108D84502DDA8EB0B000E
:1024B00000E000208046002406E009A85246005DA6
:1024C0000D999047641C761C08988442F5DB04E063
:1024D000302052460D999047761CB8F10001A8F1C2
:1024E0000108F5DC05E019F8010B52460D999047FB
:1024F000761CBBF10001ABF1010BF4DC6D1C34E781
:10250000092801000A68531C0B6010707047000016
:1025100000B58BB000200090019002900121039043
:1025200004900590CDE906010E20CDE9081069461A
:102530000548FEF72BF80448FEF720FB022102486D
:10254000FDF7AEFF0BB000BD1C03002038B50446FC
:102550008DF800000223012269460248FFF756FA6F
:10256000204638BD8C03002010B5064C217831B1CF
:10257000611CFDF7EFFE00202070012010BD00203F
:1025800010BD00000C0000200148006870470000EA
:102590000000002002494FF0FF3008607047000043
:1025A00000000020FEF7B8FCFFF780FCFFF7CAFA36
:1025B000FFF788FAFFF748FBFFF768FB03A0FFF778
:1025C00081FEFFF7A1FA00F020F8FEE7CDEAB3C9DB
:1025D000B3F5CABCBBAFA3ACBCB4BDABBDF8C8EBD4
:1025E000CFB5CDB3A3A1A3A1A3A10D0A0000000004
:1025F00001460020842900D0C81C704710B500B9DE
:10260000012000F023FB002010BD10B500F044FBBA
:10261000002010BD7FB50D4604464169B0F90800A1
:1026200081B1A16971B1FFF7E3FFD4E905128DE82B
:102630000700D4E900102B46226900F056FC0390F5
:1026400004B070BDFFF7D4FF03A9CDE90001208AD3
:102650002B4682B2D4E9001000F01AFC012801D008
:102660000020EDE70398EBE72DE9F041184C0F4609
:102670000546E6682068001D00F020FA38B9206899
:1026800090F82C1001208840216981432161681C49
:1026900007D137B12168BDE8F0410E48091D00F0AF
:1026A00051BA20683544B5424560216805D2A06B17
:1026B000BDE8F041091D00F02DBA606B091D00F066
:1026C00029FAA06A854200D2A562BDE8F081000027
:1026D00028000020AC0400202DE9F041054600F060
:1026E0003DFA2E4CA068401CA06020682C4F10B111
:1026F000606940B32DE02560A068012829D100263B
:1027000006EB860007EB800000F0F6F9761C072E3A
:10271000F6D323488C3000F0EFF92148A03000F0C8
:10272000EBF91F48B43000F0E7F91D48C83000F05D
:10273000E3F91B48DC3000F0DFF919488C306063A6
:102740001430A06305E02068E96AC06A884200D8B6
:102750002560606A401C6062E96A01202269884045
:102760001043206101EB810007EB8000291D00F080
:10277000E9F900F013FA606900280CD02068E96AD2
:10278000C06A884207D207494FF080500860BFF303
:102790004F8FBFF36F8FBDE8F0810000280000204D
:1027A000D003002004ED00E010B5044690F851007D
:1027B00058B101280CD002280FD0502080F3118886
:1027C000BFF34F8FBFF36F8FFEE7206B00F0FAF976
:1027D0002046BDE8104000F0F5B910BD10484FF498
:1027E0007051420706D0C01D0D4920F00700411A64
:1027F000C1F570510B4A00230144C2E900030839B6
:10280000183A21F0070111604B600B600B1AC0E908
:10281000001393604FF00040536050617047000018
:10282000C00400207C000020144E154CA6F1C807FF
:102830004FF08058DFF84C9012E000BF00F08EF9A6
:10284000F068C568281D00F039F9A068401EA06036
:102850006068401E606000F0A1F92846FFF7A4FF01
:1028600060680028EAD138680128F9D9C9F80080E1
:10287000BFF34F8FBFF36F8FF2E700009804002083
:102880002800002004ED00E02DE9F0479A46DDE93C
:10289000098481466FF00303206B03EB820210442E
:1028A000089E20F00707780707D0502080F3118892
:1028B000BFF34F8FBFF36F8FFEE7002561B100209C
:1028C00023180A5C83F834200A5C12B1401C1028DB
:1028D000F6D384F8435001E084F83450072E00D337
:1028E0000626E662C4E91165201D00F010F904F126
:1028F000180000F00CF92461C6F107006462A061C1
:10290000E56484F8505052464946384600F0C0F815
:102910002060B8F1000F01D0C8F80040BDE8F08792
:1029200030B5114900E011460A688242FBD34B687A
:102930005C18844203D140681844486008464368E4
:102940001C18944209D1084C183C2468A24209D0B2
:1029500052681A4442600A6812680260814200D0DC
:10296000086030BD0460F9E77C0000200648416B38
:10297000096829B1416BC968C968496881627047B3
:102980004FF0FF31FAE700002800002008484068B7
:10299000401C4FF0500080F3118804D0BFF34F8FDC
:1029A000BFF36F8FFEE7BFF34F8FBFF36F8FFEE76D
:1029B000840000202DE9F0410546002700F0A2F92F
:1029C000324E306808B9FFF709FF706905424ED1F1
:1029D000C5B3083568070ED005F00700C0F1080040
:1029E0000544680707D0502080F31188BFF34F8F4C
:1029F000BFF36F8FFEE72DB37068854237D8234849
:102A0000183001460C6801E020460C466168A94276
:102A100002D221680029F7D131688C4227D007689B
:102A20002168016060680837411B10290FD96019BF
:102A3000420708D0502080F31188BFF34F8FBFF3B7
:102A40006F8FFEE713E041606560FFF769FF616823
:102A50007068401A7060B268904200D2B0607069CD
:102A600001430020C4E90001F068401CF06000F060
:102A7000DBFA780707D0502080F31188BFF34F8F1F
:102A8000BFF36F8FFEE73846BDE8F0816400002099
:102A900010B5031F4FF080741C601B1F21F0010153
:102AA0001960191F044B0B6014390A60091F6FF07D
:102AB000020244380A6010BD8D290008D0E90132B5
:102AC00001699A60D0E901235A604A68824201D1C3
:102AD00082684A60002202610868401E0860086837
:102AE00070470000034B036003F15400086080202E
:102AF000106070479400002000F108014FF0FF3291
:102B0000C0E90112C160016100210160704700212C
:102B10000161704730B50B685A1C02D000F1080201
:102B200002E0026904E02246546825689D42FAD911
:102B300053684B6099608A60516008610168491C64
:102B4000016030BD42684A6093688B609368596049
:102B5000916008610168491C01607047502080F352
:102B60001188BFF34F8FBFF36F8F0A494868401C2D
:102B7000486001280CD10848006810F0FF0F07D00A
:102B8000502080F31188BFF34F8FBFF36F8FFEE7A4
:102B9000704700008400002004ED00E00849486808
:102BA00028B1401E486001D180F311887047502041
:102BB00080F31188BFF34F8FBFF36F8FFEE70000E4
:102BC0008400002070B500282AD0164DA0F108041A
:102BD00060686969084207D1502080F31188BFF30B
:102BE0004F8FBFF36F8FFEE722683AB1502080F31A
:102BF0001188BFF34F8FBFF36F8FFEE7884360608C
:102C000000F080F860686968084468602046FFF753
:102C100087FE2869401C2861BDE8704000F004BAB6
:102C200070BD0000640000204FF0E0200021016131
:102C3000816105494FF47A720968B1FBF2F1491ECE
:102C400041610721016170472400002010B5020096
:102C500014D00F48006B38B1502080F31188BFF3B7
:102C60004F8FBFF36F8FFEE700F04CF80021104646
:102C7000FFF7FAFC00F0D8F9002807D105494FF01A
:102C800080500860BFF34F8FBFF36F8F10BD0000FF
:102C90002800002004ED00E010B586B00024039465
:102CA00005AA04A903A80494FFF71CFFDDE90301AA
:102CB0000094CDE9011000230EA11048059A00F000
:102CC00014F90F490028C86211D0502080F31188F0
:102CD000BFF34F8FBFF36F8F4FF0FF30886201203B
:102CE0004861CC6006B0BDE8104000F041B806B0C5
:102CF00010BD000049444C45000000002928000890
:102D0000280000200248016B491C01637047000045
:102D1000280000201448016B11B10121C1617047E6
:102D20000021C1610169B1FA81F1C1F11F0101EB1B
:102D300081020E4951F822306BB101EB820101F1A1
:102D400008034A6852684A609A4201D152684A6050
:102D5000D16801607047502080F31188BFF34F8F16
:102D6000BFF36F8FFEE7000028000020D003002093
:102D70001CB537480168374A914207D1502080F38B
:102D80001188BFF34F8FBFF36F8FFEE700683149A3
:102D9000491E884207D1502080F31188BFF34F8F1E
:102DA000BFF36F8FFEE72C4908780190FF20087071
:102DB00008788DF800009DF800009DF8002000F0D4
:102DC000F000904207D0502080F31188BFF34F8F5E
:102DD000BFF36F8FFEE79DF80000204C00F050001D
:102DE00020700720A06005E09DF8002052008DF8BB
:102DF0000020401E9DF800201206F5D4A060032894
:102E000007D0502080F31188BFF34F8FBFF36F8F2F
:102E1000FEE74FF44070A060019808700C48203025
:102E2000016841F470010160016841F07041016086
:102E3000FFF7FAFE00206060FDF7D4F9084801684A
:102E400041F040410160FDF7B9F900201CBD0000D0
:102E500000ED00E071C20F4100E400E084000020BA
:102E600034EF00E010B5502080F31188BFF34F8F8E
:102E7000BFF36F8F00F072F818B104494FF0805023
:102E80000860002080F3118810BD000004ED00E010
:102E90002DE9FF5F8346DDE90E87994616468A468F
:102EA0009000FFF787FD05001CD05420FFF782FD3E
:102EB000040014D00020256384F85100CDE90240BD
:102EC000CDE900874B46324651465846FFF7DCFCB9
:102ED0002046FFF701FC012004B0BDE8F09F284622
:102EE000FFF770FE4FF0FF30F6E7F0B585B0DDE993
:102EF0000B640A9DA6B1DCB1542700972663022615
:102F000084F85160002604AFCDE90246CDE90057B0
:102F1000FFF7BAFC2046FFF7DFFB049805B0F0BDD1
:102F2000502080F31188BFF34F8FBFF36F8FFEE700
:102F3000502080F31188BFF34F8FBFF36F8FFEE7F0
:102F40000548416919B1006B18B100207047012094
:102F50007047022070470000280000202DE9F04152
:102F60002F4C0026206B28B1A069401CA061304680
:102F7000BDE8F081E5686D1CE56013D1606B006809
:102F800038B1502080F31188BFF34F8FBFF36F8F9C
:102F9000FEE7606BA16B6163A063206A401C206246
:102FA000FFF7E4FCA06ADFF87C80854209D3606B00
:102FB0000068A0B1606BC068C7687868854211D2AC
:102FC000A0622068C06A00EB800158F82100012847
:102FD00000D90126E0690028C9D00126C7E74FF0D3
:102FE000FF30EDE7381DFFF769FDB86A18B107F14A
:102FF0001800FFF763FDF96A012022698840104339
:10300000206101EB810108EB8100391DFFF79AFD7A
:10301000F86A2168C96A8842C9D30126C7E7000057
:1030200028000020D00300202DE9F0472C4D00247B
:103030002746286B38B1FFF791FD286B401E2863A7
:10304000286B40B146E0502080F31188BFF34F8FCA
:10305000BFF36F8FFEE7A968224E0120D1B3A6F11E
:10306000B40980463068E8B1F068C46804F118001B
:10307000FFF724FD201DFFF721FDE06A2A6908FA09
:1030800000F11143296100EB800109EB8100211D52
:10309000FFF758FDE06A2968C96A8842E2D3C5F89B
:1030A0001C80DFE70CB1FFF761FCAC6944B1464618
:1030B000FFF754FF00B1EE61641EF9D10020A86152
:1030C000E86938B10849012738070860BFF34F8F16
:1030D000BFF36F8FFFF762FD3846BDE8F087000051
:1030E000280000208404002004ED00E0483100089E
:1030F000C91C0008FFFF0000000000008000000065
:1031000000000000000000003C310008C91D00085C
:10311000000000000000000080000000000000002F
:103120000000000000000000000000000102030495
:1031300006070809000000000102030443616E5302
:10314000656E645461736B0043616E5265636569BB
:1031500076655461736B0000783100080000002030
:10316000940000002C2300080C320008940000207A
:103170002C4400003C230008FFFFFFFF000000007C
:10318000000000000000000000000000000000003F
:103190000100000010000000000000000024F40006
:1031A000000000000000000000000000000000001F
:1031B000000000000000000000000000000000000F
:1031C00000000000000000000000000000000000FF
:1031D00000000000000000000000000000000000EF
:1031E00000000000000000000000000000000000DF
:1031F00000000000000000000000000000000000CF
:0C320000AAAAAAAA00000000000000001A
:040000050800018965
:00000001FF
