:020000040800F2
:10000000184400205D020008471800083517000852
:10001000451800082F080008511C000800000000C7
:100020000000000000000000000000009D0100082A
:10003000FD09000800000000F90100082919000866
:1000400077020008770200087702000877020008AC
:10005000770200087702000877020008770200089C
:10006000770200087702000877020008770200088C
:10007000770200087702000877020008770200087C
:10008000770200087702000877020008770200086C
:10009000770200087702000877020008770200085C
:1000A000770200087702000877020008770200084C
:1000B000770200087702000877020008770200083C
:1000C000770200087702000877020008770200082C
:1000D00077020008451C0008770200087702000834
:1000E000770200087702000877020008770200080C
:1000F00077020008770200087702000877020008FC
:1001000077020008770200087702000877020008EB
:1001100077020008770200087702000877020008DB
:1001200077020008770200087702000877020008CB
:1001300077020008770200087702000877020008BB
:1001400077020008770200087702000877020008AB
:10015000770200087702000877020008770200089B
:10016000770200087702000877020008770200088B
:1001700077020008770200087702000800000000FC
:100180007702000877020008DFF80CD000F0CEFA02
:100190000048004785250008184400202C4B1968AA
:1001A0000868B0E8F04F80F30988BFF36F8F4FF015
:1001B000000080F3118870470000000008480068C4
:1001C000006880F308884FF0000080F3148862B65E
:1001D00061B6BFF34F8FBFF36F8F00DF00BF00BF6B
:1001E00008ED00E0DFF80C00016841F470010160E7
:1001F000704700BF88ED00E0EFF30980BFF36F8F19
:10020000134B1A681EF0100F08BF20ED108A20E96A
:10021000F04F106009B44FF0500080F31188BFF325
:100220004F8FBFF36F8F02F0D1FC4FF0000080F3CF
:10023000118809BC19680868B0E8F04F1EF0100F6B
:1002400008BFB0EC108A80F30988BFF36F8F704746
:1002500014000020EFF30580704700000648804737
:1002600006480047FEE7FEE7FEE7FEE7FEE7FEE79B
:10027000FEE7FEE7FEE7FEE7D51900088901000862
:100280002DE9F05F0546002092469B4688460646CB
:10029000814640241BE0284641464746224600F05E
:1002A0007CF853465A46C01A914110D3114618465D
:1002B000224600F063F82D1A67EB01084F462246EC
:1002C0000120002100F05AF817EB00094E41201ED2
:1002D000A4F10104DFDC484631462A464346BDE826
:1002E000F09F40EA01039B0703D009E008C9121FF1
:1002F00008C0042AFAD203E011F8013B00F8013BE0
:10030000521EF9D27047D2B201E000F8012B491E0B
:10031000FBD270470022F6E710B513460A460446A2
:100320001946FFF7F0FF204610BD00F0004230F004
:1003300000400AD0C10D01F56071C0F3160042EA19
:100340000151C20840071143704700200146704721
:1003500030B50B46014600202022012409E021FA95
:1003600002F59D4205D303FA02F5491B04FA02F592
:100370002844151EA2F10102F1DC30BD202A04DB65
:10038000203A00FA02F1002070479140C2F12003A8
:1003900020FA03F3194390407047202A04DB203AE7
:1003A00021FA02F00021704721FA02F3D040C2F195
:1003B000200291400843194670472DE9FE4F8046C0
:1003C00081EA0300C00F0C46009021F0004123F0A9
:1003D0000045B8EB0200A94105D2404621469046AF
:1003E0001C460B46024623F00040104347D0270D21
:1003F000C7F30A00C3F30A510290401A0190402843
:100400006BDAC3F3130040F4801B0098924620B1CE
:100410000023D2EB030A63EB0B0B01985946C0F1A2
:1004200040025046FFF7AAFF06460D465046594681
:10043000019A00F08DF910EB08006141002487EA71
:10044000115284EAE7731A4340D0009A62B3019ACA
:10045000012A4FEA075215DC001B61EB02014FF045
:10046000004202EA0752CDE90042001C41F580112A
:1004700032462B4600F08DF903B0BDE8F08F4046C0
:100480002146F9E7001B61EB0201001C41F58013D6
:1004900000185B412018A2F5001747EB030140EA62
:1004A000D570B6196D4111E06D084FEA360645EA80
:1004B000C0754FEA0752001B61EB0201001C41F5B9
:1004C000801149084FEA30000019514132462B464D
:1004D00003B0BDE8F04F00F04DB900980122400094
:1004E0000023D0EB020263EBE073009821464FEA51
:1004F000E074B8EB000061EB0401E9E783F000432E
:100500005BE781F0004158E72DE9FE4F81EA0304E3
:1005100004F0004421F0004100944FF0000B23F060
:10052000004350EA01045ED052EA03045BD0C3F3F7
:100530000A54C1F30A552C44A4F2F3340194A0FBED
:100540000254C1F3130141F48011C3F3130343F4C4
:10055000801301FB024400FB034E840A970A44EA1D
:10056000815447EA8357A4FB076802958D0A05FB6F
:1005700007854FEA932C04FB0C542705029D4FEA94
:10058000065847EA1637B5EB08056EEB070C870EE1
:10059000920E47EA811742EA8312A7FB0201B6EBEB
:1005A0000B0164EB00042B0D43EA0C335E1844EBA3
:1005B0001C50DA465146E7FB0201C5F313044FEA2B
:1005C0000B3343EA14534FEA0432019C43EA060317
:1005D000A4F10C040294009CCDE900B400F0D9F819
:1005E00003B0BDE8F08F00200146F9E72DE9F04D9A
:1005F00081EA030404F0004B21F0004514464FF05B
:10060000000A23F0004150EA050220D054EA01021A
:100610001DD0C5F30A570246C5F31303C1F31300F7
:10062000C1F30A5640F4801543F48013A7EB060883
:10063000101BD64608F2FD3873EB050002D308F113
:10064000010801E092185B41B8F1000F03DA0020C5
:100650000146BDE8F08D00204FF480110646844627
:100660000EE0171B73EB050705D3121B63EB0503A5
:1006700006434CEA010C49084FEA300092185B41EE
:1006800050EA0107EDD152EA030012D082EA0400D9
:1006900083EA0501084305D0101BAB4106D20122B5
:1006A000002306E000224FF0004302E06FF0010259
:1006B00053101AEB06004CEB085110EB0A0041EB0B
:1006C0000B01BDE8F04D00F055B8C1F30A52C1F37B
:1006D000130140F2FF3341F480119A4202DA002004
:1006E0000146704740F233439A42A2F2334202DCA1
:1006F0005242FFF752BEFFF741BE000030B5041E64
:1007000071F1000404DB4FF00044404264EB01014E
:10071000141E73F1000405DB1C464FF000435242E7
:1007200063EB0403994208BF904230BD064C074D6D
:1007300006E0E06840F0010394E8070098471034B1
:10074000AC42F6D3FFF724FDE42F00080430000884
:10075000202A06DBCB17203A41FA02F043EAE07385
:1007600006E041FA02F3D040C2F120029140084372
:100770001946704710B5141E73F1000408DA401CC6
:1007800041F1000192185B411A4301D120F00100B0
:1007900010BD2DE9F04D92469B4611B1B1FA81F2A0
:1007A00002E0B0FA80F220329046FFF7E7FD0446FF
:1007B0000F4640EA0A0041EA0B0153465A460843F5
:1007C00013D0114653EA010019D0C8F14002504637
:1007D000FFF7E3FD05460E46504659464246FFF7F1
:1007E000CDFD084305D0012004E020463946BDE890
:1007F000F08D0020054346EAE0762C4337430A9803
:100800006305E40AA0EB08000022FD0A44EA47540D
:100810000A3002D500200146E9E7010510196941B7
:10082000DDE9084500196941BDE8F04DA2E7FEE7A2
:1008300006E00021491CC9B20329FBD3401E80B247
:100840000028F6D170470000094808B5016841F05A
:1008500008010160006800F00800009000F00CF84A
:100860000122BDE808400221024800F030BA000031
:1008700030380240000C024000B585B00220012152
:10088000CDE9000103906946024800F025F905B062
:1008900000BD0000000C02402DE9F0410025154E7E
:1008A0002C4601270221304600F00CFA0028F9D02E
:1008B0002820FFF7BDFF0221304600F003FA01288F
:1008C0000BD0C4F1070007FA00F08543641CE4B2C2
:1008D000082CE7D32846BDE8F0810221304600F01D
:1008E000F1F90128F9D0C4F1070007FA00F0C0B20D
:1008F0000543EBE7000C024030B585B00446FFF736
:10090000BBFF3A4D00220221284600F0E0F91220F8
:1009100000F0D0F801220221284600F0D8F91E206C
:10092000FFF786FF02200090002001900120029036
:100930006946284600F0D0F80221284600F0C2F9A6
:10094000002850D10221284600F0BCF90028F9D037
:1009500027A001F07FF90221284600F0B3F9012811
:10096000F9D0FFF799FF2070FFF796FF6070FFF74F
:1009700093FFA070FFF790FFE070FFF78DFF2071ED
:10098000FFF77AFF01220221284600F0A0F9237820
:10099000657803EBC30000EB031005EB800000EE6D
:1009A000100ADFED150AB8EE400A80EE201A84ED39
:1009B000021AA178E27801EBC10000EB011002EB12
:1009C000800000EE100A58191144B8EE400A08449D
:1009D000C0B280EE201A84ED031A2179814202D13F
:1009E000002005B030BD0120FBE70000000C0240F4
:1009F00073617364610000000000C842704772B602
:100A0000FEE72DE9F0410446876D00F065F90646E2
:100A100094F835000025022806D08020606584F80F
:100A200034500120BDE8F0812068016821F01601F2
:100A300001602068416921F080014161206C08B9A2
:100A4000A06C20B12068016821F0080101602068D5
:100A5000016821F0010101600BE000F03DF9801B0D
:100A6000052806D92020606504F8345F03206070F3
:100A7000D8E720680068C007EFD194F85C103F20E9
:100A80008840B86004F8345F012060700020C9E736
:100A900090F83510022903D080214165012070476C
:100AA000052180F835100068016821F0010101601E
:100AB0000020704770B5044600F00EF90546601C32
:100AC00002D004480078044400F006F9401BA0421C
:100AD000FAD370BD040000202DE9F84FDFF8B8A16B
:100AE000002201250AF1040B03264FF00F090BF138
:100AF000040E00BF0B6805FA02F42340A3426FD135
:100B00000F7907F00307012F01D0022F16D1876854
:100B10004FEA420806FA08FC27EA0C07D1F80CC095
:100B20000CFA08FC4CEA070CC0F808C04768A74359
:100B30000C79C4F3001494403C4344600C79E443C2
:100B4000A4070AD0C4684FEA420C06FA0CF7BC436B
:100B50008F6807FA0CF72743C7600C7904F0030489
:100B6000022C12D1D40800EB840CDCF8204057078B
:100B7000FF0E09FA07F824EA0804D1F8108008FAF1
:100B800007F848EA0408CCF8208004684FEA420CD1
:100B900006FA0CF7BC430F7907F0030707FA0CF7C6
:100BA000274307604C68E40070D53C4C276847F445
:100BB00080472760246822F0030704F480440094EF
:100BC000374C07EB040CDCF8084897074FEA177816
:100BD00009FA08F7BC43334FB84202D1002724E09A
:100BE00054E0314FB84201D101271EE02F4FB842E7
:100BF00001D1022719E02E4FB84201D1032714E09A
:100C00002C4FB84201D104270FE02B4FB84201D13D
:100C100005270AE0294FB84201D1062705E0284FF1
:100C2000B84201D1072700E0082707FA08F7274351
:100C3000CCF80878DAF800405746D1F804C09C4355
:100C40005FEACC3C00D51C433C60DBF800405F46CB
:100C5000D1F804C09C435FEA8C3C00D51C433C6047
:100C6000DEF800407746D1F804C09C435FEACC2C04
:100C700000D51C433C60084F0C373C68D1F804C0D9
:100C80009C435FEA8C2C00D51C433C60521C102A0C
:100C9000FFF430AFBDE8F88F003C0140443802401B
:100CA0000030014000000240000402400008024001
:100CB000000C0240001002400014024000180240E4
:100CC000001C02400069084000D0012070470AB1B2
:100CD000816170470904FBE70148806870470000A4
:100CE0000400002002488168027811448160704746
:100CF000040000200B4810B5016841F40071016048
:100D0000016841F480610160016841F48071016013
:100D1000032000F073F80F2000F006F800F024F82C
:100D2000002010BD003C024070B50D4D04464FF44C
:100D30007A712878B1FBF0F00A490968B1FBF0F04C
:100D400000F00EFB48B9102C07D200222146501E9D
:100D500000F034F800206C6070BD012070BD000010
:100D600004000020100000200C4882B0016841F40B
:100D700080410160006800F4804000900748001F37
:100D8000016841F0805101600068002200F080504D
:100D900000900F21901E02B000F010B844380240BD
:100DA000002809DB00F01F0201219140400980006A
:100DB00000F1E020C0F8001170470000F0B40E4BC5
:100DC0001B680C46C3F30223C3F10705042D00D9A9
:100DD0000425191D072901D2002300E0DB1E01268E
:100DE00006FA05F1491E214099409E40761E1640A4
:100DF0003143F0BC00F03EBF0CED00E0064900F0CE
:100E0000070208684FF6FF03184040EA0220034A31
:100E100010430860704700000CED00E00000FA0588
:100E20002DE9F0470E46050065D0DFF81481D8F8AB
:100E30000000F7B200F00700B04207D288F8007057
:100E4000D8F8000000F00700B04254D128683D4CAB
:100E5000810712D5400703D5206840F4E050206098
:100E60002878000703D5206840F46040206020689F
:100E7000A96820F0F000084320602878C0072DD032
:100E8000304968680839012812D0022813D0032895
:100E900011D00968890700292DDA216821F00301A2
:100EA00001432160FFF718FF814641F2883A0EE0C6
:100EB00009688903EFE709688901ECE7FFF70CFF90
:100EC000A0EB0901514502D90320BDE8F087206855
:100ED000696800F00C00B0EB810FEFD1D8F800107A
:100EE000404601F00701B14207D90770006800F0E1
:100EF0000700B04201D00120E7E72878400705D578
:100F00002068E96820F4E050084320602878000752
:100F100006D52068296920F4604040EAC1002060BD
:100F200000F038F82168084AC1F30311515CC84049
:100F30000649086006480068FFF7F6FE0020C4E78F
:100F4000003C024008380240C02F0008100000207A
:100F5000080000200448054900680968044AC1F3F4
:100F60008221515CC84070471000002008380240C0
:100F7000D02F00080448054900680968044AC1F3F5
:100F80004231515CC84070471000002008380240D0
:100F9000D02F0008154810B5006810F00C02144856
:100FA00013D04110042A0FD0082A0ED10F4C241F51
:100FB0002268236802F03F025B0207D52068C0F375
:100FC0008810A0FB010106E0084610BD2168C1F3AE
:100FD0008811A1FB00010023FFF752F92168C1F33A
:100FE0000141491C4900B0FBF1F010BD0838024036
:100FF0000024F4002DE9F84F04006ED02078DFF8CB
:101000004C93C007A9F104054AD009F10400016816
:10101000C1F38101012908D00068C0F381000228D2
:101020000AD1D9F80000400206D52868800337D5D8
:1010300060680028E1D033E06068B0F5803F10D0F0
:10104000B0F5A02F286810D020F4803028602868E0
:1010500020F4802028606068A8B1FFF73DFE0646B6
:101060000DE0286840F48030F4E740F480202860E8
:10107000F7E700BFFFF730FE801B642873D82868AD
:101080008003F7D50CE0FFF727FE064605E000BF1A
:10109000FFF722FE801B6428F0D828688003F7D46D
:1010A0002078DFF8AC8280074FF0000A3ED5A748D1
:1010B000001D016811F00C0F08D00068C0F381001A
:1010C00002280BD1D9F80000400207D42868800715
:1010D00016D5E068012800D112E033E1E068B8B12C
:1010E0000120C8F80000FFF7F7FD064605E000BF45
:1010F000FFF7F2FD801B0228C0D828688007F7D5CB
:101100002868216920F0F80040EAC10028600DE05D
:10111000C8F800A0FFF7E0FD064604E0FFF7DCFD9D
:10112000801B02281FD828688007F7D42078000782
:1011300022D5864F87486169703771B101210160FE
:10114000FFF7CAFD064604E0FFF7C6FD801B022834
:1011500009D838688007F7D50EE0C0F800A0FFF77F
:10116000BBFD064605E082E0FFF7B6FD801B0228C6
:101170007DD838688007F7D42078400768D5DFF835
:10118000CCB100270BF13C0BDBF80000C0000BD406
:10119000DBF8001041F08051CBF80010DBF80000C4
:1011A000012700F0805000906B4E3068C00510D4CD
:1011B000306840F480703060FFF78EFD009005E0ED
:1011C000FFF78AFD0099401A022850D83068C00500
:1011D000F6D55E4EA0686C3601280FD00528306821
:1011E00010D020F001003060306820F00400306042
:1011F000A068B8B1FFF770FD00900FE0306840F0D4
:101200000100F4E740F004003060F7E7FFF764FD09
:101210000099411A41F28830814266D830688007CF
:10122000F4D50EE0FFF758FD009007E0FFF754FDFE
:101230000099411A41F28830814256D830688007BF
:10124000F4D42FB1DBF8001021F08051CBF800105E
:10125000A069C8B33D49091D0968C1F3810102298C
:101260004AD00228504607D0C8F8600000E03CE0B1
:10127000FFF732FD04463BE04746C8F86000FFF741
:101280002BFD064605E000BFFFF726FD801B022868
:101290002BD828688001F7D4D4E907010843A16A54
:1012A0002E4A490802EB0141626A41EA8211084371
:1012B00094F82C1040EA0161C9F80010012038664A
:1012C000FFF70AFD044606E03EE000BFFFF704FD1D
:1012D000001B022809D828688001F7D534E000BF38
:1012E000FFF7FAFC001B022802D90320BDE8F88FA3
:1012F00028688001F4D427E00128F7D0D9F800004D
:10130000E26900F4800191421CD1226A00F03F01A1
:10131000914217D147F6C071626A0140B1EB821F5A
:1013200010D1A26A4FF0FF3300F4403103EB5202B8
:10133000B1EB024F06D194F82C1000F07060B0EBC6
:10134000016F01D00120D1E70020CFE7043802402F
:1013500000004742800E4742007000400000FFFF3F
:1013600010B5401EB0F1807F01D3012010BD4FF0B9
:10137000E02460610F21601700F07CFC0020A06178
:1013800007202061002010BD70477047F8B5026843
:1013900004461068D168536910F00F0F4FF0000534
:1013A00053D003F0010601F4907737435FD0C207B2
:1013B00005D0CA0503D5226C42F00102226442071F
:1013C00005D5DA0703D0226C42F0020222648207BC
:1013D00005D5DA0703D0226C42F00402226402072A
:1013E00007D501F02002324303D0226C42F00802FC
:1013F0002264226C002A34D0800604D5880602D5E7
:10140000204600F00FFB20684069216CC0F380107B
:10141000090700D430B3204600F0ECFA2068416997
:1014200049061BD5416921F040014161A06BA8B17B
:1014300059490165A06BFFF72BFB002811D0A06B69
:10144000016D01B0BDE8F040084783060FD58B065B
:101450000DD52046BDE8F84000F0E4BA2046FFF77D
:1014600094FFF8BD2046FFF790FF2564F8BD266B7A
:101470002023012E53D1C60651D5CE064FD5106874
:1014800050680090506940062BD5A16B08684068F1
:101490000004000CEAD0A68D8642E7D9E085C86931
:1014A000B0F5807F18D0D06820F48070D0602068BC
:1014B000416921F0010141612068416921F0400149
:1014C000416184F83E3025632068C16821F0100135
:1014D000C160A06BFFF795FAA08DE18D401A81B233
:1014E00019E0A08DE18D401A81B2E08D0028BDD0B9
:1014F0000029BBD0D06820F49070D0602068426989
:1015000022F00102426184F83E3025632068C268FF
:1015100022F01002C2602046FFF736FFF8BD050634
:101520002BD50D0629D594F83D002128F6D1A068C9
:10153000B0F5805F01D12069B0B1206A411C216201
:10154000216800784860E08C401E0004000CE084B4
:10155000E4D12068C16821F08001C1602068C168C1
:1015600041F04001C160F8BD206A0088C0F3080066
:101570005060206A801C2062E5E74006F3D54806EB
:10158000F1D5D168204621F04001D16084F83D308A
:1015900000F0CFF8F8BD0000E519000870B50400B0
:1015A00004D094F83D00002510B106E0012070BD84
:1015B00084F83C50204600F023F8242084F83D00B5
:1015C0002068C16821F40051C160204600F082FA11
:1015D0002068016921F4904101612068416921F08E
:1015E0002A0141612068C16841F40051C16025644D
:1015F000202084F83D0084F83E00002070BD0000EB
:1016000010B586B0044614216846FEF783FE1849DB
:101610002068884229D117480021026842F0100250
:101620000260006800F0100005901248143802684B
:1016300042F001020260006800F0010005904FF4E2
:10164000C06000900220CDE9010103200390072033
:10165000049069460848FFF73FFA0022052125203B
:10166000FFF7ACFB2520FFF79BFB06B010BD000089
:101670000010014044380240000002407047000062
:101680002DE9F843044690F83D001F4616460D46E6
:1016900020284CD1C5B1BEB194F83C00012846D0F9
:1016A000012084F83C004FF00008C4F8408021205D
:1016B00084F83D00FFF710FBA6848146E684A0680D
:1016C000B0F5805F03D004E00120BDE8F883206915
:1016D00028B12E465FF0000584F83C800EE000261D
:1016E000FAE78021204600F07BFAA0B9AEB116F8E7
:1016F000010B21684860E08C401EE084E08C4B4682
:101700004FF0000200970028EBD14FF04001204637
:1017100000F066FA30B10320D7E735F8020BC0F3CA
:101720000800E6E7202084F83D000020CDE70220F5
:10173000CBE77047FEE7000000B587B01C220649E2
:101740006846FEF7CEFD0021684600F035FF0349EC
:10175000086007B000BD0000A42F000800000020B2
:10176000F0B587B014216846FEF7D4FD2448002464
:10177000016841F010010160016801F0100105915C
:10178000016841F080010160016801F0800105916C
:10179000016841F040010160016801F040010591DC
:1017A000016841F0010101600068164E00F001007F
:1017B0000590012218213046FFF789FA124F0022C6
:1017C00080213846FFF783FA012251023846FFF79D
:1017D0007EFA182000900125CDE901546946304673
:1017E0000394FFF779F94FF420700090CDE901548C
:1017F000694638460394FFF76FF907B0F0BD000063
:101800003038024000100240001802400C4810B569
:101810000A4901604FF4E1314160002181600C22EE
:10182000C160C0E904128161C161FFF7B7FE002801
:1018300003D0BDE81040FFF7E2B810BD0010014032
:10184000E4020020FEE7FEE71CB51AA000F002FA51
:10185000214E4FF47A77002208213046FFF737FAFD
:101860001E48FFF749F870B11DA000F0F3F93846A3
:10187000FFF720F9012208213046FFF728FA384601
:10188000FFF718F9E7E7DFF85480D8F80C00FEF707
:101890004CFD04460D46D8F80800FEF746FD41EC25
:1018A000100B14A053EC102BCDE9004500F0D2F939
:1018B000DDE700004448543131B8DFBEABB6C8CED6
:1018C000C2CAAAB6C8B4ABB8D0C6F7CAFDBEDDB6A8
:1018D000C1C8A10D0A0000000010024080000020D5
:1018E000B6C1C8A14448543131D0C5CFA2CAA7B0AF
:1018F000DC0D0A00B6C1C8A14448543131B3C9B99E
:10190000A6212D2D3ECAAAB6C8CEAA252E316625FF
:10191000252CCEC2B6C8CEAA20252E316620C9E31A
:10192000CACFB6C8200D0A0010B5FFF7DBF901F0E9
:1019300063FA012803D0BDE8104001F0EFB910BDF3
:1019400010B592B030216846FEF7E4FC14210CA8D3
:10195000FEF7E0FC1D48016841F08051016000681D
:1019600000F0805011901A48016841F480410160F4
:101970000068022400F480401190012000900004CF
:1019800001908001CDE9064008AA0420402182E8A8
:1019900013000B906846FFF72DFB08B172B6FEE707
:1019A0000F20CDE90C0490200E904FF4A0500F9022
:1019B0004FF48050109000210CA8FFF731FA002856
:1019C00001D072B6FEE712B010BD000040380240F0
:1019D000007000400248016841F4700101607047E6
:1019E00088ED00E010B5806B0021C185C184FFF750
:1019F000CCFC10BD0168CA6822F49072CA6001680C
:101A00004A6922F001024A61016B012904D101688F
:101A1000CA6822F01002CA60202180F83E1000211E
:101A20000163704710B5044690F83E00222801D0AB
:101A3000022010BDA1684FF48052914201D120696B
:101A400020B1A06A91421BD049B10AE02168A06A86
:101A50004968C1F308010180A06A801C08E021697F
:101A600071B12168496801F07F010170A06A401CD2
:101A7000A062E08D401E0004000CE08503D01CE055
:101A800021684968F1E72068C16821F02001C16040
:101A90002068C16821F48071C1602068416921F02B
:101AA00001014161202084F83E00206B012806D00E
:101AB0002046FFF7E3FD00202063002010BD2068D2
:101AC000C16821F01001C160A18D2046FFF75CFCC8
:101AD000F1E7000070B5044600680169E26821F48E
:101AE0004051114301612169A068E26908436169BD
:101AF000114308432168CA6849F20C639A430243C0
:101B0000CA6020684169A26921F4407111434161B2
:101B100031492068884202D03049884202D1FFF71B
:101B200029FA01E0FFF716FAE2690023192164257A
:101B30003226B2F5004F626828D0A0FB0101930F56
:101B40009200FEF79DFB0146B0FBF5F06FF0180226
:101B5000504301EB800006EB0010B0FBF5F000F005
:101B6000F002B1FBF5F002EB0012B1FBF5F06FF003
:101B70001803584301EB800006EB0010B0FBF5F0B2
:101B800000F00F0021681044886070BDA0FB0101C7
:101B900092185B41FEF774FB0146B0FBF5F00201C1
:101BA000B1FBF5F06FF01803584301EB800006EB32
:101BB000C000B0FBF5F000F0F80002EB4002B1FB12
:101BC000F5F0584301EB800006EBC000B0FBF5F0E8
:101BD00000F00700D6E700000010014000140140AB
:101BE0002DE9F041984617460E460446069D1DE035
:101BF000681C1BD02DB1FFF76FF8A0EB0800A842BE
:101C000014D92068C16821F4D071C160206841698D
:101C100021F001014161202084F83D0084F83E005C
:101C2000002084F83C000320BDE8F08120680068B3
:101C300036EA000004D00020B842D9D00020F3E7F3
:101C40000120F9E70148FFF7A1BB0000E4020020F2
:101C5000FEE700000FB4054B10B503A9044A029833
:101C600000F0EAF810BC5DF814FB000069250008DC
:101C70007C0000200907090E002804DB00F1E020A9
:101C800080F80014704700F00F0000F1E02080F8A9
:101C9000141D704702E008C8121F08C1002AFAD1BB
:101CA00070477047002001E001C1121F002AFBD1DC
:101CB000704700002DE9FF5F82B00021DDE90430AC
:101CC000020DDDF840B0034318D044F61050A2F2E4
:101CD000FF3242431514119801281FD0A5EB0B00C9
:101CE000401C5FEA000A4FF000064E4FDFF83891C3
:101CF000B046504615D5CAF1000413E011980124EE
:101D00004AA3012801D16FEA0B010298119AC0E998
:101D10000031C0E9024206B0BDE8F09FCBF10000FF
:101D2000DFE704460021404A491842EB0450CDE960
:101D3000001012E0E00707D032463B4640464946D5
:101D4000FEF7E2FB8046894632463B46104619467E
:101D5000FEF7DAFB06460F466410002CEAD1DDE9F7
:101D60000401DDE90023BAF1000F06DAFEF7CCFB2F
:101D700042464B46FEF7C8FB05E0FEF737FC4246FD
:101D80004B46FEF733FC04460E460022284BFEF776
:101D9000B5FC03D84FF0FF30014607E00022254B89
:101DA00020463146FEF709FBFEF78FFC102409E0C0
:101DB000002C0ADB0A220023FEF762FA039B303272
:101DC0001A55641E50EA0102F2D1641C039AC4F150
:101DD00011031444119A012A03D0012208430DD1A2
:101DE0000AE0084304D000204FF0110B119072E775
:101DF000A3EB0B056D1E0DE05B4504DD4FF000020B
:101E000005F1010504E003DA4FF00002A5F1010538
:101E1000002AECD002981199C0E90231C0E90045CE
:101E200079E70000000014400000F03F300000009F
:101E30000000F0430000E03F2DE9FF4F95B09B46C6
:101E40008946064600250FE2252877D1002427463B
:101E5000F84A0121059400E0044316F8013F203BB5
:101E600001FA03F01042F7D130782A2811D06FF030
:101E70002F033078A0F13002092A16D8059A44F0D1
:101E8000020402EB820203EB42021044761C05902E
:101E9000EFE759F8042B0592002A03DA504244F484
:101EA0000054059044F00204761C30782E2816D198
:101EB00016F8010F44F004042A280DD06FF02F0209
:101EC0003078A0F13003092B09D807EB870302EB28
:101ED0004303C718761CF3E759F8047B761C307867
:101EE0006C280FD006DC4C2817D068280DD06A2843
:101EF00014D104E0742810D07A280FD10DE044F4F6
:101F000000140AE044F4801401E044F440147278B0
:101F1000824202D104F58014761C761C3078662843
:101F20000BD013DC582877D009DC002875D0452861
:101F3000F6D04628F4D047281AD19DE118E063284E
:101F400035D0642879D0652812D195E1702873D0F6
:101F500008DC6728F1D069286FD06E280DD06F2873
:101F600006D1B5E073282CD0752875D0782874D0A8
:101F70005A46179990476D1C75E1C4F30250022828
:101F800009D003280DD0D9F8001004280DD00D6019
:101F900009F1040967E1D9F80010EA17C1E9005214
:101FA000F6E7D9F800100D80F2E70D70F0E719F8A8
:101FB000041B8DF8001000208DF80100EA46012076
:101FC00003E059F804AB4FF0FF3061074FF0000118
:101FD00002D40DE008F101018846B9420FDA8045CC
:101FE000F8DB1AF808100029F4D108E008F1010123
:101FF00088468142FADB1AF808100029F6D10598C4
:102000005B46A0EB080721463846179A00F094FA81
:10201000284400EB080507E04DE029E10DE01AF83F
:10202000010B5A4617999047B8F10108F7D25B4661
:1020300021463846179A13E142E00A220092C4F37F
:1020400002524FF0000A022A08D059F804CB032AA2
:102050004FEAEC710AD00DE029E02AE009F107010E
:1020600021F00702F2E802C1914609E00FFA8CFC68
:102070004FEAEC71042A03D14FFA8CFC4FEAEC7161
:10208000002907DA0A460021DCF1000C61EB0201AD
:102090002D2202E0220504D52B228DF804200122F6
:1020A00003E0E20701D02022F7E7904659E00A2139
:1020B00002E010220DE010214FF0000A00910BE029
:1020C00010224FF0000A44F004040827009203E0B5
:1020D00008224FF0000A0092C4F30252022A05D0EF
:1020E00059F804CB0021032A08D009E009F10701BF
:1020F00021F00702F2E802C1914605E01FFA8CFCCC
:10210000042A01D10CF0FF0C4FF00008220728D55B
:10211000702806D0009B83F0100353EA0A0305D011
:102120000EE040228DF80420012208E05CEA010262
:1021300006D030228DF804208DF80500022290464A
:10214000009B83F0080353EA0A030AD15CEA010208
:1021500001D1620705D530228DF804204FF0010827
:102160007F1E582804D034A003900EA802900DE0E2
:1021700036A0F9E753466046009AFEF781F8844698
:102180000398825C0298401E029002705CEA010093
:10219000F0D1029806A9081A00F1200A600702D5BA
:1021A00024F4803400E00127574502DDA7EB0A0044
:1021B00000E0002000EB0A01009005984144401A1D
:1021C0000590E00306D45B462146179A059800F077
:1021D000B3F90544002706E001A85A46C05D1799E7
:1021E00090476D1C7F1C4745F6DBE0030CD55B4632
:1021F0002146179A059800F09FF9054404E0302025
:102200005A46179990476D1C0099481E0090002966
:10221000F5DC08E0029802995A460078491C0291C0
:10222000179990476D1CBAF10001AAF1010AF1DC7F
:1022300065E100000928010030313233343536378A
:102240003839616263646566000000003031323302
:1022500034353637383941424344454600000000A2
:1022600000F058F90544761C307800287FF4ECAD76
:1022700019B02846BDE8F08F620700D4062709F19F
:10228000070222F0070CFCE80223E14603F00048B5
:102290005FEA080C02D00FF2702C0DE05FEA045CDC
:1022A00002D50FF2682C07E05FEAC47C02D00FF27F
:1022B000602C01E0AFF2700C4FF0FF3823F00043C8
:1022C000CDF850C065280CD006DC452809D046283A
:1022D0001DD047283DD13DE0662818D067287ED123
:1022E00038E00021112F01DB112000E0781CCDE93E
:1022F000000106A90EA8FFF7DDFCDDE90F010E9A2B
:1023000003910021009207F1010A04914DE04FF082
:1023100000400097CDE9011006A90EA8FFF7CAFCFE
:10232000DDE90F0203920E9B11990022DDF80CA04B
:102330000093049211B9791C00EB010AB7EB0A0073
:1023400004D4C0F1FF3007F1010A0490AAEB0700A2
:10235000019044E0012F00DA01270021112F01DD57
:10236000112000E03846CDE9000106A90EA8FFF7CC
:10237000A1FCDDE90F010E9A039100210491009266
:10238000BA4621070CD40399514500DA8A46BAF1BE
:10239000010F05DD009AAAF10101515C302908D036
:1023A000B84202DA10F1040F06DA0121CDE901107A
:1023B00015E0AAF10101E9E7002805DC04990144D0
:1023C0000491AAEB000102E0411C514500DD8A4660
:1023D0000499401A401C01904FF0004002902007E1
:1023E00004D40198504501DBCDF8048000208DF81D
:1023F0004F0002980DF14F07B0F1004F25D02B2070
:102400000E9002984FF0020800280CDA4042029029
:102410002D200E9007E00A210298FDF799FF303138
:10242000029007F8011DB8F10001A8F10108F2DCE3
:1024300002980028EFD1791E0E980870307800F0CD
:10244000200040F0450007F8020D12A8C01B00F163
:1024500007081498007800B1012000EB0A010198E8
:1024600001EBE07105984144401A401E0590E003DD
:1024700006D45B462146179A059800F05DF805449E
:102480001498007818B15A46179990476D1CE003CC
:1024900024D55B462146179A059800F04DF805446F
:1024A0001CE00498002807DBDDE90301884203DD16
:1024B0000098405C179901E0179930205A469047E0
:1024C000049805F10105401C04900198401E0190FC
:1024D00004D12E205A46179990476D1CBAF100017D
:1024E000AAF1010ADDDC05E017F8010B5A4617993D
:1024F00090476D1CB8F10001A8F10108F4DC5B46BF
:102500002146179A0598ABE62D0000002B0000002D
:10251000200000002DE9F041044600251E46174624
:10252000880404D405E039462020B0476D1C641EA1
:10253000F9D52846BDE8F0812DE9F0410446002593
:102540001E469046C80301D5302700E020278804A6
:1025500004D505E041463846B0476D1C641EF9D5E8
:102560002846BDE8F081000038B504468DF800002B
:102570000223012269460248FFF782F8204638BD4F
:10258000E4020020FEF7B6FBFFF7DAF9FFF7E8F800
:10259000FFF73CF9FEF758F9FFF7CEF800F007F81F
:1025A000FEE701460020842900D0C81C704710B502
:1025B00000F0CEFA002010BD7FB50D4604464169FB
:1025C000B0F9080081B1A16971B1FFF7EAFFD4E960
:1025D00005128DE80700D4E900102B46226900F0AF
:1025E000E0FB039004B070BDFFF7DBFF03A9CDE96A
:1025F0000001208A2B4682B2D4E9001000F0A4FB2F
:10260000012801D00020EDE70398EBE72DE9F04128
:10261000054600F025FA2E4CA068401CA0602068FA
:102620002C4F10B1606940B32DE02560A0680128EF
:1026300029D1002606EB860007EB800000F0F6F9B2
:10264000761C072EF6D323488C3000F0EFF9214892
:10265000A03000F0EBF91F48B43000F0E7F91D4856
:10266000C83000F0E3F91B48DC3000F0DFF919480E
:102670008C3060631430A06305E02068E96AC06AAA
:10268000884200D82560606A401C6062E96A0120C7
:10269000226988401043206101EB810007EB800034
:1026A000291D00F0D1F900F0FBF9606900280CD079
:1026B0002068E96AC06A884207D207494FF0805013
:1026C0000860BFF34F8FBFF36F8FBDE8F08100004C
:1026D000140000202803002004ED00E010B504469B
:1026E00090F8510058B101280CD002280FD050208A
:1026F00080F31188BFF34F8FBFF36F8FFEE7206B1E
:1027000000F0E2F92046BDE8104000F0DDB910BD50
:1027100010484FF47051420706D0C01D0D4920F0FB
:102720000700411AC1F570510B4A00230144C2E968
:1027300000030839183A21F0070111604B600B6063
:102740000B1AC0E9001393604FF0004053605061D2
:10275000704700001804002068000020144E154C3B
:10276000A6F1C8074FF08058DFF84C9012E000BF88
:1027700000F076F9F068C568281D00F039F9A06806
:10278000401EA0606068401E606000F089F9284625
:10279000FFF7A4FF60680028EAD138680128F9D95A
:1027A000C9F80080BFF34F8FBFF36F8FF2E70000CF
:1027B000F00300201400002004ED00E02DE9F047B4
:1027C0009A46DDE9098481466FF00303206B03EB31
:1027D00082021044089E20F00707780707D0502097
:1027E00080F31188BFF34F8FBFF36F8FFEE7002593
:1027F00061B1002023180A5C83F834200A5C12B10E
:10280000401C1028F6D384F8435001E084F834507B
:10281000072E00D30626E662C4E91165201D00F0EC
:1028200010F904F1180000F00CF92461C6F107005A
:102830006462A061E56484F85050524649463846C7
:1028400000F0C0F82060B8F1000F01D0C8F80040D7
:10285000BDE8F08730B5114900E011460A688242B0
:10286000FBD34B685C18844203D14068184448602D
:10287000084643681C18944209D1084C183C246847
:10288000A24209D052681A4442600A681268026083
:10289000814200D0086030BD0460F9E76800002084
:1028A0000648416B096829B1416BC968C968496824
:1028B000816270474FF0FF31FAE7000014000020FA
:1028C00008484068401C4FF0500080F3118804D045
:1028D000BFF34F8FBFF36F8FFEE7BFF34F8FBFF391
:1028E0006F8FFEE7700000202DE9F04105460027BC
:1028F00000F064F9324E306808B9FFF709FF7069DB
:1029000005424ED1C5B3083568070ED005F0070063
:10291000C0F108000544680707D0502080F31188F3
:10292000BFF34F8FBFF36F8FFEE72DB37068854203
:1029300037D82348183001460C6801E020460C4681
:102940006168A94202D221680029F7D131688C421E
:1029500027D007682168016060680837411B10298B
:102960000FD96019420708D0502080F31188BFF3B7
:102970004F8FBFF36F8FFEE713E041606560FFF795
:1029800069FF61687068401A7060B268904200D256
:10299000B060706901430020C4E90001F068401C88
:1029A000F06000F09DFA780707D0502080F311887E
:1029B000BFF34F8FBFF36F8FFEE73846BDE8F0815E
:1029C0005000002010B5031F4FF080741C601B1FC7
:1029D00021F001011960191F044B0B6014390A60C2
:1029E000091F6FF0020244380A6010BDC1280008B8
:1029F000D0E9013201699A60D0E901235A604A683E
:102A0000824201D182684A60002202610868401E49
:102A10000860086870470000034B036003F154002E
:102A200008608020106070479000002000F10801CD
:102A30004FF0FF32C0E90112C16001610021016065
:102A4000704700210161704742684A6093688B605B
:102A500093685960916008610168491C0160704782
:102A6000502080F31188BFF34F8FBFF36F8F0A4957
:102A70004868401C486001280CD10848006810F0E4
:102A8000FF0F07D0502080F31188BFF34F8FBFF3A3
:102A90006F8FFEE7704700007000002004ED00E03B
:102AA0000849486828B1401E486001D180F3118868
:102AB0007047502080F31188BFF34F8FBFF36F8FA3
:102AC000FEE700007000002070B500282AD0164DE7
:102AD000A0F1080460686969084207D1502080F3BA
:102AE0001188BFF34F8FBFF36F8FFEE722683AB1B3
:102AF000502080F31188BFF34F8FBFF36F8FFEE735
:102B00008843606000F05AF860686968084468604B
:102B10002046FFF79FFE2869401C2861BDE87040F1
:102B200000F0DEB970BD0000500000204FF0E02042
:102B300000210161816105494FF47A720968B1FB96
:102B4000F2F1491E41610721016170471000002028
:102B500010B586B00024039405AA04A903A8049420
:102B6000FFF75AFFDDE903010094CDE901100023CE
:102B70000EA11048059A00F014F90F490028C86208
:102B800011D0502080F31188BFF34F8FBFF36F8FA8
:102B90004FF0FF30886201204861CC6006B0BDE88C
:102BA000104000F041B806B010BD000049444C454B
:102BB000000000005D270008140000200248016B9F
:102BC000491C016370470000140000201448016B89
:102BD00011B10121C16170470021C1610169B1FAE0
:102BE00081F1C1F11F0101EB81020E4951F8223040
:102BF0006BB101EB820101F108034A6852684A6037
:102C00009A4201D152684A60D168016070475020F1
:102C100080F31188BFF34F8FBFF36F8FFEE7000083
:102C200014000020280300201CB537480168374AEB
:102C3000914207D1502080F31188BFF34F8FBFF32B
:102C40006F8FFEE700683149491E884207D1502046
:102C500080F31188BFF34F8FBFF36F8FFEE72C49CE
:102C600008780190FF20087008788DF800009DF822
:102C700000009DF8002000F0F000904207D05020A6
:102C800080F31188BFF34F8FBFF36F8FFEE79DF87E
:102C90000000204C00F0500020700720A06005E0EC
:102CA0009DF8002052008DF80020401E9DF8002065
:102CB0001206F5D4A060032807D0502080F31188B5
:102CC000BFF34F8FBFF36F8FFEE74FF44070A060EC
:102CD000019808700C482030016841F470010160CF
:102CE000016841F070410160FFF720FF0020606043
:102CF000FDF778FA0848016841F040410160FDF7AE
:102D00005DFA00201CBD000000ED00E071C20F4123
:102D100000E400E07000002034EF00E010B5502027
:102D200080F31188BFF34F8FBFF36F8F00F072F8FD
:102D300018B104494FF080500860002080F31188DA
:102D400010BD000004ED00E02DE9FF5F8346DDE9E2
:102D50000E87994616468A469000FFF7C5FD050086
:102D60001CD05420FFF7C0FD040014D000202563C0
:102D700084F85100CDE90240CDE900874B46324648
:102D800051465846FFF71AFD2046FFF73FFC012049
:102D900004B0BDE8F09F2846FFF796FE4FF0FF30E5
:102DA000F6E7F0B585B0DDE90B640A9DA6B1DCB1AC
:102DB000542700972663022684F85160002604AF4A
:102DC000CDE90246CDE90057FFF7F8FC2046FFF7B2
:102DD0001DFC049805B0F0BD502080F31188BFF3AE
:102DE0004F8FBFF36F8FFEE7502080F31188BFF342
:102DF0004F8FBFF36F8FFEE70548416919B1006B34
:102E000018B1002070470120704702207047000071
:102E1000140000202DE9F0412F4C0026206B28B132
:102E2000A069401CA0613046BDE8F081E5686D1CDA
:102E3000E56013D1606B006838B1502080F31188D1
:102E4000BFF34F8FBFF36F8FFEE7606BA16B6163C2
:102E5000A063206A401C2062FFF722FDA06ADFF811
:102E60007C80854209D3606B0068A0B1606BC0684C
:102E7000C7687868854211D2A0622068C06A00EBFA
:102E8000800158F82100012800D90126E0690028B6
:102E9000C9D00126C7E74FF0FF30EDE7381DFFF737
:102EA000A7FDB86A18B107F11800FFF7A1FDF96A8C
:102EB0000120226988401043206101EB810108EB69
:102EC0008100391DFFF7C0FDF86A2168C96A884290
:102ED000C9D30126C7E70000140000202803002002
:102EE0002DE9F0472C4D00242746286B38B1FFF719
:102EF000B7FD286B401E2863286B40B146E0502088
:102F000080F31188BFF34F8FBFF36F8FFEE7A9687F
:102F1000224E0120D1B3A6F1B40980463068E8B151
:102F2000F068C46804F11800FFF762FD201DFFF788
:102F30005FFDE06A2A6908FA00F11143296100EB9C
:102F4000800109EB8100211DFFF77EFDE06A296801
:102F5000C96A8842E2D3C5F81C80DFE70CB1FFF7ED
:102F60009FFCAC6944B14646FFF754FF00B1EE61E7
:102F7000641EF9D10020A861E86938B10849012729
:102F800038070860BFF34F8FBFF36F8FFFF788FDDF
:102F90003846BDE8F087000014000020DC03002064
:102FA00004ED00E0D82F00084918000800000000D8
:102FB0000000000000010000000000000000000010
:102FC00000000000000000000102030406070809D9
:102FD000000000000102030447485431315461737A
:102FE0006B0000000430000800000020800000009A
:102FF000941C0008843000088000002098430000E2
:10300000A41C0008000000000100000010000000E7
:10301000000000000024F400000000000000000098
:1030200000000000000000000000000000000000A0
:103030000000000000000000000000000000000090
:103040000000000000000000000000000000000080
:103050000000000000000000000000000000000070
:103060000000000000000000000000000000000060
:103070000000000000000000AAAAAAAA00000000A8
:04308000000000004C
:040000050800018965
:00000001FF
