:020000040800F2
:10000000E84500205D0200080D19000809170008E6
:100010000919000819040008652200080000000002
:100020000000000000000000000000009D0100082A
:100030001D04000800000000F9010008711C000800
:1000400077020008770200087702000877020008AC
:10005000770200087702000877020008770200089C
:10006000770200087702000877020008770200088C
:10007000770200087702000877020008770200087C
:10008000770200087702000877020008770200086C
:100090007702000877020008770200081F040008B2
:1000A000770200087702000877020008770200084C
:1000B000770200087702000877020008770200083C
:1000C000770200087702000877020008770200082C
:1000D0007702000845220008552200087702000830
:1000E000770200087702000877020008770200080C
:1000F00077020008770200087702000877020008FC
:1001000077020008770200087702000877020008EB
:1001100077020008770200087702000877020008DB
:1001200077020008770200087702000877020008CB
:1001300077020008770200087702000877020008BB
:1001400077020008770200087702000877020008AB
:10015000770200087702000877020008770200089B
:10016000770200087702000877020008770200088B
:1001700077020008770200087702000800000000FC
:100180007702000877020008DFF80CD000F032F99F
:100190000048004791250008E84500202C4B1968CD
:1001A0000868B0E8F04F80F30988BFF36F8F4FF015
:1001B000000080F3118870470000000008480068C4
:1001C000006880F308884FF0000080F3148862B65E
:1001D00061B6BFF34F8FBFF36F8F00DF00BF00BF6B
:1001E00008ED00E0DFF80C00016841F470010160E7
:1001F000704700BF88ED00E0EFF30980BFF36F8F19
:10020000134B1A681EF0100F08BF20ED108A20E96A
:10021000F04F106009B44FF0500080F31188BFF325
:100220004F8FBFF36F8F03F0FDF84FF0000080F3A6
:10023000118809BC19680868B0E8F04F1EF0100F6B
:1002400008BFB0EC108A80F30988BFF36F8F704746
:1002500030000020EFF3058070470000064880471B
:1002600006480047FEE7FEE7FEE7FEE7FEE7FEE79B
:10027000FEE7FEE7FEE7FEE7351D000889010008FE
:100280002DE9F05F0546002092469B4688460646CB
:10029000814640241BE0284641464746224600F05E
:1002A00099F853465A46C01A914110D31146184640
:1002B000224600F080F82D1A67EB01084F462246CF
:1002C0000120002100F077F817EB00094E41201EB5
:1002D000A4F10104DFDC484631462A464346BDE826
:1002E000F09F40EA01039B0703D009E008C9121FF1
:1002F00008C0042AFAD203E011F8013B00F8013BE0
:10030000521EF9D27047D2B201E000F8012B491E0B
:10031000FBD270470022F6E710B513460A460446A2
:100320001946FFF7F0FF204610BD30B505462A46B6
:100330000B4612F8010B13F8014B08B1A042F8D09C
:100340001CB1002802D06D1CF1E7284630BD421CCC
:1003500010F8011B0029FBD1801A704710B500224C
:1003600000E0521C835C8C5CA34201D1002BF8D1CD
:10037000D8B2E1B2401A10BD034611F8012B00F8C3
:10038000012B002AF9D11846704730B50B460146BB
:1003900000202022012409E021FA02F59D4205D324
:1003A00003FA02F5491B04FA02F52844151EA2F1CE
:1003B0000102F1DC30BD202A04DB203A00FA02F110
:1003C000002070479140C2F1200320FA03F3194343
:1003D00090407047202A04DB203A21FA02F00021E5
:1003E000704721FA02F3D040C2F120029140084345
:1003F00019467047064C074D06E0E06840F00103DF
:1004000094E8070098471034AC42F6D3FFF7C0FEDB
:10041000F04200081043000800BFFEE7704710B527
:10042000402000F001F9802000F0FEF84FF48070C9
:1004300000F0FAF84FF4007000F0F6F810BD72B654
:1004400000BFFEE770B50446A56D00F001FA064650
:1004500094F83500022808D08020606500BF002095
:1004600084F8340000BF012070BD2068006820F0CF
:100470001600216808602068406920F0800021682B
:100480004861206C08B9A06C28B12068006820F091
:100490000800216808602068006820F001002168D9
:1004A000086010E000F0D4F9801B05280BD920204B
:1004B0006065032084F8350000BF002084F8340014
:1004C00000BF0320D0E72068006800F0010000288A
:1004D000E8D194F85C103F208840A860012084F89F
:1004E000350000BF002084F8340000BF00BFBBE728
:1004F000014691F83500022803D08020486501208C
:100500007047052081F835000868006820F0010078
:100510000A6810600020F3E770B5044600F098F90F
:1005200006462546681C10B104480078054400BF03
:1005300000F08EF9801BA842FAD370BD280000207D
:1005400020B50546402C4CD0802C33D0B4F5807FAC
:1005500019D0B4F5007F5BD12E48007848B901204E
:100560002C490870002211462B48006802F08EF8D2
:1005700008E000202749087000220321264800686F
:1005800002F084F844E02548007848B90120234966
:100590000870002201212048006802F077F808E086
:1005A00000201E490870002204211B48006802F048
:1005B0006DF82DE01A48007848B9012018490870F4
:1005C000002202211448006802F060F808E00020D0
:1005D00013490870002205210F48006802F056F800
:1005E00016E01048007848B901200E490870002232
:1005F00006210948006802F049F808E0002009498E
:100600000870002207210448006802F03FF800BF8C
:1006100000BF20BD0D0000201C0000200E000020A7
:10062000100000200F00002010B5044604480068A8
:10063000204020B1024804602046FFF781FF10BD32
:10064000143C0140F8B502460B460025002400206A
:100650000021D5E0012606FA01F51E6806EA050428
:10066000AC4274D11E7906F00306012E04D01E7927
:1006700006F00306022E13D190684F000326BE40F9
:10068000B0434F00DE68BE403043906050680126A2
:100690008E40B0431E79C6F300168E403043506042
:1006A0001E7906F00306032E09D0D0684F000326FA
:1006B000BE40B0434F009E68BE403043D0601E79BC
:1006C00006F00306022E13D1CF0802F1200656F8D9
:1006D00027004E07F70E0F26BE40B0434F07FF0E10
:1006E0001E69BE403043CF0802F1200646F82700BD
:1006F00010684F000326BE40B0431E7906F0030683
:100700004F00BE40304310605E6806F44036002E55
:1007100075D000BF002600963B4E366846F48046F2
:10072000394F3E603E46366806F48046009600BF6C
:1007300000BF364E8F0856F827008E07370F0F265A
:10074000BE40B043324EB24202D1002624E056E011
:10075000304EB24201D101261EE02F4EB24201D1ED
:10076000022619E02D4EB24201D1032614E02C4E90
:10077000B24201D104260FE02A4EB24201D1052631
:100780000AE0294EB24201D1062605E0274EB242C8
:1007900001D1072600E008268F073F0FBE403043F7
:1007A0001A4E8F0846F82700214E3068A0435E6835
:1007B00006F4803606B120431D4E3060361D306889
:1007C000A0435E6806F4003606B12043184E361D7D
:1007D0003060361D3068A0435E6806F4801606B1AE
:1007E0002043134E08363060361D3068A0435E68E3
:1007F00006F4001606B120430D4E0C363060491C3D
:100800001029FFF427AFF8BD4438024008380140F2
:10081000000002400004024000080240000C0240B8
:10082000001002400014024000180240001C024068
:10083000003C0140024613690B400BB1012000E06F
:10084000002070470AB1816101E00B0483617047A9
:10085000014800687047000020000020034800683D
:1008600003490978084401490860704720000020C6
:100870002800002010B50D48006840F400700B49B6
:1008800008600846006840F4806008600846006818
:1008900040F480700860032000F0A8F80F2000F0FA
:1008A00007F800F02BF8002010BD0000003C0240CB
:1008B00070B504460E4800784FF47A71B1FBF0F041
:1008C0000C490968B1FBF0F5284600F031FC08B18D
:1008D000012070BD102C07D200222146501E00F0CE
:1008E00047F80548046001E00120F2E70020F0E746
:1008F000280000202C0000202400002008B500BFA4
:10090000002000901148006840F480400F490860C2
:100910000846006800F48040009000BF00BF00BFA0
:1009200000200090081F006840F08050091F0860F8
:100930000846006800F08050009000BF00BF002211
:100940000F21901E00F014F808BD0000443802404A
:1009500001460846002809DB00F01F0301229A40E7
:1009600043099B0003F1E023C3F8002100BF704757
:100970002DE9F05F80460D461646002701F098FCF1
:10098000074639462A46334601F00700C0F1070AF8
:10099000BAF1040F02D94FF0040A01E0C0F1070ACE
:1009A000D14600F1040ABAF1070F02D24FF0000A53
:1009B00001E0A0F1030AD4464FF0010A0AFA09FA4D
:1009C000AAF1010A0AEA020A0AFA0CFA4FF0010B2C
:1009D0000BFA0CFBABF1010B0BEA030B4AEA0B041D
:1009E0002146404601F06CFCBDE8F09F00BF00F0DE
:1009F0000702064B19684FF6FF031940044B0B43DF
:100A000043EA0221014B196000BF70470CED00E082
:100A10000000FA0570B504460D460CB9012070BD02
:100A20005848006800F00700A84209D255490D70E7
:100A30000846006800F00700A84201D00120EEE758
:100A4000207800F0020002281DD1207800F0040078
:100A5000042805D14C48006840F4E0504A49086039
:100A6000207800F00800082805D14748006840F4C5
:100A70006040454908604448006820F0F000A168E3
:100A8000084341490860207800F00100A8B360687D
:100A9000012807D13C4808380068C0F34040B8B985
:100AA0000120BCE76068022802D06068032807D1F3
:100AB000354808380068C0F3406048B90120AEE707
:100AC000314808380068C0F3400008B90120A6E7A3
:100AD0002D48006820F00300616808432A49086037
:100AE000FFF7B6FE064609E0FFF7B2FE801B41F2B3
:100AF0008831884202D9032091E707E02248006844
:100B000000F00C006168B0EB810FEDD11D4800686A
:100B100000F00700A84209D91A490D70084600687C
:100B200000F00700A84201D0012078E7207800F00B
:100B30000400042807D11448006820F4E050E1685C
:100B4000084311490860207800F00800082808D1FF
:100B50000D48006820F46040216940EAC1000A495C
:100B6000086000F03FF808490968C1F30311074A1B
:100B7000515CC8400649086006480068FFF798FEC7
:100B800000204CE7003C024008380240B842000810
:100B90002C0000202400002001480068704700005D
:100BA0002C00002000B5FFF7F7FF04490968C1F3E6
:100BB0008221034A515CC84000BD00000838024051
:100BC000C842000800B5FFF7E7FF04490968C1F310
:100BD0004231034A515CC84000BD00000838024061
:100BE000C84200082DE9F047002400250026A14650
:100BF0002548006800F00C0020B1042805D0082822
:100C00003AD105E0DFF8849039E0DFF8849036E0EF
:100C10001D48001F006800F03F041B48001F0068CB
:100C200000F4800078B11A481749091F0968C1F318
:100C30008811A0FB01700146224600233846FFF7C9
:100C40001FFB05460EE011480F49091F0968C1F353
:100C50008811A0FB01700146224600233846FFF7A9
:100C60000FFB05460848001F0068C0F30140401C08
:100C70004600B5FBF6F902E0DFF8109000BF00BFB8
:100C80004846BDE8F0870000083802400024F40020
:100C900000127A00F8B504460CB90120F8BD20789E
:100CA00000F00100002874D0F948006800F00C0042
:100CB00004280DD0F648006800F00C00082813D175
:100CC000F348001F006800F48000B0F5800F0BD1DE
:100CD000EF4808380068C0F34040002859D06068E9
:100CE000002856D10120D9E700BF6068B0F5803FE9
:100CF00008D1E7480838006840F48030E4490839F2
:100D000008601EE06068B0F5A02F0DD1E0480838FB
:100D1000006840F48020DE49083908600846006811
:100D200040F4803008600CE0D9480838006820F4AE
:100D30008030D749083908600846006820F48020D0
:100D4000086000BF606890B1FFF782FD054606E0CD
:100D5000FFF77EFD401B642801D903209EE7CC48A5
:100D600008380068C0F340400028F1D011E0FFF7D8
:100D70006FFD054606E0FFF76BFD401B642801D9B7
:100D800003208BE7C24808380068C0F340400028C1
:100D9000F1D1207800F0020002285FD1BC48006841
:100DA00000F00C0058B1BA48006800F00C000828A8
:100DB0001CD1B748001F006800F48000B0B9B448E7
:100DC00008380068C0F3400020B1E068012801D075
:100DD000012063E7AE480838006820F0F800216978
:100DE00040EAC100AA490839086037E0E06800B36A
:100DF0000120A8490860FFF72BFD054606E0FFF734
:100E000027FD401B022801D9032047E7A0480838E6
:100E10000068C0F340000028F1D09D480838006801
:100E200020F0F800216940EAC100994908390860BA
:100E300014E0002097490860FFF70AFD054606E028
:100E4000FFF706FD401B022801D9032026E7904842
:100E500008380068C0F340000028F1D1207800F085
:100E6000080008282CD16069A8B101208A490860CF
:100E7000FFF7EEFC054606E0FFF7EAFC401B022800
:100E800001D903200AE782486C300068C0F34000B3
:100E90000028F1D014E000207F490860FFF7D8FC5B
:100EA000054606E0FFF7D4FC401B022801D90320C9
:100EB000F4E677486C300068C0F340000028F1D1B8
:100EC000207800F00400042870D1002770483830E2
:100ED000006800F0805090B900BF002000906C487E
:100EE0003830006840F08050694938310860084661
:100EF000006800F08050009000BF00BF01276748E5
:100F0000006800F48070B0B96448006840F48070F4
:100F100062490860FFF79CFC054606E0FFF798FC75
:100F2000401B022801D90320B8E65C48006800F4A1
:100F300080700028F2D000BFA068012808D1544872
:100F40006830006840F001005149683108601DE0D8
:100F5000A06805280DD14E486830006840F00400B4
:100F60004B49683108600846006840F0010008609D
:100F70000CE047486830006820F0010044496831BF
:100F800008600846006820F00400086000BFA06800
:100F9000A8B1FFF75DFC054609E0FFF759FC401BCF
:100FA00041F28831884202D9032077E626E03848AA
:100FB00068300068C0F340000028EED013E0FFF76F
:100FC00047FC054608E0FFF743FC401B41F288312F
:100FD000884201D9032061E62D4868300068C0F3DB
:100FE00040000028EFD1012F07D129483830006890
:100FF00020F0805026493831086000BFA0690028E1
:1010000045D02348006800F00C0008285DD0A06996
:10101000022845D100201F490866FFF719FC054644
:1010200006E0FFF715FC401B022801D9032035E636
:10103000174808380068C0F340600028F1D1D4E9AF
:1010400007010843616A40EA81110122A06AC2EBEC
:10105000500041EA00412C20005D41EA00600C494B
:10106000091F086001200B490866FFF7F1FB0546E0
:1010700006E0FFF7EDFB401B022801D903200DE637
:10108000034808380068C0F340600028F1D049E008
:101090000838024000004742800E4742007000407E
:1010A000002021490866FFF7D3FB054606E0FFF75D
:1010B000CFFB401B022801D90320EFE51B48006845
:1010C000C0F340600028F2D12CE0A069012800D1D3
:1010D000E4E51648001D0668A069012820D006F442
:1010E0008001E06981421BD106F03F01206A814204
:1010F00016D147F6C0703040616AB0EB811F0FD146
:1011000006F440310122A06AC2EB5000B1EB004F5F
:1011100006D106F070612C20005DB1EB006F01D0AC
:101120000120BBE50020B9E500004742003802403D
:1011300070B504462546681EB0F1807F01D30120BA
:101140000FE0681E4FF0E02148610F214FF0FF30A3
:1011500001F0B6F800204FF0E02188610720086117
:10116000002070BD704770472DE9F84F0446206895
:1011700005682068C668206847694FF00009CA46BC
:1011800005F00F09B9F1000F0AD105F0200038B1C0
:1011900006F0200020B1204600F026FEBDE8F88FC2
:1011A000B9F1000F7CD007F0010018B906F4907077
:1011B000002875D005F0010030B106F4807018B138
:1011C000206C40F00100206405F0040030B107F00D
:1011D000010018B1206C40F00200206405F002000C
:1011E00030B107F0010018B1206C40F00400206419
:1011F00005F0080048B106F0200010B907F0010022
:1012000018B1206C40F008002064206C002846D003
:1012100005F0200028B106F0200010B1204600F0B3
:10122000E3FD20684069C0F3801A206C00F00800DC
:1012300010B9BAF1000F2DD0204600F08FFD2068C4
:10124000406900F04000402820D100BF00BF216865
:10125000143151E8001F21F040002168143141E8A9
:101260000002002AF3D100BFA06B50B17548A16BFA
:101270000865A06BFFF73CF988B1A06B016D88474A
:101280000DE02046FFF76FFF09E009E02046FFF779
:101290006AFF04E02046FFF766FF002020647DE738
:1012A000206B012876D105F01000002872D006F0DE
:1012B00010000028FAD000BF0020009020680068CD
:1012C000009020684068009000BF00BF206840691F
:1012D00000F0400040285ED1A06B006840681FFA13
:1012E00080F8B8F1000F54D0A08D404551DDA4F82E
:1012F0002E80A06BC069B0F5807F43D000BF00BFD7
:1013000021680C3151E8001F21F4807021680C31F4
:1013100041E80002002AF3D100BF00BF00BF2168EE
:10132000143151E8001F21F001002168143141E817
:101330000002002AF3D100BF00BF00BF21681431B2
:1013400051E8001F21F040002168143141E80002FB
:10135000002AF3D100BF202084F83E000020206343
:1013600000BF00BF21680C3151E8001F21F01000C0
:1013700021680C3141E80002002AF3D100BFA06BC4
:10138000FFF760F8A08DE28D801A81B22046FFF74A
:10139000E9FE03E740E0A08DE18D401A1FFA80F8D6
:1013A000E08DC0B3B8F1000F35D000BF00BF216899
:1013B0000C3151E8001F21F4907021680C3141E894
:1013C0000002002AF3D100BF00BF00BF2168143122
:1013D00051E8001F21F001002168143141E80002AA
:1013E000002AF3D100BF202084F83E0000202063B3
:1013F00000BF00BF21680C3151E8001F21F0100030
:1014000021680C3141E80002002AF3D100BF4146B7
:101410002046FFF7A7FEC1E605F0800030B106F0D8
:10142000800018B1204600F094FEB7E605F04000B9
:1014300030B106F0400018B1204600F0C5FCADE622
:1014400000BFABE6491D000810B504460CB90120E9
:1014500010BDA06900B100E000BF94F83D0028B9BC
:10146000002084F83C00204600F028F8242084F86E
:101470003D002068C06820F400502168C860204604
:1014800000F02EFD2068006920F49040216808617A
:101490002068406920F02A00216848612068C068FF
:1014A00040F400502168C86000202064202084F8A7
:1014B0003D0084F83E000020CAE7000010B586B069
:1014C0000446142101A8FEF725FF3F492068884201
:1014D00039D100BF002000903C48006840F0100067
:1014E0003A4908600846006800F01000009000BF0C
:1014F00000BF00BF0020009034481438006840F05E
:1015000001003249143908600846006800F0010003
:10151000009000BF00BF4FF4C06001900220029015
:1015200000200390032004900720059001A928487B
:10153000FFF788F8002205212520FFF719FA25205A
:10154000FFF706FA3DE023492068884239D100BF01
:10155000002000901D48001F006840F400301B4927
:10156000091F08600846006800F40030009000BFC2
:1015700000BF00BF0020009014481438006840F0FD
:1015800001001249143908600846006800F00100A3
:10159000009000BF00BF0C200190022002900020AC
:1015A0000390032004900720059001A90848FFF745
:1015B00049F8002205212620FFF7DAF92620FFF757
:1015C000C7F906B010BD00000010014044380240C9
:1015D000000002400044004070B504460D46164627
:1015E00094F83E00202816D105B10EB9012070BD37
:1015F00000BF94F83C00012801D10220F7E7012048
:1016000084F83C0000BF0020206332462946204673
:1016100000F07CFDEBE70220E9E7000010B504468E
:1016200003492068884201D101F076FC10BD00001A
:10163000004400402DE9F84F04460E4617469946EF
:101640004FF0000A94F83D0020285AD106B117B98E
:101650000120BDE8F88F00BF94F83C00012801D1BB
:101660000220F6E7012084F83C0000BF002020643F
:10167000212084F83D00FFF7EBF88246A784E78439
:10168000A068B0F5805F04D1206910B90025B0468C
:1016900002E035464FF0000800BF002084F83C000F
:1016A00000BF1BE05346002280212046CDF8009069
:1016B00000F07FFD08B10320CBE745B9B8F8000082
:1016C000C0F308002168486008F1020803E02878A8
:1016D000216848606D1CE08C401EE084E08C00288E
:1016E000E0D15346002240212046CDF8009000F082
:1016F00060FD08B10320ACE7202084F83D00002005
:10170000A7E70220A5E7704700BFFEE700B593B04A
:10171000124B0FCBCDE91123CDE90F0100210FA80A
:1017200000F052FF0E4908601C220C49103108A835
:10173000FEF7D7FD002108A800F0D8FF094908608E
:101740001C2206492C3101A8FEF7CBFD002101A87F
:1017500000F0CCFF0449086013B000BD70420008DF
:101760001C000020140000201800002000B587B0E5
:10177000142102A8FEF7CEFD00BF002001904248D0
:10178000006840F01000404908600846006800F01A
:101790001000019000BF00BF00BF0020019008466C
:1017A000006840F0200008600846006800F0200053
:1017B000019000BF00BF00BF0020019008460068F4
:1017C00040F0800008600846006800F0800001904A
:1017D00000BF00BF00BF002001900846006840F035
:1017E000010008600846006800F00100019000BF99
:1017F00000BF00BF002001900846006840F0400094
:1018000008600846006800F04000019000BF00BF7B
:10181000012218211D48FFF715F80022C0211C489D
:10182000FFF710F8012251021948FFF70BF81820B2
:1018300002900120039000200490059002A9134813
:10184000FEF700FF4FF4707002904FF40410039005
:101850000120049002A90F48FEF7F4FE4FF4307007
:1018600002900120039000200490059002A90848EE
:10187000FEF7E8FE002205211720FFF779F8172070
:10188000FFF766F807B000BD303802400010024094
:10189000001802400014024010B50B480B490860C4
:1018A0004FF4E1304860002108488160C160016167
:1018B0000C21416100218161C161FFF7C5FD08B1C3
:1018C000FEF7BDFD10BD00000010014070040020B7
:1018D00010B50B480B4908604FF4E1304860002117
:1018E00008488160C16001610C2141610021816172
:1018F000C161FFF7A9FD08B1FEF7A1FD10BD000011
:1019000000440040B404002000BFFEE700BFFEE733
:1019100086B000F02FFE0A2135A001F059FB00BF70
:10192000642235480168684600F062FE9DE80700C1
:1019300003AB07C303981028F2D130A0049900F03C
:1019400093FC049838B90A2130A001F041FB32A081
:1019500000F08AFCE4E70498012807D10A2132A0AC
:1019600001F036FB33A000F07FFCD9E70498022891
:1019700007D10A2133A001F02BFB35A000F074FC45
:10198000CEE70498032807D10A2135A001F020FBF7
:1019900036A000F069FCC3E70498042807D10A21A7
:1019A00036A001F015FB38A000F05EFCB8E7049803
:1019B000052807D10A2138A001F00AFB39A000F060
:1019C00053FCADE70498062807D10A2139A001F09D
:1019D000FFFA3BA000F048FCA2E7049807289FD13B
:1019E0000A213BA001F0F4FA3CA000F03DFC97E78F
:1019F000696E6974000000001C0000206D6573733F
:101A0000616765203D2025640D0A00006F70656EDA
:101A10005F6C656430000000B5E3C1C1C1CB4C45CB
:101A200044300D0A000000006F70656E5F6C6564E5
:101A300031000000B5E3C1C1C1CB4C4544310D0AB2
:101A4000000000006F70656E5F62656570000000E9
:101A5000B4F2BFAAC1CBB7E4C3F9C6F70D0A0000C0
:101A6000636C6F73655F6C6564300000B9D8B1D585
:101A7000C1CB4C4544300D0A00000000636C6F730D
:101A8000655F6C6564310000B9D8B1D5C1CB4C45F8
:101A900044310D0A00000000636C6F73655F62657E
:101AA00065700000B9D8B1D5C1CBB7E4C3F9C6F7AA
:101AB0000D0A00006F70656E5F6C65643200000097
:101AC000B5E3C1C1C1CB4C4544320D0A0000000052
:101AD000636C6F73655F6C6564320000B9D8B1D513
:101AE000C1CB4C4544320D0A0000000090B000BF4D
:101AF000684600F0FBFC0128FAD1694634A000F0EA
:101B0000B3FB38A16846FEF729FC18B937A000F0EE
:101B1000ABFB57E03CA16846FEF720FC28B9002249
:101B200008213C48FEF78EFE4CE03BA16846FEF7DC
:101B300015FC28B9012208213648FEF783FE41E052
:101B400038A16846FEF70AFC28B900221021314866
:101B5000FEF778FE36E036A16846FEF7FFFB28B9AF
:101B6000012210212B48FEF76DFE2BE033A16846C1
:101B7000FEF7F4FB30B900224FF400713248FEF753
:101B800061FE1FE031A16846FEF7E8FB28B901229B
:101B900051022D48FEF756FE14E02FA16846FEF7CD
:101BA000DDFB28B9012280212748FEF74BFE09E022
:101BB0002CA16846FEF7D2FB20B9002280212248E2
:101BC000FEF740FE40216846FEF7A4FB90E70000C8
:101BD000CAD5B5BDB5C4CFFBCFA2CAC725730D0A00
:101BE00000000000696E697400000000CED2D2AA25
:101BF000B3F5CABCBBAFC1EDCDE2D2BBCCA8C9E83E
:101C0000B1B8C1CB0D0A00006F70656E5F6C656482
:101C10003000000000100240636C6F73655F6C65FC
:101C2000643000006F70656E5F6C656431000000A9
:101C3000636C6F73655F6C65643100006F70656E17
:101C40005F6C65643200000000180240636C6F73C3
:101C5000655F6C65643200006F70656E5F6265651C
:101C600070000000636C6F73655F626565700000F3
:101C700010B5FEF7F3FD02F015F9012801D001F0CF
:101C8000CBFC10BD00B593B0302107A8FEF742FB96
:101C9000142102A8FEF73EFB00BF0020019023485C
:101CA000006840F08050214908600846006800F054
:101CB0008050019000BF00BF00BF002001901C4871
:101CC000006840F480401A4908600846006800F443
:101CD0008040019000BF00BF0120079000040890E1
:101CE00002200D9041050E9104210F914E2110917B
:101CF000022111910421129107A8FEF7CBFF08B130
:101D0000FEF79DFB0F20029002200390002004901C
:101D10004FF48050059000200690022102A8FEF7A3
:101D200079FE08B1FEF78BFB13B000BD40380240CE
:101D3000007000400348006840F4700001490860EA
:101D40007047000088ED00E070B50546AC6B0020E0
:101D5000E085E0842046FFF706FA70BD00BF00BFB3
:101D600002680C3252E8002F22F4907102680C32A3
:101D700042E80013002BF3D100BF00BF00BF026890
:101D8000143252E8002F22F001010268143242E8B6
:101D90000013002BF3D100BF016B01290ED100BF4E
:101DA00000BF02680C3252E8002F22F010010268D6
:101DB0000C3242E80013002BF3D100BF202180F841
:101DC0003E1000210163704710B504462068C068CA
:101DD00020F040002168C860202084F83D002046A3
:101DE000FFF791FC002010BDF8B5044694F83E00C2
:101DF000222873D1A068B0F5805F0CD1206950B95A
:101E00000025A66A20684068C0F308003080A06AF8
:101E1000801CA06215E0A56A0026A068B0F5805F6E
:101E200003D0A06828B9206918B9206840682870D4
:101E300004E02068406800F07F002870A06A401C21
:101E4000A062E08D401E80B2E085002844D1206869
:101E5000C06820F020002168C8602068C06820F4B5
:101E600080702168C8602068406920F00100216806
:101E70004861202084F83E00206B012826D10020F4
:101E8000206300BF00BF21680C3151E8001F21F022
:101E9000100021680C3141E80002002AF3D100BF94
:101EA0002068006800F0100010280AD100BF002050
:101EB000009020680068009020684068009000BF93
:101EC00000BFA18D2046FFF74DF902E02046FFF745
:101ED000A5FB0020F8BD01E00020FBE70220F9E7A8
:101EE0002DE9F84F04462068006920F44050E1686D
:101EF0000843216808612169A068084361690843B3
:101F0000E169084300902068C06849F20C61884389
:101F1000009908432168C8602068406920F4407037
:101F2000A16908432168486176492068884203D046
:101F300075492068884203D1FEF744FE814602E0DD
:101F4000FEF730FE8146E069B0F5004F6CD102200B
:101F50006168A0FB015003461920A9FB00700146EF
:101F60002A463846FEF78CF96421B0FBF1F04FEABF
:101F7000001A02206168A0FB01510B461920A9FB41
:101F800000712A463846FEF77BF9834602206168D5
:101F9000A0FB015003461920A9FB00712A463846D0
:101FA000FEF76EF96421B0FBF1F000EBC00101EB2C
:101FB0000010ABEB8000322101EBC0006421B0FBCC
:101FC000F1F000F0F8000AEB400A02206168A0FB83
:101FD000015003461920A9FB007001462A463846E5
:101FE000FEF74EF9834602206168A0FB01500346CC
:101FF0001920A9FB00712A463846FEF741F96421F1
:10200000B0FBF1F000EBC00101EB0010ABEB800086
:10201000322101EBC0006421B0FBF1F000F00700B9
:102020005044216888606AE004206168A0FB015088
:1020300003461920A9FB007001462A463846FEF7E0
:102040001FF9824604206168A0FB01500346192055
:10205000A9FB007001462A463846FEF711F96421B3
:10206000B0FBF1F000EBC00101EB0010AAEB800027
:10207000322101EB00106421B0FBF1F000F0F00A16
:1020800004206168A0FB017003461920A9FB0051E0
:102090003A462846FEF7F4F86421B0FBF1F00AEB6B
:1020A000001A04206168A0FB01510B461920A9FB0E
:1020B00000712A463846FEF7E3F88346042061683B
:1020C000A0FB015003461920A9FB007001462A46D7
:1020D0003846FEF7D5F86421B0FBF1F000EBC00103
:1020E00001EB0010ABEB8000322101EB001064210A
:1020F000B0FBF1F000F00F00504421688860BDE8AB
:10210000F88F0000001001400014014010B5034694
:1021100099629A85DA8500201864222083F83E00AF
:1021200000BF002083F83C0000BF1868C06840F47E
:1021300080701C68E0601868406940F001001C680D
:1021400060611868C06840F020001C68E0600020F2
:1021500010BD014691F83D00212828D18868B0F5CE
:10216000805F0BD1086948B90A6A1088C0F308007B
:102170000B685860086A801C086205E00B6A581CEE
:10218000086218780B685860C88C401E80B2C884FA
:1021900058B90868C06820F080000B68D8600868EB
:1021A000C06840F040000B68D860002070470220F3
:1021B000FCE72DE9F04104460D4617469846069E79
:1021C00034E0701C88B32EB1FEF742FBA0EB080090
:1021D000B0422BD900BF00BF21680C3151E8001F6D
:1021E00021F4D07021680C3141E80002002AF3D1BB
:1021F00000BF00BF00BF2168143151E8001F21F06B
:1022000001002168143141E80002002AF3D100BF27
:10221000202084F83D0084F83E0000BF002084F8B0
:102220003C0000BF0320BDE8F081FFE720680068A4
:102230002840A84201D1012000E00020B842C0D0CF
:102240000020F0E710B50248FEF78EFF10BD000039
:102250007004002010B50248FEF786FF10BD000094
:10226000B404002000BFFEE70FB4054B10B503A96E
:10227000044A029800F048F810BC5DF814FB000016
:10228000CD240008980000200FB4084B10B504A915
:1022900002AA039800F038F8044602A9002000F0D2
:1022A0000FF9204610BC5DF814FB0000C1240008A3
:1022B00002480068C0F30220704700000CED00E007
:1022C00010B5002804DB0A07130E054A135406E074
:1022D0000A07140E034A00F00F031B1FD45410BD4D
:1022E00000E400E018ED00E002E008C8121F08C199
:1022F000002AFAD170477047002001E001C1121F87
:10230000002AFBD1704700002DE9FF4F8BB09A46A1
:102310000F460546002606E025280BD052460D99AB
:1023200090476D1C761C28780028F5D10FB03046F8
:10233000BDE8F08F0024A0460122604900E004437C
:1023400015F8013F203B02FA03F00842F7D1287844
:102350002E2817D115F8010F44F004042A280ED0B6
:102360006FF02F022878A0F1300109290AD808EB74
:10237000880102EB410100EB01086D1CF2E757F800
:10238000048B6D1C287869283ED006DC0028CDD04F
:1023900063280BD0642804D136E0732810D0752848
:1023A0004BD052460D999047761C85E017F8040BE8
:1023B0008DF8000000208DF80100E946012003E0BF
:1023C00057F8049B4FF0FF3061074FF0000401D431
:1023D0000AE0641C44450DDA8442FADB19F8041063
:1023E0000029F6D106E0641C8442FCDB19F80410D5
:1023F0000029F8D1264404E019F8010B52460D9942
:102400009047641EF8D257E001CF4FF00A0B002826
:1024100002DA40422D2102E0210504D52B218DF85E
:102420002410012103E0E10705D02021F7E70DF199
:10243000200908910CE00021F9E701CF4FF00A0BC9
:10244000F9E75946FDF7A1FF01F1300209F8012D26
:102450000028F6D1ADEB090000F1200B600701D494
:102460004FF00108D84502DDA8EB0B0000E000208A
:102470008046002406E009A85246005D0D99904769
:10248000641C761C08988442F5DB04E03020524638
:102490000D999047761CB8F10001A8F10108F5DC10
:1024A00005E019F8010B52460D999047761CBBF1D7
:1024B0000001ABF1010BF4DC6D1C34E709280100CD
:1024C0000A68531C0B6010707047000038B5044652
:1024D0000D46E0B200900223012269460248FFF750
:1024E000A9F8204638BD00007004002070B50446ED
:1024F000002500F029F8A8B900F020F8012811D132
:1025000009A10D48FDF711FF20B90B492046FDF741
:1025100033FF012500F0E0FC00F0D8FC002102A010
:1025200000F056FD284670BD636C6963656E745F8C
:1025300072656365697665009C000020014800684B
:10254000704700000800002010B540210148FEF748
:1025500071F910BD00180240014800687047000082
:102560000400002000BFEFF3058008B10120704790
:102570000020FCE710B5002000F074FD01220249A4
:102580000248FFF729F810BD00000020B404002025
:10259000FEF770F9FFF776FBFFF7E8F8FFF77CF935
:1025A000FFF796F9FFF7B2F800F009F800BFFEE771
:1025B00001460020842901D0CA1C1044704710B580
:1025C00000F0D0FE002010BDF8B504460D46A0680E
:1025D00040B1E06830B10020009094E80F0001F0B5
:1025E00062F8F8BD0022D4E9000101F02FF8F8E705
:1025F0002DE9FF4107460D46144602950020019043
:102600003DB9802000909DE8070087E80700BDE8FD
:10261000FF81002003900026601C08B9761E03E0AD
:1026200014B1264606B90126FFF79CFFB0B103AAF4
:1026300001A9284601F0FAFA012802D110200090E1
:1026400001E0002000900398B8B14FF080500E498F
:102650000860BFF34F8FBFF36F8F0EE0324601A9C2
:10266000284601F02FFA012802D11020009004E042
:102670000EB9002000E0402000909DE8070087E8A8
:10268000070000BFC3E7000004ED00E077B581B0AC
:102690000646144600200090254605B90125FFF79F
:1026A00061FFA8B100236A4602A9304601F08CF907
:1026B000012802D0FF2004B070BD009890B14FF007
:1026C000805009490860BFF34F8FBFF36F8F09E057
:1026D00000232A4602A9304601F0A2F8012801D0C1
:1026E000FF20E8E70020E6E704ED00E07FB50446C0
:1026F0000D46606998B1A06988B1B4F90800FFF788
:1027000057FF0646D4E90510CDE9006102902B463B
:102710002269D4E9001001F067FB039013E0B4F9DB
:102720000800FFF745FF064603A8CDE90060238AAD
:102730009AB22B46D4E9001001F024FB012802D004
:10274000002004B070BD0398FBE700002DE9F041C4
:1027500005460E461C4807681C480068001D00F02E
:1027600093FC50B91948006890F82C10012088405B
:1027700017490968814316480160681C38B936B1A9
:1027800012480168091D134800F0C8FC1AE07C19C2
:102790000E4800684460BC4207D20C480168091D1D
:1027A0000D48006800F0A0FC0CE008480168091D15
:1027B0000A48006800F098FC09480068844201D289
:1027C00007480460BDE8F08144000020300000208C
:1027D00048000020D40500203800002034000020EC
:1027E0006000002010B5044600F0A4FC23480068F7
:1027F000401C224908602248006840B92048046013
:102800000846006801280DD100F0A6F90AE01D482D
:10281000006838B91A480068C06AE16A884201D87D
:102820001748046018480068401C1749086094F86D
:102830002C10012088401549096808431349086095
:10284000E16A01EB8101124A02EB8100211D00F0D7
:1028500065FC00F099FC0B48006868B10848006806
:10286000C06AE16A884207D24FF080500949086087
:10287000BFF34F8FBFF36F8F10BD000040000020EB
:10288000300000204C0000205C00002048000020A8
:10289000F804002004ED00E010B516E000F04AFC5A
:1028A0000C48C068C468201D00F0EEFB0A480068B0
:1028B000401E0949086009480068401E0749086031
:1028C00000F062FC204600F05FF804480068002831
:1028D000E4D110BDC0050020400000203C000020D5
:1028E00070B504460D46206C70B1216CE06801445F
:1028F000E160D4E90210884201D32168E1602846F2
:10290000226CE168FDF7EDFC70BD2DE9F041044655
:102910000F4615464FF00008A66B206C48B920689A
:1029200000282CD1A06801F071FB80460020A06037
:1029300025E07DB93946226C6068FDF7D2FC216C38
:10294000606808446060D4E90101884217D32068B8
:10295000606014E03946226CE068FDF7C2FC216C2F
:10296000E068411AE1602168E068884203D2216C86
:10297000A068411AE160022D01D106B1761E701CDB
:10298000A0634046BDE8F08110B5044694F85100BC
:1029900030B9206B00F016FC204600F013FC1AE062
:1029A00094F85100012803D1204600F00BFC12E0FE
:1029B00094F85100022801D1012000E0002050B914
:1029C00000BF502080F31188BFF34F8FBFF36F8F8C
:1029D00000BF00BFFEE710BD30B54FF4705317487D
:1029E00000F007042CB1C01D20F00700134C041B9D
:1029F0001B1B0246124C22600024114D6C60D01843
:102A0000083820F007000F4C206000240D4D2D6881
:102A10006C600C4D2D682C601146441A4C60094CBA
:102A200024680C60084D4C682C60084D4C682C6084
:102A30004FF00044064D2C6030BD0000E80500203A
:102A40006C000020740000207C0000207800002032
:102A50008800002000BFFFF71FFF0648006801281C
:102A6000F9D94FF0805004490860BFF34F8FBFF38E
:102A70006F8FF0E7F804002004ED00E02DE9F0414D
:102A800006460D4617469846069C0DB9246000E0A0
:102A90002760E66325640121204600F075FEBDE84D
:102AA000F0812DE9FF5F81460E469246DDE90E7BFF
:102AB000109CAAF10100216B01EB800828F00708A7
:102AC00008F0070008B9012000E0002050B900BF5D
:102AD000502080F31188BFF34F8FBFF36F8F00BF7B
:102AE00000BFFEE786B1002507E0715D04F1340008
:102AF0004155705D00B902E06D1C102DF5D300BF8B
:102B000000214320015502E0002084F83400072F03
:102B100000D30627E76267640020A064201D00F050
:102B2000E0FA04F1180000F0DCFA2461C7F10700B4
:102B3000A06164620020E06484F850004946404689
:102B4000039A00F0ADF92060BBF1000F01D0CBF883
:102B50000040BDE8FF9F000010B5002407E004EB33
:102B600084010F4A02EB810000F0AEFA641C072CCE
:102B7000F5D30C4800F0A8FA0B4800F0A5FA0B4872
:102B800000F0A2FA0A4800F09FFA0A4800F09CFA06
:102B900004480949086004480849086010BD00005D
:102BA000F80400208405002098050020AC050020D2
:102BB000C0050020D405002034000020380000208B
:102BC00010B50146164800E0006803688B42FBD34D
:102BD0000246436813448B4204D143684C68234443
:102BE000436001460A464B6813440468A34211D16E
:102BF0000C4C03682468A34208D04B6804686468DE
:102C000023444B6003681B680B6005E0054B1B68A1
:102C10000B6001E003680B60884200D0016010BDCA
:102C20006C0000207400002070B5054600F082FAA8
:102C3000A86B08B9012400E0002400F0A5FA2046A2
:102C400070BD70B5054600F075FAA86BE96B884257
:102C500001D1012400E0002400F096FA204670BD66
:102C60000A490968096809B9012100E0002121B178
:102C70004FF0FF31064A116006E004490968C9684F
:102C8000C868034A416811607047000034000020A2
:102C9000600000200E480068401C08B9012000E0D8
:102CA000002050B900BF502080F31188BFF34F8F30
:102CB000BFF36F8F00BF00BFFEE700BF502080F35F
:102CC0001188BFF34F8FBFF36F8F00BF00BFFEE7C8
:102CD0008C00002070B5044600F02CFA94F94550A1
:102CE00010E0606A08B9012000E0002038B904F162
:102CF000240001F0EFF918B100F012FB00E003E04E
:102D0000681E45B2002DECDC00BFFF2084F84500B2
:102D100000F03AFA00F00EFA94F9445010E02069FD
:102D200008B9012000E0002048B904F1100001F0CA
:102D3000D1F908B100F0F4FA681E45B200E001E0F4
:102D4000002DECDC00BFFF2084F8440000F01CFAEA
:102D500070BD00002DE9F04104464FF0000800F07E
:102D600059FB4948006808B9FFF736FE4748006834
:102D70002040002870D1D4B1083404F00700B0B16D
:102D800004F00700C0F10800044404F0070008B98B
:102D9000012000E0002050B900BF502080F31188CE
:102DA000BFF34F8FBFF36F8F00BF00BFFEE7002C54
:102DB00052D03748006884424ED8364E30460568B7
:102DC00001E02E462D686868A04202D228680028DB
:102DD000F7D12D48006885423ED0306800F10808E0
:102DE000286830606868001B102819D92F1907F06F
:102DF000070008B9012000E0002050B900BF5020B2
:102E000080F31188BFF34F8FBFF36F8F00BF00BFF8
:102E1000FEE76868001B78606C603846FFF7D0FEFC
:102E20001B4968680968081A19490860084600685B
:102E300019490968884203D2154800681649086094
:102E400012496868096808436860002028601348D0
:102E50000068401C1149086001F088F908F007007B
:102E600008B9012000E0002050B900BF502080F3D5
:102E70001188BFF34F8FBFF36F8F00BF00BFFEE716
:102E80004046BDE8F081000074000020880000206A
:102E9000780000206C0000207C00002080000020D2
:102EA000001F4FF080730360001F21F001030360D7
:102EB000001F054B036014380260001F6FF002030F
:102EC0000360203870470000952C0008002001495D
:102ED000086070470800002000200A49087009E0D7
:102EE00000200949074A1278885406480078401C97
:102EF00004490870034800782028F1DB00200149CC
:102F000008707047010000209C000020002001494B
:102F1000086070470400002010B51F48007823287F
:102F200003D101201D4908702FE01B480078242898
:102F300017D11BA0FFF798F91D491EA0FDF70EFA47
:102F400028B901201F490860FFF7C6FF1DE0FFF701
:102F5000FBFA18B901201C49086016E0FFF7BCFF16
:102F600013E00E48007800280FDD0C480078802818
:102F70000BDC0948017809480078401E0C4A1154BE
:102F800006480078401C05490870012202490F4894
:102F9000FEF722FB10BD0000000000200100002011
:102FA000CAD5B5BDC1CBCFFBCFA20D0A0000000032
:102FB0009C000020636C6963656E745F7265636575
:102FC000697665000400002008000020B404002099
:102FD0002DE9F04104460D460026012000F042F89C
:102FE00080211648FDF796F9224615A11348FFF7F0
:102FF0004BF91248FDF7ABF987B24FF47A733A46B2
:103000000E491148FEF716FB0AE06420FDF784FA2A
:10301000FFF7A2FA20B101260CA0FFF725F903E083
:10302000281EA5F10105F0D100BFFFF76FFF0020BA
:1030300000F018F83046BDE8F08100009C01002047
:103040002325732400000000B40400200D0AB6D428
:10305000B7BDB3C9B9A6CAD5B5BDCFFBCFA20D0ABE
:103060000000000010B504462CB90022402105489C
:10307000FDF7E8FB04E0012240210248FDF7E2FBF6
:1030800010BD00000018024001460A69D1E9013074
:103090009860D1E9010358605068884201D188687E
:1030A0005060002008611068401E10601068704772
:1030B000034B0360034B0B608023136070470000D9
:1030C0001C0200207002002000F1080141604FF056
:1030D000FF31816000F10801C160016100210160E0
:1030E000704700210161704710B502460B685C1CF7
:1030F0000CB9106907E002F1080000E0406844687C
:1031000024689C42FAD944684C604C68A16088608D
:1031100041600A611468641C146010BD42684A6012
:1031200093688B60936859609160086103685B1CC9
:103130000360704700BF502080F31188BFF34F8FAA
:10314000BFF36F8F00BF0E480068401C0C49086039
:1031500008460068012812D10A480068C0B208B9C0
:10316000012000E0002050B900BF502080F31188FA
:10317000BFF34F8FBFF36F8F00BF00BFFEE77047F5
:103180008C00002004ED00E00D48006850B900BF3D
:10319000502080F31188BFF34F8FBFF36F8F00BFB4
:1031A00000BFFEE706480068401E05490860084663
:1031B000006820B9002080F3118800BF00BF70476D
:1031C0008C00002070B506463546002E44D0083DE0
:1031D0002C46224960680968084008B1012000E0D7
:1031E000002050B900BF502080F31188BFF34F8FEB
:1031F000BFF36F8F00BF00BFFEE7206808B9012052
:1032000000E0002050B900BF502080F31188BFF3C8
:103210004F8FBFF36F8F00BF00BFFEE70F4960689D
:1032200009680840C0B12068B0B90C4960680968F5
:103230008843606000F0EEF8094960680968084456
:10324000074908602046FFF7BBFC06480068401CA1
:103250000449086000F08AFF70BD0000880000206B
:10326000780000208400002000204FF0E021086159
:103270008861064800684FF47A71B0FBF1F0401E97
:103280004FF0E02148610720086170472C000020C2
:1032900070B5FCF7DFFF0446102C16D304F1E020D4
:1032A00090F8F05315480078854201DB012000E0DA
:1032B000002050B900BF502080F31188BFF34F8F1A
:1032C000BFF36F8F00BF00BFFEE70D48006800F43A
:1032D000E0600C490968884201D8012000E0002024
:1032E00050B900BF502080F31188BFF34F8FBFF358
:1032F0006F8F00BF00BFFEE770BD00009000002090
:103300000CED00E0940000200349096801600349C6
:103310000968416070470000580000204400002008
:1033200001200149086070475400002070B5044630
:103330000D4654B900BF502080F31188BFF34F8F62
:10334000BFF36F8F00BF00BFFEE70548016818316B
:103350002046FFF7C9FE01212846FFF7F7F970BDA7
:103360003000002010B586B000200590049003AA1C
:1033700004A905A8FFF79CFE0022DDE9041013460E
:10338000CDE9002102901CA11D48039A00F02CFDFC
:103390001C4908600846006808B1012400E00024C8
:1033A000012C15D100BF502080F31188BFF34F8F3F
:1033B000BFF36F8F00BF4FF0FF301349086001204B
:1033C0001249086000201249086000F071F810E00E
:1033D000601C08B1012000E0002050B900BF50205F
:1033E00080F31188BFF34F8FBFF36F8F00BF00BF13
:1033F000FEE706B010BD000049444C450000000047
:10340000552A000864000020600000204C000020C5
:103410004400002002480068401C014908607047D1
:10342000680000201D48006818B101201C49086090
:1034300032E000201A4908601A480068B0FA80F0AB
:10344000C0F11F0101EB8100174A52F8200008B1BA
:10345000012000E0002050B900BF502080F3118807
:10346000BFF34F8FBFF36F8F00BF00BFFEE701EBCD
:1034700081020D4B03EB820042685268426000F10A
:1034800008024368934202D142685268426042682F
:10349000D268064B1A6000BF704700006800002029
:1034A0005400002048000020F804002030000020D4
:1034B0001CB5524800685249884201D0012000E002
:1034C000002050B900BF502080F31188BFF34F8F08
:1034D000BFF36F8F00BF00BFFEE748480068484950
:1034E000491E884201D0012000E0002050B900BFF1
:1034F000502080F31188BFF34F8FBFF36F8F00BF51
:1035000000BFFEE73F49084600780190FF200A46C9
:1035100010700846007800909DF8000000F0F00060
:103520009DF80020904201D1012000E0002050B918
:1035300000BF502080F31188BFF34F8FBFF36F8F10
:1035400000BF00BFFEE79DF8000000F050002E4ACB
:10355000107007202D4A106009E02C480068401EBA
:103560002A4A10609DF800004006000E00909DF869
:10357000000000F080008028EFD024480068C0F1EF
:103580000700042801D1012000E0002050B900BF4D
:10359000502080F31188BFF34F8FBFF36F8F00BFB0
:1035A00000BFFEE7194800680002184A1060104684
:1035B000008800F4E0601060124A019810700F4813
:1035C0002030006840F470000C4920310860084643
:1035D000006840F070400860FFF746FE00200C498C
:1035E0000860FCF7FFFD0B48006840F040400949C7
:1035F0000860FCF7E3FD00201CBD000000ED00E0CA
:1036000071C20F4100E400E090000020940000200F
:103610008C00002034EF00E010B500BF502080F394
:103620001188BFF34F8FBFF36F8F00BF00F04AFCCC
:1036300018B14FF080500449086000BF002080F3AB
:10364000118800BF10BD000004ED00E02DE9F84333
:1036500005460E4617460DB1012000E0002050B986
:1036600000BF502080F31188BFF34F8FBFF36F8FDF
:1036700000BF00BFFEE705FB06F808F14800FFF7B2
:1036800069FB044664B1A14609F14809002084F8A9
:1036900046003B464A46314628460094FFF7EEF97D
:1036A0002046BDE8F8832DE9F84380460E461746CC
:1036B0001D46DDF82090B8F1000F01D0012000E098
:1036C000002050B900BF502080F31188BFF34F8F06
:1036D000BFF36F8F00BF00BFFEE70DB1012000E018
:1036E000002050B900BF502080F31188BFF34F8FE6
:1036F000BFF36F8F00BF00BFFEE707B10EB101201F
:1037000000E0002050B900BF502080F31188BFF3C3
:103710004F8FBFF36F8F00BF00BFFEE707B90EB931
:10372000012000E0002050B900BF502080F3118834
:10373000BFF34F8FBFF36F8F00BF00BFFEE748207E
:1037400000900098482801D1012000E0002050B9E5
:1037500000BF502080F31188BFF34F8FBFF36F8FEE
:1037600000BF00BFFEE700BF2C464CB1012084F82B
:1037700046004B463A46314640460094FFF77EF9F4
:103780002046BDE8F883000070B505460E462C467D
:1037900054B900BF502080F31188BFF34F8FBFF39F
:1037A0006F8F00BF00BFFEE7FFF7C4FCD4E90F1224
:1037B000206801FB0200A0600020A0632068606018
:1037C000E06B401E226C216800FB0211E160FF20CB
:1037D00084F8440084F845009EB9206908B90120A6
:1037E00000E00020A8B904F1100000F073FC80B1E3
:1037F0004FF0805009490860BFF34F8FBFF36F8FC0
:1038000007E004F11000FFF75FFC04F12400FFF76C
:103810005BFCFFF7B9FC012070BD000004ED00E087
:103820002DE9FF4383B0064688461D464FF0000948
:10383000344654B900BF502080F31188BFF34F8F36
:10384000BFF36F8F00BF00BFFEE7B8F1000F01D1DB
:10385000206C08B9012000E0002050B900BF5020C2
:1038600080F31188BFF34F8FBFF36F8F00BF00BF8E
:10387000FEE7022D02D1E06B012801D1012000E01A
:10388000002050B900BF502080F31188BFF34F8F44
:10389000BFF36F8F00BF00BFFEE700F003FB08B966
:1038A000059808B9012000E0002050B900BF502061
:1038B00080F31188BFF34F8FBFF36F8F00BF00BF3E
:1038C000FEE700BFFFF736FCA06BE16B884201D337
:1038D000022D28D12A4641462046FFF716F8074612
:1038E000606A08B9012000E0002068B904F12400F2
:1038F00000F0F0FB88B14FF0805032490860BFF310
:103900004F8FBFF36F8F08E03FB14FF080502D49CC
:103910000860BFF34F8FBFF36F8FFFF735FC0120B7
:1039200007B0BDE8F083059818B9FFF72DFC00201B
:10393000F6E7B9F1000F04D101A8FFF7E5FC4FF05D
:103940000109FFF721FCFFF765FDFFF7F3FB94F991
:103950004400401C10B9002084F8440094F945004C
:10396000401C10B9002084F84500FFF70DFC05A9A4
:1039700001A800F0C1F9F0B92046FFF762F9A0B143
:1039800004F110000599FFF7D1FC2046FFF7A2F9DA
:1039900000F0ECFB002895D14FF0805009490860F9
:1039A000BFF34F8FBFF36F8F8CE72046FFF792F97D
:1039B00000F0DCFB86E72046FFF78CF900F0D6FB31
:1039C0000020ADE704ED00E02DE9F84F07468A46F8
:1039D00090461E463C4654B900BF502080F31188E3
:1039E000BFF34F8FBFF36F8F00BF00BFFEE7BAF189
:1039F000000F01D1206C08B9012000E0002050B96F
:103A000000BF502080F31188BFF34F8FBFF36F8F3B
:103A100000BF00BFFEE7022E02D1E06B012801D1FA
:103A2000012000E0002050B900BF502080F3118831
:103A3000BFF34F8FBFF36F8F00BF00BFFEE7FFF7ED
:103A400027FC00BF5021EFF3118081F31188BFF3F1
:103A50004F8FBFF36F8F00BF0546A06BE16B8842AD
:103A600001D3022E25D194F945B0A06B00903246C7
:103A700051462046FEF749FF0BF1010088B9606A04
:103A800008B9012000E0002050B904F1240000F042
:103A900021FB28B1B8F1000F02D00120C8F80000C6
:103AA00004E00BF1010040B284F845004FF0010939
:103AB00001E04FF0000900BF85F3118800BF4846C0
:103AC000BDE8F88F2DE9F74183B005460E464FF06B
:103AD00000082C4654B900BF502080F31188BFF372
:103AE0004F8FBFF36F8F00BF00BFFEE70EB9206C92
:103AF00008B9012000E0002050B900BF502080F339
:103B00001188BFF34F8FBFF36F8F00BF00BFFEE779
:103B100000F0C8F908B9059808B9012000E00020B4
:103B200050B900BF502080F31188BFF34F8FBFF30F
:103B30006F8F00BF00BFFEE700BFFFF7FBFAA76B68
:103B4000F7B131462046FEF7CBFE781EA063206910
:103B500008B9012000E0002060B904F1100000F075
:103B6000B9FA38B14FF080502F490860BFF34F8F3A
:103B7000BFF36F8FFFF708FB012006B0BDE8F081AF
:103B8000059818B9FFF700FB0020F6E7B8F1000F21
:103B900004D101A8FFF7B8FB4FF00108FFF7F4FAD2
:103BA000FFF738FCFFF7C6FA94F94400401C10B93F
:103BB000002084F8440094F94500401C10B900200E
:103BC00084F84500FFF7E0FA05A901A800F094F891
:103BD000F0B92046FFF728F8A0B104F124000599B8
:103BE000FFF7A4FB2046FFF775F800F0BFFA0028A6
:103BF000A3D14FF080500C490860BFF34F8FBFF343
:103C00006F8F9AE72046FFF765F800F0AFFA94E768
:103C10002046FFF75FF800F0A9FA2046FFF704F806
:103C200000288AD00020A8E704ED00E02DE9F05F2D
:103C3000064689461746344654B900BF502080F3E3
:103C40001188BFF34F8FBFF36F8F00BF00BFFEE738
:103C5000B9F1000F01D1206C08B9012000E000206B
:103C600050B900BF502080F31188BFF34F8FBFF3CE
:103C70006F8F00BF00BFFEE7FFF70AFB00BF5021B8
:103C8000EFF3118081F31188BFF34F8FBFF36F8F74
:103C900000BF0546D4F838A0BAF1000F22D094F93D
:103CA00044B049462046FEF71BFEAAF10100A0637E
:103CB0000BF1010070B9206908B9012000E0002073
:103CC00068B904F1100000F005FA40B13FB10120DD
:103CD000386004E00BF1010040B284F844004FF07A
:103CE000010801E04FF0000800BF85F3118800BF14
:103CF0004046BDE8F09F000070B505460C4655B93A
:103D000000BF502080F31188BFF34F8FBFF36F8F38
:103D100000BF00BFFEE754B900BF502080F31188F8
:103D2000BFF34F8FBFF36F8F00BF00BFFEE7FFF7FA
:103D300001FA124802686868131A2068401C08B922
:103D4000002617E00E4928680968884204D0686890
:103D5000904201D801260DE02068984207D92068DA
:103D6000C01A20602846FFF7CFFA002602E00020A4
:103D700020600126FFF708FA304670BD440000209D
:103D8000580000202DE9FF4F85B080468946174630
:103D9000DDE912ABB800FEF7DDFF064656B1542050
:103DA000FEF7D8FF04460CB1266304E03046FFF767
:103DB00009FA00E000248CB1002084F85100CDE91C
:103DC00000ABCDE902403A4649464046089BFEF723
:103DD00068FE2046FEF706FD012501E04FF0FF35A5
:103DE000284609B0BDE8F08F2DE9F04F85B00746B1
:103DF000884691469A46DDE90EB6109C0EB1012028
:103E000000E0002050B900BF502080F31188BFF3BC
:103E10004F8FBFF36F8F00BF00BFFEE70CB10120D3
:103E200000E0002050B900BF502080F31188BFF39C
:103E30004F8FBFF36F8F00BF00BFFEE7542003908A
:103E40000398542801D1012000E0002050B900BFA0
:103E5000502080F31188BFF34F8FBFF36F8F00BFE7
:103E600000BFFEE700BFB4B1AEB125462C462E63BD
:103E7000022085F85100002004A953464A46CDE9A6
:103E800000B1CDE9025041463846FEF70AFE284609
:103E9000FEF7A8FC01E000200490049805B0BDE8FE
:103EA000F08F00000549096809B9012005E00449BF
:103EB000096809B9022000E0002070474C0000208A
:103EC000680000202DE9F0414FF0000844480068E8
:103ED00000287CD143480068451C4248056015BB5A
:103EE00041480068006808B9012000E0002050B98E
:103EF00000BF502080F31188BFF34F8FBFF36F8F47
:103F000000BF00BFFEE738480768384800683649F8
:103F100008603648076036480068401C344908602D
:103F2000FEF79EFE00BF3348006885423CD300BFC9
:103F30002D480068006808B9012000E0002020B189
:103F40004FF0FF302B4908602DE027480068C0681B
:103F5000C4686668B54202D22648066023E0201D88
:103F6000FFF792F8A06A18B104F11800FFF78CF877
:103F700094F82C10012088401F49096808431E4905
:103F80000860E16A01EB81011C4A02EB8100211DFE
:103F9000FFF7C4F81A49E06A0968C96A8842C7D3BA
:103FA0004FF00108C4E700BF15480068C06A00EB85
:103FB0008000124951F82000012801D94FF0010872
:103FC0001048006808B14FF0010805E0FFE70E480F
:103FD0000068401C0C4908604046BDE8F0810000C4
:103FE0006800002044000020340000203800002039
:103FF000580000206000002048000020F804002045
:1040000030000020540000205000002070B505460C
:104010002C460026002D55D02B480068844201D143
:10402000012000E0002050B900BF502080F311882B
:10403000BFF34F8FBFF36F8F00BF00BFFEE7A06CD1
:1040400050B900BF502080F31188BFF34F8FBFF3EA
:104050006F8F00BF00BFFEE7A06C401EA064616CC4
:10406000E06A88422ED0A06C60BB201DFFF70CF8E0
:1040700078B9E06A00EB8000144951F8200040B99B
:1040800094F82C1001208840114909688143104898
:104090000160606CE062E06AC0F10700A06194F822
:1040A0002C10012088400A49096808430849086023
:1040B000E16A01EB8101054A02EB8100211DFFF756
:1040C0002DF80126304670BD30000020F804002095
:1040D0004800002070B50646F068C46854B900BFB7
:1040E000502080F31188BFF34F8FBFF36F8F00BF55
:1040F00000BFFEE704F11800FEF7C6FF1548006890
:10410000A8B9201DFEF7C0FF94F82C1001208840AC
:1041100011490968084310490860E16A01EB81010F
:104120000E4A02EB8100211DFEF7F8FF04E004F1C6
:1041300018010B48FEF7F2FF0A49E06A0968C96AEC
:10414000884204D9012501200749086000E00025C4
:10415000284670BD6800002048000020F8040020B8
:10416000AC050020300000205400002070B5002471
:1041700000263648006850B900BF502080F31188EF
:10418000BFF34F8FBFF36F8F00BF00BFFEE7FEF797
:10419000D1FF2E480068401E2C4908600846006880
:1041A00000284FD12A48006800284BD024E0294835
:1041B000C068C46804F11800FEF766FF201DFEF712
:1041C00063FF94F82C1001208840234909680843B4
:1041D00021490860E16A01EB8101204A02EB81007C
:1041E000211DFEF79BFF1E49E06A0968C96A8842E3
:1041F00002D301201B4908601648006808B9012055
:1042000000E000200028D2D00CB1FEF729FD1648AE
:10421000056865B100BFFFF755FE10B101201149D7
:1042200008606D1E002DF6D100200F4908600D4872
:10423000006838B1012630070C490860BFF34F8F82
:10424000BFF36F8FFEF7A0FF304670BD68000020FF
:1042500040000020AC05002048000020F8040020A9
:1042600030000020540000205000002004ED00E049
:10427000020000000100000000000000000000003B
:10428000D0420008111900080000000000000000E2
:10429000800000000000000000000000E042000874
:1042A000ED1A0008FEFF0000000000008000000082
:1042B00000000000000000000000000000000000FE
:1042C00001020304060708090000000001020304BC
:1042D0005253343835526561645461736B00000089
:1042E000525334383557726974655461736B0000EA
:1042F00010430008000000209C000000E822000895
:10430000AC4300089C0000204C450000F822000847
:10431000000000000000000000000000000000009D
:10432000000000000000000000000000000000008D
:104330000000000010000000010000000024F40054
:10434000000000000000000000000000000000006D
:10435000000000000000000000000000000000005D
:10436000000000000000000000000000000000004D
:10437000000000000000000000000000000000003D
:10438000000000000000000000000000000000002D
:10439000000000000000000000000000AAAAAAAA75
:0C43A00000000000000000000000000011
:040000050800018965
:00000001FF
